{"abi":[{"type":"constructor","inputs":[{"name":"_owner","type":"address","internalType":"address"},{"name":"_caller","type":"address","internalType":"address"},{"name":"_account","type":"address","internalType":"address"}],"stateMutability":"nonpayable"},{"type":"function","name":"NAME","inputs":[],"outputs":[{"name":"","type":"bytes32","internalType":"bytes32"}],"stateMutability":"view"},{"type":"function","name":"TYPE","inputs":[],"outputs":[{"name":"","type":"bytes32","internalType":"bytes32"}],"stateMutability":"view"},{"type":"function","name":"VERSION","inputs":[],"outputs":[{"name":"","type":"uint256","internalType":"uint256"}],"stateMutability":"view"},{"type":"function","name":"_NAME","inputs":[],"outputs":[{"name":"","type":"string","internalType":"string"}],"stateMutability":"view"},{"type":"function","name":"acceptOwner","inputs":[],"outputs":[],"stateMutability":"nonpayable"},{"type":"function","name":"account","inputs":[],"outputs":[{"name":"","type":"address","internalType":"address"}],"stateMutability":"view"},{"type":"function","name":"addAuthorizer","inputs":[{"name":"isDelegateCall","type":"bool","internalType":"bool"},{"name":"role","type":"bytes32","internalType":"bytes32"},{"name":"authorizer","type":"address","internalType":"address"}],"outputs":[],"stateMutability":"nonpayable"},{"type":"function","name":"authorizerSize","inputs":[{"name":"isDelegateCall","type":"bool","internalType":"bool"},{"name":"role","type":"bytes32","internalType":"bytes32"}],"outputs":[{"name":"","type":"uint256","internalType":"uint256"}],"stateMutability":"view"},{"type":"function","name":"caller","inputs":[],"outputs":[{"name":"","type":"address","internalType":"address"}],"stateMutability":"view"},{"type":"function","name":"collectHint","inputs":[{"name":"preAuthData","type":"tuple","internalType":"struct AuthorizerReturnData","components":[{"name":"result","type":"uint8","internalType":"enum AuthResult"},{"name":"message","type":"string","internalType":"string"},{"name":"data","type":"bytes","internalType":"bytes"}]},{"name":"postAuthData","type":"tuple","internalType":"struct AuthorizerReturnData","components":[{"name":"result","type":"uint8","internalType":"enum AuthResult"},{"name":"message","type":"string","internalType":"string"},{"name":"data","type":"bytes","internalType":"bytes"}]}],"outputs":[{"name":"hint","type":"bytes","internalType":"bytes"}],"stateMutability":"view"},{"type":"function","name":"flag","inputs":[],"outputs":[{"name":"","type":"uint256","internalType":"uint256"}],"stateMutability":"view"},{"type":"function","name":"getAllAuthorizers","inputs":[{"name":"isDelegateCall","type":"bool","internalType":"bool"},{"name":"role","type":"bytes32","internalType":"bytes32"}],"outputs":[{"name":"","type":"address[]","internalType":"address[]"}],"stateMutability":"view"},{"type":"function","name":"getAllRoles","inputs":[],"outputs":[{"name":"","type":"bytes32[]","internalType":"bytes32[]"}],"stateMutability":"view"},{"type":"function","name":"getAuthorizer","inputs":[{"name":"isDelegateCall","type":"bool","internalType":"bool"},{"name":"role","type":"bytes32","internalType":"bytes32"},{"name":"i","type":"uint256","internalType":"uint256"}],"outputs":[{"name":"","type":"address","internalType":"address"}],"stateMutability":"view"},{"type":"function","name":"getAuthorizers","inputs":[{"name":"isDelegateCall","type":"bool","internalType":"bool"},{"name":"role","type":"bytes32","internalType":"bytes32"},{"name":"start","type":"uint256","internalType":"uint256"},{"name":"end","type":"uint256","internalType":"uint256"}],"outputs":[{"name":"auths","type":"address[]","internalType":"address[]"}],"stateMutability":"view"},{"type":"function","name":"hasAuthorizer","inputs":[{"name":"isDelegateCall","type":"bool","internalType":"bool"},{"name":"role","type":"bytes32","internalType":"bytes32"},{"name":"auth","type":"address","internalType":"address"}],"outputs":[{"name":"","type":"bool","internalType":"bool"}],"stateMutability":"view"},{"type":"function","name":"initialize","inputs":[{"name":"_owner","type":"address","internalType":"address"},{"name":"_caller","type":"address","internalType":"address"}],"outputs":[],"stateMutability":"nonpayable"},{"type":"function","name":"initialize","inputs":[{"name":"_owner","type":"address","internalType":"address"},{"name":"_caller","type":"address","internalType":"address"},{"name":"_account","type":"address","internalType":"address"}],"outputs":[],"stateMutability":"nonpayable"},{"type":"function","name":"initialize","inputs":[{"name":"_owner","type":"address","internalType":"address"}],"outputs":[],"stateMutability":"nonpayable"},{"type":"function","name":"owner","inputs":[],"outputs":[{"name":"","type":"address","internalType":"address"}],"stateMutability":"view"},{"type":"function","name":"paused","inputs":[],"outputs":[{"name":"","type":"bool","internalType":"bool"}],"stateMutability":"view"},{"type":"function","name":"pendingOwner","inputs":[],"outputs":[{"name":"","type":"address","internalType":"address"}],"stateMutability":"view"},{"type":"function","name":"postExecCheck","inputs":[{"name":"transaction","type":"tuple","internalType":"struct TransactionData","components":[{"name":"from","type":"address","internalType":"address"},{"name":"delegate","type":"address","internalType":"address"},{"name":"flag","type":"uint256","internalType":"uint256"},{"name":"to","type":"address","internalType":"address"},{"name":"value","type":"uint256","internalType":"uint256"},{"name":"data","type":"bytes","internalType":"bytes"},{"name":"hint","type":"bytes","internalType":"bytes"},{"name":"extra","type":"bytes","internalType":"bytes"}]},{"name":"callResult","type":"tuple","internalType":"struct TransactionResult","components":[{"name":"success","type":"bool","internalType":"bool"},{"name":"data","type":"bytes","internalType":"bytes"},{"name":"hint","type":"bytes","internalType":"bytes"}]},{"name":"preData","type":"tuple","internalType":"struct AuthorizerReturnData","components":[{"name":"result","type":"uint8","internalType":"enum AuthResult"},{"name":"message","type":"string","internalType":"string"},{"name":"data","type":"bytes","internalType":"bytes"}]}],"outputs":[{"name":"authData","type":"tuple","internalType":"struct AuthorizerReturnData","components":[{"name":"result","type":"uint8","internalType":"enum AuthResult"},{"name":"message","type":"string","internalType":"string"},{"name":"data","type":"bytes","internalType":"bytes"}]}],"stateMutability":"nonpayable"},{"type":"function","name":"postExecProcess","inputs":[{"name":"transaction","type":"tuple","internalType":"struct TransactionData","components":[{"name":"from","type":"address","internalType":"address"},{"name":"delegate","type":"address","internalType":"address"},{"name":"flag","type":"uint256","internalType":"uint256"},{"name":"to","type":"address","internalType":"address"},{"name":"value","type":"uint256","internalType":"uint256"},{"name":"data","type":"bytes","internalType":"bytes"},{"name":"hint","type":"bytes","internalType":"bytes"},{"name":"extra","type":"bytes","internalType":"bytes"}]},{"name":"callResult","type":"tuple","internalType":"struct TransactionResult","components":[{"name":"success","type":"bool","internalType":"bool"},{"name":"data","type":"bytes","internalType":"bytes"},{"name":"hint","type":"bytes","internalType":"bytes"}]}],"outputs":[],"stateMutability":"nonpayable"},{"type":"function","name":"preExecCheck","inputs":[{"name":"transaction","type":"tuple","internalType":"struct TransactionData","components":[{"name":"from","type":"address","internalType":"address"},{"name":"delegate","type":"address","internalType":"address"},{"name":"flag","type":"uint256","internalType":"uint256"},{"name":"to","type":"address","internalType":"address"},{"name":"value","type":"uint256","internalType":"uint256"},{"name":"data","type":"bytes","internalType":"bytes"},{"name":"hint","type":"bytes","internalType":"bytes"},{"name":"extra","type":"bytes","internalType":"bytes"}]}],"outputs":[{"name":"authData","type":"tuple","internalType":"struct AuthorizerReturnData","components":[{"name":"result","type":"uint8","internalType":"enum AuthResult"},{"name":"message","type":"string","internalType":"string"},{"name":"data","type":"bytes","internalType":"bytes"}]}],"stateMutability":"nonpayable"},{"type":"function","name":"preExecProcess","inputs":[{"name":"transaction","type":"tuple","internalType":"struct TransactionData","components":[{"name":"from","type":"address","internalType":"address"},{"name":"delegate","type":"address","internalType":"address"},{"name":"flag","type":"uint256","internalType":"uint256"},{"name":"to","type":"address","internalType":"address"},{"name":"value","type":"uint256","internalType":"uint256"},{"name":"data","type":"bytes","internalType":"bytes"},{"name":"hint","type":"bytes","internalType":"bytes"},{"name":"extra","type":"bytes","internalType":"bytes"}]}],"outputs":[],"stateMutability":"nonpayable"},{"type":"function","name":"removeAuthorizer","inputs":[{"name":"isDelegateCall","type":"bool","internalType":"bool"},{"name":"role","type":"bytes32","internalType":"bytes32"},{"name":"authorizer","type":"address","internalType":"address"}],"outputs":[],"stateMutability":"nonpayable"},{"type":"function","name":"renounceOwnership","inputs":[],"outputs":[],"stateMutability":"nonpayable"},{"type":"function","name":"setAccount","inputs":[{"name":"_account","type":"address","internalType":"address"}],"outputs":[],"stateMutability":"nonpayable"},{"type":"function","name":"setCaller","inputs":[{"name":"_caller","type":"address","internalType":"address"}],"outputs":[],"stateMutability":"nonpayable"},{"type":"function","name":"setPaused","inputs":[{"name":"_paused","type":"bool","internalType":"bool"}],"outputs":[],"stateMutability":"nonpayable"},{"type":"function","name":"setPendingOwner","inputs":[{"name":"to","type":"address","internalType":"address"}],"outputs":[],"stateMutability":"nonpayable"},{"type":"function","name":"setTag","inputs":[{"name":"_tag","type":"bytes32","internalType":"bytes32"}],"outputs":[],"stateMutability":"nonpayable"},{"type":"function","name":"tag","inputs":[],"outputs":[{"name":"","type":"bytes32","internalType":"bytes32"}],"stateMutability":"view"},{"type":"function","name":"transferOwnership","inputs":[{"name":"newOwner","type":"address","internalType":"address"}],"outputs":[],"stateMutability":"nonpayable"},{"type":"event","name":"AccountSet","inputs":[{"name":"account","type":"address","indexed":true,"internalType":"address"}],"anonymous":false},{"type":"event","name":"AuthorizerRemoved","inputs":[{"name":"isDelegateCall","type":"bool","indexed":true,"internalType":"bool"},{"name":"role","type":"bytes32","indexed":true,"internalType":"bytes32"},{"name":"authorizer","type":"address","indexed":true,"internalType":"address"}],"anonymous":false},{"type":"event","name":"CallerSet","inputs":[{"name":"caller","type":"address","indexed":true,"internalType":"address"}],"anonymous":false},{"type":"event","name":"NewAuthorizerAdded","inputs":[{"name":"isDelegateCall","type":"bool","indexed":true,"internalType":"bool"},{"name":"role","type":"bytes32","indexed":true,"internalType":"bytes32"},{"name":"authorizer","type":"address","indexed":true,"internalType":"address"}],"anonymous":false},{"type":"event","name":"NewOwnerSet","inputs":[{"name":"owner","type":"address","indexed":true,"internalType":"address"}],"anonymous":false},{"type":"event","name":"NewProcessAdded","inputs":[{"name":"isDelegateCall","type":"bool","indexed":true,"internalType":"bool"},{"name":"authorizer","type":"address","indexed":true,"internalType":"address"}],"anonymous":false},{"type":"event","name":"PausedSet","inputs":[{"name":"status","type":"bool","indexed":true,"internalType":"bool"}],"anonymous":false},{"type":"event","name":"PendingOwnerSet","inputs":[{"name":"to","type":"address","indexed":true,"internalType":"address"}],"anonymous":false},{"type":"event","name":"ProcessRemoved","inputs":[{"name":"isDelegateCall","type":"bool","indexed":true,"internalType":"bool"},{"name":"authorizer","type":"address","indexed":true,"internalType":"address"}],"anonymous":false},{"type":"event","name":"TagSet","inputs":[{"name":"tag","type":"bytes32","indexed":true,"internalType":"bytes32"}],"anonymous":false}],"bytecode":{"object":"0x6080346100ff57601f6131ad38819003918201601f19168301916001600160401b03831184841017610103578084926060946040528339810103126100ff5761004781610117565b90610060604061005960208401610117565b9201610117565b6001545f80546001600160a01b0319166001600160a01b03909516948517815560405194929392907f038720101b9ced74445432ced46c7e5e4c80202669153dd67d226c66a0aa477b9080a26001600160b01b031916600160a01b176001555f600255600380546001600160a01b03199081166001600160a01b03938416179091556004805490911692909116919091179055613081908161012c8239f35b5f80fd5b634e487b7160e01b5f52604160045260245ffd5b51906001600160a01b03821682036100ff5756fe6080806040526004361015610012575f80fd5b5f3560e01c90816308dbebf61461105c5750806316c38b3c14610feb57806328562c6a14610f9257806329f6d57c14610ee4578063485cc95514610eba57806351f9106614610e9d5780635c975abb14610e785780635dab242014610e505780636000cfbb14610ccd5780636bdc489e14610c7d5780636f6a565914610bfb578063715018a614610b8b5780637c4c833b14610b02578063890eba6814610ae25780638da5cb5b14610abb5780639d5228e8146109f45780639dfd2019146109b7578063a192897c1461089e578063a3f4df7e1461086d578063a5314988146107ea578063b695e2ef14610794578063bb24fe8a1461076f578063beb92f55146106c2578063c0c53b8b14610649578063c42069ec146105d4578063c4d66de8146105b3578063d58c3fc314610574578063e30c39781461054c578063ebbc49651461051f578063f26600271461049f578063f2bcac3d146103e9578063f2fde38b14610368578063f974cf09146101e4578063fc9c8d39146101bc5763ffa1ad741461019d575f80fd5b346101b8575f3660031901126101b857602060405160018152f35b5f80fd5b346101b8575f3660031901126101b8576003546040516001600160a01b039091168152602090f35b346101b8576101f23661114f565b5f54610211906001600160a01b03166102096112c2565b9033146112e3565b604051631121d74d60e31b81526001600160a01b039190911692602082600481875afa91821561035d575f92610329575b5061024c83612dc6565b50151591825f52600860205260405f20815f5260205261026f8460405f20612e1b565b61027557005b8390837fd46106481e77b634fbbb2df03a3e15989faf5dfcd556c94702ca66dc5106e3495f80a4806005541760055560048116159081159161031c575b506102ba575b005b805f5260096020526102f66102d28360405f20612e1b565b604051906102e1604083611286565b6003825262229a9b60e91b60208301526112e3565b7fffd4c7f6ab86aa2243a178e9634bb19f4b1f3821e2b401f08fa6f4d862b593815f80a3005b60089150161515836102b2565b9091506020813d602011610355575b8161034560209383611286565b810103126101b857519084610242565b3d9150610338565b6040513d5f823e3d90fd5b346101b85760203660031901126101b85761038161110f565b5f54610398906001600160a01b03166102096112c2565b6001600160a01b038116156103b0576102b8906114dc565b60405162461bcd60e51b81526020600482015260116024820152704e6577204f776e6572206973207a65726f60781b6044820152606490fd5b346101b8575f3660031901126101b8576040518060206006549283815201809260065f527ff652222313e28459528d920b65115c16c04f3efc82aaedc97be59f3f377c0d3f905f5b8181106104895750505081610447910382611286565b604051918291602083019060208452518091526040830191905f5b818110610470575050500390f35b8251845285945060209384019390920191600101610462565b8254845260209093019260019283019201610431565b346101b85761050c6104b036611223565b6104b86113f7565b6104d660018060a01b036003541633146104d06113d6565b906112e3565b9060ff60015460a81c165f1461051057505f81526104f2611416565b60208201525b6040519182916020835260208301906111a3565b0390f35b61051a9150611d1d565b6104f8565b346101b8575f3660031901126101b8576001546001600160a01b0316338190036101b8576102b8906114dc565b346101b8575f3660031901126101b8576001546040516001600160a01b039091168152602090f35b346101b85761058236611223565b61059a60018060a01b036003541633146104d06113d6565b60ff60015460a81c16156105aa57005b6102b890611b7d565b346101b85760203660031901126101b8576102b86105cf61110f565b611476565b346101b85760203660031901126101b8576105ed61110f565b5f54610604906001600160a01b03166102096112c2565b600180546001600160a01b0319166001600160a01b039290921691821790557f68f49b346b94582a8b5f9d10e3fe3365318fe8f191ff8dce7c59c6cad06b02f55f80a2005b346101b85760603660031901126101b85761066261110f565b61066a611125565b6044356001600160a01b0381169291908390036101b85761068a91611313565b600480546001600160a01b031916821790557f195359283029fbdb9a24519b1ec07caf1677655529bf99dc1634c1e8b28811805f80a2005b346101b85760203660031901126101b8576106db61110f565b5f546106f2906001600160a01b03166102096112c2565b6001600160a01b0316801561073957600380546001600160a01b031916821790557fac431eb831269b53b41991f6cbfbfc93f4baa395996a8170abac93962b5a358e5f80a2005b60405162461bcd60e51b815260206004820152600e60248201526d24b73b30b634b21031b0b63632b960911b6044820152606490fd5b346101b8575f3660031901126101b857604051665365745479706560c81b8152602090f35b346101b85760203660031901126101b8575f54600435906107c0906001600160a01b03166102096112c2565b806002557fef711e3eb06966d227e22eb4fa0302550dcd7257cf69b537cf4d37af53ea9cda5f80a2005b346101b85760403660031901126101b857610803611100565b15155f52600860205260405f206024355f5260205260405f206040519081602082549182815201915f5260205f20905f5b8181106108575761050c8561084b81870382611286565b604051918291826111e1565b8254845260209093019260019283019201610834565b346101b8575f3660031901126101b8576040517220b933bab9a937b7ba20baba3437b934bd32b960691b8152602090f35b346101b85760803660031901126101b8576108b7611100565b602435906044359160643591151590815f52600860205260405f20815f5260205260405f20548084116109af575b506108f08484611361565b916108fa83611437565b926109086040519485611286565b808452610917601f1991611437565b013660208501375f5b61092a8686611361565b8110156109a157815f52600860205260405f20835f5260205260405f2081870180881161098d5761092a926109626001928a946124e3565b838060a01b0391549060031b1c1661097a828961144e565b90838060a01b0316905201915050610920565b634e487b7160e01b5f52601160045260245ffd5b6040518061050c86826111e1565b9250846108e5565b346101b85760403660031901126101b8576109d0611100565b15155f52600860205260405f206024355f52602052602060405f2054604051908152f35b346101b85760603660031901126101b8576004356001600160401b0381116101b85761010060031982360301126101b8576024356001600160401b0381116101b857606060031982360301126101b857604435906001600160401b0382116101b857606060031983360301126101b85761050c92610a706113f7565b610a8860018060a01b036003541633146104d06113d6565b9260ff60015460a81c165f14610aa6575050505f81526104f2611416565b61051a93506004019160040190600401611810565b346101b8575f3660031901126101b8575f546040516001600160a01b039091168152602090f35b346101b8575f3660031901126101b8576020604060055417604051908152f35b346101b85760403660031901126101b8576004356001600160401b0381116101b85761010060031982360301126101b857602435906001600160401b0382116101b857606060031983360301126101b857610b6b60018060a01b036003541633146104d06113d6565b60ff60015460a81c1615610b7b57005b6102b8916004019060040161168d565b346101b8575f3660031901126101b8575f54610bb2906001600160a01b03166102096112c2565b6001600160601b0360a01b5f54165f556001600160601b0360a01b600154166001555f7f038720101b9ced74445432ced46c7e5e4c80202669153dd67d226c66a0aa477b8180a2005b346101b85760403660031901126101b8576004356001600160401b0381116101b85760609060031990360301126101b8576024356001600160401b0381116101b857606060031982360301126101b857610c69610c6282604461050c94019060040161136e565b36916113a0565b6040519182916020835260208301906110dc565b346101b8576020610cc3610c903661114f565b9115155f526008845260405f20905f52835260405f209060018060a01b0316906001915f520160205260405f2054151590565b6040519015158152f35b346101b857610cdb3661114f565b5f54610cf2906001600160a01b03166102096112c2565b604051631121d74d60e31b8152926001600160a01b039190911690602084600481855afa93841561035d575f94610e1c575b501592831592835f52600860205260405f20815f52602052610d498360405f206124f8565b610d4f57005b8290847f3fdc8e65a2b0db08501fd5ab951fb7e7be8f9fa0accec197cb4becf3183cd1e45f80a4600481161590811591610e0f575b50610d8b57005b815f526009602052610da08160405f206124f8565b156102b857817f839797155acceec9b78c2cda9190a51b8c4dbcaa8b72a6ea1793043fff1271935f80a35f52600960205260405f2054159081610dfa575b50610de557005b610df5600554600c811690611361565b600555005b90505f52600960205260405f20541581610dde565b6008915016151584610d84565b9093506020813d602011610e48575b81610e3860209383611286565b810103126101b857519284610d24565b3d9150610e2b565b346101b8575f3660031901126101b8576004546040516001600160a01b039091168152602090f35b346101b8575f3660031901126101b857602060ff60015460a81c166040519015158152f35b346101b8575f3660031901126101b8576020600254604051908152f35b346101b85760403660031901126101b8576102b8610ed661110f565b610ede611125565b90611313565b346101b85760203660031901126101b857610efd61110f565b5f54610f14906001600160a01b03166102096112c2565b6001600160a01b03168015610f5b57600480546001600160a01b031916821790557f195359283029fbdb9a24519b1ec07caf1677655529bf99dc1634c1e8b28811805f80a2005b60405162461bcd60e51b815260206004820152600f60248201526e125b9d985b1a59081858d8dbdd5b9d608a1b6044820152606490fd5b346101b85760603660031901126101b857610fab611100565b15155f52600860205260405f206024355f526020526020610fd260405f20604435906124e3565b905460405160039290921b1c6001600160a01b03168152f35b346101b85760203660031901126101b857611004611100565b5f5461101b906001600160a01b03166102096112c2565b151560015460ff60a81b8260a81b169060ff60a81b1916176001557f40db37ff5c0bdc2c427fbb2078c8f24afea940abac0e3c23bb4ea3bf2da2b2125f80a2005b346101b8575f3660031901126101b8576351fa6fbf60e11b8152602081600481305afa801561035d575f906110a8575b61050c9060405190602082015260208152610c69604082611286565b506020813d6020116110d4575b816110c260209383611286565b810103126101b85761050c905161108c565b3d91506110b5565b805180835260209291819084018484015e5f828201840152601f01601f1916010190565b6004359081151582036101b857565b600435906001600160a01b03821682036101b857565b602435906001600160a01b03821682036101b857565b35906001600160a01b03821682036101b857565b60609060031901126101b85760043580151581036101b85790602435906044356001600160a01b03811681036101b85790565b90600282101561118f5752565b634e487b7160e01b5f52602160045260245ffd5b6111de916111b2818351611182565b60406111cd60208401516060602085015260608401906110dc565b9201519060408184039101526110dc565b90565b60206040818301928281528451809452019201905f5b8181106112045750505090565b82516001600160a01b03168452602093840193909201916001016111f7565b60206003198201126101b857600435906001600160401b0382116101b8576101009082900360031901126101b85760040190565b606081019081106001600160401b0382111761127257604052565b634e487b7160e01b5f52604160045260245ffd5b90601f801991011681019081106001600160401b0382111761127257604052565b6001600160401b03811161127257601f01601f191660200190565b604051906112d1604083611286565b600382526245333560e81b6020830152565b156112eb5750565b60405162461bcd60e51b81526020600482015290819061130f9060248301906110dc565b0390fd5b61131c90611476565b600380546001600160a01b0319166001600160a01b039290921691821790557fac431eb831269b53b41991f6cbfbfc93f4baa395996a8170abac93962b5a358e5f80a2565b9190820391821161098d57565b903590601e19813603018212156101b857018035906001600160401b0382116101b8576020019181360383136101b857565b9291926113ac826112a7565b916113ba6040519384611286565b8294818452818301116101b8578281602093845f960137010152565b604051906113e5604083611286565b600382526245323760e81b6020830152565b6040519061140482611257565b60606040835f81528260208201520152565b60405190611425604083611286565b6003825262229a1b60e91b6020830152565b6001600160401b0381116112725760051b60200190565b80518210156114625760209160051b010190565b634e487b7160e01b5f52603260045260245ffd5b60ff60015460a01c166114a15761148c906114dc565b6001805460ff60a01b1916600160a01b179055565b60405162461bcd60e51b8152602060048201526013602482015272105b1c9958591e481a5b9a5d1a585b1a5e9959606a1b6044820152606490fd5b60018060a01b0316806001600160601b0360a01b5f5416175f556001600160601b0360a01b600154166001557f038720101b9ced74445432ced46c7e5e4c80202669153dd67d226c66a0aa477b5f80a2565b9035601e19823603018112156101b85701602081359101916001600160401b0382116101b85781360383136101b857565b908060209392818452848401375f828201840152601f01601f1916010190565b6111de916001600160a01b036115948361113b565b1681526001600160a01b036115ab6020840161113b565b166020820152604082810135908201526001600160a01b036115cf6060840161113b565b1660608201526080820135608082015261162e6116236116086115f560a086018661152e565b61010060a087015261010086019161155f565b61161560c086018661152e565b9085830360c087015261155f565b9260e081019061152e565b9160e081850391015261155f565b80359182151583036101b8576111de921515815261167f611674611663602085018561152e565b60606020860152606085019161155f565b92604081019061152e565b91604081850391015261155f565b600860055416156117af57600160408201351615155f52600960205260405f20908154915f5b8381106116c1575050505050565b6116cb81836124e3565b9054604051631121d74d60e31b815260039290921b1c6001600160a01b03169190602081600481865afa801561035d575f9061177d575b6008915016611716575b60019150016116b3565b813b156101b8576001915f6040518092637c4c833b60e01b82526040600483015281838161175e8d61174c8d604485019061157f565b8381036003190160248501529061163c565b03925af161176d575b5061170c565b5f61177791611286565b5f611767565b506020813d82116117a7575b8161179660209383611286565b810103126101b85760089051611702565b3d9150611789565b5050565b9080601f830112156101b8578160206111de933591016113a0565b604051906117dd604083611286565b600382526204535360ec1b6020830152565b604051906117fe604083611286565b600382526208a68760eb1b6020830152565b92919261181b6113f7565b9361182960c083018361136e565b9050611b705780604061183d92019061136e565b8101906020818303126101b8578035906001600160401b0382116101b857019080601f830112156101b85781359161187483611437565b926118826040519485611286565b80845260208085019160051b830101918383116101b85760208101915b838310611a8057505050505090918151916118c36118bb6117ce565b8415156112e3565b60016040850135161515915f945b8486106118f0575050505050505f82526118e96117ef565b6020830152565b90919293949650611901878461144e565b5151966001600160a01b036020611918838761144e565b5101511697855f52600860205260405f20815f5260205261195561194d8a60405f206001915f520160205260405f2054151590565b6104d06117ce565b6040611961838761144e565b5101516119708186868d612ad8565b998a51600281101561118f576001146119935750505060010194939291906118d1565b604051631121d74d60e31b8152999a9992985060609750955090935091506020905082600481865afa801561035d5786925f91611a49575b509360209283926040611a2f9716611a37575b5050604051938285019687526040850152604084526119fe606085611286565b6040519586945180918487015e8401908282015f8152815193849201905e01015f815203601f198101835282611286565b604082015290565b611a42925085612bb7565b865f6119de565b9250506020823d8211611a78575b81611a6460209383611286565b810103126101b857905185919060206119cb565b3d9150611a57565b82356001600160401b0381116101b8578201906060828703601f1901126101b85760405191611aae83611257565b60208101358352611ac16040820161113b565b602084015260608101356001600160401b0381116101b8576020910101906060828803126101b85760405192611af684611257565b823560028110156101b857845260208301356001600160401b0381116101b857830188601f820112156101b85788816020611b33933591016113a0565b60208501526040830135936001600160401b0385116101b857611b5b896020968796016117b3565b6040820152604082015281520192019161189f565b91906111de93945061285e565b60046005541615611c8757600160408201351615155f52600960205260405f208054905f5b828110611baf5750505050565b611bb981836124e3565b9054604051631121d74d60e31b815260039290921b1c6001600160a01b03169190602081600481865afa801561035d575f90611c55575b6004915016611c04575b6001915001611ba2565b813b156101b85760405163d58c3fc360e01b8152602060048201526001925f908290818381611c36602482018d61157f565b03925af1611c45575b50611bfa565b5f611c4f91611286565b5f611c3f565b506020813d8211611c7f575b81611c6e60209383611286565b810103126101b85760049051611bf0565b3d9150611c61565b50565b90600182811c92168015611cb8575b6020831014611ca457565b634e487b7160e01b5f52602260045260245ffd5b91607f1691611c99565b818110611ccd575050565b5f8155600101611cc2565b9190601f8111611ce757505050565b611d11925f5260205f20906020601f840160051c83019310611d13575b601f0160051c0190611cc2565b565b9091508190611d04565b90611d266113f7565b91611d3460c082018261136e565b90506124d8575f83526001600160a01b03611d4d612f51565b16905f611d5c60208301612d7c565b60405163ce6ccfaf60e01b81526001600160a01b03909116600482015292839060249082905afa91821561035d575f92612446575b50815191821561241c5760016040830135161515905f5b8481106120c85750505050508151600281101561118f576001036120b65760405160408101602080830152600a54809152816060810160608360051b83010190600a5f525f8051602061302c833981519152935f915b818310611f3557505050611e1b925003601f198101835282611286565b60408301525b600a545f600a5580611e305750565b8060050290600582040361098d57600a5f525f8051602061302c833981519152015f8051602061302c8339815191525b818110611e6b575050565b6005905f81555f60018201555f600282015560038101611e8b8154611c8a565b9081611ef3575b505060048101611ea28154611c8a565b9081611eb1575b505001611e60565b81601f5f9311600114611ec85750555b5f80611ea9565b81835260208320611ee391601f01861c810190600101611cc2565b8082528160208120915555611ec1565b81601f5f9311600114611f0a5750555b5f80611e92565b81835260208320611f2591601f01861c810190600101611cc2565b8082528160208120915555611f03565b91935091605f198682030182528454815260018060a01b03600186015416602082015260606040820152611f736060820160ff600288015416611182565b606060808201526003850180545f9291611f8c82611c8a565b918260c08501526001811690815f14612096575060011461205c575b5050600486019060a0605f19828503019101525f91815491611fc983611c8a565b80835292600181169081156120385750600114611ffb575b505050602060056001929601920193019093918593611dfe565b909192505f5260205f20915f925b8184106120225750500160209081019060056001611fe1565b6001816020925483878701015201930192612009565b6001955060209490859350600594925060ff1916838301521515831b010192611fe1565b5f90815260208120929350915b81831061207f575050810160e001905f80611fa8565b6001816020925460e0868801015201920191612069565b91505060e092935060ff191682840152151560051b820101905f80611fa8565b6120be6117ef565b6020830152611e21565b6120d2818361144e565b51835f52600860205260405f20815f5260205260405f20908154915f5b8381106121025750505050600101611da8565b61210c81836124e3565b905460039190911b1c6001600160a01b03166121288982612d90565b908151600281101561118f57600114612146575b50506001016120ef565b60018d526040519061215782611257565b8582526020820190815260408201928352600a54600160401b811015611272576001810180600a5581101561146257600590600a5f52029151825f8051602061302c83398151915201557fc65a7bb8d6351c1cf70c95a316cc6a92839c986682d98bc35f958f4883f9d2a982019060018060a01b039051166001600160601b0360a01b8254161790557fc65a7bb8d6351c1cf70c95a316cc6a92839c986682d98bc35f958f4883f9d2aa81019151918251600281101561118f5760ff801983541691161790557fc65a7bb8d6351c1cf70c95a316cc6a92839c986682d98bc35f958f4883f9d2ab810160208301518051906001600160401b0382116112725761226a826122648554611c8a565b85611cd8565b602090601f83116001146123945782604095937fc65a7bb8d6351c1cf70c95a316cc6a92839c986682d98bc35f958f4883f9d2ac95936122bf935f92612322575b50508160011b915f199060031b1c19161790565b90555b019101518051906001600160401b038211611272576122e5826122648554611c8a565b602090601f831160011461232d5791806123189260019695945f926123225750508160011b915f199060031b1c19161790565b90555b905f61213c565b015190505f806122ab565b90601f19831691845f52815f20925f5b81811061237c575091600196959492918388959310612364575b505050811b01905561231b565b01515f1960f88460031b161c191690555f8080612357565b9293602060018192878601518155019501930161233d565b90601f19831691845f52815f20925f5b8181106124045750926001928592604098967fc65a7bb8d6351c1cf70c95a316cc6a92839c986682d98bc35f958f4883f9d2ac9896106123ec575b505050811b0190556122c2565b01515f1960f88460031b161c191690555f80806123df565b929360206001819287860151815501950193016123a4565b5050509060405161242e604082611286565b600381526245353360e81b6020820152602082015290565b9091503d805f833e6124588183611286565b8101906020818303126101b8578051906001600160401b0382116101b857019080601f830112156101b857815161248e81611437565b9261249c6040519485611286565b81845260208085019260051b8201019283116101b857602001905b8282106124c857505050905f611d91565b81518152602091820191016124b7565b6111de919250612c5d565b8054821015611462575f5260205f2001905f90565b906001820191815f528260205260405f20548015155f146125cb575f19810181811161098d5782545f1981019190821161098d57818103612580575b5050508054801561256c575f19019061254d82826124e3565b8154905f199060031b1b19169055555f526020525f6040812055600190565b634e487b7160e01b5f52603160045260245ffd5b6125b66125906125a093866124e3565b90549060031b1c928392866124e3565b819391549060031b91821b915f19901b19161790565b90555f528360205260405f20555f8080612534565b505050505f90565b604051906125e2604083611286565b600382526245343560e81b6020830152565b60405190612603604083611286565b600382526245343760e81b6020830152565b9190610100838203126101b8576040519061010082018281106001600160401b0382111761127257604052819361264b8161113b565b83526126596020820161113b565b6020840152604081013560408401526126746060820161113b565b60608401526080810135608084015260a08101356001600160401b0381116101b857826126a29183016117b3565b60a084015260c08101356001600160401b0381116101b857826126c69183016117b3565b60c084015260e0810135916001600160401b0383116101b85760e0926126ec92016117b3565b910152565b9291926126fd826112a7565b9161270b6040519384611286565b8294818452818301116101b8578281602093845f96015e010152565b9080601f830112156101b85781516111de926020016126f1565b6020818303126101b8578051906001600160401b0382116101b857016060818303126101b8576040519161277483611257565b815160028110156101b857835260208201516001600160401b0381116101b857820181601f820112156101b857818160206127b1935191016126f1565b602084015260408201516001600160401b0381116101b857611a2f9201612727565b6111de9160018060a01b03825116815260018060a01b0360208301511660208201526040820151604082015260018060a01b0360608301511660608201526080820151608082015260e061284d61283b60a085015161010060a08601526101008501906110dc565b60c085015184820360c08601526110dc565b9201519060e08184039101526110dc565b91906128686113f7565b9061287f61287960c086018661136e565b90612e6e565b604051631121d74d60e31b815290966001600160a01b039092169491929190602081600481895afa801561035d575f906129e9575b600291506128cc6128c482612ea5565b6104d06125d3565b16156129db575081816128f16128e96129319461296b9796612ec0565b6104d06125f4565b600160408301351615155f52600860205260405f20905f5260205261292a6128e98660405f206001915f520160205260405f2054151590565b3690612615565b9460c0860152612959604051956313aa451d60e31b87526060600488015260648701906127d3565b8581036003190160248701529061163c565b83810360031901604485015290823560028110156101b8575f856129aa82968661299784988597611182565b61167f611674611663602085018561152e565b03925af190811561035d575f916129bf575090565b6111de91503d805f833e6129d38183611286565b810190612741565b955050505050506001815290565b506020813d602011612a14575b81612a0360209383611286565b810103126101b857600290516128b4565b3d91506129f6565b5f9060033d11612a2857565b905060045f803e5f5160e01c90565b5f60443d106111de576040513d600319016004823e8051913d60248401116001600160401b03841117612aa357828201928351916001600160401b038311612a9b573d84016003190185840160200111612a9b57506111de92910160200190611286565b949350505050565b92915050565b3d15612ad3573d90612aba826112a7565b91612ac86040519384611286565b82523d5f602084013e565b606090565b91612b17926129595f8094979697612b29612af16113f7565b99604051988997889687956313aa451d60e31b875260606004880152606487019061157f565b838103600319016044850152906111a3565b03926001600160a01b03165af15f9181612b9b575b50612b9757506001612b4e612a1c565b6308c379a014612b71575b612b5f57565b612b67612aa9565b5f83526020830152565b612b79612a37565b80612b85575b50612b59565b90505f905f845260208401525f612b7f565b9150565b612bb09192503d805f833e6129d38183611286565b905f612b3e565b612bfb91925f91612be960609560405195869485938493636f6a565960e01b85526040600486015260448501906111a3565b838103600319016024850152906111a3565b03916001600160a01b03165afa5f9181612c1e575b50612c19575090565b905090565b9091503d805f833e612c308183611286565b81016020828203126101b85781516001600160401b0381116101b857612c569201612727565b905f612c10565b612c656113f7565b612c7561287960c084018461136e565b604051631121d74d60e31b815290946001600160a01b039092169391929190602081600481885afa801561035d575f90612d49575b60019150612cba6128c482612ea5565b1615612d3d5750915f93612d138385612cda6128e989986129aa98612ec0565b60016040830135161515875260086020526040872090875260205261292a6128e985604089206001915f520160205260405f2054151590565b9060c082015260405194858094819363f266002760e01b83526020600484015260248301906127d3565b93505050506001815290565b506020813d602011612d74575b81612d6360209383611286565b810103126101b85760019051612caa565b3d9150612d56565b356001600160a01b03811681036101b85790565b5f612b298192949394612da16113f7565b9560405194858094819363f266002760e01b835260206004840152602483019061157f565b805f52600760205260405f2054155f14612e1657600654600160401b81101561127257612dff6125a082600185940160065560066124e3565b9055600654905f52600760205260405f2055600190565b505f90565b5f828152600182016020526040902054612e6857805490600160401b8210156112725782612e536125a08460018096018555846124e3565b90558054925f520160205260405f2055600190565b50505f90565b91816040116101b85760208301356001600160a01b038116908190036101b8576111de909284359460403692603f190191016113a0565b600181161590811591612eb6575090565b6002915016151590565b906020906044612ee2836001600160a01b03612eda612f51565b169501612d7c565b604051948593849263ac4ab3fb60e01b845260018060a01b0316600484015260248301525afa90811561035d575f91612f19575090565b90506020813d602011612f49575b81612f3460209383611286565b810103126101b8575180151581036101b85790565b3d9150612f27565b60049060018060a01b038254166020604091612f898351612f728582611286565b600381526245353760e81b848201528215156112e3565b825162435da560e01b815294859182905afa928315613021575f93612fdb575b50611d119083612fbb82519283611286565b600382526208a6a760eb1b60208301526001600160a01b031615156112e3565b9092506020813d602011613019575b81612ff760209383611286565b810103126101b857516001600160a01b03811681036101b85791611d11612fa9565b3d9150612fea565b50513d5f823e3d90fdfec65a7bb8d6351c1cf70c95a316cc6a92839c986682d98bc35f958f4883f9d2a8a2646970667358221220043a5bbbd4e87b9f45dc76894ee19a6518d5a7735ceebd28f4b4bf5738dddb0f64736f6c634300081a0033","linkReferences":{}},"methodIdentifiers":{"NAME()":"a3f4df7e","TYPE()":"bb24fe8a","VERSION()":"ffa1ad74","_NAME()":"08dbebf6","acceptOwner()":"ebbc4965","account()":"5dab2420","addAuthorizer(bool,bytes32,address)":"f974cf09","authorizerSize(bool,bytes32)":"9dfd2019","caller()":"fc9c8d39","collectHint((uint8,string,bytes),(uint8,string,bytes))":"6f6a5659","flag()":"890eba68","getAllAuthorizers(bool,bytes32)":"a5314988","getAllRoles()":"f2bcac3d","getAuthorizer(bool,bytes32,uint256)":"28562c6a","getAuthorizers(bool,bytes32,uint256,uint256)":"a192897c","hasAuthorizer(bool,bytes32,address)":"6bdc489e","initialize(address)":"c4d66de8","initialize(address,address)":"485cc955","initialize(address,address,address)":"c0c53b8b","owner()":"8da5cb5b","paused()":"5c975abb","pendingOwner()":"e30c3978","postExecCheck((address,address,uint256,address,uint256,bytes,bytes,bytes),(bool,bytes,bytes),(uint8,string,bytes))":"9d5228e8","postExecProcess((address,address,uint256,address,uint256,bytes,bytes,bytes),(bool,bytes,bytes))":"7c4c833b","preExecCheck((address,address,uint256,address,uint256,bytes,bytes,bytes))":"f2660027","preExecProcess((address,address,uint256,address,uint256,bytes,bytes,bytes))":"d58c3fc3","removeAuthorizer(bool,bytes32,address)":"6000cfbb","renounceOwnership()":"715018a6","setAccount(address)":"29f6d57c","setCaller(address)":"beb92f55","setPaused(bool)":"16c38b3c","setPendingOwner(address)":"c42069ec","setTag(bytes32)":"b695e2ef","tag()":"51f91066","transferOwnership(address)":"f2fde38b"},"id":54}