{"abi":[{"type":"constructor","inputs":[{"name":"_owner","type":"address","internalType":"address"}],"stateMutability":"nonpayable"},{"type":"receive","stateMutability":"payable"},{"type":"function","name":"NAME","inputs":[],"outputs":[{"name":"","type":"bytes32","internalType":"bytes32"}],"stateMutability":"view"},{"type":"function","name":"VERSION","inputs":[],"outputs":[{"name":"","type":"uint256","internalType":"uint256"}],"stateMutability":"view"},{"type":"function","name":"_NAME","inputs":[],"outputs":[{"name":"","type":"string","internalType":"string"}],"stateMutability":"view"},{"type":"function","name":"acceptOwner","inputs":[],"outputs":[],"stateMutability":"nonpayable"},{"type":"function","name":"addDelegate","inputs":[{"name":"_delegate","type":"address","internalType":"address"}],"outputs":[],"stateMutability":"nonpayable"},{"type":"function","name":"addDelegates","inputs":[{"name":"_delegates","type":"address[]","internalType":"address[]"}],"outputs":[],"stateMutability":"nonpayable"},{"type":"function","name":"authorizer","inputs":[],"outputs":[{"name":"","type":"address","internalType":"address"}],"stateMutability":"view"},{"type":"function","name":"execTransaction","inputs":[{"name":"callData","type":"tuple","internalType":"struct CallData","components":[{"name":"flag","type":"uint256","internalType":"uint256"},{"name":"to","type":"address","internalType":"address"},{"name":"value","type":"uint256","internalType":"uint256"},{"name":"data","type":"bytes","internalType":"bytes"},{"name":"hint","type":"bytes","internalType":"bytes"},{"name":"extra","type":"bytes","internalType":"bytes"}]}],"outputs":[{"name":"result","type":"tuple","internalType":"struct TransactionResult","components":[{"name":"success","type":"bool","internalType":"bool"},{"name":"data","type":"bytes","internalType":"bytes"},{"name":"hint","type":"bytes","internalType":"bytes"}]}],"stateMutability":"nonpayable"},{"type":"function","name":"execTransactions","inputs":[{"name":"callDataList","type":"tuple[]","internalType":"struct CallData[]","components":[{"name":"flag","type":"uint256","internalType":"uint256"},{"name":"to","type":"address","internalType":"address"},{"name":"value","type":"uint256","internalType":"uint256"},{"name":"data","type":"bytes","internalType":"bytes"},{"name":"hint","type":"bytes","internalType":"bytes"},{"name":"extra","type":"bytes","internalType":"bytes"}]}],"outputs":[{"name":"resultList","type":"tuple[]","internalType":"struct TransactionResult[]","components":[{"name":"success","type":"bool","internalType":"bool"},{"name":"data","type":"bytes","internalType":"bytes"},{"name":"hint","type":"bytes","internalType":"bytes"}]}],"stateMutability":"nonpayable"},{"type":"function","name":"getAccountAddress","inputs":[],"outputs":[{"name":"account","type":"address","internalType":"address"}],"stateMutability":"view"},{"type":"function","name":"getAllDelegates","inputs":[],"outputs":[{"name":"","type":"address[]","internalType":"address[]"}],"stateMutability":"view"},{"type":"function","name":"hasDelegate","inputs":[{"name":"_delegate","type":"address","internalType":"address"}],"outputs":[{"name":"","type":"bool","internalType":"bool"}],"stateMutability":"view"},{"type":"function","name":"initialize","inputs":[{"name":"_owner","type":"address","internalType":"address"},{"name":"_roleManager","type":"address","internalType":"address"},{"name":"_authorizer","type":"address","internalType":"address"}],"outputs":[],"stateMutability":"nonpayable"},{"type":"function","name":"initialize","inputs":[{"name":"_owner","type":"address","internalType":"address"}],"outputs":[],"stateMutability":"nonpayable"},{"type":"function","name":"owner","inputs":[],"outputs":[{"name":"","type":"address","internalType":"address"}],"stateMutability":"view"},{"type":"function","name":"pendingOwner","inputs":[],"outputs":[{"name":"","type":"address","internalType":"address"}],"stateMutability":"view"},{"type":"function","name":"removeDelegate","inputs":[{"name":"_delegate","type":"address","internalType":"address"}],"outputs":[],"stateMutability":"nonpayable"},{"type":"function","name":"removeDelegates","inputs":[{"name":"_delegates","type":"address[]","internalType":"address[]"}],"outputs":[],"stateMutability":"nonpayable"},{"type":"function","name":"renounceOwnership","inputs":[],"outputs":[],"stateMutability":"nonpayable"},{"type":"function","name":"roleManager","inputs":[],"outputs":[{"name":"","type":"address","internalType":"address"}],"stateMutability":"view"},{"type":"function","name":"setAuthorizer","inputs":[{"name":"_authorizer","type":"address","internalType":"address"}],"outputs":[],"stateMutability":"nonpayable"},{"type":"function","name":"setPendingOwner","inputs":[{"name":"to","type":"address","internalType":"address"}],"outputs":[],"stateMutability":"nonpayable"},{"type":"function","name":"setRoleManager","inputs":[{"name":"_roleManager","type":"address","internalType":"address"}],"outputs":[],"stateMutability":"nonpayable"},{"type":"function","name":"transferOwnership","inputs":[{"name":"newOwner","type":"address","internalType":"address"}],"outputs":[],"stateMutability":"nonpayable"},{"type":"event","name":"AuthorizerSet","inputs":[{"name":"authorizer","type":"address","indexed":true,"internalType":"address"}],"anonymous":false},{"type":"event","name":"DelegateAdded","inputs":[{"name":"delegate","type":"address","indexed":true,"internalType":"address"}],"anonymous":false},{"type":"event","name":"DelegateRemoved","inputs":[{"name":"delegate","type":"address","indexed":true,"internalType":"address"}],"anonymous":false},{"type":"event","name":"NewOwnerSet","inputs":[{"name":"owner","type":"address","indexed":true,"internalType":"address"}],"anonymous":false},{"type":"event","name":"PendingOwnerSet","inputs":[{"name":"to","type":"address","indexed":true,"internalType":"address"}],"anonymous":false},{"type":"event","name":"RoleManagerSet","inputs":[{"name":"roleManager","type":"address","indexed":true,"internalType":"address"}],"anonymous":false},{"type":"event","name":"TransactionExecuted","inputs":[{"name":"to","type":"address","indexed":true,"internalType":"address"},{"name":"selector","type":"bytes4","indexed":true,"internalType":"bytes4"},{"name":"value","type":"uint256","indexed":true,"internalType":"uint256"},{"name":"transaction","type":"tuple","indexed":false,"internalType":"struct TransactionData","components":[{"name":"from","type":"address","internalType":"address"},{"name":"delegate","type":"address","internalType":"address"},{"name":"flag","type":"uint256","internalType":"uint256"},{"name":"to","type":"address","internalType":"address"},{"name":"value","type":"uint256","internalType":"uint256"},{"name":"data","type":"bytes","internalType":"bytes"},{"name":"hint","type":"bytes","internalType":"bytes"},{"name":"extra","type":"bytes","internalType":"bytes"}]}],"anonymous":false}],"bytecode":{"object":"0x6080346100e557601f611b6438819003918201601f19168301916001600160401b038311848410176100e9578084926020946040528339810103126100e557516001600160a01b038116908190036100e5576001545f80546001600160a01b0319168317815582907f038720101b9ced74445432ced46c7e5e4c80202669153dd67d226c66a0aa477b9080a26001600160a81b031916600160a01b176001556100a7816100fd565b6100bb575b6040516119da908161018a8239f35b7f3be018e2afae1fe2bb23bb3cc019524cfe3872f2863d1c80b7a228c57bc1065a5f80a25f6100ac565b5f80fd5b634e487b7160e01b5f52604160045260245ffd5b805f52600560205260405f2054155f1461018457600454680100000000000000008110156100e9576001810180600455811015610170577f8a35acfbc15ff81a39ae7d344fd709f28e8600b4aa8c65c6b64bfe7fe36bd19b018190556004545f9182526005602052604090912055600190565b634e487b7160e01b5f52603260045260245ffd5b505f9056fe6080604052600436101561001a575b3615610018575f80fd5b005b5f3560e01c8062435da514610198578063058a628f1461019357806308dbebf61461018e5780630e2562d91461018957806347ab914914610184578063480005cd1461017f57806367e7646f1461017a578063715018a61461017557806374723555146101705780637a4f37641461016b5780638da5cb5b14610166578063a3f4df7e14610161578063c0c53b8b1461015c578063c42069ec14610157578063c4d66de814610152578063d09edf311461014d578063e30c397814610148578063e71bdf4114610143578063eb7003731461013e578063ebbc496514610139578063f1d588c514610134578063f2fde38b1461012f578063f5ff8ef21461012a5763ffa1ad740361000e57610c1e565b610a92565b6109ae565b610977565b61094a565b6108f6565b6108ba565b610892565b61086a565b61084a565b6107d1565b610788565b61075a565b610733565b6106b3565b61061d565b61055b565b61051f565b6104d7565b61035a565b6102f9565b610251565b6101d5565b346101c0575f3660031901126101c0576002546040516001600160a01b039091168152602090f35b5f80fd5b6001600160a01b038116036101c057565b346101c05760203660031901126101c0576100186004356101f5816101c4565b5f54610214906001600160a01b031661020c610ca9565b903314610cca565b611004565b805180835260209291819084018484015e5f828201840152601f01601f1916010190565b90602061024e928181520190610219565b90565b346101c0575f3660031901126101c0576040516351fa6fbf60e11b8152602081600481305afa9081156102f4575f916102c0575b6102bc6102a26102b0846040519283916020830160209181520190565b03601f198101835282610c6d565b6040519182918261023d565b0390f35b90506020813d6020116102ec575b816102db60209383610c6d565b810103126101c057516102a2610285565b3d91506102ce565b610cfa565b346101c0575f3660031901126101c0576020604051308152f35b61024e9181511515815260406103386020840151606060208501526060840190610219565b920151906040818403910152610219565b90602061024e928181520190610313565b346101c05760203660031901126101c0576004356001600160401b0381116101c0578060040160c060031983360301126101c0576102bc9161039a610d05565b506103c16103b3335f52600560205260405f2054151590565b6103bb610d24565b90610cca565b6103c9610d45565b916103dc305b6001600160a01b03168452565b33602084015280356040840152602482019261040a6103fa85610d92565b6001600160a01b03166060830152565b7e0f8708785e90dac3172a799e69be02455af248d971acdd26dc38e07cdb596b6104c86104a461049e60448701359687608087015261048161045960a46064840193610460610459868d610d9c565b3691610dce565b60a08b0152610475610459608483018d610d9c565b60c08b01520189610d9c565b60e087015261049861049287611049565b99610d92565b96610d9c565b90610e04565b6040516001600160e01b0319909116946001600160a01b0316939091829182610ec8565b0390a460405191829182610349565b346101c05760203660031901126101c05760206105156004356104f9816101c4565b6001600160a01b03165f90815260056020526040902054151590565b6040519015158152f35b346101c05760203660031901126101c05761001860043561053f816101c4565b5f54610556906001600160a01b031661020c610ca9565b61128b565b346101c0575f3660031901126101c0575f54610582906001600160a01b031661020c610ca9565b6001600160601b0360a01b5f54165f556001600160601b0360a01b600154166001555f7f038720101b9ced74445432ced46c7e5e4c80202669153dd67d226c66a0aa477b8180a2005b9060206003198301126101c0576004356001600160401b0381116101c05760040182601f820112156101c0578035926001600160401b0384116101c0576020808301928560051b0101116101c0579190565b346101c05761062b366105cb565b5f54909190610645906001600160a01b031661020c610ca9565b5f5b82811061065057005b8061066b6106616001938686610eed565b35610556816101c4565b01610647565b60206040818301928281528451809452019201905f5b8181106106945750505090565b82516001600160a01b0316845260209384019390920191600101610687565b346101c0575f3660031901126101c05760405180602060045491828152019060045f527f8a35acfbc15ff81a39ae7d344fd709f28e8600b4aa8c65c6b64bfe7fe36bd19b905f5b81811061071d576102bc8561071181870382610c6d565b60405191829182610671565b82548452602090930192600192830192016106fa565b346101c0575f3660031901126101c0575f546040516001600160a01b039091168152602090f35b346101c0575f3660031901126101c0576040516f10dbd89bd4db585c9d1058d8dbdd5b9d60821b8152602090f35b346101c05760603660031901126101c0576100186004356107a8816101c4565b6102146024356107b7816101c4565b6107cc604435936107c7856101c4565b610f02565b61131c565b346101c05760203660031901126101c0576004356107ee816101c4565b5f54610805906001600160a01b031661020c610ca9565b600180546001600160a01b0319166001600160a01b039290921691821790557f68f49b346b94582a8b5f9d10e3fe3365318fe8f191ff8dce7c59c6cad06b02f55f80a2005b346101c05760203660031901126101c0576100186004356107c7816101c4565b346101c0575f3660031901126101c0576003546040516001600160a01b039091168152602090f35b346101c0575f3660031901126101c0576001546040516001600160a01b039091168152602090f35b346101c05760203660031901126101c0576100186004356108da816101c4565b5f546108f1906001600160a01b031661020c610ca9565b611361565b346101c057610904366105cb565b5f5490919061091e906001600160a01b031661020c610ca9565b5f5b82811061092957005b8061094461093a6001938686610eed565b356108f1816101c4565b01610920565b346101c0575f3660031901126101c0576001546001600160a01b0316338190036101c057610018906112ca565b346101c05760203660031901126101c057610018600435610997816101c4565b5f546107cc906001600160a01b031661020c610ca9565b346101c05760203660031901126101c0576004356109cb816101c4565b5f546109e2906001600160a01b031661020c610ca9565b6001600160a01b038116156109fa57610018906112ca565b60405162461bcd60e51b81526020600482015260116024820152704e6577204f776e6572206973207a65726f60781b6044820152606490fd5b602081016020825282518091526040820191602060408360051b8301019401925f915b838310610a6557505050505090565b9091929394602080610a83600193603f198682030187528951610313565b97019301930191939290610a56565b346101c057610aa0366105cb565b90610ab96103b3335f52600560205260405f2054151590565b610ac1610d45565b91610acb306103cf565b336020840152610ada81610f7f565b925f906060810192608082019360a0830193604084019260c085019060e08601925b818110610b1157604051806102bc8d82610a33565b610b1c81838c610fce565b8b6020820191610b2b83610d92565b6001600160a01b03168852604081013592838d526060820192610b4e8484610d9c565b3690610b5992610dce565b8d5282358b52610b6c6080840184610d9c565b3690610b7792610dce565b8852610b8660a0840184610d9c565b3690610b9192610dce565b895285610b9d8d611049565b610ba78284610ff0565b52610bb191610ff0565b50610bbb90610d92565b91610bc591610d9c565b610bce91610e04565b6040516001600160e01b0319909116916001600160a01b03169080610bf38c82610ec8565b037e0f8708785e90dac3172a799e69be02455af248d971acdd26dc38e07cdb596b91a4600101610afc565b346101c0575f3660031901126101c057602060405160028152f35b634e487b7160e01b5f52604160045260245ffd5b606081019081106001600160401b03821117610c6857604052565b610c39565b90601f801991011681019081106001600160401b03821117610c6857604052565b6001600160401b038111610c6857601f01601f191660200190565b60405190610cb8604083610c6d565b600382526245333560e81b6020830152565b15610cd25750565b60405162461bcd60e51b815260206004820152908190610cf6906024830190610219565b0390fd5b6040513d5f823e3d90fd5b60405190610d1282610c4d565b60606040835f81528260208201520152565b60405190610d33604083610c6d565b600382526245343160e81b6020830152565b6040519061010082018281106001600160401b03821117610c6857604052606060e0835f81525f60208201525f60408201525f838201525f60808201528260a08201528260c08201520152565b3561024e816101c4565b903590601e19813603018212156101c057018035906001600160401b0382116101c0576020019181360383136101c057565b929192610dda82610c8e565b91610de86040519384610c6d565b8294818452818301116101c0578281602093845f960137010152565b356001600160e01b0319811692919060048210610e1f575050565b6001600160e01b031960049290920360031b82901b16169150565b80516001600160a01b0316825261024e916020828101516001600160a01b031690820152604082810151908201526060808301516001600160a01b0316908201526080820151608082015260e0610eb7610ea560a085015161010060a0860152610100850190610219565b60c085015184820360c0860152610219565b9201519060e0818403910152610219565b90602061024e928181520190610e3a565b634e487b7160e01b5f52603260045260245ffd5b9190811015610efd5760051b0190565b610ed9565b60ff60015460a01c16610f2d57610f18906112ca565b6001805460ff60a01b1916600160a01b179055565b60405162461bcd60e51b8152602060048201526013602482015272105b1c9958591e481a5b9a5d1a585b1a5e9959606a1b6044820152606490fd5b6001600160401b038111610c685760051b60200190565b90610f8982610f68565b610f966040519182610c6d565b8281528092610fa7601f1991610f68565b01905f5b828110610fb757505050565b602090610fc2610d05565b82828501015201610fab565b9190811015610efd5760051b8101359060be19813603018212156101c0570190565b8051821015610efd5760209160051b010190565b600380546001600160a01b0319166001600160a01b039290921691821790557fb251079a3e59729d2256949e48e44b7959908cdf34789078b6a1462ec32767205f80a2565b611051610d05565b505f546001600160a01b031633146112825761106b610d05565b506003546004906020906110ae906110a2906001600160a01b03166110a261109161144a565b6001600160a01b0383161515610cca565b6001600160a01b031690565b604051631121d74d60e31b815292839182905afa9081156102f4575f91611253575b5060c082015151156110ec6110e483611580565b6103bb61147a565b6110f4610d05565b90809281159384611247575b611236575b60048116611228575b611117856113cf565b9461112f61112b6040830151600216151590565b1590565b61121a575b61113c610d05565b94839061120e575b6111fb575b85600883166111eb575b5050816111de575b5061116557505090565b6003546111a1925f929091611184906110a2906001600160a01b031681565b90604051809581948293636f6a565960e01b84526004840161155b565b03915afa9081156102f4575f916111bc575b50604082015290565b6111d891503d805f833e6111d08183610c6d565b8101906114eb565b5f6111b3565b604016151590505f61115b565b6111f4916117b4565b5f85611153565b9350611208838686611747565b93611149565b50600282161515611144565b61122386611731565b611134565b611231856116d6565b61110e565b915061124184611635565b91611105565b50600181161515611100565b611275915060203d60201161127b575b61126d8183610c6d565b81019061146b565b5f6110d0565b503d611263565b61024e906113cf565b6001600160a01b031661129d81611898565b6112a45750565b7f5a362b199d4fb2bd4e51a3436d86df24cb19b1b0890da774e2b54253d53aa4eb5f80a2565b60018060a01b0316806001600160601b0360a01b5f5416175f556001600160601b0360a01b600154166001557f038720101b9ced74445432ced46c7e5e4c80202669153dd67d226c66a0aa477b5f80a2565b600280546001600160a01b0319166001600160a01b039290921691821790557f765235f6b1f9df25a0fa901c365a8db93771de0abb8f48ffed12959c5c4d59b95f80a2565b6001600160a01b031661137381611936565b61137a5750565b7f3be018e2afae1fe2bb23bb3cc019524cfe3872f2863d1c80b7a228c57bc1065a5f80a2565b3d156113ca573d906113b182610c8e565b916113bf6040519384610c6d565b82523d5f602084013e565b606090565b906113d8610d05565b6060830151608084015160a085015160409095015192946001600160a01b03909216926001161561142957505f816114279360208394519201905af461141c6113a0565b602085015215158352565b565b905f928392602083519301915af161143f6113a0565b602084015215158252565b60405190611459604083610c6d565b6003825262114d0d60ea1b6020830152565b908160209103126101c0575190565b60405190611489604083610c6d565b600382526245343560e81b6020830152565b9291926114a782610c8e565b916114b56040519384610c6d565b8294818452818301116101c0578281602093845f96015e010152565b9080601f830112156101c057815161024e9260200161149b565b906020828203126101c05781516001600160401b0381116101c05761024e92016114d1565b6002111561151a57565b634e487b7160e01b5f52602160045260245ffd5b805191600283101561151a5761024e92815260406103386020840151606060208501526060840190610219565b909161157261024e9360408452604084019061152e565b91602081840391015261152e565b600181161590811591611591575090565b6002915016151590565b6020818303126101c0578051906001600160401b0382116101c057016060818303126101c057604051916115ce83610c4d565b815160028110156101c057835260208201516001600160401b0381116101c057820181601f820112156101c0578181602061160b9351910161149b565b602084015260408201516001600160401b0381116101c05761162d92016114d1565b604082015290565b905f6116798193611644610d05565b5060035460405163f266002760e01b8152602060048201529586936001600160a01b0390921692849283916024830190610e3a565b03925af19182156102f4575f926116b2575b5061142782600160208251926116a084611510565b6116a984611510565b01519114610cca565b6116cf9192503d805f833e6116c78183610c6d565b81019061159b565b905f61168b565b6003546001600160a01b0316803b156101c05760405163d58c3fc360e01b815260206004820152915f918391829084908290611716906024830190610e3a565b03925af180156102f4576117275750565b5f61142791610c6d565b6020815115910151906117415750565b60208101fd5b906117a293926117905f809461175b610d05565b5061167960018060a01b036003541694604051998a97889687956313aa451d60e31b8752606060048801526064870190610e3a565b85810360031901602487015290610313565b8381036003190160448501529061152e565b6003546001600160a01b031691823b156101c057611716926117f75f809460405196879586948593637c4c833b60e01b8552604060048601526044850190610e3a565b83810360031901602485015290610313565b5f1981019190821161181757565b634e487b7160e01b5f52601160045260245ffd5b8054821015610efd575f5260205f2001905f90565b916118599183549060031b91821b915f19901b19161790565b9055565b80548015611884575f190190611873828261182b565b8154905f199060031b1b1916905555565b634e487b7160e01b5f52603160045260245ffd5b5f81815260056020526040902054908115611930575f19820190828211611817575f926118ef926118ca600454611809565b908181036118f5575b5050506118e0600461185d565b6005905f5260205260405f2090565b55600190565b6118e06119219161191761190d61192795600461182b565b90549060031b1c90565b928391600461182b565b90611840565b555f80806118d3565b50505f90565b5f8181526005602052604090205461199f5760045468010000000000000000811015610c6857611988611972826001859401600455600461182b565b819391549060031b91821b915f19901b19161790565b9055600454905f52600560205260405f2055600190565b505f9056fea2646970667358221220be97d3f6d5b51abc41a92419f1805c8e536412685c2814f8d14d25edf6fce0e564736f6c634300081a0033","linkReferences":{}},"methodIdentifiers":{"NAME()":"a3f4df7e","VERSION()":"ffa1ad74","_NAME()":"08dbebf6","acceptOwner()":"ebbc4965","addDelegate(address)":"e71bdf41","addDelegates(address[])":"eb700373","authorizer()":"d09edf31","execTransaction((uint256,address,uint256,bytes,bytes,bytes))":"47ab9149","execTransactions((uint256,address,uint256,bytes,bytes,bytes)[])":"f5ff8ef2","getAccountAddress()":"0e2562d9","getAllDelegates()":"7a4f3764","hasDelegate(address)":"480005cd","initialize(address)":"c4d66de8","initialize(address,address,address)":"c0c53b8b","owner()":"8da5cb5b","pendingOwner()":"e30c3978","removeDelegate(address)":"67e7646f","removeDelegates(address[])":"74723555","renounceOwnership()":"715018a6","roleManager()":"00435da5","setAuthorizer(address)":"058a628f","setPendingOwner(address)":"c42069ec","setRoleManager(address)":"f1d588c5","transferOwnership(address)":"f2fde38b"},"id":36}