{"abi":[{"type":"function","name":"NAME","inputs":[],"outputs":[{"name":"","type":"bytes32","internalType":"bytes32"}],"stateMutability":"view"},{"type":"function","name":"VERSION","inputs":[],"outputs":[{"name":"","type":"uint256","internalType":"uint256"}],"stateMutability":"view"},{"type":"function","name":"addAuthorizer","inputs":[{"name":"coboSafeAddress","type":"address","internalType":"address"},{"name":"authorizerAddress","type":"address","internalType":"address"},{"name":"isDelegateCall","type":"bool","internalType":"bool"},{"name":"roles","type":"bytes32[]","internalType":"bytes32[]"}],"outputs":[],"stateMutability":"nonpayable"},{"type":"function","name":"addDexAuthorizer","inputs":[{"name":"factory","type":"address","internalType":"contract CoboFactory"},{"name":"coboSafeAddress","type":"address","internalType":"address"},{"name":"dexAuthorizerName","type":"bytes32","internalType":"bytes32"},{"name":"isDelegateCall","type":"bool","internalType":"bool"},{"name":"roles","type":"bytes32[]","internalType":"bytes32[]"},{"name":"_swapInTokens","type":"address[]","internalType":"address[]"},{"name":"_swapOutTokens","type":"address[]","internalType":"address[]"},{"name":"tag","type":"bytes32","internalType":"bytes32"}],"outputs":[],"stateMutability":"nonpayable"},{"type":"function","name":"addFuncAuthorizer","inputs":[{"name":"factory","type":"address","internalType":"contract CoboFactory"},{"name":"coboSafeAddress","type":"address","internalType":"address"},{"name":"isDelegateCall","type":"bool","internalType":"bool"},{"name":"roles","type":"bytes32[]","internalType":"bytes32[]"},{"name":"_contracts","type":"address[]","internalType":"address[]"},{"name":"funcLists","type":"string[][]","internalType":"string[][]"},{"name":"tag","type":"bytes32","internalType":"bytes32"}],"outputs":[],"stateMutability":"nonpayable"},{"type":"function","name":"addTransferAuthorizer","inputs":[{"name":"factory","type":"address","internalType":"contract CoboFactory"},{"name":"coboSafeAddress","type":"address","internalType":"address"},{"name":"isDelegateCall","type":"bool","internalType":"bool"},{"name":"roles","type":"bytes32[]","internalType":"bytes32[]"},{"name":"tokenReceivers","type":"tuple[]","internalType":"struct TransferAuthorizer.TokenReceiver[]","components":[{"name":"token","type":"address","internalType":"address"},{"name":"receiver","type":"address","internalType":"address"}]},{"name":"tag","type":"bytes32","internalType":"bytes32"}],"outputs":[],"stateMutability":"nonpayable"},{"type":"function","name":"createAuthorizer","inputs":[{"name":"factory","type":"address","internalType":"contract CoboFactory"},{"name":"coboSafeAddress","type":"address","internalType":"address"},{"name":"authorizerName","type":"bytes32","internalType":"bytes32"},{"name":"tag","type":"bytes32","internalType":"bytes32"}],"outputs":[{"name":"","type":"address","internalType":"address"}],"stateMutability":"nonpayable"},{"type":"function","name":"grantRoles","inputs":[{"name":"coboSafeAddress","type":"address","internalType":"address"},{"name":"roles","type":"bytes32[]","internalType":"bytes32[]"},{"name":"delegates","type":"address[]","internalType":"address[]"}],"outputs":[],"stateMutability":"nonpayable"},{"type":"function","name":"initArgus","inputs":[{"name":"factory","type":"address","internalType":"contract CoboFactory"},{"name":"coboSafeAccountSalt","type":"bytes32","internalType":"bytes32"}],"outputs":[],"stateMutability":"nonpayable"},{"type":"function","name":"removeAuthorizer","inputs":[{"name":"coboSafeAddress","type":"address","internalType":"address"},{"name":"authorizerAddress","type":"address","internalType":"address"},{"name":"isDelegateCall","type":"bool","internalType":"bool"},{"name":"roles","type":"bytes32[]","internalType":"bytes32[]"}],"outputs":[],"stateMutability":"nonpayable"},{"type":"function","name":"revokeRoles","inputs":[{"name":"coboSafeAddress","type":"address","internalType":"address"},{"name":"roles","type":"bytes32[]","internalType":"bytes32[]"},{"name":"delegates","type":"address[]","internalType":"address[]"}],"outputs":[],"stateMutability":"nonpayable"},{"type":"function","name":"setDexAuthorizerParams","inputs":[{"name":"authorizerAddress","type":"address","internalType":"address"},{"name":"_swapInTokens","type":"address[]","internalType":"address[]"},{"name":"_swapOutTokens","type":"address[]","internalType":"address[]"}],"outputs":[],"stateMutability":"nonpayable"},{"type":"function","name":"setFuncAuthorizerParams","inputs":[{"name":"authorizerAddress","type":"address","internalType":"address"},{"name":"_contracts","type":"address[]","internalType":"address[]"},{"name":"funcLists","type":"string[][]","internalType":"string[][]"}],"outputs":[],"stateMutability":"nonpayable"},{"type":"function","name":"setTransferAuthorizerParams","inputs":[{"name":"authorizerAddress","type":"address","internalType":"address"},{"name":"tokenReceivers","type":"tuple[]","internalType":"struct TransferAuthorizer.TokenReceiver[]","components":[{"name":"token","type":"address","internalType":"address"},{"name":"receiver","type":"address","internalType":"address"}]}],"outputs":[],"stateMutability":"nonpayable"},{"type":"function","name":"unsetDexAuthorizerParams","inputs":[{"name":"authorizerAddress","type":"address","internalType":"address"},{"name":"_swapInTokens","type":"address[]","internalType":"address[]"},{"name":"_swapOutTokens","type":"address[]","internalType":"address[]"}],"outputs":[],"stateMutability":"nonpayable"},{"type":"function","name":"unsetFuncAuthorizerParams","inputs":[{"name":"authorizerAddress","type":"address","internalType":"address"},{"name":"_contracts","type":"address[]","internalType":"address[]"},{"name":"funcLists","type":"string[][]","internalType":"string[][]"}],"outputs":[],"stateMutability":"nonpayable"},{"type":"function","name":"unsetTransferAuthorizerParams","inputs":[{"name":"authorizerAddress","type":"address","internalType":"address"},{"name":"tokenReceivers","type":"tuple[]","internalType":"struct TransferAuthorizer.TokenReceiver[]","components":[{"name":"token","type":"address","internalType":"address"},{"name":"receiver","type":"address","internalType":"address"}]}],"outputs":[],"stateMutability":"nonpayable"},{"type":"event","name":"ArgusInitialized","inputs":[{"name":"cobosafe","type":"address","indexed":true,"internalType":"address"},{"name":"safe","type":"address","indexed":true,"internalType":"address"},{"name":"factory","type":"address","indexed":true,"internalType":"address"}],"anonymous":false}],"bytecode":{"object":"0x6080806040523460155761176d908161001a8239f35b5f80fdfe60806040526004361015610011575f80fd5b5f803560e01c806293cd5f14610dc95780630387f11e14610d145780630e3f387314610cf85780631f76a7cc14610cb2578063469983531461096b5780634e328da91461077857806352b0dd96146106ab5780635f3313f71461069357806374c0b436146105f75780637ea2916a146105df5780637fa71fb4146104c557806380adc084146104aa5780638cb974351461048f5780639ed2c86114610245578063a3f4df7e14610214578063bb8e0efa146100f25763ffa1ad74146100d4575f80fd5b346100ef57806003193601126100ef57602060405160018152f35b80fd5b50346100ef57600460208261010636610f36565b60405163d09edf3160e01b815291979296939490939192839182906001600160a01b03165afa9081156102095784916101da575b506001600160a01b031690835b818110610152578480f35b61015d818389610fd3565b35833b156101d657604051636000cfbb60e01b8152871515600482015260248101919091526001600160a01b0385166044820152858160648183885af19081156101cb5786916101b2575b5050600101610147565b816101bc9161104f565b6101c757845f6101a8565b8480fd5b6040513d88823e3d90fd5b8580fd5b6101fc915060203d602011610202575b6101f4818361104f565b810190611282565b5f61013a565b503d6101ea565b6040513d86823e3d90fd5b50346100ef57806003193601126100ef576040517120b933bab9a0b1b1b7bab73a2432b63832b960711b8152602090f35b50346100ef5760e03660031901126100ef5761025f610ea2565b610267610de3565b90610270610eb8565b906064356001600160401b0381116101c757610290903690600401610e0d565b9290916084356001600160401b03811161048b576102b2903690600401610e0d565b959060a4356001600160401b038111610487576102d3903690600401610e0d565b60405163d09edf3160e01b8152949092908a9060c435906020886004816001600160a01b038b165afa978815610435578398610463575b5060405163148f54c960e21b81526d233ab731a0baba3437b934bd32b960911b600482015260248101839052906020908290604490829087906001600160a01b03165af1908115610435578391610444575b506001600160a01b031696873b156104405760405163485cc95560e01b81523060048201526001600160a01b0390911660248201528281604481838c5af1908115610435578391610420575b5050863b1561041c576040519063b695e2ef60e01b825260048201528181602481838b5af18015610411576103f2575b5050906103ef986103ea939286611136565b61165c565b80f35b81610400919594939561104f565b61040d579091895f6103d8565b8980fd5b6040513d84823e3d90fd5b5080fd5b8161042a9161104f565b61041c57815f6103a8565b6040513d85823e3d90fd5b8280fd5b61045d915060203d602011610202576101f4818361104f565b5f61035c565b8391985061047f602091823d8411610202576101f4818361104f565b98915061030a565b8880fd5b8680fd5b50346100ef576103ef6104a136610f36565b9392909261165c565b50346100ef576103ef6104bc36610e3d565b93929092611578565b50346100ef57806104d536610e3d565b939091906001600160a01b0316803b156101d65760405163eb70037360e01b81526020600482015286818061050e602482018a89611405565b038183865af19081156105d45787916105bf575b505060206004916040519283809262435da560e01b82525afa9081156101cb5786916105a0575b506001600160a01b031690813b156101d65785809461057e60405197889687958694630e54e58d60e01b8652600486016114fb565b03925af180156104115761058f5750f35b816105999161104f565b6100ef5780f35b6105b9915060203d602011610202576101f4818361104f565b5f610549565b816105c99161104f565b6101d657855f610522565b6040513d89823e3d90fd5b50346100ef576103ef6105f136610ef7565b9161153e565b50346100ef57806004602061060b36610e3d565b60405162435da560e01b81529096939591949293909283919082906001600160a01b03165afa9081156101cb578691610674575b506001600160a01b031690813b156101d65785809461057e60405197889687958694631c27e22d60e01b8652600486016114fb565b61068d915060203d602011610202576101f4818361104f565b5f61063f565b50346100ef576103ef6106a536610ef7565b9161149f565b50346100ef57806106bb36610e3d565b6001600160a01b039094169392909180610713575b5050816106dc57505050f35b823b1561070e5761057e928492836040518096819582946342905ba960e01b8452602060048501526024840191611405565b505050fd5b843b156101d657604051630250606560e41b8152602060048201529186918391829161074491602484019190611405565b038183885af190811561076d578591156106d057816107629161104f565b61070e57835f6106d0565b6040513d87823e3d90fd5b50346100ef5760c03660031901126100ef57610792610ea2565b61079a610de3565b906107a3610eb8565b906064356001600160401b0381116101c7576107c3903690600401610e0d565b9290916084356001600160401b03811161048b576107e5903690600401610ec7565b95908760a4356040519463d09edf3160e01b865260208660048160018060a01b0389165afa958615610435578396610947575b5060405163148f54c960e21b8152712a3930b739b332b920baba3437b934bd32b960711b600482015260248101839052906020908290604490829087906001600160a01b03165af1908115610435578391610928575b506001600160a01b031694853b156104405760405163485cc95560e01b81523060048201526001600160a01b0390911660248201528281604481838a5af1908115610435578391610913575b5050843b1561041c576040519063b695e2ef60e01b82526004820152818160248183895af18015610411576108fa575b50506103ef966103ea918461149f565b816109049161104f565b61090f57875f6108ea565b8780fd5b8161091d9161104f565b61041c57815f6108ba565b610941915060203d602011610202576101f4818361104f565b5f61086e565b83919650610963602091823d8411610202576101f4818361104f565b969150610818565b5034610c8f576040366003190112610c8f576001600160a01b0361098d610ea2565b16604051633b97d4ed60e11b81526e10dbd89bd4d859995058d8dbdd5b9d608a1b600482015260243560248201526020816044815f865af1908115610c84575f91610c93575b506001600160a01b0316803b15610c8f5760405163189acdbd60e31b81523060048201525f8160248183865af18015610c8457610c6f575b50303b15610440578260405163610b592560e01b8152826004820152818160248183305af1801561041157610c5a575b506040516339b4546760e11b81526e233630ba2937b632a6b0b730b3b2b960891b600482015260208160248185885af1908115610411578291610c3b575b506001600160a01b0316803b1561041c5760405163189acdbd60e31b8152306004820152828160248183865af1908115610435578391610c26575b5050823b1561041c576040519063f1d588c560e01b82526004820152818160248183875af1801561041157610c11575b506040516339b4546760e11b81527220b933bab9a937b7ba20baba3437b934bd32b960691b600482015260208160248185885af1908115610411578291610bf2575b506001600160a01b0316803b1561041c5760405163c0c53b8b60e01b8152306004820152836024820152836044820152828160648183865af1908115610435578391610bdd575b5050823b1561041c576040519063058a628f60e01b82526004820152818160248183875af1801561041157610bc8575b505030907fd98315a38819f85a0914498fdc92737e16297453017a69ca222331e83644e7398480a480f35b81610bd29161104f565b61044057825f610b9d565b81610be79161104f565b61041c57815f610b6d565b610c0b915060203d602011610202576101f4818361104f565b5f610b26565b81610c1b9161104f565b61044057825f610ae4565b81610c309161104f565b61041c57815f610ab4565b610c54915060203d602011610202576101f4818361104f565b5f610a79565b81610c649161104f565b61044057825f610a3b565b610c7c9193505f9061104f565b5f915f610a0b565b6040513d5f823e3d90fd5b5f80fd5b610cac915060203d602011610202576101f4818361104f565b5f6109d3565b34610c8f576080366003190112610c8f576020610ce6610cd0610ea2565b610cd8610de3565b9060643591604435916112a1565b6040516001600160a01b039091168152f35b34610c8f57610d12610d0936610e3d565b939290926111e2565b005b34610c8f57610100366003190112610c8f57610d2e610ea2565b610d36610de3565b606435908115158203610c8f576084356001600160401b038111610c8f57610d62903690600401610e0d565b92909160a4356001600160401b038111610c8f57610d84903690600401610e0d565b60c4929192356001600160401b038111610c8f57610d12976103ea92610db1610dc2933690600401610e0d565b93909260e4359087604435916112a1565b9586611578565b34610c8f57610d12610dda36610e3d565b93929092611136565b602435906001600160a01b0382168203610c8f57565b35906001600160a01b0382168203610c8f57565b9181601f84011215610c8f578235916001600160401b038311610c8f576020808501948460051b010111610c8f57565b906060600319830112610c8f576004356001600160a01b0381168103610c8f57916024356001600160401b038111610c8f5781610e7c91600401610e0d565b92909291604435906001600160401b038211610c8f57610e9e91600401610e0d565b9091565b600435906001600160a01b0382168203610c8f57565b604435908115158203610c8f57565b9181601f84011215610c8f578235916001600160401b038311610c8f576020808501948460061b010111610c8f57565b906040600319830112610c8f576004356001600160a01b0381168103610c8f5791602435906001600160401b038211610c8f57610e9e91600401610ec7565b906080600319830112610c8f576004356001600160a01b0381168103610c8f57916024356001600160a01b0381168103610c8f57916044358015158103610c8f5791606435906001600160401b038211610c8f57610e9e91600401610e0d565b15610f9d57565b60405162461bcd60e51b815260206004820152600e60248201526d4c656e677468206469666665727360901b6044820152606490fd5b9190811015610fe35760051b0190565b634e487b7160e01b5f52603260045260245ffd5b356001600160a01b0381168103610c8f5790565b9190811015610fe35760051b81013590601e1981360301821215610c8f5701908135916001600160401b038311610c8f576020018260051b36038113610c8f579190565b90601f801991011681019081106001600160401b0382111761107057604052565b634e487b7160e01b5f52604160045260245ffd5b928091604085019060018060a01b031685526040602086015252606083019060608160051b85010193835f91601e1982360301905b8484106110ca575050505050505090565b90919293949596605f19828203018752873583811215610c8f57840190602082359201916001600160401b038111610c8f578036038313610c8f576020828280600196849695859652848401375f828201840152601f01601f19160101990197019594019291906110b9565b939092919384156111db5761114c828614610f96565b6001600160a01b0316935f5b81811061116757505050505050565b61117a611175828488610fd3565b610ff7565b9061118681858761100b565b9290883b15610c8f575f916111af60405195869384936388e299e360e01b855260048501611084565b0381838b5af1918215610c84576001926111cb575b5001611158565b5f6111d59161104f565b5f6111c4565b5050505050565b939092919384156111db576111f8828614610f96565b6001600160a01b0316935f5b81811061121357505050505050565b611221611175828488610fd3565b9061122d81858761100b565b9290883b15610c8f575f91611256604051958693849363476ed36d60e01b855260048501611084565b0381838b5af1918215610c8457600192611272575b5001611204565b5f61127c9161104f565b5f61126b565b90816020910312610c8f57516001600160a01b0381168103610c8f5790565b60405163d09edf3160e01b8152929391602090849060049082906001600160a01b03165afa938415610c84575f935f956113dc575b5060405163148f54c960e21b815260048101919091526024810183905290602090829060449082905f906001600160a01b03165af1908115610c84575f916113bd575b506001600160a01b031692833b15610c8f5760405163485cc95560e01b81523060048201526001600160a01b0390911660248201525f8160448183885af18015610c84576113a8575b50823b1561041c576040519063b695e2ef60e01b82526004820152818160248183875af180156104115761139557505090565b6113a082809261104f565b6100ef575090565b6113b59192505f9061104f565b5f905f611362565b6113d6915060203d602011610202576101f4818361104f565b5f611319565b60209195509160446113fb5f94843d8611610202576101f4818361104f565b96925050916112d6565b916020908281520191905f5b81811061141e5750505090565b909192602080600192838060a01b0361143688610df9565b168152019401929101611411565b60208082528101839052604001915f5b8181106114615750505090565b909192604080600192838060a01b0361147988610df9565b168152838060a01b0361148e60208901610df9565b166020820152019401929101611454565b82156114f6576001600160a01b031691823b15610c8f576114d9925f9283604051809681958294636c6be21360e01b845260048401611444565b03925af18015610c84576114ea5750565b5f6114f49161104f565b565b505050565b60408082528101839052909391906001600160fb1b038211610c8f5761153b9460609260051b809184840137810190602083828403019101520191611405565b90565b82156114f6576001600160a01b031691823b15610c8f576114d9925f9283604051809681958294633a6451e760e21b845260048401611444565b5f946001600160a01b0390911692909190806115ff575b50508061159d575b50505050565b813b156115fb579183916115d09383604051809681958294632131db1f60e21b8452602060048501526024840191611405565b03925af18015610411576115e6575b8080611597565b6115f182809261104f565b6100ef57806115df565b8380fd5b833b15610c8f5760405163935532bb60e01b815260206004820152915f918391829161163091602484019190611405565b038183875af18015610c8457611647575b8061158f565b6116549194505f9061104f565b5f925f611641565b60405163d09edf3160e01b815290602090829060049082906001600160a01b03165afa908115610c84575f91611718575b506001600160a01b0316935f5b8181106116a957505050505050565b6116b4818387610fd3565b3590863b15610c8f5760405163f974cf0960e01b8152851515600482015260248101929092526001600160a01b03841660448301525f82606481838b5af1918215610c8457600192611708575b500161169a565b5f6117129161104f565b5f611701565b611731915060203d602011610202576101f4818361104f565b5f61168d56fea2646970667358221220cdf8fa33ef7cd7c7ad11651d84cf14dd0636e91be72318b383ff366f8204997264736f6c634300081a0033","linkReferences":{}},"methodIdentifiers":{"NAME()":"a3f4df7e","VERSION()":"ffa1ad74","addAuthorizer(address,address,bool,bytes32[])":"8cb97435","addDexAuthorizer(address,address,bytes32,bool,bytes32[],address[],address[],bytes32)":"0387f11e","addFuncAuthorizer(address,address,bool,bytes32[],address[],string[][],bytes32)":"9ed2c861","addTransferAuthorizer(address,address,bool,bytes32[],(address,address)[],bytes32)":"4e328da9","createAuthorizer(address,address,bytes32,bytes32)":"1f76a7cc","grantRoles(address,bytes32[],address[])":"7fa71fb4","initArgus(address,bytes32)":"46998353","removeAuthorizer(address,address,bool,bytes32[])":"bb8e0efa","revokeRoles(address,bytes32[],address[])":"74c0b436","setDexAuthorizerParams(address,address[],address[])":"80adc084","setFuncAuthorizerParams(address,address[],string[][])":"0093cd5f","setTransferAuthorizerParams(address,(address,address)[])":"5f3313f7","unsetDexAuthorizerParams(address,address[],address[])":"52b0dd96","unsetFuncAuthorizerParams(address,address[],string[][])":"0e3f3873","unsetTransferAuthorizerParams(address,(address,address)[])":"7ea2916a"},"id":103}