{"abi":[{"type":"constructor","inputs":[{"name":"_owner","type":"address","internalType":"address"},{"name":"_caller","type":"address","internalType":"address"}],"stateMutability":"nonpayable"},{"type":"fallback","stateMutability":"nonpayable"},{"type":"function","name":"NAME","inputs":[],"outputs":[{"name":"","type":"bytes32","internalType":"bytes32"}],"stateMutability":"view"},{"type":"function","name":"PoolNative","inputs":[],"outputs":[{"name":"","type":"address","internalType":"address"}],"stateMutability":"view"},{"type":"function","name":"PoolUSDC","inputs":[],"outputs":[{"name":"","type":"address","internalType":"address"}],"stateMutability":"view"},{"type":"function","name":"PoolUSDT","inputs":[],"outputs":[{"name":"","type":"address","internalType":"address"}],"stateMutability":"view"},{"type":"function","name":"TYPE","inputs":[],"outputs":[{"name":"","type":"bytes32","internalType":"bytes32"}],"stateMutability":"view"},{"type":"function","name":"VERSION","inputs":[],"outputs":[{"name":"","type":"uint256","internalType":"uint256"}],"stateMutability":"view"},{"type":"function","name":"_NAME","inputs":[],"outputs":[{"name":"","type":"string","internalType":"string"}],"stateMutability":"view"},{"type":"function","name":"acceptOwner","inputs":[],"outputs":[],"stateMutability":"nonpayable"},{"type":"function","name":"account","inputs":[],"outputs":[{"name":"","type":"address","internalType":"address"}],"stateMutability":"view"},{"type":"function","name":"caller","inputs":[],"outputs":[{"name":"","type":"address","internalType":"address"}],"stateMutability":"view"},{"type":"function","name":"contracts","inputs":[],"outputs":[{"name":"_contracts","type":"address[]","internalType":"address[]"}],"stateMutability":"view"},{"type":"function","name":"flag","inputs":[],"outputs":[{"name":"","type":"uint256","internalType":"uint256"}],"stateMutability":"view"},{"type":"function","name":"initialize","inputs":[{"name":"_owner","type":"address","internalType":"address"},{"name":"_caller","type":"address","internalType":"address"}],"outputs":[],"stateMutability":"nonpayable"},{"type":"function","name":"initialize","inputs":[{"name":"_owner","type":"address","internalType":"address"},{"name":"_caller","type":"address","internalType":"address"},{"name":"_account","type":"address","internalType":"address"}],"outputs":[],"stateMutability":"nonpayable"},{"type":"function","name":"initialize","inputs":[{"name":"_owner","type":"address","internalType":"address"}],"outputs":[],"stateMutability":"nonpayable"},{"type":"function","name":"owner","inputs":[],"outputs":[{"name":"","type":"address","internalType":"address"}],"stateMutability":"view"},{"type":"function","name":"paused","inputs":[],"outputs":[{"name":"","type":"bool","internalType":"bool"}],"stateMutability":"view"},{"type":"function","name":"pendingOwner","inputs":[],"outputs":[{"name":"","type":"address","internalType":"address"}],"stateMutability":"view"},{"type":"function","name":"postExecCheck","inputs":[{"name":"transaction","type":"tuple","internalType":"struct TransactionData","components":[{"name":"from","type":"address","internalType":"address"},{"name":"delegate","type":"address","internalType":"address"},{"name":"flag","type":"uint256","internalType":"uint256"},{"name":"to","type":"address","internalType":"address"},{"name":"value","type":"uint256","internalType":"uint256"},{"name":"data","type":"bytes","internalType":"bytes"},{"name":"hint","type":"bytes","internalType":"bytes"},{"name":"extra","type":"bytes","internalType":"bytes"}]},{"name":"callResult","type":"tuple","internalType":"struct TransactionResult","components":[{"name":"success","type":"bool","internalType":"bool"},{"name":"data","type":"bytes","internalType":"bytes"},{"name":"hint","type":"bytes","internalType":"bytes"}]},{"name":"preData","type":"tuple","internalType":"struct AuthorizerReturnData","components":[{"name":"result","type":"uint8","internalType":"enum AuthResult"},{"name":"message","type":"string","internalType":"string"},{"name":"data","type":"bytes","internalType":"bytes"}]}],"outputs":[{"name":"authData","type":"tuple","internalType":"struct AuthorizerReturnData","components":[{"name":"result","type":"uint8","internalType":"enum AuthResult"},{"name":"message","type":"string","internalType":"string"},{"name":"data","type":"bytes","internalType":"bytes"}]}],"stateMutability":"nonpayable"},{"type":"function","name":"postExecProcess","inputs":[{"name":"transaction","type":"tuple","internalType":"struct TransactionData","components":[{"name":"from","type":"address","internalType":"address"},{"name":"delegate","type":"address","internalType":"address"},{"name":"flag","type":"uint256","internalType":"uint256"},{"name":"to","type":"address","internalType":"address"},{"name":"value","type":"uint256","internalType":"uint256"},{"name":"data","type":"bytes","internalType":"bytes"},{"name":"hint","type":"bytes","internalType":"bytes"},{"name":"extra","type":"bytes","internalType":"bytes"}]},{"name":"callResult","type":"tuple","internalType":"struct TransactionResult","components":[{"name":"success","type":"bool","internalType":"bool"},{"name":"data","type":"bytes","internalType":"bytes"},{"name":"hint","type":"bytes","internalType":"bytes"}]}],"outputs":[],"stateMutability":"nonpayable"},{"type":"function","name":"preExecCheck","inputs":[{"name":"transaction","type":"tuple","internalType":"struct TransactionData","components":[{"name":"from","type":"address","internalType":"address"},{"name":"delegate","type":"address","internalType":"address"},{"name":"flag","type":"uint256","internalType":"uint256"},{"name":"to","type":"address","internalType":"address"},{"name":"value","type":"uint256","internalType":"uint256"},{"name":"data","type":"bytes","internalType":"bytes"},{"name":"hint","type":"bytes","internalType":"bytes"},{"name":"extra","type":"bytes","internalType":"bytes"}]}],"outputs":[{"name":"authData","type":"tuple","internalType":"struct AuthorizerReturnData","components":[{"name":"result","type":"uint8","internalType":"enum AuthResult"},{"name":"message","type":"string","internalType":"string"},{"name":"data","type":"bytes","internalType":"bytes"}]}],"stateMutability":"nonpayable"},{"type":"function","name":"preExecProcess","inputs":[{"name":"transaction","type":"tuple","internalType":"struct TransactionData","components":[{"name":"from","type":"address","internalType":"address"},{"name":"delegate","type":"address","internalType":"address"},{"name":"flag","type":"uint256","internalType":"uint256"},{"name":"to","type":"address","internalType":"address"},{"name":"value","type":"uint256","internalType":"uint256"},{"name":"data","type":"bytes","internalType":"bytes"},{"name":"hint","type":"bytes","internalType":"bytes"},{"name":"extra","type":"bytes","internalType":"bytes"}]}],"outputs":[],"stateMutability":"nonpayable"},{"type":"function","name":"renounceOwnership","inputs":[],"outputs":[],"stateMutability":"nonpayable"},{"type":"function","name":"send","inputs":[{"name":"_sendParam","type":"tuple","internalType":"struct StargateBridgeAuthorizer.SendParam","components":[{"name":"dstEid","type":"uint32","internalType":"uint32"},{"name":"to","type":"bytes32","internalType":"bytes32"},{"name":"amountLD","type":"uint256","internalType":"uint256"},{"name":"minAmountLD","type":"uint256","internalType":"uint256"},{"name":"extraOptions","type":"bytes","internalType":"bytes"},{"name":"composeMsg","type":"bytes","internalType":"bytes"},{"name":"oftCmd","type":"bytes","internalType":"bytes"}]},{"name":"_fee","type":"tuple","internalType":"struct StargateBridgeAuthorizer.MessagingFee","components":[{"name":"nativeFee","type":"uint256","internalType":"uint256"},{"name":"lzTokenFee","type":"uint256","internalType":"uint256"}]},{"name":"_refundAddress","type":"address","internalType":"address"}],"outputs":[],"stateMutability":"view"},{"type":"function","name":"setAccount","inputs":[{"name":"_account","type":"address","internalType":"address"}],"outputs":[],"stateMutability":"nonpayable"},{"type":"function","name":"setCaller","inputs":[{"name":"_caller","type":"address","internalType":"address"}],"outputs":[],"stateMutability":"nonpayable"},{"type":"function","name":"setPaused","inputs":[{"name":"_paused","type":"bool","internalType":"bool"}],"outputs":[],"stateMutability":"nonpayable"},{"type":"function","name":"setPendingOwner","inputs":[{"name":"to","type":"address","internalType":"address"}],"outputs":[],"stateMutability":"nonpayable"},{"type":"function","name":"setTag","inputs":[{"name":"_tag","type":"bytes32","internalType":"bytes32"}],"outputs":[],"stateMutability":"nonpayable"},{"type":"function","name":"tag","inputs":[],"outputs":[{"name":"","type":"bytes32","internalType":"bytes32"}],"stateMutability":"view"},{"type":"function","name":"toAddress","inputs":[{"name":"data","type":"bytes32","internalType":"bytes32"}],"outputs":[{"name":"","type":"address","internalType":"address"}],"stateMutability":"pure"},{"type":"function","name":"transferOwnership","inputs":[{"name":"newOwner","type":"address","internalType":"address"}],"outputs":[],"stateMutability":"nonpayable"},{"type":"event","name":"AccountSet","inputs":[{"name":"account","type":"address","indexed":true,"internalType":"address"}],"anonymous":false},{"type":"event","name":"CallerSet","inputs":[{"name":"caller","type":"address","indexed":true,"internalType":"address"}],"anonymous":false},{"type":"event","name":"NewOwnerSet","inputs":[{"name":"owner","type":"address","indexed":true,"internalType":"address"}],"anonymous":false},{"type":"event","name":"PausedSet","inputs":[{"name":"status","type":"bool","indexed":true,"internalType":"bool"}],"anonymous":false},{"type":"event","name":"PendingOwnerSet","inputs":[{"name":"to","type":"address","indexed":true,"internalType":"address"}],"anonymous":false},{"type":"event","name":"TagSet","inputs":[{"name":"tag","type":"bytes32","indexed":true,"internalType":"bytes32"}],"anonymous":false}],"bytecode":{"object":"0x60e03461030357601f611ad238819003918201601f19168301916001600160401b0383118484101761030757808492604094855283398101031261030357610052602061004b8361031b565b920161031b565b6001545f80546001600160a01b0319166001600160a01b03909416938417815560405193907f038720101b9ced74445432ced46c7e5e4c80202669153dd67d226c66a0aa477b9080a26001600160b01b031916600160a01b1760019081555f600255600380546001600160a01b0319166001600160a01b039390931692909217909155460361017957507377b2043768d28e9c9ab44e1abfc95944bce5793173c026395860db2d07ee33e05fe50ed7bd583189c773933597a323eb81cae705c5bc29985172fd5a39735b60c05260a0526080526040516117a29081610330823960805181818161070601528181610b100152610f91015260a0518181816104cb01528181610c030152610fc7015260c051818181610bbf01528181610c820152610fff0152f35b4661a86a036101b357505f735634c4a5fed09819e3c46d86a965dd9447d86e477312dc9256acc9895b076f6638d628382881e62cee61011c565b466089036101ec57505f739aa02d4fae7f58b8e8f34c66e756cc734dac7fe473d47b03ee6d86cf251ee7860fb2acf9f91b9fd4d761011c565b4661a4b10361023a575073a45b5130f36cdca45667738e2a258ab09f4a5f7f73e8cdf27acd73a434d661c84887215f7598e7d0d373ce8cca271ebc0533920c83d39f417ed6a0abb7d061011c565b46600a03610287575073e8cdf27acd73a434d661c84887215f7598e7d0d373ce8cca271ebc0533920c83d39f417ed6a0abb7d07319cfce47ed54a88614648dc3f19a5980097007dd61011c565b46612105036102c1575073dc181bd607330aeebef6ea62e03e5e1fb4b6f7c77327a16dc786820b16e5c9028b75b99f6f604b5d265f61011c565b62461bcd60e51b815260206004820152601660248201527f6e6f20636861696e206964206973206d617463686564000000000000000000006044820152606490fd5b5f80fd5b634e487b7160e01b5f52604160045260245ffd5b51906001600160a01b03821682036103035756fe60806040526004361015610019575b341561116e575b5f80fd5b5f3560e01c806308dbebf61461021857806316c38b3c1461021357806329f6d57c1461020e578063341f662314610209578063485cc955146102045780634fdf311d146101ff57806351f91066146101fa5780635c975abb146101f55780635dab2420146101f05780636c0f79b6146101eb578063715018a6146101e65780637c4c833b146101e1578063890eba68146101dc5780638da5cb5b146101d75780639d432c01146101d25780639d5228e8146101cd578063a3f4df7e146101c8578063b695e2ef146101c3578063bb24fe8a146101be578063beb92f55146101b9578063c0c53b8b146101b4578063c42069ec146101af578063c4d66de8146101aa578063c7c7f5b3146101a5578063d58c3fc3146101a0578063d61dac121461019b578063e30c397814610196578063ebbc496514610191578063f26600271461018c578063f2fde38b14610187578063fc9c8d39146101825763ffa1ad740361000e57610e26565b610dfe565b610d79565b610d06565b610cd9565b610cb1565b610c6d565b610c5f565b610aa1565b610a7c565b610a03565b610985565b6108d4565b6108ac565b61085d565b610823565b610792565b6106f1565b6106ca565b6106af565b610656565b6105c9565b610564565b61053c565b610517565b6104fa565b6104b6565b610482565b610461565b61039d565b610303565b610255565b805180835260209291819084018484015e5f828201840152601f01601f1916010190565b90602061025292818152019061021d565b90565b34610015575f366003190112610015576040516351fa6fbf60e11b8152602081600481305afa9081156102f8575f916102c4575b6102c06102a66102b4846040519283916020830160209181520190565b03601f198101835282610e55565b60405191829182610241565b0390f35b90506020813d6020116102f0575b816102df60209383610e55565b8101031261001557516102a6610289565b3d91506102d2565b6040513d5f823e3d90fd5b3461001557602036600319011261001557600435801515809103610015575f54610340906001600160a01b0316610338610ea6565b903314610ec7565b6001805460ff60a81b191660a883901b60ff60a81b161790557f40db37ff5c0bdc2c427fbb2078c8f24afea940abac0e3c23bb4ea3bf2da2b2125f80a2005b6001600160a01b0381160361001557565b359061039b8261037f565b565b34610015576020366003190112610015576004356103ba8161037f565b5f546103d1906001600160a01b0316610338610ea6565b6001600160a01b0316801561041857600480546001600160a01b031916821790557f195359283029fbdb9a24519b1ec07caf1677655529bf99dc1634c1e8b28811805f80a2005b60405162461bcd60e51b815260206004820152600f60248201526e125b9d985b1a59081858d8dbdd5b9d608a1b6044820152606490fd5b60209060031901126100155760043590565b346100155760206001600160a01b036104793661044f565b16604051908152f35b34610015576040366003190112610015576104b46004356104a28161037f565b602435906104af8261037f565b610ef7565b005b34610015575f366003190112610015576040517f00000000000000000000000000000000000000000000000000000000000000006001600160a01b03168152602090f35b34610015575f366003190112610015576020600254604051908152f35b34610015575f36600319011261001557602060ff60015460a81c166040519015158152f35b34610015575f366003190112610015576004546040516001600160a01b039091168152602090f35b34610015575f3660031901126100155761057c610f69565b6040518091602082016020835281518091526020604084019201905f5b8181106105a7575050500390f35b82516001600160a01b0316845285945060209384019390920191600101610599565b34610015575f366003190112610015575f546105f0906001600160a01b0316610338610ea6565b6001600160601b0360a01b5f54165f556001600160601b0360a01b600154166001555f7f038720101b9ced74445432ced46c7e5e4c80202669153dd67d226c66a0aa477b8180a2005b90816101009103126100155790565b908160609103126100155790565b34610015576040366003190112610015576004356001600160401b03811161001557610686903690600401610639565b506024356001600160401b038111610015576106a6903690600401610648565b506104b461104c565b34610015575f36600319011261001557602060405160018152f35b34610015575f366003190112610015575f546040516001600160a01b039091168152602090f35b34610015575f366003190112610015576040517f00000000000000000000000000000000000000000000000000000000000000006001600160a01b03168152602090f35b9060208252805191600283101561077e5761025292602082015260406107696020840151606083850152608084019061021d565b920151906060601f198285030191015261021d565b634e487b7160e01b5f52602160045260245ffd5b34610015576060366003190112610015576004356001600160401b038111610015576107c2903690600401610639565b6024356001600160401b038111610015576107e1903690600401610648565b90604435906001600160401b038211610015576102c092610809610817933690600401610648565b91610812611064565b611093565b60405191829182610735565b34610015575f3660031901126100155760206040517f5374617267617465427269646765417574686f72697a657200000000000000008152f35b346100155761086b3661044f565b5f54610882906001600160a01b0316610338610ea6565b806002557fef711e3eb06966d227e22eb4fa0302550dcd7257cf69b537cf4d37af53ea9cda5f80a2005b34610015575f3660031901126100155760405169436f6d6d6f6e5479706560b01b8152602090f35b34610015576020366003190112610015576004356108f18161037f565b5f54610908906001600160a01b0316610338610ea6565b6001600160a01b0316801561094f57600380546001600160a01b031916821790557fac431eb831269b53b41991f6cbfbfc93f4baa395996a8170abac93962b5a358e5f80a2005b60405162461bcd60e51b815260206004820152600e60248201526d24b73b30b634b21031b0b63632b960911b6044820152606490fd5b34610015576060366003190112610015576004356109a28161037f565b6109be6024356109b18161037f565b604435926104af8461037f565b600480546001600160a01b0319166001600160a01b039290921691821790557f195359283029fbdb9a24519b1ec07caf1677655529bf99dc1634c1e8b28811805f80a2005b3461001557602036600319011261001557600435610a208161037f565b5f54610a37906001600160a01b0316610338610ea6565b600180546001600160a01b0319166001600160a01b039290921691821790557f68f49b346b94582a8b5f9d10e3fe3365318fe8f191ff8dce7c59c6cad06b02f55f80a2005b34610015576020366003190112610015576104b4600435610a9c8161037f565b611101565b34610015576080366003190112610015576004356001600160401b0381116100155760e06003198236030112610015576040366023190112610015576104b490610b82602460643592610af38461037f565b610b0e6060610b0061124d565b01516001600160a01b031690565b7f00000000000000000000000000000000000000000000000000000000000000006001600160a01b039081169116148015610bf3575b8015610bac575b610b5490611167565b610b746001600160a01b03610b6c6060610b0061124d565b161515611167565b01356001600160a01b031690565b5f546001600160a01b039081169291610b9d91168314611167565b6001600160a01b031614611167565b50610b54610bbd6060610b0061124d565b7f00000000000000000000000000000000000000000000000000000000000000006001600160a01b039081169116149050610b4b565b50610c016060610b0061124d565b7f00000000000000000000000000000000000000000000000000000000000000006001600160a01b03908116911614610b44565b602060031982011261001557600435906001600160401b0382116100155761025291600401610639565b34610015576106a636610c35565b34610015575f366003190112610015576040517f00000000000000000000000000000000000000000000000000000000000000006001600160a01b03168152602090f35b34610015575f366003190112610015576001546040516001600160a01b039091168152602090f35b34610015575f366003190112610015576001546001600160a01b031633819003610015576104b4906111ae565b34610015576102c0610d1736610c35565b610d1f611064565b610d3d60018060a01b03600354163314610d3761102b565b90610ec7565b9060ff60015460a81c165f14610d6a57505f8152610d596110e0565b602082015260405191829182610735565b610d74915061139a565b610817565b3461001557602036600319011261001557600435610d968161037f565b5f54610dad906001600160a01b0316610338610ea6565b6001600160a01b03811615610dc5576104b4906111ae565b60405162461bcd60e51b81526020600482015260116024820152704e6577204f776e6572206973207a65726f60781b6044820152606490fd5b34610015575f366003190112610015576003546040516001600160a01b039091168152602090f35b34610015575f36600319011261001557602060405160028152f35b634e487b7160e01b5f52604160045260245ffd5b90601f801991011681019081106001600160401b03821117610e7657604052565b610e41565b6040519061039b61010083610e55565b6001600160401b038111610e7657601f01601f191660200190565b60405190610eb5604083610e55565b600382526245333560e81b6020830152565b15610ecf5750565b60405162461bcd60e51b815260206004820152908190610ef390602483019061021d565b0390fd5b610f0090611101565b600380546001600160a01b0319166001600160a01b039290921691821790557fac431eb831269b53b41991f6cbfbfc93f4baa395996a8170abac93962b5a358e5f80a2565b805160021015610f555760600190565b634e487b7160e01b5f52603260045260245ffd5b60405190610f78608083610e55565b60038252602082019160603684378092815115610f55577f00000000000000000000000000000000000000000000000000000000000000006001600160a01b03169052805160011015610f55577f00000000000000000000000000000000000000000000000000000000000000006001600160a01b03166040820152610ffd90610f45565b7f00000000000000000000000000000000000000000000000000000000000000006001600160a01b03169052565b6040519061103a604083610e55565b600382526245323760e81b6020830152565b61039b60018060a01b03600354163314610d3761102b565b60405190606082018281106001600160401b03821117610e765760405260606040835f81528260208201520152565b925050506110af60018060a01b03600354163314610d3761102b565b60015460a81c60ff16156110d0575f81526110c86110e0565b602082015290565b506110d9611064565b6001815290565b604051906110ef604083610e55565b6003825262229a1b60e91b6020830152565b60ff60015460a01c1661112c57611117906111ae565b6001805460ff60a01b1916600160a01b179055565b60405162461bcd60e51b8152602060048201526013602482015272105b1c9958591e481a5b9a5d1a585b1a5e9959606a1b6044820152606490fd5b1561001557565b610ef360405161117f604082610e55565b600381526245343960e81b602082015260405191829162461bcd60e51b8352602060048401818152019061021d565b60018060a01b0316806001600160601b0360a01b5f5416175f556001600160601b0360a01b600154166001557f038720101b9ced74445432ced46c7e5e4c80202669153dd67d226c66a0aa477b5f80a2565b6040519061010082018281106001600160401b03821117610e7657604052606060e0835f81525f60208201525f60408201525f838201525f60808201528260a08201528260c08201520152565b611255611200565b5061125e611200565b50601f193601368111611357573536811161001557803603810190602081830312610015578035906001600160401b038211610015570161010081830312610015576112a8610e7b565b916112b282610390565b83526112c060208301610390565b6020840152604082013560408401526112db60608301610390565b60608401526080820135608084015260a08201356001600160401b038111610015578161130991840161154e565b60a084015260c08201356001600160401b038111610015578161132d91840161154e565b60c084015260e08201356001600160401b0381116100155761134f920161154e565b60e082015290565b634e487b7160e01b5f52601160045260245ffd5b3d15611395573d9061137c82610e8b565b9161138a6040519384610e55565b82523d5f602084013e565b606090565b6113a2611064565b6113ab82611594565b1561152357505f8061150a61150a611510610252956102a66114e26114f5604051936020808601526113f0604086016113e383610390565b6001600160a01b03169052565b61140f6113ff60208301610390565b6001600160a01b03166060870152565b6040810135608086015261143861142860608301610390565b6001600160a01b031660a0870152565b608081013560c086015260a08101906114bf866114b161149161147161145e87876115f8565b61010060e0870152610140860191611629565b61147e60c08701876115f8565b858303603f190161010087015290611629565b61149e60e08601866115f8565b848303603f190161012086015290611629565b03601f198101885287610e55565b6114f06114cc8383611649565b9050604051958691602083019190602083019252565b03601f198101865285610e55565b611649565b96909360405196879560208701998a9161167b565b90611688565b5190305afa61151d61136b565b906116bb565b90505f8152604051611536604082610e55565b600381526245353560e81b6020820152602082015290565b81601f820112156100155780359061156582610e8b565b926115736040519485610e55565b8284526020838301011161001557815f926020809301838601378301015290565b606001356115a18161037f565b6115a9610f69565b906001600160a01b03165f5b82518110156115f1578251811015610f5557600581901b8301602001516001600160a01b031682146115e9576001016115b5565b505050600190565b5050505f90565b9035601e19823603018112156100155701602081359101916001600160401b03821161001557813603831361001557565b908060209392818452848401375f828201840152601f01601f1916010190565b903590601e198136030182121561001557018035906001600160401b0382116100155760200191813603831361001557565b908092918237015f815290565b805191908290602001825e015f815290565b604051906116a9604083610e55565b600382526245333960e81b6020830152565b91906116c5611064565b92156116df576116d9905115610d3761169a565b60018252565b60448151105f146116f1576020830152565b6004810151810160248101919060209082900312610015576024810151906001600160401b0382116100155701816043820112156100155760248101519061173882610e8b565b926117466040519485610e55565b8284526044828401011161001557815f926044602093018386015e83010152602083015256fea2646970667358221220a6cc1ff5381be95ed634edcd9833af973db1dfd5e7d40b517712aac95e3a606664736f6c634300081a0033","linkReferences":{}},"methodIdentifiers":{"NAME()":"a3f4df7e","PoolNative()":"9d432c01","PoolUSDC()":"4fdf311d","PoolUSDT()":"d61dac12","TYPE()":"bb24fe8a","VERSION()":"ffa1ad74","_NAME()":"08dbebf6","acceptOwner()":"ebbc4965","account()":"5dab2420","caller()":"fc9c8d39","contracts()":"6c0f79b6","flag()":"890eba68","initialize(address)":"c4d66de8","initialize(address,address)":"485cc955","initialize(address,address,address)":"c0c53b8b","owner()":"8da5cb5b","paused()":"5c975abb","pendingOwner()":"e30c3978","postExecCheck((address,address,uint256,address,uint256,bytes,bytes,bytes),(bool,bytes,bytes),(uint8,string,bytes))":"9d5228e8","postExecProcess((address,address,uint256,address,uint256,bytes,bytes,bytes),(bool,bytes,bytes))":"7c4c833b","preExecCheck((address,address,uint256,address,uint256,bytes,bytes,bytes))":"f2660027","preExecProcess((address,address,uint256,address,uint256,bytes,bytes,bytes))":"d58c3fc3","renounceOwnership()":"715018a6","send((uint32,bytes32,uint256,uint256,bytes,bytes,bytes),(uint256,uint256),address)":"c7c7f5b3","setAccount(address)":"29f6d57c","setCaller(address)":"beb92f55","setPaused(bool)":"16c38b3c","setPendingOwner(address)":"c42069ec","setTag(bytes32)":"b695e2ef","tag()":"51f91066","toAddress(bytes32)":"341f6623","transferOwnership(address)":"f2fde38b"},"id":50}