{"abi":[{"type":"function","name":"NAME","inputs":[],"outputs":[{"name":"","type":"bytes32","internalType":"bytes32"}],"stateMutability":"view"},{"type":"function","name":"VERSION","inputs":[],"outputs":[{"name":"","type":"uint256","internalType":"uint256"}],"stateMutability":"view"},{"type":"function","name":"getAllDelegateRoles","inputs":[{"name":"coboSafeAddress","type":"address","internalType":"address"}],"outputs":[{"name":"delegateRoles","type":"tuple[]","internalType":"struct ArgusViewHelper.DelegateRoles[]","components":[{"name":"delegate","type":"address","internalType":"address"},{"name":"roles","type":"bytes32[]","internalType":"bytes32[]"}]}],"stateMutability":"view"},{"type":"function","name":"getAllRoles","inputs":[{"name":"coboSafeAddress","type":"address","internalType":"address"}],"outputs":[{"name":"roles","type":"bytes32[]","internalType":"bytes32[]"}],"stateMutability":"view"},{"type":"function","name":"getAuthorizersByRole","inputs":[{"name":"coboSafeAddress","type":"address","internalType":"address"},{"name":"isDelegateCall","type":"bool","internalType":"bool"},{"name":"role","type":"bytes32","internalType":"bytes32"}],"outputs":[{"name":"authorizerInfos","type":"tuple[]","internalType":"struct ArgusViewHelper.AuthorizerInfo[]","components":[{"name":"authorizer","type":"address","internalType":"address"},{"name":"name","type":"bytes32","internalType":"bytes32"},{"name":"version","type":"uint256","internalType":"uint256"},{"name":"authType","type":"bytes32","internalType":"bytes32"},{"name":"tag","type":"bytes32","internalType":"bytes32"}]}],"stateMutability":"view"},{"type":"function","name":"getCoboSafes","inputs":[{"name":"factory","type":"address","internalType":"contract CoboFactory"},{"name":"gnosisSafeAddress","type":"address","internalType":"address"}],"outputs":[{"name":"moduleInfos","type":"tuple[]","internalType":"struct ArgusViewHelper.ModuleInfo[]","components":[{"name":"moduleAddress","type":"address","internalType":"address"},{"name":"version","type":"uint256","internalType":"uint256"},{"name":"isEnabled","type":"bool","internalType":"bool"}]}],"stateMutability":"view"},{"type":"function","name":"getDexAuthorizerParams","inputs":[{"name":"dexAuthorizerAddress","type":"address","internalType":"address"}],"outputs":[{"name":"swapInTokens","type":"address[]","internalType":"address[]"},{"name":"swapOutTokens","type":"address[]","internalType":"address[]"}],"stateMutability":"view"},{"type":"function","name":"getFuncAuthorizerParams","inputs":[{"name":"funcAuthorizerAddress","type":"address","internalType":"address"}],"outputs":[{"name":"authorizerInfos","type":"tuple[]","internalType":"struct ArgusViewHelper.FuncAuthorizerInfo[]","components":[{"name":"_contract","type":"address","internalType":"address"},{"name":"selectors","type":"bytes32[]","internalType":"bytes32[]"}]}],"stateMutability":"view"},{"type":"function","name":"getRolesByDelegate","inputs":[{"name":"coboSafeAddress","type":"address","internalType":"address"},{"name":"delegate","type":"address","internalType":"address"}],"outputs":[{"name":"roles","type":"bytes32[]","internalType":"bytes32[]"}],"stateMutability":"view"},{"type":"function","name":"getTransferAuthorizerParams","inputs":[{"name":"transferAuthorizerAddress","type":"address","internalType":"address"}],"outputs":[{"name":"authorizerInfos","type":"tuple[]","internalType":"struct ArgusViewHelper.TransferAuthorizerInfo[]","components":[{"name":"token","type":"address","internalType":"address"},{"name":"receivers","type":"address[]","internalType":"address[]"}]}],"stateMutability":"view"}],"bytecode":{"object":"0x60808060405234601557611295908161001a8239f35b5f80fdfe6080806040526004361015610012575f80fd5b5f3560e01c90816321cb09b214610eaf575080634647a7d314610c0e57806385684f1a14610a4e5780638cde324d146108265780638f0ea3401461075657806398720b11146103ac578063a3f4df7e1461037f578063b27fb66814610294578063f8b5c88e146100a95763ffa1ad741461008a575f80fd5b346100a5575f3660031901126100a557602060405160018152f35b5f80fd5b346100a55760203660031901126100a5576001600160a01b036100ca610f7e565b604051632178f07560e21b815291165f82600481845afa9182156101d7575f92610278575b5081516100fb8161110a565b9061010960405192836110d4565b808252610118601f199161110a565b015f5b8181106102615750505f5b83518110156101e2576001600160a01b03610141828661121e565b5116906001600160a01b03610156828761121e565b51604051632695b4bb60e01b815291166004820152915f83602481885afa80156101d7576001935f916101b5575b50604051916101928361109c565b825260208201526101a3828561121e565b526101ae818461121e565b5001610126565b6101d191503d805f833e6101c981836110d4565b81019061119c565b87610184565b6040513d5f823e3d90fd5b506040518091602082016020835281518091526040830190602060408260051b8601019301915f905b82821061021a57505050500390f35b919360019193955060206102518192603f198a82030186526040838a51878060a01b03815116845201519181858201520190611030565b960192019201859493919261020b565b60209061026c611246565b8282860101520161011b565b61028d9192503d805f833e6101c981836110d4565b90826100ef565b346100a55760203660031901126100a557600460206001600160a01b036102b9610f7e565b166040519283809262435da560e01b82525afa9081156101d7575f91610341575b5060405163f2bcac3d60e01b8152905f90829060049082906001600160a01b03165afa80156101d75761031b915f9161031f575b5060405191829182610faa565b0390f35b61033b91503d805f833e61033381836110d4565b810190611122565b8261030e565b90506020813d602011610377575b8161035c602093836110d4565b810103126100a5575f6103706004926110f6565b91506102da565b3d915061034f565b346100a5575f3660031901126100a5576040516e20b933bab9ab34b2bba432b63832b960891b8152602090f35b346100a55760603660031901126100a5576103c5610f7e565b6024358015158091036100a55760405163d09edf3160e01b815291602090839060049082906001600160a01b03165afa9182156101d7575f92610719575b506040516314a6293160e31b8152600481019190915260448035602483015290915f91839182906001600160a01b03165afa9081156101d7575f916106ff575b50805161044f8161110a565b9061045d60405192836110d4565b80825261046c601f199161110a565b015f5b8181106106ca5750505f5b8251811015610654576001600160a01b03610495828561121e565b5116906001600160a01b036104aa828661121e565b51166040516351fa6fbf60e11b8152602081600481875afa9081156101d7575f91610623575b506040516001621794a360e21b03198152602081600481885afa9081156101d7575f916105f2575b50604051635d927f4560e11b815290602082600481895afa9182156101d7575f926105bc575b506020600496604051978880926328fc883360e11b82525afa9283156101d7575f93610588575b6001965060405194610556866110b8565b85526020850152604084015260608301526080820152610576828561121e565b52610581818461121e565b500161047a565b92506020863d82116105b4575b816105a2602093836110d4565b810103126100a5576001955192610545565b3d9150610595565b9591506020863d82116105ea575b816105d7602093836110d4565b810103126100a55794519094602061051e565b3d91506105ca565b90506020813d821161061b575b8161060c602093836110d4565b810103126100a55751876104f8565b3d91506105ff565b90506020813d821161064c575b8161063d602093836110d4565b810103126100a55751866104d0565b3d9150610630565b506040518091602082016020835281518091526020604084019201905f5b818110610680575050500390f35b91935091602060a0600192608087518580851b0381511683528481015185840152604081015160408401526060810151606084015201516080820152019401910191849392610672565b6020906040516106d9816110b8565b5f81525f838201525f60408201525f60608201525f60808201528282860101520161046f565b61071391503d805f833e6101c981836110d4565b81610443565b9091506020813d60201161074e575b81610735602093836110d4565b810103126100a5576107475f916110f6565b9190610403565b3d9150610728565b346100a55760203660031901126100a5576001600160a01b03610777610f7e565b6040516316ea5c5d60e01b815291165f82600481845afa9081156101d7576004925f92610808575b505f906040519384809263712beb0960e01b82525afa9182156101d7576107e09261031b915f916107ee575b50604051938493604085526040850190611030565b908382036020850152611030565b61080291503d805f833e6101c981836110d4565b846107cb565b5f91925061081f903d8084833e6101c981836110d4565b919061079f565b346100a55760203660031901126100a557600460206001600160a01b0361084b610f7e565b166040519283809262435da560e01b82525afa9081156101d7575f91610a14575b5060405163641c665b60e11b8152906001600160a01b03165f82600481845afa9182156101d7575f926109f8575b5081516108a68161110a565b906108b460405192836110d4565b8082526108c3601f199161110a565b015f5b8181106109e15750505f5b835181101561097a576001600160a01b036108ec828661121e565b5116906001600160a01b03610901828761121e565b5160405163ce6ccfaf60e01b815291166004820152915f83602481885afa80156101d7576001935f91610960575b506040519161093d8361109c565b8252602082015261094e828561121e565b52610959818461121e565b50016108d1565b61097491503d805f833e61033381836110d4565b8761092f565b506040518091602082016020835281518091526040830190602060408260051b8601019301915f905b8282106109b257505050500390f35b919360019193955060206109d18192603f198a82030186528851610fe3565b96019201920185949391926109a3565b6020906109ec611246565b828286010152016108c6565b610a0d9192503d805f833e6101c981836110d4565b908261089a565b90506020813d602011610a46575b81610a2f602093836110d4565b810103126100a557610a40906110f6565b8161086c565b3d9150610a22565b346100a55760203660031901126100a5576001600160a01b03610a6f610f7e565b604051630c69e74b60e11b815291165f82600481845afa9182156101d7575f92610bf2575b508151610aa08161110a565b90610aae60405192836110d4565b808252610abd601f199161110a565b015f5b818110610bdb5750505f5b8351811015610b74576001600160a01b03610ae6828661121e565b5116906001600160a01b03610afb828761121e565b516040516337305b9f60e21b815291166004820152915f83602481885afa80156101d7576001935f91610b5a575b5060405191610b378361109c565b82526020820152610b48828561121e565b52610b53818461121e565b5001610acb565b610b6e91503d805f833e61033381836110d4565b87610b29565b506040518091602082016020835281518091526040830190602060408260051b8601019301915f905b828210610bac57505050500390f35b91936001919395506020610bcb8192603f198a82030186528851610fe3565b9601920192018594939192610b9d565b602090610be6611246565b82828601015201610ac0565b610c079192503d805f833e6101c981836110d4565b9082610a94565b346100a55760403660031901126100a5576004356001600160a01b038116908190036100a5576044905f610c40610f94565b60405193848092639815121360e01b825260018060a01b0316948560048301526e10dbd89bd4d859995058d8dbdd5b9d608a1b60248301525afa9182156101d7575f92610e93575b508151610c948161110a565b90610ca260405192836110d4565b808252610cb1601f199161110a565b015f5b818110610e6a5750505f5b8351811015610e01576004906001600160a01b03610cdd828761121e565b511660206001600160a01b03610cf3848961121e565b51169160405194858092633fe86b5d60e21b82525afa9283156101d7575f93610dce575b506001600160a01b03610d2a838861121e565b51604051632d9ad53d60e01b815291166004820152602081602481895afa9081156101d7575f91610d91575b5060019360405192610d678461106c565b8352602083015215156040820152610d7f828561121e565b52610d8a818461121e565b5001610cbf565b90506020813d8211610dc6575b81610dab602093836110d4565b810103126100a557519283151584036100a557926001610d56565b3d9150610d9e565b9092506020813d8211610df9575b81610de9602093836110d4565b810103126100a557519186610d17565b3d9150610ddc565b506040518091602082016020835281518091526020604084019201905f5b818110610e2d575050500390f35b825180516001600160a01b031685526020818101518187015260409182015115159186019190915286955060609094019390920191600101610e1f565b602090604051610e798161106c565b5f81525f838201525f604082015282828601015201610cb4565b610ea89192503d805f833e6101c981836110d4565b9082610c88565b346100a55760403660031901126100a557610ec8610f7e565b602082600481610ed6610f94565b62435da560e01b8252946001600160a01b03165afa9182156101d7575f92610f41575b5060405163ce6ccfaf60e01b81526001600160a01b039182166004820152915f9183916024918391165afa80156101d75761031b915f9161031f575060405191829182610faa565b9091506020813d602011610f76575b81610f5d602093836110d4565b810103126100a557610f6f5f916110f6565b9190610ef9565b3d9150610f50565b600435906001600160a01b03821682036100a557565b602435906001600160a01b03821682036100a557565b60206040818301928281528451809452019201905f5b818110610fcd5750505090565b8251845260209384019390920191600101610fc0565b6020606081604085019360018060a01b0381511686520151936040838201528451809452019201905f5b81811061101a5750505090565b825184526020938401939092019160010161100d565b90602080835192838152019201905f5b81811061104d5750505090565b82516001600160a01b0316845260209384019390920191600101611040565b6060810190811067ffffffffffffffff82111761108857604052565b634e487b7160e01b5f52604160045260245ffd5b6040810190811067ffffffffffffffff82111761108857604052565b60a0810190811067ffffffffffffffff82111761108857604052565b90601f8019910116810190811067ffffffffffffffff82111761108857604052565b51906001600160a01b03821682036100a557565b67ffffffffffffffff81116110885760051b60200190565b6020818303126100a55780519067ffffffffffffffff82116100a557019080601f830112156100a55781516111568161110a565b9261116460405194856110d4565b81845260208085019260051b8201019283116100a557602001905b82821061118c5750505090565b815181526020918201910161117f565b6020818303126100a55780519067ffffffffffffffff82116100a557019080601f830112156100a55781516111d08161110a565b926111de60405194856110d4565b81845260208085019260051b8201019283116100a557602001905b8282106112065750505090565b60208091611213846110f6565b8152019101906111f9565b80518210156112325760209160051b010190565b634e487b7160e01b5f52603260045260245ffd5b604051906112538261109c565b60606020835f8152015256fea264697066735822122055a3b5f49ea1eeb40211602f2e00e485889b8d6d2801c1a7e5439e812967c98664736f6c634300081a0033","linkReferences":{}},"methodIdentifiers":{"NAME()":"a3f4df7e","VERSION()":"ffa1ad74","getAllDelegateRoles(address)":"8cde324d","getAllRoles(address)":"b27fb668","getAuthorizersByRole(address,bool,bytes32)":"98720b11","getCoboSafes(address,address)":"4647a7d3","getDexAuthorizerParams(address)":"8f0ea340","getFuncAuthorizerParams(address)":"85684f1a","getRolesByDelegate(address,address)":"21cb09b2","getTransferAuthorizerParams(address)":"f8b5c88e"},"id":66}