{"abi":[{"type":"function","name":"errorAddress","inputs":[],"outputs":[],"stateMutability":"nonpayable"},{"type":"function","name":"errorBool","inputs":[],"outputs":[],"stateMutability":"nonpayable"},{"type":"function","name":"errorBytes","inputs":[],"outputs":[],"stateMutability":"nonpayable"},{"type":"function","name":"errorBytes32","inputs":[],"outputs":[],"stateMutability":"nonpayable"},{"type":"function","name":"errorInt","inputs":[],"outputs":[],"stateMutability":"nonpayable"},{"type":"function","name":"errorString","inputs":[],"outputs":[],"stateMutability":"nonpayable"},{"type":"function","name":"errorUint","inputs":[],"outputs":[],"stateMutability":"nonpayable"},{"type":"function","name":"logAddress","inputs":[],"outputs":[],"stateMutability":"nonpayable"},{"type":"function","name":"logBool","inputs":[],"outputs":[],"stateMutability":"nonpayable"},{"type":"function","name":"logBytes","inputs":[],"outputs":[],"stateMutability":"nonpayable"},{"type":"function","name":"logBytes32","inputs":[],"outputs":[],"stateMutability":"nonpayable"},{"type":"function","name":"logInt","inputs":[],"outputs":[],"stateMutability":"nonpayable"},{"type":"function","name":"logString","inputs":[],"outputs":[],"stateMutability":"nonpayable"},{"type":"function","name":"logUint","inputs":[],"outputs":[],"stateMutability":"nonpayable"},{"type":"event","name":"Log","inputs":[{"name":"","type":"bool","indexed":false,"internalType":"bool"}],"anonymous":false},{"type":"event","name":"Log","inputs":[{"name":"","type":"address","indexed":false,"internalType":"address"}],"anonymous":false},{"type":"event","name":"Log","inputs":[{"name":"","type":"int256","indexed":false,"internalType":"int256"}],"anonymous":false},{"type":"event","name":"Log","inputs":[{"name":"","type":"uint256","indexed":false,"internalType":"uint256"}],"anonymous":false},{"type":"event","name":"Log","inputs":[{"name":"","type":"bytes32","indexed":false,"internalType":"bytes32"}],"anonymous":false},{"type":"event","name":"Log","inputs":[{"name":"","type":"string","indexed":false,"internalType":"string"}],"anonymous":false},{"type":"event","name":"Log","inputs":[{"name":"","type":"bytes","indexed":false,"internalType":"bytes"}],"anonymous":false},{"type":"error","name":"StringsInsufficientHexLength","inputs":[{"name":"value","type":"uint256","internalType":"uint256"},{"name":"length","type":"uint256","internalType":"uint256"}]}],"bytecode":{"object":"0x60808060405234601557610a6e908161001a8239f35b5f80fdfe60806040526004361015610011575f80fd5b5f803560e01c806312dd3bc7146107fe5780634386ef72146106ae578063465d521a1461065c5780635a5125411461061c57806381891bdf146105e0578063a99c5d2f146105a3578063aacfa6dd146104c6578063b2c2456114610485578063bc1dc9221461034d578063c5fbb8d7146101ea578063c601ff97146101ab578063d0dc7b4b14610154578063d69146fd146100fd5763e7fed4e6146100b4575f80fd5b346100fa57806003193601126100fa577f32d5ab96f608074ecb7a2188938a6154ca0cb72029f98b277aa9284b9d47f5c360206040516541414141414160d01b8152a180f35b80fd5b50346100fa57806003193601126100fa5761015060405161011f60408261092f565b60048152637472756560e01b602082015260405191829162461bcd60e51b83526020600484015260248301906109d1565b0390fd5b50346100fa57806003193601126100fa577fcf34ef537ac33ee1ac626ca1587a0a7e8e51561e5514f8cb36afa1c5102b3bab6101a5610191610981565b6040519182916020835260208301906109d1565b0390a180f35b50346100fa57806003193601126100fa577f47f8c0417b311dcdb6348ff8ce66cad6024dedecfc28f969dd137de9c735012a602060405160018152a180f35b50346100fa57806003193601126100fa577310ed43c718714eb63d5aa57b78b54704e256024e9061021b602a610965565b91610229604051938461092f565b602a8352610237602a610965565b6020840190601f19013682378351156103395760309053825160011015610325576078602184015360295b600181116102bc57506102905760405162461bcd60e51b8152602060048201528061015060248201856109d1565b63e22e27eb60e01b81527310ed43c718714eb63d5aa57b78b54704e256024e6004526014602452604490fd5b90600f81166010811015610311576f181899199a1a9b1b9c1cb0b131b232b360811b901a6102ea8386610a27565b5360041c9080156102fd575f1901610262565b634e487b7160e01b83526011600452602483fd5b634e487b7160e01b84526032600452602484fd5b634e487b7160e01b82526032600452602482fd5b634e487b7160e01b83526032600452602483fd5b50346100fa57806003193601126100fa576103666109af565b80516001600160ff1b03811681036102fd576103849060011b6109f5565b825b8251811015610464576103998184610a27565b51600f8160f81c1690601082101561042857600183901b916001600160ff1b038416840361045057600183019081841161043c576f181899199a1a9b1b9c1cb0b131b232b360811b901a906103ee9086610a27565b5360fc1c601081101561042857600192916f181899199a1a9b1b9c1cb0b131b232b360811b90911a906104219085610a27565b5301610386565b634e487b7160e01b86526032600452602486fd5b634e487b7160e01b88526011600452602488fd5b634e487b7160e01b87526011600452602487fd5b60405162461bcd60e51b8152602060048201528061015060248201856109d1565b50346100fa57806003193601126100fa577f835daa263bb27549dc75f824fd14009a140fbf975f4779aefc8470cf981196b360206040516104d1198152a180f35b50346100fa57806003193601126100fa57600a6104d2808380610598575b83826064602194101561058a575b1015610582575b600181949394019461050a86610965565b95610518604051978861092f565b808752610527601f1991610965565b01366020880137508401015b5f1901916f181899199a1a9b1b9c1cb0b131b232b360811b8282061a83530490811561056157600a90610533565b60405162461bcd60e51b8152602060048201528061015060248201866109d1565b6001016104f9565b6064600291049201916104f2565b5083905060046104e4565b50346100fa57806003193601126100fa577fafabcf2dd47e06a477a89e49c03f8ebe8e0a7e94f775b25bbb24227c9d0110b26101a56101916109af565b50346100fa57806003193601126100fa576101506105fc610981565b60405162461bcd60e51b81526020600482015291829160248301906109d1565b50346100fa57806003193601126100fa577f909c57d5c6ac08245cf2a6de3900e2b868513fa59099b92b27d8db823d92df9c60206040516104d28152a180f35b50346100fa57806003193601126100fa577fb8a00d6d8ca1be30bfec34d8f97e55f0f0fd9eeb7fb46e030516363d4cfe1ad660206040517310ed43c718714eb63d5aa57b78b54704e256024e8152a180f35b50346100fa57806003193601126100fa576040908151916106cf818461092f565b600183526020830191602d60f81b83526104d293818581936107f3575b80612710600a9210156107e4575b60648110156107d6575b10156107cc575b6001830195600a60216107356107208a610965565b9961072d89519b8c61092f565b808b52610965565b60208a019690601f19013688378901015b5f1901916f181899199a1a9b1b9c1cb0b131b232b360811b8282061a83530490811561077457600a90610746565b505060206107ae936101509786519788955180918588015e85019083820190858252519283915e010190815203601f19810184528361092f565b5162461bcd60e51b81526020600482015291829160248301906109d1565b916001019161070b565b606460029104940193610704565b612710600491049401936106fa565b5060089250806106ec565b3461092b575f36600319011261092b57670626466686a6c6e760c31b6108246042610965565b90610832604051928361092f565b60428252601f196108436042610965565b013660208401378151156109175760306020830153815160011015610917576078602183015360415b600181116108c2575061089d5760405162461bcd60e51b8152602060048201529081906101509060248301906109d1565b63e22e27eb60e01b5f908152670626466686a6c6e760c31b6004526020602452604490fd5b90600f81166010811015610917576f181899199a1a9b1b9c1cb0b131b232b360811b901a6108f08385610a27565b5360041c908015610903575f190161086c565b634e487b7160e01b5f52601160045260245ffd5b634e487b7160e01b5f52603260045260245ffd5b5f80fd5b90601f8019910116810190811067ffffffffffffffff82111761095157604052565b634e487b7160e01b5f52604160045260245ffd5b67ffffffffffffffff811161095157601f01601f191660200190565b6040519061099060408361092f565b601082526f74686973206973206120737472696e6760801b6020830152565b604051906109be60408361092f565b600482526302468acf60e31b6020830152565b805180835260209291819084018484015e5f828201840152601f01601f1916010190565b906109ff82610965565b610a0c604051918261092f565b8281528092610a1d601f1991610965565b0190602036910137565b90815181101561091757016020019056fea26469706673582212205dd56939673e667e60ac32e28b2655b03cb750ada99ee439e1c7df50c6349ccd64736f6c634300081a0033","linkReferences":{}},"methodIdentifiers":{"errorAddress()":"c5fbb8d7","errorBool()":"d69146fd","errorBytes()":"bc1dc922","errorBytes32()":"12dd3bc7","errorInt()":"4386ef72","errorString()":"81891bdf","errorUint()":"aacfa6dd","logAddress()":"465d521a","logBool()":"c601ff97","logBytes()":"a99c5d2f","logBytes32()":"e7fed4e6","logInt()":"b2c24561","logString()":"d0dc7b4b","logUint()":"5a512541"},"id":69}