{"abi":[{"type":"function","name":"errorAddress","inputs":[],"outputs":[],"stateMutability":"nonpayable"},{"type":"function","name":"errorBool","inputs":[],"outputs":[],"stateMutability":"nonpayable"},{"type":"function","name":"errorBytes","inputs":[],"outputs":[],"stateMutability":"nonpayable"},{"type":"function","name":"errorBytes32","inputs":[],"outputs":[],"stateMutability":"nonpayable"},{"type":"function","name":"errorInt","inputs":[],"outputs":[],"stateMutability":"nonpayable"},{"type":"function","name":"errorString","inputs":[],"outputs":[],"stateMutability":"nonpayable"},{"type":"function","name":"errorUint","inputs":[],"outputs":[],"stateMutability":"nonpayable"},{"type":"function","name":"logAddress","inputs":[],"outputs":[],"stateMutability":"nonpayable"},{"type":"function","name":"logBool","inputs":[],"outputs":[],"stateMutability":"nonpayable"},{"type":"function","name":"logBytes","inputs":[],"outputs":[],"stateMutability":"nonpayable"},{"type":"function","name":"logBytes32","inputs":[],"outputs":[],"stateMutability":"nonpayable"},{"type":"function","name":"logInt","inputs":[],"outputs":[],"stateMutability":"nonpayable"},{"type":"function","name":"logString","inputs":[],"outputs":[],"stateMutability":"nonpayable"},{"type":"function","name":"logUint","inputs":[],"outputs":[],"stateMutability":"nonpayable"},{"type":"event","name":"Log","inputs":[{"name":"","type":"bool","indexed":false,"internalType":"bool"}],"anonymous":false},{"type":"event","name":"Log","inputs":[{"name":"","type":"address","indexed":false,"internalType":"address"}],"anonymous":false},{"type":"event","name":"Log","inputs":[{"name":"","type":"int256","indexed":false,"internalType":"int256"}],"anonymous":false},{"type":"event","name":"Log","inputs":[{"name":"","type":"uint256","indexed":false,"internalType":"uint256"}],"anonymous":false},{"type":"event","name":"Log","inputs":[{"name":"","type":"bytes32","indexed":false,"internalType":"bytes32"}],"anonymous":false},{"type":"event","name":"Log","inputs":[{"name":"","type":"string","indexed":false,"internalType":"string"}],"anonymous":false},{"type":"event","name":"Log","inputs":[{"name":"","type":"bytes","indexed":false,"internalType":"bytes"}],"anonymous":false},{"type":"error","name":"StringsInsufficientHexLength","inputs":[{"name":"value","type":"uint256","internalType":"uint256"},{"name":"length","type":"uint256","internalType":"uint256"}]}],"bytecode":{"object":"0x608080604052346015576108fe908161001a8239f35b5f80fdfe60806040526004361015610011575f80fd5b5f3560e01c806312dd3bc7146106ed5780634386ef72146105fc578063465d521a146105ac5780635a5125411461056e57806381891bdf14610533578063a99c5d2f146104f7578063aacfa6dd1461047f578063b2c2456114610440578063bc1dc92214610320578063c5fbb8d7146101e4578063c601ff97146101a7578063d0dc7b4b14610152578063d69146fd146100fc5763e7fed4e6146100b3575f80fd5b346100f8575f3660031901126100f8577f32d5ab96f608074ecb7a2188938a6154ca0cb72029f98b277aa9284b9d47f5c360206040516541414141414160d01b8152a1005b5f80fd5b346100f8575f3660031901126100f85761014e60405161011d6040826107f1565b60048152637472756560e01b602082015260405191829162461bcd60e51b8352602060048401526024830190610893565b0390fd5b346100f8575f3660031901126100f8577fcf34ef537ac33ee1ac626ca1587a0a7e8e51561e5514f8cb36afa1c5102b3bab6101a261018e610843565b604051918291602083526020830190610893565b0390a1005b346100f8575f3660031901126100f8577f47f8c0417b311dcdb6348ff8ce66cad6024dedecfc28f969dd137de9c735012a602060405160018152a1005b346100f8575f3660031901126100f8577310ed43c718714eb63d5aa57b78b54704e256024e610213602a610827565b9061022160405192836107f1565b602a825261022f602a610827565b6020830190601f190136823782511561030c576030905381516001101561030c576078602183015360295b600181116102b7575061028b5760405162461bcd60e51b81526020600482015290819061014e906024830190610893565b63e22e27eb60e01b5f527310ed43c718714eb63d5aa57b78b54704e256024e600452601460245260445ffd5b90600f8116601081101561030c576f181899199a1a9b1b9c1cb0b131b232b360811b901a6102e583856108b7565b5360041c9080156102f8575f190161025a565b634e487b7160e01b5f52601160045260245ffd5b634e487b7160e01b5f52603260045260245ffd5b346100f8575f3660031901126100f857610338610871565b80516001600160ff1b03811681036102f85760011b9061035782610827565b9161036560405193846107f1565b808352610374601f1991610827565b013660208401375f5b815181101561041f5761039081836108b7565b5190600f8260f81c1691601083101561030c57600182901b926001600160ff1b03831683036102f85760018401908185116102f8576f181899199a1a9b1b9c1cb0b131b232b360811b901a906103e690876108b7565b5360fc1c91601083101561030c576001926f181899199a1a9b1b9c1cb0b131b232b360811b901a9061041890866108b7565b530161037d565b60405162461bcd60e51b8152602060048201528061014e6024820186610893565b346100f8575f3660031901126100f8577f835daa263bb27549dc75f824fd14009a140fbf975f4779aefc8470cf981196b360206040516104d1198152a1005b346100f8575f3660031901126100f8576104d261049c6004610827565b906104aa60405192836107f1565b60048252601f196104bb6004610827565b01366020840137600a602483015b5f1901916f181899199a1a9b1b9c1cb0b131b232b360811b8282061a83530490811561041f57600a906104c9565b346100f8575f3660031901126100f8577fafabcf2dd47e06a477a89e49c03f8ebe8e0a7e94f775b25bbb24227c9d0110b26101a261018e610871565b346100f8575f3660031901126100f85761014e61054e610843565b60405162461bcd60e51b8152602060048201529182916024830190610893565b346100f8575f3660031901126100f8577f909c57d5c6ac08245cf2a6de3900e2b868513fa59099b92b27d8db823d92df9c60206040516104d28152a1005b346100f8575f3660031901126100f8577fb8a00d6d8ca1be30bfec34d8f97e55f0f0fd9eeb7fb46e030516363d4cfe1ad660206040517310ed43c718714eb63d5aa57b78b54704e256024e8152a1005b346100f8575f3660031901126100f857604080519061061b81836107f1565b600182526020820190602d60f81b82526104d26106386004610827565b93610645835195866107f1565b600485526106536004610827565b602086019290601f1901368437600a602487015b5f1901916f181899199a1a9b1b9c1cb0b131b232b360811b8282061a83530490811561069557600a90610667565b505060206106cf9261014e9685519687945180918587015e840190838201905f8252519283915e01015f815203601f1981018452836107f1565b5162461bcd60e51b8152602060048201529182916024830190610893565b346100f8575f3660031901126100f857670626466686a6c6e760c31b6107136042610827565b9061072160405192836107f1565b6042825261072f6042610827565b6020830190601f190136823782511561030c576030905381516001101561030c576078602183015360415b600181116107b0575061078b5760405162461bcd60e51b81526020600482015290819061014e906024830190610893565b63e22e27eb60e01b5f908152670626466686a6c6e760c31b6004526020602452604490fd5b90600f8116601081101561030c576f181899199a1a9b1b9c1cb0b131b232b360811b901a6107de83856108b7565b5360041c9080156102f8575f190161075a565b90601f8019910116810190811067ffffffffffffffff82111761081357604052565b634e487b7160e01b5f52604160045260245ffd5b67ffffffffffffffff811161081357601f01601f191660200190565b604051906108526040836107f1565b601082526f74686973206973206120737472696e6760801b6020830152565b604051906108806040836107f1565b600482526302468acf60e31b6020830152565b805180835260209291819084018484015e5f828201840152601f01601f1916010190565b90815181101561030c57016020019056fea2646970667358221220bd4d2bb90a70965f4ec93f02ade7898ff225de540f24cf41eb7780872fe4be6864736f6c634300081a0033","linkReferences":{}},"methodIdentifiers":{"errorAddress()":"c5fbb8d7","errorBool()":"d69146fd","errorBytes()":"bc1dc922","errorBytes32()":"12dd3bc7","errorInt()":"4386ef72","errorString()":"81891bdf","errorUint()":"aacfa6dd","logAddress()":"465d521a","logBool()":"c601ff97","logBytes()":"a99c5d2f","logBytes32()":"e7fed4e6","logInt()":"b2c24561","logString()":"d0dc7b4b","logUint()":"5a512541"},"id":108}