{"abi":[{"type":"constructor","inputs":[{"name":"_owner","type":"address","internalType":"address"},{"name":"_caller","type":"address","internalType":"address"}],"stateMutability":"nonpayable"},{"type":"fallback","stateMutability":"nonpayable"},{"type":"function","name":"Bulker","inputs":[],"outputs":[{"name":"","type":"address","internalType":"address"}],"stateMutability":"view"},{"type":"function","name":"NAME","inputs":[],"outputs":[{"name":"","type":"bytes32","internalType":"bytes32"}],"stateMutability":"view"},{"type":"function","name":"TYPE","inputs":[],"outputs":[{"name":"","type":"bytes32","internalType":"bytes32"}],"stateMutability":"view"},{"type":"function","name":"VERSION","inputs":[],"outputs":[{"name":"","type":"uint256","internalType":"uint256"}],"stateMutability":"view"},{"type":"function","name":"_NAME","inputs":[],"outputs":[{"name":"","type":"string","internalType":"string"}],"stateMutability":"view"},{"type":"function","name":"acceptOwner","inputs":[],"outputs":[],"stateMutability":"nonpayable"},{"type":"function","name":"account","inputs":[],"outputs":[{"name":"","type":"address","internalType":"address"}],"stateMutability":"view"},{"type":"function","name":"allow","inputs":[{"name":"_bulker","type":"address","internalType":"address"},{"name":"_isAllowed","type":"bool","internalType":"bool"}],"outputs":[],"stateMutability":"nonpayable"},{"type":"function","name":"cUSDC","inputs":[],"outputs":[{"name":"","type":"address","internalType":"address"}],"stateMutability":"view"},{"type":"function","name":"cUSDCe","inputs":[],"outputs":[{"name":"","type":"address","internalType":"address"}],"stateMutability":"view"},{"type":"function","name":"cUSDS","inputs":[],"outputs":[{"name":"","type":"address","internalType":"address"}],"stateMutability":"view"},{"type":"function","name":"cUSDT","inputs":[],"outputs":[{"name":"","type":"address","internalType":"address"}],"stateMutability":"view"},{"type":"function","name":"cUSDbC","inputs":[],"outputs":[{"name":"","type":"address","internalType":"address"}],"stateMutability":"view"},{"type":"function","name":"cWETH","inputs":[],"outputs":[{"name":"","type":"address","internalType":"address"}],"stateMutability":"view"},{"type":"function","name":"caller","inputs":[],"outputs":[{"name":"","type":"address","internalType":"address"}],"stateMutability":"view"},{"type":"function","name":"contracts","inputs":[],"outputs":[{"name":"_contracts","type":"address[]","internalType":"address[]"}],"stateMutability":"view"},{"type":"function","name":"cwstETH","inputs":[],"outputs":[{"name":"","type":"address","internalType":"address"}],"stateMutability":"view"},{"type":"function","name":"flag","inputs":[],"outputs":[{"name":"","type":"uint256","internalType":"uint256"}],"stateMutability":"view"},{"type":"function","name":"initialize","inputs":[{"name":"_owner","type":"address","internalType":"address"},{"name":"_caller","type":"address","internalType":"address"}],"outputs":[],"stateMutability":"nonpayable"},{"type":"function","name":"initialize","inputs":[{"name":"_owner","type":"address","internalType":"address"},{"name":"_caller","type":"address","internalType":"address"},{"name":"_account","type":"address","internalType":"address"}],"outputs":[],"stateMutability":"nonpayable"},{"type":"function","name":"initialize","inputs":[{"name":"_owner","type":"address","internalType":"address"}],"outputs":[],"stateMutability":"nonpayable"},{"type":"function","name":"invoke","inputs":[{"name":"actions","type":"bytes32[]","internalType":"bytes32[]"},{"name":"data","type":"bytes[]","internalType":"bytes[]"}],"outputs":[],"stateMutability":"nonpayable"},{"type":"function","name":"owner","inputs":[],"outputs":[{"name":"","type":"address","internalType":"address"}],"stateMutability":"view"},{"type":"function","name":"parseCall","inputs":[{"name":"action","type":"bytes32","internalType":"bytes32"},{"name":"data","type":"bytes","internalType":"bytes"}],"outputs":[{"name":"","type":"bool","internalType":"bool"}],"stateMutability":"nonpayable"},{"type":"function","name":"paused","inputs":[],"outputs":[{"name":"","type":"bool","internalType":"bool"}],"stateMutability":"view"},{"type":"function","name":"pendingOwner","inputs":[],"outputs":[{"name":"","type":"address","internalType":"address"}],"stateMutability":"view"},{"type":"function","name":"postExecCheck","inputs":[{"name":"transaction","type":"tuple","internalType":"struct TransactionData","components":[{"name":"from","type":"address","internalType":"address"},{"name":"delegate","type":"address","internalType":"address"},{"name":"flag","type":"uint256","internalType":"uint256"},{"name":"to","type":"address","internalType":"address"},{"name":"value","type":"uint256","internalType":"uint256"},{"name":"data","type":"bytes","internalType":"bytes"},{"name":"hint","type":"bytes","internalType":"bytes"},{"name":"extra","type":"bytes","internalType":"bytes"}]},{"name":"callResult","type":"tuple","internalType":"struct TransactionResult","components":[{"name":"success","type":"bool","internalType":"bool"},{"name":"data","type":"bytes","internalType":"bytes"},{"name":"hint","type":"bytes","internalType":"bytes"}]},{"name":"preData","type":"tuple","internalType":"struct AuthorizerReturnData","components":[{"name":"result","type":"uint8","internalType":"enum AuthResult"},{"name":"message","type":"string","internalType":"string"},{"name":"data","type":"bytes","internalType":"bytes"}]}],"outputs":[{"name":"authData","type":"tuple","internalType":"struct AuthorizerReturnData","components":[{"name":"result","type":"uint8","internalType":"enum AuthResult"},{"name":"message","type":"string","internalType":"string"},{"name":"data","type":"bytes","internalType":"bytes"}]}],"stateMutability":"nonpayable"},{"type":"function","name":"postExecProcess","inputs":[{"name":"transaction","type":"tuple","internalType":"struct TransactionData","components":[{"name":"from","type":"address","internalType":"address"},{"name":"delegate","type":"address","internalType":"address"},{"name":"flag","type":"uint256","internalType":"uint256"},{"name":"to","type":"address","internalType":"address"},{"name":"value","type":"uint256","internalType":"uint256"},{"name":"data","type":"bytes","internalType":"bytes"},{"name":"hint","type":"bytes","internalType":"bytes"},{"name":"extra","type":"bytes","internalType":"bytes"}]},{"name":"callResult","type":"tuple","internalType":"struct TransactionResult","components":[{"name":"success","type":"bool","internalType":"bool"},{"name":"data","type":"bytes","internalType":"bytes"},{"name":"hint","type":"bytes","internalType":"bytes"}]}],"outputs":[],"stateMutability":"nonpayable"},{"type":"function","name":"preExecCheck","inputs":[{"name":"transaction","type":"tuple","internalType":"struct TransactionData","components":[{"name":"from","type":"address","internalType":"address"},{"name":"delegate","type":"address","internalType":"address"},{"name":"flag","type":"uint256","internalType":"uint256"},{"name":"to","type":"address","internalType":"address"},{"name":"value","type":"uint256","internalType":"uint256"},{"name":"data","type":"bytes","internalType":"bytes"},{"name":"hint","type":"bytes","internalType":"bytes"},{"name":"extra","type":"bytes","internalType":"bytes"}]}],"outputs":[{"name":"authData","type":"tuple","internalType":"struct AuthorizerReturnData","components":[{"name":"result","type":"uint8","internalType":"enum AuthResult"},{"name":"message","type":"string","internalType":"string"},{"name":"data","type":"bytes","internalType":"bytes"}]}],"stateMutability":"nonpayable"},{"type":"function","name":"preExecProcess","inputs":[{"name":"transaction","type":"tuple","internalType":"struct TransactionData","components":[{"name":"from","type":"address","internalType":"address"},{"name":"delegate","type":"address","internalType":"address"},{"name":"flag","type":"uint256","internalType":"uint256"},{"name":"to","type":"address","internalType":"address"},{"name":"value","type":"uint256","internalType":"uint256"},{"name":"data","type":"bytes","internalType":"bytes"},{"name":"hint","type":"bytes","internalType":"bytes"},{"name":"extra","type":"bytes","internalType":"bytes"}]}],"outputs":[],"stateMutability":"nonpayable"},{"type":"function","name":"renounceOwnership","inputs":[],"outputs":[],"stateMutability":"nonpayable"},{"type":"function","name":"setAccount","inputs":[{"name":"_account","type":"address","internalType":"address"}],"outputs":[],"stateMutability":"nonpayable"},{"type":"function","name":"setCaller","inputs":[{"name":"_caller","type":"address","internalType":"address"}],"outputs":[],"stateMutability":"nonpayable"},{"type":"function","name":"setPaused","inputs":[{"name":"_paused","type":"bool","internalType":"bool"}],"outputs":[],"stateMutability":"nonpayable"},{"type":"function","name":"setPendingOwner","inputs":[{"name":"to","type":"address","internalType":"address"}],"outputs":[],"stateMutability":"nonpayable"},{"type":"function","name":"setTag","inputs":[{"name":"_tag","type":"bytes32","internalType":"bytes32"}],"outputs":[],"stateMutability":"nonpayable"},{"type":"function","name":"supply","inputs":[{"name":"_cToken","type":"address","internalType":"address"},{"name":"_amount","type":"uint256","internalType":"uint256"}],"outputs":[],"stateMutability":"nonpayable"},{"type":"function","name":"tag","inputs":[],"outputs":[{"name":"","type":"bytes32","internalType":"bytes32"}],"stateMutability":"view"},{"type":"function","name":"transferOwnership","inputs":[{"name":"newOwner","type":"address","internalType":"address"}],"outputs":[],"stateMutability":"nonpayable"},{"type":"function","name":"withdraw","inputs":[{"name":"_cToken","type":"address","internalType":"address"},{"name":"_amount","type":"uint256","internalType":"uint256"}],"outputs":[],"stateMutability":"nonpayable"},{"type":"event","name":"AccountSet","inputs":[{"name":"account","type":"address","indexed":true,"internalType":"address"}],"anonymous":false},{"type":"event","name":"CallerSet","inputs":[{"name":"caller","type":"address","indexed":true,"internalType":"address"}],"anonymous":false},{"type":"event","name":"NewOwnerSet","inputs":[{"name":"owner","type":"address","indexed":true,"internalType":"address"}],"anonymous":false},{"type":"event","name":"PausedSet","inputs":[{"name":"status","type":"bool","indexed":true,"internalType":"bool"}],"anonymous":false},{"type":"event","name":"PendingOwnerSet","inputs":[{"name":"to","type":"address","indexed":true,"internalType":"address"}],"anonymous":false},{"type":"event","name":"TagSet","inputs":[{"name":"tag","type":"bytes32","indexed":true,"internalType":"bytes32"}],"anonymous":false}],"bytecode":{"object":"0x610180346103d557601f611f9338819003918201601f19168301916001600160401b038311848410176103d95780849260409485528339810103126103d557610053602061004c836103ed565b92016103ed565b6001545f80546001600160a01b0319166001600160a01b03909416938417815560405193907f038720101b9ced74445432ced46c7e5e4c80202669153dd67d226c66a0aa477b9080a26001600160b01b031916600160a01b1760019081555f600255600380546001600160a01b0319166001600160a01b03939093169290921790915546036101f95750735d409e56d886231adaf00c8775665ad0f9897b5673a17581a9e3356d9a858b789d68b4d866e593ae94733afdc9bca9213a35503b077a6072f3d0d5ab0840733d0bb1ccab520a66e607822fc55bc921738fafe3835f807374a81f84268744a40febc48f8b812a1f188d80c35b6101605261014052610120526101005260e05260c05260a052608052604051611b9190816104028239608051818181610dff0152611231015260a0518181816104e1015261125f015260c0518181816102a4015261129b015260e05181818161091101526112c801526101005181818161073e01526112f50152610120518181816108570152611322015261014051818181610e43015261134f0152610160518181816103ce015261137c0152f35b4660890361024b575073f25212e676d1f7f89cd72ffee66158f5412464455f73aeb318360f27748acb200ce616e389a6c9409a075f805f807359e242d352ae13166b4987ae5c990c232f7f7cd661014a565b4661a4b1036102c65750739c4ec768c28520b50860ea7a15bd7213a9ff58bf736f7d514bbd4aff3bcd1140b7344b32f063dee48673d98be00b5d27fc98112bde293e487f8d4ca57d075f8073a5edbdd9646f8dff606d7448e414884c7d905dca5f73bde8f31d2ddda895264e27dd990fab3dc87b372d61014a565b466121050361032d575073b125e6687d4313864e53df431d5425969c15eb2f7346e6b214b524310239732d51387075e0e70970bf5f805f80739c4ec768c28520b50860ea7a15bd7213a9ff58bf7378d0677032a35c63d142a48a2037048871212a8c61014a565b46600a036103935750732e44e174f7d53f0212823acc11c01a11d58c5bcb73e36a30d249f7761327fd973001a32010b521b6fd73995e394b8b2437ac8ce61ee0bc610d617962b2145f805f8073cb3643cc8294b23171272845473dec49739d4ba361014a565b62461bcd60e51b815260206004820152601360248201527f556e737570706f7274656420636861696e4964000000000000000000000000006044820152606490fd5b5f80fd5b634e487b7160e01b5f52604160045260245ffd5b51906001600160a01b03821682036103d55756fe60806040526004361015610019575b34156115c7575b5f80fd5b5f3560e01c80630614f2c91461028f57806308dbebf61461028a57806308f8f43414610285578063110496e51461028057806316c38b3c1461027b5780631ee8aa1f1461027657806329f6d57c14610271578063485cc9551461026c57806351f9106614610267578063555029a6146102625780635c975abb1461025d5780635dab2420146102585780636b443ac3146102535780636c0f79b61461024e578063715018a614610249578063766b810b146102445780637c4c833b1461023f5780637cd6b1521461023a578063890eba68146101d65780638da5cb5b146102355780639d5228e814610230578063a3f4df7e1461022b578063b695e2ef14610226578063bb24fe8a14610221578063bd765d4b1461021c578063beb92f5514610217578063c0c53b8b14610212578063c42069ec1461020d578063c4d66de814610208578063ce347a3e14610203578063cf641eea146101fe578063d58c3fc3146101f9578063e30c3978146101f4578063ebbc4965146101ef578063f2660027146101ea578063f2b9fdb8146101e0578063f2fde38b146101e5578063f3fef3a3146101e0578063fc9c8d39146101db5763ffa1ad740361000e575b610940565b611082565b610f72565b610ffd565b610eff565b610ed2565b610eaa565b610e9c565b610e2e565b610dea565b610dc5565b610d4c565b610cce565b610c1d565b610bd4565b610af6565b610aa0565b610a70565b6109df565b61095b565b6108fc565b6108a3565b610842565b6107d2565b61076d565b610729565b610701565b6106dc565b610641565b6105f4565b6105c2565b610510565b6104cc565b610450565b61042a565b6103b9565b61030b565b34610015575f366003190112610015576040517f00000000000000000000000000000000000000000000000000000000000000006001600160a01b03168152602090f35b805180835260209291819084018484015e5f828201840152601f01601f1916010190565b9060206103089281815201906102d3565b90565b34610015575f366003190112610015576040516351fa6fbf60e11b8152602081600481305afa9081156103ae575f9161037a575b61037661035c61036a846040519283916020830160209181520190565b03601f198101835282610b32565b604051918291826102f7565b0390f35b90506020813d6020116103a6575b8161039560209383610b32565b81010312610015575161035c61033f565b3d9150610388565b6040513d5f823e3d90fd5b34610015575f366003190112610015576040517f00000000000000000000000000000000000000000000000000000000000000006001600160a01b03168152602090f35b6001600160a01b0381160361001557565b3590610419826103fd565b565b60243590811515820361001557565b34610015576040366003190112610015576104466004356103fd565b61044e61041b565b005b3461001557602036600319011261001557600435801515809103610015575f5461048d906001600160a01b03166104856110aa565b9033146110cb565b6001805460ff60a81b191660a883901b60ff60a81b161790557f40db37ff5c0bdc2c427fbb2078c8f24afea940abac0e3c23bb4ea3bf2da2b2125f80a2005b34610015575f366003190112610015576040517f00000000000000000000000000000000000000000000000000000000000000006001600160a01b03168152602090f35b346100155760203660031901126100155760043561052d816103fd565b5f54610544906001600160a01b03166104856110aa565b6001600160a01b0316801561058b57600480546001600160a01b031916821790557f195359283029fbdb9a24519b1ec07caf1677655529bf99dc1634c1e8b28811805f80a2005b60405162461bcd60e51b815260206004820152600f60248201526e125b9d985b1a59081858d8dbdd5b9d608a1b6044820152606490fd5b346100155760403660031901126100155761044e6004356105e2816103fd565b602435906105ef826103fd565b6110fb565b34610015575f366003190112610015576020600254604051908152f35b9181601f84011215610015578235916001600160401b038311610015576020808501948460051b01011161001557565b34610015576040366003190112610015576004356001600160401b03811161001557610671903690600401610611565b6024356001600160401b03811161001557610690903690600401610611565b82155f5b84811061069d57005b816106d757828110156106d757806106d06106c96106c260019460051b88018861115d565b3691610b83565b8835611477565b5001610694565b611149565b34610015575f36600319011261001557602060ff60015460a81c166040519015158152f35b34610015575f366003190112610015576004546040516001600160a01b039091168152602090f35b34610015575f366003190112610015576040517f00000000000000000000000000000000000000000000000000000000000000006001600160a01b03168152602090f35b34610015575f36600319011261001557610785611200565b6040518091602082016020835281518091526020604084019201905f5b8181106107b0575050500390f35b82516001600160a01b03168452859450602093840193909201916001016107a2565b34610015575f366003190112610015575f546107f9906001600160a01b03166104856110aa565b6001600160601b0360a01b5f54165f556001600160601b0360a01b600154166001555f7f038720101b9ced74445432ced46c7e5e4c80202669153dd67d226c66a0aa477b8180a2005b34610015575f366003190112610015576040517f00000000000000000000000000000000000000000000000000000000000000006001600160a01b03168152602090f35b90816101009103126100155790565b908160609103126100155790565b34610015576040366003190112610015576004356001600160401b038111610015576108d3903690600401610886565b506024356001600160401b038111610015576108f3903690600401610895565b5061044e6113c2565b34610015575f366003190112610015576040517f00000000000000000000000000000000000000000000000000000000000000006001600160a01b03168152602090f35b34610015575f36600319011261001557602060405160018152f35b34610015575f366003190112610015575f546040516001600160a01b039091168152602090f35b906020825280519160028310156109cb5761030892602082015260406109b6602084015160608385015260808401906102d3565b920151906060601f19828503019101526102d3565b634e487b7160e01b5f52602160045260245ffd5b34610015576060366003190112610015576004356001600160401b03811161001557610a0f903690600401610886565b6024356001600160401b03811161001557610a2e903690600401610895565b90604435906001600160401b0382116100155761037692610a56610a64933690600401610895565b91610a5f6113da565b611409565b60405191829182610982565b34610015575f366003190112610015576040517121b7b6b837bab73220baba3437b934bd32b960711b8152602090f35b34610015576020366003190112610015575f5460043590610acc906001600160a01b03166104856110aa565b806002557fef711e3eb06966d227e22eb4fa0302550dcd7257cf69b537cf4d37af53ea9cda5f80a2005b34610015575f3660031901126100155760405169436f6d6d6f6e5479706560b01b8152602090f35b634e487b7160e01b5f52604160045260245ffd5b90601f801991011681019081106001600160401b03821117610b5357604052565b610b1e565b6040519061041961010083610b32565b6001600160401b038111610b5357601f01601f191660200190565b929192610b8f82610b68565b91610b9d6040519384610b32565b829481845281830111610015578281602093845f960137010152565b9080601f830112156100155781602061030893359101610b83565b34610015576040366003190112610015576004356024356001600160401b03811161001557602091610c0d610c13923690600401610bb9565b90611477565b6040519015158152f35b3461001557602036600319011261001557600435610c3a816103fd565b5f54610c51906001600160a01b03166104856110aa565b6001600160a01b03168015610c9857600380546001600160a01b031916821790557fac431eb831269b53b41991f6cbfbfc93f4baa395996a8170abac93962b5a358e5f80a2005b60405162461bcd60e51b815260206004820152600e60248201526d24b73b30b634b21031b0b63632b960911b6044820152606490fd5b3461001557606036600319011261001557600435610ceb816103fd565b610d07602435610cfa816103fd565b604435926105ef846103fd565b600480546001600160a01b0319166001600160a01b039290921691821790557f195359283029fbdb9a24519b1ec07caf1677655529bf99dc1634c1e8b28811805f80a2005b3461001557602036600319011261001557600435610d69816103fd565b5f54610d80906001600160a01b03166104856110aa565b600180546001600160a01b0319166001600160a01b039290921691821790557f68f49b346b94582a8b5f9d10e3fe3365318fe8f191ff8dce7c59c6cad06b02f55f80a2005b346100155760203660031901126100155761044e600435610de5816103fd565b611524565b34610015575f366003190112610015576040517f00000000000000000000000000000000000000000000000000000000000000006001600160a01b03168152602090f35b34610015575f366003190112610015576040517f00000000000000000000000000000000000000000000000000000000000000006001600160a01b03168152602090f35b602060031982011261001557600435906001600160401b0382116100155761030891600401610886565b34610015576108f336610e72565b34610015575f366003190112610015576001546040516001600160a01b039091168152602090f35b34610015575f366003190112610015576001546001600160a01b0316338190036100155761044e90611607565b3461001557610376610f1036610e72565b610f186113da565b610f3660018060a01b03600354163314610f306113a1565b906110cb565b9060ff60015460a81c165f14610f6357505f8152610f52611456565b602082015260405191829182610982565b610f6d91506116d6565b610a64565b3461001557604036600319011261001557610f8e6004356103fd565b610f9661188a565b50610f9f61188a565b50601f193601368111610fe957353681116100155761044e90610fe16060610fd360018060a01b0393803603810190611a7d565b01516001600160a01b031690565b16151561158a565b634e487b7160e01b5f52601160045260245ffd5b346100155760203660031901126100155760043561101a816103fd565b5f54611031906001600160a01b03166104856110aa565b6001600160a01b038116156110495761044e90611607565b60405162461bcd60e51b81526020600482015260116024820152704e6577204f776e6572206973207a65726f60781b6044820152606490fd5b34610015575f366003190112610015576003546040516001600160a01b039091168152602090f35b604051906110b9604083610b32565b600382526245333560e81b6020830152565b156110d35750565b60405162461bcd60e51b8152602060048201529081906110f79060248301906102d3565b0390fd5b61110490611524565b600380546001600160a01b0319166001600160a01b039290921691821790557fac431eb831269b53b41991f6cbfbfc93f4baa395996a8170abac93962b5a358e5f80a2565b634e487b7160e01b5f52603260045260245ffd5b903590601e198136030182121561001557018035906001600160401b0382116100155760200191813603831361001557565b8051600110156106d75760400190565b8051600210156106d75760600190565b8051600310156106d75760800190565b8051600410156106d75760a00190565b8051600510156106d75760c00190565b8051600610156106d75760e00190565b8051600710156106d7576101000190565b604051906101206112118184610b32565b60088352601f1901366020840137818051156106d7576001600160a01b037f0000000000000000000000000000000000000000000000000000000000000000166020820152610419906112967f00000000000000000000000000000000000000000000000000000000000000006112878361118f565b6001600160a01b039091169052565b6112c37f00000000000000000000000000000000000000000000000000000000000000006112878361119f565b6112f07f0000000000000000000000000000000000000000000000000000000000000000611287836111af565b61131d7f0000000000000000000000000000000000000000000000000000000000000000611287836111bf565b61134a7f0000000000000000000000000000000000000000000000000000000000000000611287836111cf565b6113777f0000000000000000000000000000000000000000000000000000000000000000611287836111df565b6112877f0000000000000000000000000000000000000000000000000000000000000000916111ef565b604051906113b0604083610b32565b600382526245323760e81b6020830152565b61041960018060a01b03600354163314610f306113a1565b60405190606082018281106001600160401b03821117610b535760405260606040835f81528260208201520152565b9250505061142560018060a01b03600354163314610f306113a1565b60015460a81c60ff1615611446575f815261143e611456565b602082015290565b5061144f6113da565b6001815290565b60405190611465604083610b32565b6003825262229a1b60e91b6020830152565b91905f9260048251106114ee577f414354494f4e5f535550504c595f4e41544956455f544f4b454e00000000000081036114bc57506114b590611659565b1561001557565b7f414354494f4e5f57495448445241575f4e41544956455f544f4b454e00000000146114e55750565b6114b590611659565b60405162461bcd60e51b815260206004820152600e60248201526d11185d18481d1bdbc81cda1bdc9d60921b6044820152606490fd5b60ff60015460a01c1661154f5761153a90611607565b6001805460ff60a01b1916600160a01b179055565b60405162461bcd60e51b8152602060048201526013602482015272105b1c9958591e481a5b9a5d1a585b1a5e9959606a1b6044820152606490fd5b1561159157565b60405162461bcd60e51b815260206004820152600e60248201526d125b9d985b1a59081d185c99d95d60921b6044820152606490fd5b6110f76040516115d8604082610b32565b600381526245343960e81b602082015260405191829162461bcd60e51b835260206004840181815201906102d3565b60018060a01b0316806001600160601b0360a01b5f5416175f556001600160601b0360a01b600154166001557f038720101b9ced74445432ced46c7e5e4c80202669153dd67d226c66a0aa477b5f80a2565b604001515f546001600160a01b0390811691160361167657600190565b60405162461bcd60e51b81526020600482015260096024820152682737ba1027bbb732b960b91b6044820152606490fd5b3d156116d1573d906116b882610b68565b916116c66040519384610b32565b82523d5f602084013e565b606090565b6116de6113da565b6116e7826118d7565b1561185f57505f8061184661184661184c6103089561035c61181e6118316040519360208086015261172c6040860161171f8361040e565b6001600160a01b03169052565b61174b61173b6020830161040e565b6001600160a01b03166060870152565b604081013560808601526117746117646060830161040e565b6001600160a01b031660a0870152565b608081013560c086015260a08101906117fb866117ed6117cd6117ad61179a878761193b565b61010060e087015261014086019161196c565b6117ba60c087018761193b565b858303603f19016101008701529061196c565b6117da60e086018661193b565b848303603f19016101208601529061196c565b03601f198101885287610b32565b61182c611808838361115d565b9050604051958691602083019190602083019252565b03601f198101865285610b32565b61115d565b96909360405196879560208701998a9161198c565b90611999565b5190305afa6118596116a7565b906119cc565b90505f8152604051611872604082610b32565b600381526245353560e81b6020820152602082015290565b6040519061010082018281106001600160401b03821117610b5357604052606060e0835f81525f60208201525f60408201525f838201525f60808201528260a08201528260c08201520152565b606001356118e4816103fd565b6118ec611200565b906001600160a01b03165f5b82518110156119345782518110156106d757600581901b8301602001516001600160a01b0316821461192c576001016118f8565b505050600190565b5050505f90565b9035601e19823603018112156100155701602081359101916001600160401b03821161001557813603831361001557565b908060209392818452848401375f828201840152601f01601f1916010190565b908092918237015f815290565b805191908290602001825e015f815290565b604051906119ba604083610b32565b600382526245333960e81b6020830152565b91906119d66113da565b92156119f0576119ea905115610f306119ab565b60018252565b60448151105f14611a02576020830152565b6004810151810160248101919060209082900312610015576024810151906001600160401b03821161001557018160438201121561001557602481015190611a4982610b68565b92611a576040519485610b32565b8284526044828401011161001557815f926044602093018386015e830101526020830152565b602081830312610015578035906001600160401b03821161001557016101008183031261001557611aac610b58565b91611ab68261040e565b8352611ac46020830161040e565b602084015260408201356040840152611adf6060830161040e565b60608401526080820135608084015260a08201356001600160401b0381116100155781611b0d918401610bb9565b60a084015260c08201356001600160401b0381116100155781611b31918401610bb9565b60c084015260e08201356001600160401b03811161001557611b539201610bb9565b60e08201529056fea264697066735822122047833520ade6e5aac021b0376778217b76c204f4926e9ca886c41f2b92da7dd364736f6c634300081a0033","linkReferences":{}},"methodIdentifiers":{"Bulker()":"08f8f434","NAME()":"a3f4df7e","TYPE()":"bb24fe8a","VERSION()":"ffa1ad74","_NAME()":"08dbebf6","acceptOwner()":"ebbc4965","account()":"5dab2420","allow(address,bool)":"110496e5","cUSDC()":"ce347a3e","cUSDCe()":"766b810b","cUSDS()":"6b443ac3","cUSDT()":"0614f2c9","cUSDbC()":"cf641eea","cWETH()":"1ee8aa1f","caller()":"fc9c8d39","contracts()":"6c0f79b6","cwstETH()":"7cd6b152","flag()":"890eba68","initialize(address)":"c4d66de8","initialize(address,address)":"485cc955","initialize(address,address,address)":"c0c53b8b","invoke(bytes32[],bytes[])":"555029a6","owner()":"8da5cb5b","parseCall(bytes32,bytes)":"bd765d4b","paused()":"5c975abb","pendingOwner()":"e30c3978","postExecCheck((address,address,uint256,address,uint256,bytes,bytes,bytes),(bool,bytes,bytes),(uint8,string,bytes))":"9d5228e8","postExecProcess((address,address,uint256,address,uint256,bytes,bytes,bytes),(bool,bytes,bytes))":"7c4c833b","preExecCheck((address,address,uint256,address,uint256,bytes,bytes,bytes))":"f2660027","preExecProcess((address,address,uint256,address,uint256,bytes,bytes,bytes))":"d58c3fc3","renounceOwnership()":"715018a6","setAccount(address)":"29f6d57c","setCaller(address)":"beb92f55","setPaused(bool)":"16c38b3c","setPendingOwner(address)":"c42069ec","setTag(bytes32)":"b695e2ef","supply(address,uint256)":"f2b9fdb8","tag()":"51f91066","transferOwnership(address)":"f2fde38b","withdraw(address,uint256)":"f3fef3a3"},"id":46}