{"abi":[{"type":"constructor","inputs":[{"name":"_owner","type":"address","internalType":"address"},{"name":"_caller","type":"address","internalType":"address"}],"stateMutability":"nonpayable"},{"type":"function","name":"NAME","inputs":[],"outputs":[{"name":"","type":"bytes32","internalType":"bytes32"}],"stateMutability":"view"},{"type":"function","name":"TYPE","inputs":[],"outputs":[{"name":"","type":"bytes32","internalType":"bytes32"}],"stateMutability":"view"},{"type":"function","name":"VERSION","inputs":[],"outputs":[{"name":"","type":"uint256","internalType":"uint256"}],"stateMutability":"view"},{"type":"function","name":"_NAME","inputs":[],"outputs":[{"name":"","type":"string","internalType":"string"}],"stateMutability":"view"},{"type":"function","name":"acceptOwner","inputs":[],"outputs":[],"stateMutability":"nonpayable"},{"type":"function","name":"account","inputs":[],"outputs":[{"name":"","type":"address","internalType":"address"}],"stateMutability":"view"},{"type":"function","name":"addContractFuncs","inputs":[{"name":"_contract","type":"address","internalType":"address"},{"name":"funcList","type":"string[]","internalType":"string[]"}],"outputs":[],"stateMutability":"nonpayable"},{"type":"function","name":"addContractFuncsSig","inputs":[{"name":"_contract","type":"address","internalType":"address"},{"name":"funcSigList","type":"bytes4[]","internalType":"bytes4[]"}],"outputs":[],"stateMutability":"nonpayable"},{"type":"function","name":"caller","inputs":[],"outputs":[{"name":"","type":"address","internalType":"address"}],"stateMutability":"view"},{"type":"function","name":"flag","inputs":[],"outputs":[{"name":"","type":"uint256","internalType":"uint256"}],"stateMutability":"view"},{"type":"function","name":"getAllContracts","inputs":[],"outputs":[{"name":"","type":"address[]","internalType":"address[]"}],"stateMutability":"view"},{"type":"function","name":"getFuncsByContract","inputs":[{"name":"_contract","type":"address","internalType":"address"}],"outputs":[{"name":"","type":"bytes32[]","internalType":"bytes32[]"}],"stateMutability":"view"},{"type":"function","name":"initialize","inputs":[{"name":"_owner","type":"address","internalType":"address"},{"name":"_caller","type":"address","internalType":"address"}],"outputs":[],"stateMutability":"nonpayable"},{"type":"function","name":"initialize","inputs":[{"name":"_owner","type":"address","internalType":"address"},{"name":"_caller","type":"address","internalType":"address"},{"name":"_account","type":"address","internalType":"address"}],"outputs":[],"stateMutability":"nonpayable"},{"type":"function","name":"initialize","inputs":[{"name":"_owner","type":"address","internalType":"address"}],"outputs":[],"stateMutability":"nonpayable"},{"type":"function","name":"owner","inputs":[],"outputs":[{"name":"","type":"address","internalType":"address"}],"stateMutability":"view"},{"type":"function","name":"paused","inputs":[],"outputs":[{"name":"","type":"bool","internalType":"bool"}],"stateMutability":"view"},{"type":"function","name":"pendingOwner","inputs":[],"outputs":[{"name":"","type":"address","internalType":"address"}],"stateMutability":"view"},{"type":"function","name":"postExecCheck","inputs":[{"name":"transaction","type":"tuple","internalType":"struct TransactionData","components":[{"name":"from","type":"address","internalType":"address"},{"name":"delegate","type":"address","internalType":"address"},{"name":"flag","type":"uint256","internalType":"uint256"},{"name":"to","type":"address","internalType":"address"},{"name":"value","type":"uint256","internalType":"uint256"},{"name":"data","type":"bytes","internalType":"bytes"},{"name":"hint","type":"bytes","internalType":"bytes"},{"name":"extra","type":"bytes","internalType":"bytes"}]},{"name":"callResult","type":"tuple","internalType":"struct TransactionResult","components":[{"name":"success","type":"bool","internalType":"bool"},{"name":"data","type":"bytes","internalType":"bytes"},{"name":"hint","type":"bytes","internalType":"bytes"}]},{"name":"preData","type":"tuple","internalType":"struct AuthorizerReturnData","components":[{"name":"result","type":"uint8","internalType":"enum AuthResult"},{"name":"message","type":"string","internalType":"string"},{"name":"data","type":"bytes","internalType":"bytes"}]}],"outputs":[{"name":"authData","type":"tuple","internalType":"struct AuthorizerReturnData","components":[{"name":"result","type":"uint8","internalType":"enum AuthResult"},{"name":"message","type":"string","internalType":"string"},{"name":"data","type":"bytes","internalType":"bytes"}]}],"stateMutability":"nonpayable"},{"type":"function","name":"postExecProcess","inputs":[{"name":"transaction","type":"tuple","internalType":"struct TransactionData","components":[{"name":"from","type":"address","internalType":"address"},{"name":"delegate","type":"address","internalType":"address"},{"name":"flag","type":"uint256","internalType":"uint256"},{"name":"to","type":"address","internalType":"address"},{"name":"value","type":"uint256","internalType":"uint256"},{"name":"data","type":"bytes","internalType":"bytes"},{"name":"hint","type":"bytes","internalType":"bytes"},{"name":"extra","type":"bytes","internalType":"bytes"}]},{"name":"callResult","type":"tuple","internalType":"struct TransactionResult","components":[{"name":"success","type":"bool","internalType":"bool"},{"name":"data","type":"bytes","internalType":"bytes"},{"name":"hint","type":"bytes","internalType":"bytes"}]}],"outputs":[],"stateMutability":"nonpayable"},{"type":"function","name":"preExecCheck","inputs":[{"name":"transaction","type":"tuple","internalType":"struct TransactionData","components":[{"name":"from","type":"address","internalType":"address"},{"name":"delegate","type":"address","internalType":"address"},{"name":"flag","type":"uint256","internalType":"uint256"},{"name":"to","type":"address","internalType":"address"},{"name":"value","type":"uint256","internalType":"uint256"},{"name":"data","type":"bytes","internalType":"bytes"},{"name":"hint","type":"bytes","internalType":"bytes"},{"name":"extra","type":"bytes","internalType":"bytes"}]}],"outputs":[{"name":"authData","type":"tuple","internalType":"struct AuthorizerReturnData","components":[{"name":"result","type":"uint8","internalType":"enum AuthResult"},{"name":"message","type":"string","internalType":"string"},{"name":"data","type":"bytes","internalType":"bytes"}]}],"stateMutability":"nonpayable"},{"type":"function","name":"preExecProcess","inputs":[{"name":"transaction","type":"tuple","internalType":"struct TransactionData","components":[{"name":"from","type":"address","internalType":"address"},{"name":"delegate","type":"address","internalType":"address"},{"name":"flag","type":"uint256","internalType":"uint256"},{"name":"to","type":"address","internalType":"address"},{"name":"value","type":"uint256","internalType":"uint256"},{"name":"data","type":"bytes","internalType":"bytes"},{"name":"hint","type":"bytes","internalType":"bytes"},{"name":"extra","type":"bytes","internalType":"bytes"}]}],"outputs":[],"stateMutability":"nonpayable"},{"type":"function","name":"removeContractFuncs","inputs":[{"name":"_contract","type":"address","internalType":"address"},{"name":"funcList","type":"string[]","internalType":"string[]"}],"outputs":[],"stateMutability":"nonpayable"},{"type":"function","name":"removeContractFuncsSig","inputs":[{"name":"_contract","type":"address","internalType":"address"},{"name":"funcSigList","type":"bytes4[]","internalType":"bytes4[]"}],"outputs":[],"stateMutability":"nonpayable"},{"type":"function","name":"renounceOwnership","inputs":[],"outputs":[],"stateMutability":"nonpayable"},{"type":"function","name":"setAccount","inputs":[{"name":"_account","type":"address","internalType":"address"}],"outputs":[],"stateMutability":"nonpayable"},{"type":"function","name":"setCaller","inputs":[{"name":"_caller","type":"address","internalType":"address"}],"outputs":[],"stateMutability":"nonpayable"},{"type":"function","name":"setPaused","inputs":[{"name":"_paused","type":"bool","internalType":"bool"}],"outputs":[],"stateMutability":"nonpayable"},{"type":"function","name":"setPendingOwner","inputs":[{"name":"to","type":"address","internalType":"address"}],"outputs":[],"stateMutability":"nonpayable"},{"type":"function","name":"setTag","inputs":[{"name":"_tag","type":"bytes32","internalType":"bytes32"}],"outputs":[],"stateMutability":"nonpayable"},{"type":"function","name":"tag","inputs":[],"outputs":[{"name":"","type":"bytes32","internalType":"bytes32"}],"stateMutability":"view"},{"type":"function","name":"transferOwnership","inputs":[{"name":"newOwner","type":"address","internalType":"address"}],"outputs":[],"stateMutability":"nonpayable"},{"type":"event","name":"AccountSet","inputs":[{"name":"account","type":"address","indexed":true,"internalType":"address"}],"anonymous":false},{"type":"event","name":"AddContractFunc","inputs":[{"name":"_contract","type":"address","indexed":true,"internalType":"address"},{"name":"func","type":"string","indexed":false,"internalType":"string"},{"name":"sender","type":"address","indexed":true,"internalType":"address"}],"anonymous":false},{"type":"event","name":"AddContractFuncSig","inputs":[{"name":"_contract","type":"address","indexed":true,"internalType":"address"},{"name":"funcSig","type":"bytes4","indexed":true,"internalType":"bytes4"},{"name":"sender","type":"address","indexed":true,"internalType":"address"}],"anonymous":false},{"type":"event","name":"CallerSet","inputs":[{"name":"caller","type":"address","indexed":true,"internalType":"address"}],"anonymous":false},{"type":"event","name":"NewOwnerSet","inputs":[{"name":"owner","type":"address","indexed":true,"internalType":"address"}],"anonymous":false},{"type":"event","name":"PausedSet","inputs":[{"name":"status","type":"bool","indexed":true,"internalType":"bool"}],"anonymous":false},{"type":"event","name":"PendingOwnerSet","inputs":[{"name":"to","type":"address","indexed":true,"internalType":"address"}],"anonymous":false},{"type":"event","name":"RemoveContractFunc","inputs":[{"name":"_contract","type":"address","indexed":true,"internalType":"address"},{"name":"func","type":"string","indexed":false,"internalType":"string"},{"name":"sender","type":"address","indexed":true,"internalType":"address"}],"anonymous":false},{"type":"event","name":"RemoveContractFuncSig","inputs":[{"name":"_contract","type":"address","indexed":true,"internalType":"address"},{"name":"funcSig","type":"bytes4","indexed":true,"internalType":"bytes4"},{"name":"sender","type":"address","indexed":true,"internalType":"address"}],"anonymous":false},{"type":"event","name":"TagSet","inputs":[{"name":"tag","type":"bytes32","indexed":true,"internalType":"bytes32"}],"anonymous":false}],"bytecode":{"object":"0x6080346100de57601f6117ee38819003918201601f19168301916001600160401b038311848410176100e25780849260409485528339810103126100de57610052602061004b836100f6565b92016100f6565b6001545f80546001600160a01b0319166001600160a01b03909416938417815560405193907f038720101b9ced74445432ced46c7e5e4c80202669153dd67d226c66a0aa477b9080a26001600160b01b031916600160a01b176001555f600255600380546001600160a01b0319166001600160a01b03929092169190911790556116e3908161010b8239f35b5f80fd5b634e487b7160e01b5f52604160045260245ffd5b51906001600160a01b03821682036100de5756fe6080806040526004361015610012575f80fd5b5f3560e01c90816308dbebf614610e1c5750806316c38b3c14610da857806318d3ce9614610ce957806329f6d57c14610c3b578063476ed36d14610b3e578063485cc95514610b1457806351f9106614610af75780635c975abb14610ad25780635dab242014610aaa578063715018a614610a3a5780637c4c833b146109de57806388e299e3146108d6578063890eba681461017c5780638da5cb5b146108af57806394e9d044146107cf5780639d5228e814610708578063a3f4df7e146106dc578063aeb03a631461060c578063b695e2ef146105b6578063bb24fe8a1461058c578063beb92f55146104df578063c0c53b8b14610466578063c42069ec146103f1578063c4d66de8146103d0578063d58c3fc3146103b9578063dcc16e7c14610305578063e30c3978146102dd578063ebbc4965146102b0578063f266002714610238578063f2fde38b146101ad578063fc9c8d39146101815763ffa1ad741461017c575f80fd5b610f72565b346101a9575f3660031901126101a9576003546040516001600160a01b039091168152602090f35b5f80fd5b346101a95760203660031901126101a9576101c6610edf565b5f546101e5906001600160a01b03166101dd611058565b903314611079565b6001600160a01b038116156101ff576101fd9061131a565b005b60405162461bcd60e51b81526020600482015260116024820152704e6577204f776e6572206973207a65726f60781b6044820152606490fd5b346101a95761029d61024936610fed565b610251611263565b61026f60018060a01b03600354163314610269611203565b90611079565b9060ff60015460a81c165f146102a157505f815261028b611293565b60208201525b60405191829182610f8d565b0390f35b6102ab915061136c565b610291565b346101a9575f3660031901126101a9576001546001600160a01b0316338190036101a9576101fd9061131a565b346101a9575f3660031901126101a9576001546040516001600160a01b039091168152602090f35b346101a95760203660031901126101a9576001600160a01b03610326610edf565b165f52600760205260405f20604051806020835491828152019081935f5260205f20905f5b8181106103a35750505081610361910382611022565b604051918291602083019060208452518091526040830191905f5b81811061038a575050500390f35b825184528594506020938401939092019160010161037c565b825484526020909301926001928301920161034b565b346101a9576103c736610fed565b506101fd611224565b346101a95760203660031901126101a9576101fd6103ec610edf565b6112b4565b346101a95760203660031901126101a95761040a610edf565b5f54610421906001600160a01b03166101dd611058565b600180546001600160a01b0319166001600160a01b039290921691821790557f68f49b346b94582a8b5f9d10e3fe3365318fe8f191ff8dce7c59c6cad06b02f55f80a2005b346101a95760603660031901126101a95761047f610edf565b610487610ef5565b6044356001600160a01b0381169291908390036101a9576104a7916111b5565b600480546001600160a01b031916821790557f195359283029fbdb9a24519b1ec07caf1677655529bf99dc1634c1e8b28811805f80a2005b346101a95760203660031901126101a9576104f8610edf565b5f5461050f906001600160a01b03166101dd611058565b6001600160a01b0316801561055657600380546001600160a01b031916821790557fac431eb831269b53b41991f6cbfbfc93f4baa395996a8170abac93962b5a358e5f80a2005b60405162461bcd60e51b815260206004820152600e60248201526d24b73b30b634b21031b0b63632b960911b6044820152606490fd5b346101a9575f3660031901126101a9576040516b46756e6374696f6e5479706560a01b8152602090f35b346101a95760203660031901126101a9575f54600435906105e2906001600160a01b03166101dd611058565b806002557fef711e3eb06966d227e22eb4fa0302550dcd7257cf69b537cf4d37af53ea9cda5f80a2005b346101a95761061a36610f0b565b5f54610631906001600160a01b03166101dd611058565b61063c8115156110a9565b6001600160a01b03909216915f5b81811061065a576101fd8461160b565b60019061068e6001600160e01b031961067c61067784878961123e565b61124e565b16865f52600760205260405f20611660565b610699575b0161064a565b336001600160e01b03196106b161067784878961123e565b16867f246b022c673a2751245f84dced77afcce61bcd820ff1235276e8c1c242a78f745f80a4610693565b346101a9575f3660031901126101a9576040516d233ab731a0baba3437b934bd32b960911b8152602090f35b346101a95760603660031901126101a95760043567ffffffffffffffff81116101a9576101009060031990360301126101a95760243567ffffffffffffffff81116101a95760609060031990360301126101a95760443567ffffffffffffffff81116101a95760609060031990360301126101a957610785611263565b61079d60018060a01b03600354163314610269611203565b60015460a81c60ff16156107ba57805f61029d925261028b611293565b5061029d6107c6611263565b60018152610291565b346101a9576107dd36610f0b565b5f546107f4906001600160a01b03166101dd611058565b6107ff8115156110a9565b6001600160a01b03909216915f5b8181106108325783805f52600760205260405f20541561082957005b6101fd9061146b565b6001906108616001600160e01b031961084f61067784878961123e565b16865f52600760205260405f2061155a565b61086c575b0161080d565b336001600160e01b031961088461067784878961123e565b16867fedfbd30ca95f1e16901a73aea7daddbbbcd26a1ff975301743208f1c3badfeb15f80a4610866565b346101a9575f3660031901126101a9575f546040516001600160a01b039091168152602090f35b346101a9576108e436610f0b565b5f546108fb906001600160a01b03166101dd611058565b6109068115156110a9565b6001600160a01b03909216915f5b818110610924576101fd8461160b565b8061093c6109356001938587611119565b3691611148565b63ffffffff60e01b906020815191012016855f5260076020526109628160405f20611660565b61096e575b5001610914565b6109ae867f5c55717c3268b2c739eb5087e22a9bcf39b0d4f5a8ab89b4fff9cfe5711e4b3461099e85888a611119565b604051339590928392908361118e565b0390a33390867f246b022c673a2751245f84dced77afcce61bcd820ff1235276e8c1c242a78f745f80a485610967565b346101a95760403660031901126101a95760043567ffffffffffffffff81116101a9576101009060031990360301126101a95760243567ffffffffffffffff81116101a95760609060031990360301126101a9576101fd611224565b346101a9575f3660031901126101a9575f54610a61906001600160a01b03166101dd611058565b6001600160601b0360a01b5f54165f556001600160601b0360a01b600154166001555f7f038720101b9ced74445432ced46c7e5e4c80202669153dd67d226c66a0aa477b8180a2005b346101a9575f3660031901126101a9576004546040516001600160a01b039091168152602090f35b346101a9575f3660031901126101a957602060ff60015460a81c166040519015158152f35b346101a9575f3660031901126101a9576020600254604051908152f35b346101a95760403660031901126101a9576101fd610b30610edf565b610b38610ef5565b906111b5565b346101a957610b4c36610f0b565b5f54610b63906001600160a01b03166101dd611058565b610b6e8115156110a9565b6001600160a01b03909216915f5b818110610b985783805f52600760205260405f20541561082957005b80610ba96109356001938587611119565b63ffffffff60e01b906020815191012016855f526007602052610bcf8160405f2061155a565b610bdb575b5001610b7c565b610c0b867ffed6cf2efef20378e90c3b71c30db7338ca98f5e50e3bf7c8467d8d062512ac261099e85888a611119565b0390a33390867fedfbd30ca95f1e16901a73aea7daddbbbcd26a1ff975301743208f1c3badfeb15f80a485610bd4565b346101a95760203660031901126101a957610c54610edf565b5f54610c6b906001600160a01b03166101dd611058565b6001600160a01b03168015610cb257600480546001600160a01b031916821790557f195359283029fbdb9a24519b1ec07caf1677655529bf99dc1634c1e8b28811805f80a2005b60405162461bcd60e51b815260206004820152600f60248201526e125b9d985b1a59081858d8dbdd5b9d608a1b6044820152606490fd5b346101a9575f3660031901126101a9576040518060206005549283815201809260055f527f036b6384b5eca791c62761152d0c79bb0604c104a5fb6f4eb0703f3154bb3db0905f5b818110610d925750505081610d47910382611022565b604051918291602083019060208452518091526040830191905f5b818110610d70575050500390f35b82516001600160a01b0316845285945060209384019390920191600101610d62565b8254845260209093019260019283019201610d31565b346101a95760203660031901126101a9576004358015158091036101a9575f54610ddd906001600160a01b03166101dd611058565b6001805460ff60a81b191660a883901b60ff60a81b161790557f40db37ff5c0bdc2c427fbb2078c8f24afea940abac0e3c23bb4ea3bf2da2b2125f80a2005b346101a9575f3660031901126101a9576351fa6fbf60e11b8152602081600481305afa8015610eb0575f90610e7c575b61029d9060405190602082015260208152610e68604082611022565b604051918291602083526020830190610ebb565b506020813d602011610ea8575b81610e9660209383611022565b810103126101a95761029d9051610e4c565b3d9150610e89565b6040513d5f823e3d90fd5b805180835260209291819084018484015e5f828201840152601f01601f1916010190565b600435906001600160a01b03821682036101a957565b602435906001600160a01b03821682036101a957565b60406003198201126101a9576004356001600160a01b03811681036101a9579160243567ffffffffffffffff81116101a95760040182601f820112156101a95780359267ffffffffffffffff84116101a9576020808301928560051b0101116101a9579190565b346101a9575f3660031901126101a957602060405160018152f35b90602082528051916002831015610fd957610fd69260208201526040610fc160208401516060838501526080840190610ebb565b920151906060601f1982850301910152610ebb565b90565b634e487b7160e01b5f52602160045260245ffd5b60206003198201126101a9576004359067ffffffffffffffff82116101a9576101009082900360031901126101a95760040190565b90601f8019910116810190811067ffffffffffffffff82111761104457604052565b634e487b7160e01b5f52604160045260245ffd5b60405190611067604083611022565b600382526245333560e81b6020830152565b156110815750565b60405162461bcd60e51b8152602060048201529081906110a5906024830190610ebb565b0390fd5b156110b057565b60405162461bcd60e51b815260206004820152600e60248201526d195b5c1d1e48199d5b98d31a5cdd60921b6044820152606490fd5b903590601e19813603018212156101a9570180359067ffffffffffffffff82116101a9576020019181360383136101a957565b90821015611134576111309160051b8101906110e6565b9091565b634e487b7160e01b5f52603260045260245ffd5b92919267ffffffffffffffff82116110445760405191611172601f8201601f191660200184611022565b8294818452818301116101a9578281602093845f960137010152565b90918060409360208452816020850152848401375f828201840152601f01601f1916010190565b6111be906112b4565b600380546001600160a01b0319166001600160a01b039290921691821790557fac431eb831269b53b41991f6cbfbfc93f4baa395996a8170abac93962b5a358e5f80a2565b60405190611212604083611022565b600382526245323760e81b6020830152565b61123c60018060a01b03600354163314610269611203565b565b91908110156111345760051b0190565b356001600160e01b0319811681036101a95790565b604051906060820182811067ffffffffffffffff8211176110445760405260606040835f81528260208201520152565b604051906112a2604083611022565b6003825262229a1b60e91b6020830152565b60ff60015460a01c166112df576112ca9061131a565b6001805460ff60a01b1916600160a01b179055565b60405162461bcd60e51b8152602060048201526013602482015272105b1c9958591e481a5b9a5d1a585b1a5e9959606a1b6044820152606490fd5b60018060a01b0316806001600160601b0360a01b5f5416175f556001600160601b0360a01b600154166001557f038720101b9ced74445432ced46c7e5e4c80202669153dd67d226c66a0aa477b5f80a2565b90611375611263565b9160a08101600461138682846110e6565b90501061141a57611399606091836110e6565b509101359060018060a01b0382168092036101a9575f91825260076020908152604080842092356001600160e01b031916845260019092019052902054156113e15760018252565b5f82526040516113f2604082611022565b6014815273199d5b98dd1a5bdb881b9bdd08185b1b1bddd95960621b60208201526020830152565b5050905f815260405161142e604082611022565b60138152720d2dcecc2d8d2c840c8c2e8c240d8cadccee8d606b1b6020820152602082015290565b8054821015611134575f5260205f2001905f90565b5f818152600660205260409020548015611554575f198101818111611540576005545f19810191908211611540578181036114f2575b50505060055480156114de575f19016114bb816005611456565b8154905f199060031b1b191690556005555f5260066020525f6040812055600190565b634e487b7160e01b5f52603160045260245ffd5b61152a611503611514936005611456565b90549060031b1c9283926005611456565b819391549060031b91821b915f19901b19161790565b90555f52600660205260405f20555f80806114a1565b634e487b7160e01b5f52601160045260245ffd5b50505f90565b906001820191815f528260205260405f20548015155f14611603575f1981018181116115405782545f19810191908211611540578181036115ce575b505050805480156114de575f1901906115af8282611456565b8154905f199060031b1b19169055555f526020525f6040812055600190565b6115ee6115de6115149386611456565b90549060031b1c92839286611456565b90555f528360205260405f20555f8080611596565b505050505f90565b805f52600660205260405f2054155f1461165b57600554600160401b811015611044576116446115148260018594016005556005611456565b9055600554905f52600660205260405f2055600190565b505f90565b5f82815260018201602052604090205461155457805490600160401b8210156110445782611698611514846001809601855584611456565b90558054925f520160205260405f205560019056fea2646970667358221220ae5baf5922686c98f7b0fb657f07bb3dab509ceaaa8dd611992517bdf4591a3264736f6c634300081a0033","linkReferences":{}},"methodIdentifiers":{"NAME()":"a3f4df7e","TYPE()":"bb24fe8a","VERSION()":"ffa1ad74","_NAME()":"08dbebf6","acceptOwner()":"ebbc4965","account()":"5dab2420","addContractFuncs(address,string[])":"88e299e3","addContractFuncsSig(address,bytes4[])":"aeb03a63","caller()":"fc9c8d39","flag()":"890eba68","getAllContracts()":"18d3ce96","getFuncsByContract(address)":"dcc16e7c","initialize(address)":"c4d66de8","initialize(address,address)":"485cc955","initialize(address,address,address)":"c0c53b8b","owner()":"8da5cb5b","paused()":"5c975abb","pendingOwner()":"e30c3978","postExecCheck((address,address,uint256,address,uint256,bytes,bytes,bytes),(bool,bytes,bytes),(uint8,string,bytes))":"9d5228e8","postExecProcess((address,address,uint256,address,uint256,bytes,bytes,bytes),(bool,bytes,bytes))":"7c4c833b","preExecCheck((address,address,uint256,address,uint256,bytes,bytes,bytes))":"f2660027","preExecProcess((address,address,uint256,address,uint256,bytes,bytes,bytes))":"d58c3fc3","removeContractFuncs(address,string[])":"476ed36d","removeContractFuncsSig(address,bytes4[])":"94e9d044","renounceOwnership()":"715018a6","setAccount(address)":"29f6d57c","setCaller(address)":"beb92f55","setPaused(bool)":"16c38b3c","setPendingOwner(address)":"c42069ec","setTag(bytes32)":"b695e2ef","tag()":"51f91066","transferOwnership(address)":"f2fde38b"},"id":57}