{"abi":[{"type":"function","name":"getRoles","inputs":[{"name":"delegate","type":"address","internalType":"address"}],"outputs":[{"name":"","type":"bytes32[]","internalType":"bytes32[]"}],"stateMutability":"pure"},{"type":"function","name":"hasRole","inputs":[{"name":"delegate","type":"address","internalType":"address"},{"name":"role","type":"bytes32","internalType":"bytes32"}],"outputs":[{"name":"","type":"bool","internalType":"bool"}],"stateMutability":"pure"}],"bytecode":{"object":"0x60808060405234601557610169908161001a8239f35b5f80fdfe6080806040526004361015610012575f80fd5b5f3560e01c908163ac4ab3fb146100fa575063ce6ccfaf14610032575f80fd5b346100f65760203660031901126100f65761004b61011d565b6040805190919080830167ffffffffffffffff8111828210176100e2578352600181526020810191601f1984013684378151156100ce576001600160a01b031682528251602080825291519181018290529081908185019084905f5b8181106100b5575050500390f35b82518452859450602093840193909201916001016100a7565b634e487b7160e01b5f52603260045260245ffd5b634e487b7160e01b5f52604160045260245ffd5b5f80fd5b346100f65760403660031901126100f65760209061011661011d565b5060018152f35b600435906001600160a01b03821682036100f65756fea26469706673582212207ac55435330ca60ba8ac6be4b78229e72d3ea3abd7d149c9da80fc3dabddf8d964736f6c634300081a0033","linkReferences":{}},"methodIdentifiers":{"getRoles(address)":"ce6ccfaf","hasRole(address,bytes32)":"ac4ab3fb"},"id":71}