{"abi":[{"type":"constructor","inputs":[{"name":"_owner","type":"address","internalType":"address"},{"name":"_caller","type":"address","internalType":"address"}],"stateMutability":"nonpayable"},{"type":"fallback","stateMutability":"nonpayable"},{"type":"function","name":"NAME","inputs":[],"outputs":[{"name":"","type":"bytes32","internalType":"bytes32"}],"stateMutability":"view"},{"type":"function","name":"TYPE","inputs":[],"outputs":[{"name":"","type":"bytes32","internalType":"bytes32"}],"stateMutability":"view"},{"type":"function","name":"VERSION","inputs":[],"outputs":[{"name":"","type":"uint256","internalType":"uint256"}],"stateMutability":"view"},{"type":"function","name":"_NAME","inputs":[],"outputs":[{"name":"","type":"string","internalType":"string"}],"stateMutability":"view"},{"type":"function","name":"acceptOwner","inputs":[],"outputs":[],"stateMutability":"nonpayable"},{"type":"function","name":"account","inputs":[],"outputs":[{"name":"","type":"address","internalType":"address"}],"stateMutability":"view"},{"type":"function","name":"addPoolAddresses","inputs":[{"name":"_poolAddresses","type":"address[]","internalType":"address[]"}],"outputs":[],"stateMutability":"nonpayable"},{"type":"function","name":"addPoolIds","inputs":[{"name":"_poolIds","type":"uint256[]","internalType":"uint256[]"}],"outputs":[],"stateMutability":"nonpayable"},{"type":"function","name":"caller","inputs":[],"outputs":[{"name":"","type":"address","internalType":"address"}],"stateMutability":"view"},{"type":"function","name":"contracts","inputs":[],"outputs":[{"name":"_contracts","type":"address[]","internalType":"address[]"}],"stateMutability":"view"},{"type":"function","name":"deposit","inputs":[{"name":"_pid","type":"uint256","internalType":"uint256"},{"name":"amount","type":"uint256","internalType":"uint256"}],"outputs":[],"stateMutability":"view"},{"type":"function","name":"flag","inputs":[],"outputs":[{"name":"","type":"uint256","internalType":"uint256"}],"stateMutability":"view"},{"type":"function","name":"getPoolAddressWhiteList","inputs":[],"outputs":[{"name":"","type":"address[]","internalType":"address[]"}],"stateMutability":"view"},{"type":"function","name":"getPoolIdWhiteList","inputs":[],"outputs":[{"name":"","type":"uint256[]","internalType":"uint256[]"}],"stateMutability":"view"},{"type":"function","name":"initialize","inputs":[{"name":"_owner","type":"address","internalType":"address"},{"name":"_caller","type":"address","internalType":"address"}],"outputs":[],"stateMutability":"nonpayable"},{"type":"function","name":"initialize","inputs":[{"name":"_owner","type":"address","internalType":"address"},{"name":"_caller","type":"address","internalType":"address"},{"name":"_account","type":"address","internalType":"address"}],"outputs":[],"stateMutability":"nonpayable"},{"type":"function","name":"initialize","inputs":[{"name":"_owner","type":"address","internalType":"address"}],"outputs":[],"stateMutability":"nonpayable"},{"type":"function","name":"owner","inputs":[],"outputs":[{"name":"","type":"address","internalType":"address"}],"stateMutability":"view"},{"type":"function","name":"paused","inputs":[],"outputs":[{"name":"","type":"bool","internalType":"bool"}],"stateMutability":"view"},{"type":"function","name":"pendingOwner","inputs":[],"outputs":[{"name":"","type":"address","internalType":"address"}],"stateMutability":"view"},{"type":"function","name":"postExecCheck","inputs":[{"name":"transaction","type":"tuple","internalType":"struct TransactionData","components":[{"name":"from","type":"address","internalType":"address"},{"name":"delegate","type":"address","internalType":"address"},{"name":"flag","type":"uint256","internalType":"uint256"},{"name":"to","type":"address","internalType":"address"},{"name":"value","type":"uint256","internalType":"uint256"},{"name":"data","type":"bytes","internalType":"bytes"},{"name":"hint","type":"bytes","internalType":"bytes"},{"name":"extra","type":"bytes","internalType":"bytes"}]},{"name":"callResult","type":"tuple","internalType":"struct TransactionResult","components":[{"name":"success","type":"bool","internalType":"bool"},{"name":"data","type":"bytes","internalType":"bytes"},{"name":"hint","type":"bytes","internalType":"bytes"}]},{"name":"preData","type":"tuple","internalType":"struct AuthorizerReturnData","components":[{"name":"result","type":"uint8","internalType":"enum AuthResult"},{"name":"message","type":"string","internalType":"string"},{"name":"data","type":"bytes","internalType":"bytes"}]}],"outputs":[{"name":"authData","type":"tuple","internalType":"struct AuthorizerReturnData","components":[{"name":"result","type":"uint8","internalType":"enum AuthResult"},{"name":"message","type":"string","internalType":"string"},{"name":"data","type":"bytes","internalType":"bytes"}]}],"stateMutability":"nonpayable"},{"type":"function","name":"postExecProcess","inputs":[{"name":"transaction","type":"tuple","internalType":"struct TransactionData","components":[{"name":"from","type":"address","internalType":"address"},{"name":"delegate","type":"address","internalType":"address"},{"name":"flag","type":"uint256","internalType":"uint256"},{"name":"to","type":"address","internalType":"address"},{"name":"value","type":"uint256","internalType":"uint256"},{"name":"data","type":"bytes","internalType":"bytes"},{"name":"hint","type":"bytes","internalType":"bytes"},{"name":"extra","type":"bytes","internalType":"bytes"}]},{"name":"callResult","type":"tuple","internalType":"struct TransactionResult","components":[{"name":"success","type":"bool","internalType":"bool"},{"name":"data","type":"bytes","internalType":"bytes"},{"name":"hint","type":"bytes","internalType":"bytes"}]}],"outputs":[],"stateMutability":"nonpayable"},{"type":"function","name":"preExecCheck","inputs":[{"name":"transaction","type":"tuple","internalType":"struct TransactionData","components":[{"name":"from","type":"address","internalType":"address"},{"name":"delegate","type":"address","internalType":"address"},{"name":"flag","type":"uint256","internalType":"uint256"},{"name":"to","type":"address","internalType":"address"},{"name":"value","type":"uint256","internalType":"uint256"},{"name":"data","type":"bytes","internalType":"bytes"},{"name":"hint","type":"bytes","internalType":"bytes"},{"name":"extra","type":"bytes","internalType":"bytes"}]}],"outputs":[{"name":"authData","type":"tuple","internalType":"struct AuthorizerReturnData","components":[{"name":"result","type":"uint8","internalType":"enum AuthResult"},{"name":"message","type":"string","internalType":"string"},{"name":"data","type":"bytes","internalType":"bytes"}]}],"stateMutability":"nonpayable"},{"type":"function","name":"preExecProcess","inputs":[{"name":"transaction","type":"tuple","internalType":"struct TransactionData","components":[{"name":"from","type":"address","internalType":"address"},{"name":"delegate","type":"address","internalType":"address"},{"name":"flag","type":"uint256","internalType":"uint256"},{"name":"to","type":"address","internalType":"address"},{"name":"value","type":"uint256","internalType":"uint256"},{"name":"data","type":"bytes","internalType":"bytes"},{"name":"hint","type":"bytes","internalType":"bytes"},{"name":"extra","type":"bytes","internalType":"bytes"}]}],"outputs":[],"stateMutability":"nonpayable"},{"type":"function","name":"removePoolAddresses","inputs":[{"name":"_poolAddresses","type":"address[]","internalType":"address[]"}],"outputs":[],"stateMutability":"nonpayable"},{"type":"function","name":"removePoolIds","inputs":[{"name":"_poolIds","type":"uint256[]","internalType":"uint256[]"}],"outputs":[],"stateMutability":"nonpayable"},{"type":"function","name":"renounceOwnership","inputs":[],"outputs":[],"stateMutability":"nonpayable"},{"type":"function","name":"setAccount","inputs":[{"name":"_account","type":"address","internalType":"address"}],"outputs":[],"stateMutability":"nonpayable"},{"type":"function","name":"setCaller","inputs":[{"name":"_caller","type":"address","internalType":"address"}],"outputs":[],"stateMutability":"nonpayable"},{"type":"function","name":"setPaused","inputs":[{"name":"_paused","type":"bool","internalType":"bool"}],"outputs":[],"stateMutability":"nonpayable"},{"type":"function","name":"setPendingOwner","inputs":[{"name":"to","type":"address","internalType":"address"}],"outputs":[],"stateMutability":"nonpayable"},{"type":"function","name":"setTag","inputs":[{"name":"_tag","type":"bytes32","internalType":"bytes32"}],"outputs":[],"stateMutability":"nonpayable"},{"type":"function","name":"stakingPool","inputs":[],"outputs":[{"name":"","type":"address","internalType":"address"}],"stateMutability":"view"},{"type":"function","name":"tag","inputs":[],"outputs":[{"name":"","type":"bytes32","internalType":"bytes32"}],"stateMutability":"view"},{"type":"function","name":"transferOwnership","inputs":[{"name":"newOwner","type":"address","internalType":"address"}],"outputs":[],"stateMutability":"nonpayable"},{"type":"event","name":"AccountSet","inputs":[{"name":"account","type":"address","indexed":true,"internalType":"address"}],"anonymous":false},{"type":"event","name":"AddPoolAddressWhitelist","inputs":[{"name":"_poolAddress","type":"address","indexed":true,"internalType":"address"},{"name":"user","type":"address","indexed":true,"internalType":"address"}],"anonymous":false},{"type":"event","name":"AddPoolIdWhitelist","inputs":[{"name":"_poolId","type":"uint256","indexed":true,"internalType":"uint256"},{"name":"user","type":"address","indexed":true,"internalType":"address"}],"anonymous":false},{"type":"event","name":"CallerSet","inputs":[{"name":"caller","type":"address","indexed":true,"internalType":"address"}],"anonymous":false},{"type":"event","name":"NewOwnerSet","inputs":[{"name":"owner","type":"address","indexed":true,"internalType":"address"}],"anonymous":false},{"type":"event","name":"PausedSet","inputs":[{"name":"status","type":"bool","indexed":true,"internalType":"bool"}],"anonymous":false},{"type":"event","name":"PendingOwnerSet","inputs":[{"name":"to","type":"address","indexed":true,"internalType":"address"}],"anonymous":false},{"type":"event","name":"RemovePoolAddressWhitelist","inputs":[{"name":"_poolAddress","type":"address","indexed":true,"internalType":"address"},{"name":"user","type":"address","indexed":true,"internalType":"address"}],"anonymous":false},{"type":"event","name":"RemovePoolIdWhitelist","inputs":[{"name":"_poolId","type":"uint256","indexed":true,"internalType":"uint256"},{"name":"user","type":"address","indexed":true,"internalType":"address"}],"anonymous":false},{"type":"event","name":"TagSet","inputs":[{"name":"tag","type":"bytes32","indexed":true,"internalType":"bytes32"}],"anonymous":false}],"bytecode":{"object":"0x60a0346101e757601f611e9738819003918201601f19168301916001600160401b038311848410176101eb5780849260409485528339810103126101e757610052602061004b836101ff565b92016101ff565b6001545f80546001600160a01b0319166001600160a01b03909416938417815560405193907f038720101b9ced74445432ced46c7e5e4c80202669153dd67d226c66a0aa477b9080a26001600160b01b031916600160a01b1760019081555f600255600380546001600160a01b0319166001600160a01b039390931692909217909155460361011b57507377b2043768d28e9c9ab44e1abfc95944bce579315b608052604051611c839081610214823960805181818161034401528181610eff015261120d0152f35b4661a86a0361012b57505f6100f2565b4660890361013a57505f6100f2565b4661a4b10361015e575073a45b5130f36cdca45667738e2a258ab09f4a5f7f6100f2565b46600a03610181575073e8cdf27acd73a434d661c84887215f7598e7d0d36100f2565b46612105036101a5575073dc181bd607330aeebef6ea62e03e5e1fb4b6f7c76100f2565b62461bcd60e51b815260206004820152601660248201527f6e6f20636861696e206964206973206d617463686564000000000000000000006044820152606490fd5b5f80fd5b634e487b7160e01b5f52604160045260245ffd5b51906001600160a01b03821682036101e75756fe60806040526004361015610019575b34156113fe575b5f80fd5b5f3560e01c806308dbebf6146102445780630c56ae3b1461023f57806316c38b3c1461023a5780631fd6d9591461023557806329f6d57c146102305780633e92ef781461022b5780633ff7916c14610226578063485cc9551461022157806351f910661461021c5780635b72ec83146102175780635c975abb146102125780635cb81a0d1461020d5780635dab2420146102085780636c0f79b614610203578063715018a6146101fe5780637a796db4146101f95780637c4c833b146101f4578063890eba681461019f5780638da5cb5b146101ef5780639d5228e8146101ea578063a3f4df7e146101e5578063b695e2ef146101e0578063bb24fe8a146101db578063beb92f55146101d6578063c0c53b8b146101d1578063c42069ec146101cc578063c4d66de8146101c7578063d58c3fc3146101c2578063e2bbb158146101bd578063e30c3978146101b8578063ebbc4965146101b3578063f2660027146101ae578063f2fde38b146101a9578063fc9c8d39146101a45763ffa1ad740361000e575b610a9b565b611093565b61100e565b610f9b565b610f6e565b610f46565b610e88565b610e7a565b610e2b565b610db2565b610d34565b610c83565b610c5b565b610c05565b610bcb565b610b3a565b610ab6565b610a42565b610979565b610909565b6108ee565b6108c6565b61083a565b610815565b610795565b610736565b610702565b610656565b6105d6565b6104eb565b610441565b610373565b61032f565b610281565b805180835260209291819084018484015e5f828201840152601f01601f1916010190565b90602061027e928181520190610249565b90565b34610015575f366003190112610015576040516351fa6fbf60e11b8152602081600481305afa908115610324575f916102f0575b6102ec6102d26102e0846040519283916020830160209181520190565b03601f1981018352826110cf565b6040519182918261026d565b0390f35b90506020813d60201161031c575b8161030b602093836110cf565b8101031261001557516102d26102b5565b3d91506102fe565b6040513d5f823e3d90fd5b34610015575f366003190112610015576040517f00000000000000000000000000000000000000000000000000000000000000006001600160a01b03168152602090f35b3461001557602036600319011261001557600435801515809103610015575f546103b0906001600160a01b03166103a8611120565b903314611141565b6001805460ff60a81b191660a883901b60ff60a81b161790557f40db37ff5c0bdc2c427fbb2078c8f24afea940abac0e3c23bb4ea3bf2da2b2125f80a2005b906020600319830112610015576004356001600160401b0381116100155760040182601f82011215610015578035926001600160401b038411610015576020808301928560051b010111610015579190565b346100155761044f366103ef565b5f54909190610469906001600160a01b03166103a8611120565b5f5b82811061047457005b8061048b6104856001938686611185565b356116e4565b610496575b0161046b565b6104a1818585611185565b3533907facdd6aba368bd3361860dcb4f5e9def4d6935ce550436e3ce90ee6cdd5910f795f80a3610490565b6001600160a01b0381160361001557565b35906104e9826104cd565b565b3461001557602036600319011261001557600435610508816104cd565b5f5461051f906001600160a01b03166103a8611120565b6001600160a01b0316801561056657600480546001600160a01b031916821790557f195359283029fbdb9a24519b1ec07caf1677655529bf99dc1634c1e8b28811805f80a2005b60405162461bcd60e51b815260206004820152600f60248201526e125b9d985b1a59081858d8dbdd5b9d608a1b6044820152606490fd5b60206040818301928281528451809452019201905f5b8181106105c05750505090565b82518452602093840193909201916001016105b3565b34610015575f3660031901126100155760405180602060055491828152019060055f527f036b6384b5eca791c62761152d0c79bb0604c104a5fb6f4eb0703f3154bb3db0905f5b818110610640576102ec85610634818703826110cf565b6040519182918261059d565b825484526020909301926001928301920161061d565b3461001557610664366103ef565b5f5490919061067e906001600160a01b03166103a8611120565b5f5b82811061068957005b806106b061069a6001938686611185565b356106a4816104cd565b838060a01b03166117e4565b6106bb575b01610680565b6106c6818585611185565b356106d0816104cd565b3390838060a01b03167f5c67bd19bae53975fd875da73cc5116c5040fd57ba2771340ad6b5ff18e12f0b5f80a36106b5565b3461001557604036600319011261001557610734600435610722816104cd565b6024359061072f826104cd565b61119a565b005b34610015575f366003190112610015576020600254604051908152f35b60206040818301928281528451809452019201905f5b8181106107765750505090565b82516001600160a01b0316845260209384019390920191600101610769565b34610015575f3660031901126100155760405180602060075491828152019060075f527fa66cc928b5edb82af9bd49922954155ab7b0942694bea4ce44661d9a8736c688905f5b8181106107ff576102ec856107f3818703826110cf565b60405191829182610753565b82548452602090930192600192830192016107dc565b34610015575f36600319011261001557602060ff60015460a81c166040519015158152f35b3461001557610848366103ef565b5f54909190610862906001600160a01b03166103a8611120565b5f5b82811061086d57005b8061088461087e6001938686611185565b35611882565b61088f575b01610864565b61089a818585611185565b3533907f4317a31e7a2d9600dfde2005ba8c5dfd4c0849b8772a28891ea543fc997ed4355f80a3610889565b34610015575f366003190112610015576004546040516001600160a01b039091168152602090f35b34610015575f366003190112610015576102ec6107f36111e8565b34610015575f366003190112610015575f54610930906001600160a01b03166103a8611120565b6001600160601b0360a01b5f54165f556001600160601b0360a01b600154166001555f7f038720101b9ced74445432ced46c7e5e4c80202669153dd67d226c66a0aa477b8180a2005b3461001557610987366103ef565b5f549091906109a1906001600160a01b03166103a8611120565b5f5b8281106109ac57005b806109d36109bd6001938686611185565b356109c7816104cd565b838060a01b031661174d565b6109de575b016109a3565b6109e9818585611185565b356109f3816104cd565b3390838060a01b03167f9dba6d66383f9ab187c7e2a59620f98f7b46fd0060f7b905ed1ddc6370ce0ca95f80a36109d8565b90816101009103126100155790565b908160609103126100155790565b34610015576040366003190112610015576004356001600160401b03811161001557610a72903690600401610a25565b506024356001600160401b03811161001557610a92903690600401610a34565b5061073461125a565b34610015575f36600319011261001557602060405160018152f35b34610015575f366003190112610015575f546040516001600160a01b039091168152602090f35b90602082528051916002831015610b265761027e9260208201526040610b1160208401516060838501526080840190610249565b920151906060601f1982850301910152610249565b634e487b7160e01b5f52602160045260245ffd5b34610015576060366003190112610015576004356001600160401b03811161001557610b6a903690600401610a25565b6024356001600160401b03811161001557610b89903690600401610a34565b90604435906001600160401b038211610015576102ec92610bb1610bbf933690600401610a34565b91610bba611272565b6112a1565b60405191829182610add565b34610015575f3660031901126100155760206040517f5374617267617465436c61696d417574686f72697a65720000000000000000008152f35b34610015576020366003190112610015575f5460043590610c31906001600160a01b03166103a8611120565b806002557fef711e3eb06966d227e22eb4fa0302550dcd7257cf69b537cf4d37af53ea9cda5f80a2005b34610015575f3660031901126100155760405169436f6d6d6f6e5479706560b01b8152602090f35b3461001557602036600319011261001557600435610ca0816104cd565b5f54610cb7906001600160a01b03166103a8611120565b6001600160a01b03168015610cfe57600380546001600160a01b031916821790557fac431eb831269b53b41991f6cbfbfc93f4baa395996a8170abac93962b5a358e5f80a2005b60405162461bcd60e51b815260206004820152600e60248201526d24b73b30b634b21031b0b63632b960911b6044820152606490fd5b3461001557606036600319011261001557600435610d51816104cd565b610d6d602435610d60816104cd565b6044359261072f846104cd565b600480546001600160a01b0319166001600160a01b039290921691821790557f195359283029fbdb9a24519b1ec07caf1677655529bf99dc1634c1e8b28811805f80a2005b3461001557602036600319011261001557600435610dcf816104cd565b5f54610de6906001600160a01b03166103a8611120565b600180546001600160a01b0319166001600160a01b039290921691821790557f68f49b346b94582a8b5f9d10e3fe3365318fe8f191ff8dce7c59c6cad06b02f55f80a2005b3461001557602036600319011261001557610734600435610e4b816104cd565b61130f565b602060031982011261001557600435906001600160401b0382116100155761027e91600401610a25565b3461001557610a9236610e50565b3461001557604036600319011261001557600435602435610ea7611904565b50610eb0611904565b50601f193601368111610f3257359136831161001557610f2d610efd610ef16060610ee387610734983603810190611b6f565b01516001600160a01b031690565b6001600160a01b031690565b7f00000000000000000000000000000000000000000000000000000000000000006001600160a01b031614611490565b611375565b634e487b7160e01b5f52601160045260245ffd5b34610015575f366003190112610015576001546040516001600160a01b039091168152602090f35b34610015575f366003190112610015576001546001600160a01b031633819003610015576107349061143e565b34610015576102ec610fac36610e50565b610fb4611272565b610fd260018060a01b03600354163314610fcc611239565b90611141565b9060ff60015460a81c165f14610fff57505f8152610fee6112ee565b602082015260405191829182610add565b61100991506114fe565b610bbf565b346100155760203660031901126100155760043561102b816104cd565b5f54611042906001600160a01b03166103a8611120565b6001600160a01b0381161561105a576107349061143e565b60405162461bcd60e51b81526020600482015260116024820152704e6577204f776e6572206973207a65726f60781b6044820152606490fd5b34610015575f366003190112610015576003546040516001600160a01b039091168152602090f35b634e487b7160e01b5f52604160045260245ffd5b90601f801991011681019081106001600160401b038211176110f057604052565b6110bb565b604051906104e9610100836110cf565b6001600160401b0381116110f057601f01601f191660200190565b6040519061112f6040836110cf565b600382526245333560e81b6020830152565b156111495750565b60405162461bcd60e51b81526020600482015290819061116d906024830190610249565b0390fd5b634e487b7160e01b5f52603260045260245ffd5b91908110156111955760051b0190565b611171565b6111a39061130f565b600380546001600160a01b0319166001600160a01b039290921691821790557fac431eb831269b53b41991f6cbfbfc93f4baa395996a8170abac93962b5a358e5f80a2565b604051906111f76040836110cf565b60018252602080830190368237825115611195577f00000000000000000000000000000000000000000000000000000000000000006001600160a01b03169052565b604051906112486040836110cf565b600382526245323760e81b6020830152565b6104e960018060a01b03600354163314610fcc611239565b60405190606082018281106001600160401b038211176110f05760405260606040835f81528260208201520152565b925050506112bd60018060a01b03600354163314610fcc611239565b60015460a81c60ff16156112de575f81526112d66112ee565b602082015290565b506112e7611272565b6001815290565b604051906112fd6040836110cf565b6003825262229a1b60e91b6020830152565b60ff60015460a01c1661133a576113259061143e565b6001805460ff60a01b1916600160a01b179055565b60405162461bcd60e51b8152602060048201526013602482015272105b1c9958591e481a5b9a5d1a585b1a5e9959606a1b6044820152606490fd5b906113c8575f52600660205260405f20541561138d57565b60405162461bcd60e51b81526020600482015260136024820152721c1bdbdb081a59081b9bdd08185b1b1bddd959606a1b6044820152606490fd5b60405162461bcd60e51b815260206004820152600e60248201526d63616e206f6e6c7920636c61696d60901b6044820152606490fd5b61116d60405161140f6040826110cf565b600381526245343960e81b602082015260405191829162461bcd60e51b83526020600484018181520190610249565b60018060a01b0316806001600160601b0360a01b5f5416175f556001600160601b0360a01b600154166001557f038720101b9ced74445432ced46c7e5e4c80202669153dd67d226c66a0aa477b5f80a2565b1561149757565b60405162461bcd60e51b815260206004820152601060248201526f125b9d985b1a590818dbdb9d1c9858dd60821b6044820152606490fd5b3d156114f9573d906114e082611105565b916114ee60405193846110cf565b82523d5f602084013e565b606090565b611506611272565b61150f82611951565b1561168757505f8061166e61166e61167461027e956102d26116466116596040519360208086015261155460408601611547836104de565b6001600160a01b03169052565b611573611563602083016104de565b6001600160a01b03166060870152565b6040810135608086015261159c61158c606083016104de565b6001600160a01b031660a0870152565b608081013560c086015260a0810190611623866116156115f56115d56115c287876119b5565b61010060e08701526101408601916119e6565b6115e260c08701876119b5565b858303603f1901610100870152906119e6565b61160260e08601866119b5565b848303603f1901610120860152906119e6565b03601f1981018852876110cf565b6116546116308383611a06565b9050604051958691602083019190602083019252565b03601f1981018652856110cf565b611a06565b96909360405196879560208701998a91611a38565b90611a45565b5190305afa6116816114cf565b90611a78565b90505f815260405161169a6040826110cf565b600381526245353560e81b6020820152602082015290565b8054821015611195575f5260205f2001905f90565b916116e09183549060031b91821b915f19901b19161790565b9055565b5f8181526006602052604090205461174857600554600160401b8110156110f05761173161171b82600185940160055560056116b2565b819391549060031b91821b915f19901b19161790565b9055600554905f52600660205260405f2055600190565b505f90565b5f8181526008602052604090205461174857600754600160401b8110156110f05761178461171b82600185940160075560076116b2565b9055600754905f52600860205260405f2055600190565b5f19810191908211610f3257565b805480156117d0575f1901906117bf82826116b2565b8154905f199060031b1b1916905555565b634e487b7160e01b5f52603160045260245ffd5b5f8181526008602052604090205490811561187c575f19820190828211610f32575f9261183b9261181660075461179b565b90818103611841575b50505061182c60076117a9565b6008905f5260205260405f2090565b55600190565b61182c61186d916118636118596118739560076116b2565b90549060031b1c90565b92839160076116b2565b906116c7565b555f808061181f565b50505f90565b5f8181526006602052604090205490811561187c575f19820190828211610f32575f9261183b926118b460055461179b565b908181036118d9575b5050506118ca60056117a9565b6006905f5260205260405f2090565b6118ca61186d916118f16118596118fb9560056116b2565b92839160056116b2565b555f80806118bd565b6040519061010082018281106001600160401b038211176110f057604052606060e0835f81525f60208201525f60408201525f838201525f60808201528260a08201528260c08201520152565b6060013561195e816104cd565b6119666111e8565b906001600160a01b03165f5b82518110156119ae57825181101561119557600581901b8301602001516001600160a01b031682146119a657600101611972565b505050600190565b5050505f90565b9035601e19823603018112156100155701602081359101916001600160401b03821161001557813603831361001557565b908060209392818452848401375f828201840152601f01601f1916010190565b903590601e198136030182121561001557018035906001600160401b0382116100155760200191813603831361001557565b908092918237015f815290565b805191908290602001825e015f815290565b60405190611a666040836110cf565b600382526245333960e81b6020830152565b9190611a82611272565b9215611a9c57611a96905115610fcc611a57565b60018252565b60448151105f14611aae576020830152565b6004810151810160248101919060209082900312610015576024810151906001600160401b03821161001557018160438201121561001557602481015190611af582611105565b92611b0360405194856110cf565b8284526044828401011161001557815f926044602093018386015e830101526020830152565b81601f8201121561001557803590611b4082611105565b92611b4e60405194856110cf565b8284526020838301011161001557815f926020809301838601378301015290565b602081830312610015578035906001600160401b03821161001557016101008183031261001557611b9e6110f5565b91611ba8826104de565b8352611bb6602083016104de565b602084015260408201356040840152611bd1606083016104de565b60608401526080820135608084015260a08201356001600160401b0381116100155781611bff918401611b29565b60a084015260c08201356001600160401b0381116100155781611c23918401611b29565b60c084015260e08201356001600160401b03811161001557611c459201611b29565b60e08201529056fea2646970667358221220e1fe67a4ad118f1ab27ff6213506391850e46c8422467cd909f444911506a51464736f6c634300081a0033","linkReferences":{}},"methodIdentifiers":{"NAME()":"a3f4df7e","TYPE()":"bb24fe8a","VERSION()":"ffa1ad74","_NAME()":"08dbebf6","acceptOwner()":"ebbc4965","account()":"5dab2420","addPoolAddresses(address[])":"7a796db4","addPoolIds(uint256[])":"1fd6d959","caller()":"fc9c8d39","contracts()":"6c0f79b6","deposit(uint256,uint256)":"e2bbb158","flag()":"890eba68","getPoolAddressWhiteList()":"5b72ec83","getPoolIdWhiteList()":"3e92ef78","initialize(address)":"c4d66de8","initialize(address,address)":"485cc955","initialize(address,address,address)":"c0c53b8b","owner()":"8da5cb5b","paused()":"5c975abb","pendingOwner()":"e30c3978","postExecCheck((address,address,uint256,address,uint256,bytes,bytes,bytes),(bool,bytes,bytes),(uint8,string,bytes))":"9d5228e8","postExecProcess((address,address,uint256,address,uint256,bytes,bytes,bytes),(bool,bytes,bytes))":"7c4c833b","preExecCheck((address,address,uint256,address,uint256,bytes,bytes,bytes))":"f2660027","preExecProcess((address,address,uint256,address,uint256,bytes,bytes,bytes))":"d58c3fc3","removePoolAddresses(address[])":"3ff7916c","removePoolIds(uint256[])":"5cb81a0d","renounceOwnership()":"715018a6","setAccount(address)":"29f6d57c","setCaller(address)":"beb92f55","setPaused(bool)":"16c38b3c","setPendingOwner(address)":"c42069ec","setTag(bytes32)":"b695e2ef","stakingPool()":"0c56ae3b","tag()":"51f91066","transferOwnership(address)":"f2fde38b"},"id":68}