{"abi":[{"type":"constructor","inputs":[{"name":"_owner","type":"address","internalType":"address"},{"name":"_caller","type":"address","internalType":"address"}],"stateMutability":"nonpayable"},{"type":"fallback","stateMutability":"nonpayable"},{"type":"function","name":"NAME","inputs":[],"outputs":[{"name":"","type":"bytes32","internalType":"bytes32"}],"stateMutability":"view"},{"type":"function","name":"TYPE","inputs":[],"outputs":[{"name":"","type":"bytes32","internalType":"bytes32"}],"stateMutability":"view"},{"type":"function","name":"V6AGGREGATOR","inputs":[],"outputs":[{"name":"","type":"address","internalType":"address"}],"stateMutability":"view"},{"type":"function","name":"VERSION","inputs":[],"outputs":[{"name":"","type":"uint256","internalType":"uint256"}],"stateMutability":"view"},{"type":"function","name":"_NAME","inputs":[],"outputs":[{"name":"","type":"string","internalType":"string"}],"stateMutability":"view"},{"type":"function","name":"acceptOwner","inputs":[],"outputs":[],"stateMutability":"nonpayable"},{"type":"function","name":"account","inputs":[],"outputs":[{"name":"","type":"address","internalType":"address"}],"stateMutability":"view"},{"type":"function","name":"caller","inputs":[],"outputs":[{"name":"","type":"address","internalType":"address"}],"stateMutability":"view"},{"type":"function","name":"contracts","inputs":[],"outputs":[{"name":"_contracts","type":"address[]","internalType":"address[]"}],"stateMutability":"view"},{"type":"function","name":"flag","inputs":[],"outputs":[{"name":"","type":"uint256","internalType":"uint256"}],"stateMutability":"view"},{"type":"function","name":"initialize","inputs":[{"name":"_owner","type":"address","internalType":"address"},{"name":"_caller","type":"address","internalType":"address"}],"outputs":[],"stateMutability":"nonpayable"},{"type":"function","name":"initialize","inputs":[{"name":"_owner","type":"address","internalType":"address"},{"name":"_caller","type":"address","internalType":"address"},{"name":"_account","type":"address","internalType":"address"}],"outputs":[],"stateMutability":"nonpayable"},{"type":"function","name":"initialize","inputs":[{"name":"_owner","type":"address","internalType":"address"}],"outputs":[],"stateMutability":"nonpayable"},{"type":"function","name":"owner","inputs":[],"outputs":[{"name":"","type":"address","internalType":"address"}],"stateMutability":"view"},{"type":"function","name":"paused","inputs":[],"outputs":[{"name":"","type":"bool","internalType":"bool"}],"stateMutability":"view"},{"type":"function","name":"pendingOwner","inputs":[],"outputs":[{"name":"","type":"address","internalType":"address"}],"stateMutability":"view"},{"type":"function","name":"postExecCheck","inputs":[{"name":"transaction","type":"tuple","internalType":"struct TransactionData","components":[{"name":"from","type":"address","internalType":"address"},{"name":"delegate","type":"address","internalType":"address"},{"name":"flag","type":"uint256","internalType":"uint256"},{"name":"to","type":"address","internalType":"address"},{"name":"value","type":"uint256","internalType":"uint256"},{"name":"data","type":"bytes","internalType":"bytes"},{"name":"hint","type":"bytes","internalType":"bytes"},{"name":"extra","type":"bytes","internalType":"bytes"}]},{"name":"callResult","type":"tuple","internalType":"struct TransactionResult","components":[{"name":"success","type":"bool","internalType":"bool"},{"name":"data","type":"bytes","internalType":"bytes"},{"name":"hint","type":"bytes","internalType":"bytes"}]},{"name":"preData","type":"tuple","internalType":"struct AuthorizerReturnData","components":[{"name":"result","type":"uint8","internalType":"enum AuthResult"},{"name":"message","type":"string","internalType":"string"},{"name":"data","type":"bytes","internalType":"bytes"}]}],"outputs":[{"name":"authData","type":"tuple","internalType":"struct AuthorizerReturnData","components":[{"name":"result","type":"uint8","internalType":"enum AuthResult"},{"name":"message","type":"string","internalType":"string"},{"name":"data","type":"bytes","internalType":"bytes"}]}],"stateMutability":"nonpayable"},{"type":"function","name":"postExecProcess","inputs":[{"name":"transaction","type":"tuple","internalType":"struct TransactionData","components":[{"name":"from","type":"address","internalType":"address"},{"name":"delegate","type":"address","internalType":"address"},{"name":"flag","type":"uint256","internalType":"uint256"},{"name":"to","type":"address","internalType":"address"},{"name":"value","type":"uint256","internalType":"uint256"},{"name":"data","type":"bytes","internalType":"bytes"},{"name":"hint","type":"bytes","internalType":"bytes"},{"name":"extra","type":"bytes","internalType":"bytes"}]},{"name":"callResult","type":"tuple","internalType":"struct TransactionResult","components":[{"name":"success","type":"bool","internalType":"bool"},{"name":"data","type":"bytes","internalType":"bytes"},{"name":"hint","type":"bytes","internalType":"bytes"}]}],"outputs":[],"stateMutability":"nonpayable"},{"type":"function","name":"preExecCheck","inputs":[{"name":"transaction","type":"tuple","internalType":"struct TransactionData","components":[{"name":"from","type":"address","internalType":"address"},{"name":"delegate","type":"address","internalType":"address"},{"name":"flag","type":"uint256","internalType":"uint256"},{"name":"to","type":"address","internalType":"address"},{"name":"value","type":"uint256","internalType":"uint256"},{"name":"data","type":"bytes","internalType":"bytes"},{"name":"hint","type":"bytes","internalType":"bytes"},{"name":"extra","type":"bytes","internalType":"bytes"}]}],"outputs":[{"name":"authData","type":"tuple","internalType":"struct AuthorizerReturnData","components":[{"name":"result","type":"uint8","internalType":"enum AuthResult"},{"name":"message","type":"string","internalType":"string"},{"name":"data","type":"bytes","internalType":"bytes"}]}],"stateMutability":"nonpayable"},{"type":"function","name":"preExecProcess","inputs":[{"name":"transaction","type":"tuple","internalType":"struct TransactionData","components":[{"name":"from","type":"address","internalType":"address"},{"name":"delegate","type":"address","internalType":"address"},{"name":"flag","type":"uint256","internalType":"uint256"},{"name":"to","type":"address","internalType":"address"},{"name":"value","type":"uint256","internalType":"uint256"},{"name":"data","type":"bytes","internalType":"bytes"},{"name":"hint","type":"bytes","internalType":"bytes"},{"name":"extra","type":"bytes","internalType":"bytes"}]}],"outputs":[],"stateMutability":"nonpayable"},{"type":"function","name":"renounceOwnership","inputs":[],"outputs":[],"stateMutability":"nonpayable"},{"type":"function","name":"setAccount","inputs":[{"name":"_account","type":"address","internalType":"address"}],"outputs":[],"stateMutability":"nonpayable"},{"type":"function","name":"setCaller","inputs":[{"name":"_caller","type":"address","internalType":"address"}],"outputs":[],"stateMutability":"nonpayable"},{"type":"function","name":"setPaused","inputs":[{"name":"_paused","type":"bool","internalType":"bool"}],"outputs":[],"stateMutability":"nonpayable"},{"type":"function","name":"setPendingOwner","inputs":[{"name":"to","type":"address","internalType":"address"}],"outputs":[],"stateMutability":"nonpayable"},{"type":"function","name":"setTag","inputs":[{"name":"_tag","type":"bytes32","internalType":"bytes32"}],"outputs":[],"stateMutability":"nonpayable"},{"type":"function","name":"swap","inputs":[{"name":"","type":"address","internalType":"address"},{"name":"desc","type":"tuple","internalType":"struct OneinchV6Auth.SwapDescription","components":[{"name":"srcToken","type":"address","internalType":"address"},{"name":"dstToken","type":"address","internalType":"address"},{"name":"srcReceiver","type":"address","internalType":"address"},{"name":"dstReceiver","type":"address","internalType":"address"},{"name":"amount","type":"uint256","internalType":"uint256"},{"name":"minReturnAmount","type":"uint256","internalType":"uint256"},{"name":"flags","type":"uint256","internalType":"uint256"}]},{"name":"","type":"bytes","internalType":"bytes"}],"outputs":[],"stateMutability":"view"},{"type":"function","name":"tag","inputs":[],"outputs":[{"name":"","type":"bytes32","internalType":"bytes32"}],"stateMutability":"view"},{"type":"function","name":"transferOwnership","inputs":[{"name":"newOwner","type":"address","internalType":"address"}],"outputs":[],"stateMutability":"nonpayable"},{"type":"function","name":"uniswap3","inputs":[{"name":"","type":"uint256","internalType":"uint256"},{"name":"","type":"uint256","internalType":"uint256"},{"name":"","type":"uint256","internalType":"uint256"},{"name":"","type":"uint256","internalType":"uint256"},{"name":"","type":"uint256","internalType":"uint256"},{"name":"","type":"uint256","internalType":"uint256"}],"outputs":[],"stateMutability":"view"},{"type":"function","name":"unoswap","inputs":[{"name":"","type":"uint256","internalType":"uint256"},{"name":"","type":"uint256","internalType":"uint256"},{"name":"","type":"uint256","internalType":"uint256"},{"name":"","type":"uint256","internalType":"uint256"}],"outputs":[],"stateMutability":"view"},{"type":"function","name":"unoswap2","inputs":[{"name":"","type":"uint256","internalType":"uint256"},{"name":"","type":"uint256","internalType":"uint256"},{"name":"","type":"uint256","internalType":"uint256"},{"name":"","type":"uint256","internalType":"uint256"},{"name":"","type":"uint256","internalType":"uint256"}],"outputs":[],"stateMutability":"view"},{"type":"event","name":"AccountSet","inputs":[{"name":"account","type":"address","indexed":true,"internalType":"address"}],"anonymous":false},{"type":"event","name":"CallerSet","inputs":[{"name":"caller","type":"address","indexed":true,"internalType":"address"}],"anonymous":false},{"type":"event","name":"NewOwnerSet","inputs":[{"name":"owner","type":"address","indexed":true,"internalType":"address"}],"anonymous":false},{"type":"event","name":"PausedSet","inputs":[{"name":"status","type":"bool","indexed":true,"internalType":"bool"}],"anonymous":false},{"type":"event","name":"PendingOwnerSet","inputs":[{"name":"to","type":"address","indexed":true,"internalType":"address"}],"anonymous":false},{"type":"event","name":"TagSet","inputs":[{"name":"tag","type":"bytes32","indexed":true,"internalType":"bytes32"}],"anonymous":false}],"bytecode":{"object":"0x6080346100de57601f6116f038819003918201601f19168301916001600160401b038311848410176100e25780849260409485528339810103126100de57610052602061004b836100f6565b92016100f6565b6001545f80546001600160a01b0319166001600160a01b03909416938417815560405193907f038720101b9ced74445432ced46c7e5e4c80202669153dd67d226c66a0aa477b9080a26001600160b01b031916600160a01b176001555f600255600380546001600160a01b0319166001600160a01b03929092169190911790556115e5908161010b8239f35b5f80fd5b634e487b7160e01b5f52604160045260245ffd5b51906001600160a01b03821682036100de5756fe60806040526004361015610019575b3415610f32575b5f80fd5b5f3560e01c806307ed23791461021457806308dbebf61461020f57806316c38b3c1461020a5780631f8b89291461020557806329f6d57c14610200578063485cc955146101fb57806351f91066146101f657806357621848146101f15780635c975abb146101ec5780635dab2420146101e75780636c0f79b6146101e2578063715018a6146101dd5780637c4c833b146101d857806383800a8e146101d35780638770ba91146101ce578063890eba681461017e5780638da5cb5b146101c95780639d5228e8146101c4578063a3f4df7e146101bf578063b695e2ef146101ba578063bb24fe8a146101b5578063beb92f55146101b0578063c0c53b8b146101ab578063c42069ec146101a6578063c4d66de8146101a1578063d58c3fc31461019c578063e30c397814610197578063ebbc496514610192578063f26600271461018d578063f2fde38b14610188578063fc9c8d39146101835763ffa1ad740361000e575b610722565b610c4d565b610bc8565b610b55565b610b28565b610b00565b610af2565b610aa3565b610a2a565b6109ac565b6108fb565b6108d3565b61087d565b610852565b6107c1565b61073d565b610709565b6106f0565b610697565b61060a565b6105a5565b61057d565b610558565b61053f565b610522565b6104f0565b61043e565b610410565b610394565b6102e6565b610237565b6001600160a01b0381160361001557565b359061023582610219565b565b34610015576101203660031901126100155760043561025581610219565b60e03660231901126100155761010435906001600160401b0382116100155736602383011215610015578160040135906001600160401b0382116100155736602483850101116100155760246102ac930190610c75565b005b805180835260209291819084018484015e5f828201840152601f01601f1916010190565b9060206102e39281815201906102ae565b90565b34610015575f366003190112610015576040516351fa6fbf60e11b8152602081600481305afa908115610389575f91610355575b610351610337610345846040519283916020830160209181520190565b03601f198101835282610cb6565b604051918291826102d2565b0390f35b90506020813d602011610381575b8161037060209383610cb6565b81010312610015575161033761031a565b3d9150610363565b6040513d5f823e3d90fd5b3461001557602036600319011261001557600435801515809103610015575f546103d1906001600160a01b03166103c9610d07565b903314610d28565b6001805460ff60a81b191660a883901b60ff60a81b161790557f40db37ff5c0bdc2c427fbb2078c8f24afea940abac0e3c23bb4ea3bf2da2b2125f80a2005b34610015575f36600319011261001557602060405173111111125421ca6dc452d289314280a0f8842a658152f35b346100155760203660031901126100155760043561045b81610219565b5f54610472906001600160a01b03166103c9610d07565b6001600160a01b031680156104b957600480546001600160a01b031916821790557f195359283029fbdb9a24519b1ec07caf1677655529bf99dc1634c1e8b28811805f80a2005b60405162461bcd60e51b815260206004820152600f60248201526e125b9d985b1a59081858d8dbdd5b9d608a1b6044820152606490fd5b34610015576040366003190112610015576102ac60043561051081610219565b6024359061051d82610219565b610d58565b34610015575f366003190112610015576020600254604051908152f35b346100155760c0366003190112610015576102ac610fb1565b34610015575f36600319011261001557602060ff60015460a81c166040519015158152f35b34610015575f366003190112610015576004546040516001600160a01b039091168152602090f35b34610015575f366003190112610015576105bd610da6565b6040518091602082016020835281518091526020604084019201905f5b8181106105e8575050500390f35b82516001600160a01b03168452859450602093840193909201916001016105da565b34610015575f366003190112610015575f54610631906001600160a01b03166103c9610d07565b6001600160601b0360a01b5f54165f556001600160601b0360a01b600154166001555f7f038720101b9ced74445432ced46c7e5e4c80202669153dd67d226c66a0aa477b8180a2005b90816101009103126100155790565b908160609103126100155790565b34610015576040366003190112610015576004356001600160401b038111610015576106c790369060040161067a565b506024356001600160401b038111610015576106e7903690600401610689565b506102ac610e17565b34610015576080366003190112610015576102ac610fb1565b346100155760a0366003190112610015576102ac610fb1565b34610015575f36600319011261001557602060405160018152f35b34610015575f366003190112610015575f546040516001600160a01b039091168152602090f35b906020825280519160028310156107ad576102e39260208201526040610798602084015160608385015260808401906102ae565b920151906060601f19828503019101526102ae565b634e487b7160e01b5f52602160045260245ffd5b34610015576060366003190112610015576004356001600160401b038111610015576107f190369060040161067a565b6024356001600160401b03811161001557610810903690600401610689565b90604435906001600160401b0382116100155761035192610838610846933690600401610689565b91610841610e2f565b610e5e565b60405191829182610764565b34610015575f366003190112610015576040516c09edccad2dcc6d0ac6c82eae8d609b1b8152602090f35b34610015576020366003190112610015575f54600435906108a9906001600160a01b03166103c9610d07565b806002557fef711e3eb06966d227e22eb4fa0302550dcd7257cf69b537cf4d37af53ea9cda5f80a2005b34610015575f3660031901126100155760405169436f6d6d6f6e5479706560b01b8152602090f35b346100155760203660031901126100155760043561091881610219565b5f5461092f906001600160a01b03166103c9610d07565b6001600160a01b0316801561097657600380546001600160a01b031916821790557fac431eb831269b53b41991f6cbfbfc93f4baa395996a8170abac93962b5a358e5f80a2005b60405162461bcd60e51b815260206004820152600e60248201526d24b73b30b634b21031b0b63632b960911b6044820152606490fd5b34610015576060366003190112610015576004356109c981610219565b6109e56024356109d881610219565b6044359261051d84610219565b600480546001600160a01b0319166001600160a01b039290921691821790557f195359283029fbdb9a24519b1ec07caf1677655529bf99dc1634c1e8b28811805f80a2005b3461001557602036600319011261001557600435610a4781610219565b5f54610a5e906001600160a01b03166103c9610d07565b600180546001600160a01b0319166001600160a01b039290921691821790557f68f49b346b94582a8b5f9d10e3fe3365318fe8f191ff8dce7c59c6cad06b02f55f80a2005b34610015576020366003190112610015576102ac600435610ac381610219565b610ecc565b602060031982011261001557600435906001600160401b038211610015576102e39160040161067a565b34610015576106e736610ac8565b34610015575f366003190112610015576001546040516001600160a01b039091168152602090f35b34610015575f366003190112610015576001546001600160a01b031633819003610015576102ac9061110f565b3461001557610351610b6636610ac8565b610b6e610e2f565b610b8c60018060a01b03600354163314610b86610df6565b90610d28565b9060ff60015460a81c165f14610bb957505f8152610ba8610eab565b602082015260405191829182610764565b610bc39150611190565b610846565b3461001557602036600319011261001557600435610be581610219565b5f54610bfc906001600160a01b03166103c9610d07565b6001600160a01b03811615610c14576102ac9061110f565b60405162461bcd60e51b81526020600482015260116024820152704e6577204f776e6572206973207a65726f60781b6044820152606490fd5b34610015575f366003190112610015576003546040516001600160a01b039091168152602090f35b505050610c80610fb1565b608435610c8c81610219565b5f546001600160a01b0390811691160361001557565b634e487b7160e01b5f52604160045260245ffd5b90601f801991011681019081106001600160401b03821117610cd757604052565b610ca2565b6040519061023561010083610cb6565b6001600160401b038111610cd757601f01601f191660200190565b60405190610d16604083610cb6565b600382526245333560e81b6020830152565b15610d305750565b60405162461bcd60e51b815260206004820152908190610d549060248301906102ae565b0390fd5b610d6190610ecc565b600380546001600160a01b0319166001600160a01b039290921691821790557fac431eb831269b53b41991f6cbfbfc93f4baa395996a8170abac93962b5a358e5f80a2565b60405190610db5604083610cb6565b60018252602080830190368237825115610de25773111111125421ca6dc452d289314280a0f8842a659052565b634e487b7160e01b5f52603260045260245ffd5b60405190610e05604083610cb6565b600382526245323760e81b6020830152565b61023560018060a01b03600354163314610b86610df6565b60405190606082018281106001600160401b03821117610cd75760405260606040835f81528260208201520152565b92505050610e7a60018060a01b03600354163314610b86610df6565b60015460a81c60ff1615610e9b575f8152610e93610eab565b602082015290565b50610ea4610e2f565b6001815290565b60405190610eba604083610cb6565b6003825262229a1b60e91b6020830152565b60ff60015460a01c16610ef757610ee29061110f565b6001805460ff60a01b1916600160a01b179055565b60405162461bcd60e51b8152602060048201526013602482015272105b1c9958591e481a5b9a5d1a585b1a5e9959606a1b6044820152606490fd5b610d54604051610f43604082610cb6565b600381526245343960e81b602082015260405191829162461bcd60e51b835260206004840181815201906102ae565b15610f7957565b60405162461bcd60e51b815260206004820152601060248201526f125b9d985b1a590818dbdb9d1c9858dd60821b6044820152606490fd5b610fb9611344565b50610fc2611344565b50601f1936013681116110fb573536811161001557803603810190602081830312610015578035906001600160401b0382116100155701610100818303126100155761100c610cdc565b916110168261022a565b83526110246020830161022a565b60208401526040820135604084015261103f6060830161022a565b60608401526080820135608084015260a08201356001600160401b038111610015578161106d918401611569565b60a084015260c08201356001600160401b0381116100155781611091918401611569565b60c084015260e08201356001600160401b03811161001557610235936110c16110d4936060936110e09601611569565b60e082015201516001600160a01b031690565b6001600160a01b031690565b73111111125421ca6dc452d289314280a0f8842a6514610f72565b634e487b7160e01b5f52601160045260245ffd5b60018060a01b0316806001600160601b0360a01b5f5416175f556001600160601b0360a01b600154166001557f038720101b9ced74445432ced46c7e5e4c80202669153dd67d226c66a0aa477b5f80a2565b3d1561118b573d9061117282610cec565b916111806040519384610cb6565b82523d5f602084013e565b606090565b611198610e2f565b6111a182611391565b1561131957505f806113006113006113066102e3956103376112d86112eb604051936020808601526111e6604086016111d98361022a565b6001600160a01b03169052565b6112056111f56020830161022a565b6001600160a01b03166060870152565b6040810135608086015261122e61121e6060830161022a565b6001600160a01b031660a0870152565b608081013560c086015260a08101906112b5866112a761128761126761125487876113f5565b61010060e0870152610140860191611426565b61127460c08701876113f5565b858303603f190161010087015290611426565b61129460e08601866113f5565b848303603f190161012086015290611426565b03601f198101885287610cb6565b6112e66112c28383611446565b9050604051958691602083019190602083019252565b03601f198101865285610cb6565b611446565b96909360405196879560208701998a91611478565b90611485565b5190305afa611313611161565b906114b8565b90505f815260405161132c604082610cb6565b600381526245353560e81b6020820152602082015290565b6040519061010082018281106001600160401b03821117610cd757604052606060e0835f81525f60208201525f60408201525f838201525f60808201528260a08201528260c08201520152565b6060013561139e81610219565b6113a6610da6565b906001600160a01b03165f5b82518110156113ee578251811015610de257600581901b8301602001516001600160a01b031682146113e6576001016113b2565b505050600190565b5050505f90565b9035601e19823603018112156100155701602081359101916001600160401b03821161001557813603831361001557565b908060209392818452848401375f828201840152601f01601f1916010190565b903590601e198136030182121561001557018035906001600160401b0382116100155760200191813603831361001557565b908092918237015f815290565b805191908290602001825e015f815290565b604051906114a6604083610cb6565b600382526245333960e81b6020830152565b91906114c2610e2f565b92156114dc576114d6905115610b86611497565b60018252565b60448151105f146114ee576020830152565b6004810151810160248101919060209082900312610015576024810151906001600160401b0382116100155701816043820112156100155760248101519061153582610cec565b926115436040519485610cb6565b8284526044828401011161001557815f926044602093018386015e830101526020830152565b81601f820112156100155780359061158082610cec565b9261158e6040519485610cb6565b8284526020838301011161001557815f92602080930183860137830101529056fea2646970667358221220a59455ca836acac65748bd2ad66512eb6c501b57eeaf3da602698157b3991c6a64736f6c634300081a0033","linkReferences":{}},"methodIdentifiers":{"NAME()":"a3f4df7e","TYPE()":"bb24fe8a","V6AGGREGATOR()":"1f8b8929","VERSION()":"ffa1ad74","_NAME()":"08dbebf6","acceptOwner()":"ebbc4965","account()":"5dab2420","caller()":"fc9c8d39","contracts()":"6c0f79b6","flag()":"890eba68","initialize(address)":"c4d66de8","initialize(address,address)":"485cc955","initialize(address,address,address)":"c0c53b8b","owner()":"8da5cb5b","paused()":"5c975abb","pendingOwner()":"e30c3978","postExecCheck((address,address,uint256,address,uint256,bytes,bytes,bytes),(bool,bytes,bytes),(uint8,string,bytes))":"9d5228e8","postExecProcess((address,address,uint256,address,uint256,bytes,bytes,bytes),(bool,bytes,bytes))":"7c4c833b","preExecCheck((address,address,uint256,address,uint256,bytes,bytes,bytes))":"f2660027","preExecProcess((address,address,uint256,address,uint256,bytes,bytes,bytes))":"d58c3fc3","renounceOwnership()":"715018a6","setAccount(address)":"29f6d57c","setCaller(address)":"beb92f55","setPaused(bool)":"16c38b3c","setPendingOwner(address)":"c42069ec","setTag(bytes32)":"b695e2ef","swap(address,(address,address,address,address,uint256,uint256,uint256),bytes)":"07ed2379","tag()":"51f91066","transferOwnership(address)":"f2fde38b","uniswap3(uint256,uint256,uint256,uint256,uint256,uint256)":"57621848","unoswap(uint256,uint256,uint256,uint256)":"83800a8e","unoswap2(uint256,uint256,uint256,uint256,uint256)":"8770ba91"},"id":55}