{"abi":[{"type":"constructor","inputs":[{"name":"_owner","type":"address","internalType":"address"},{"name":"_caller","type":"address","internalType":"address"}],"stateMutability":"nonpayable"},{"type":"function","name":"ETH","inputs":[],"outputs":[{"name":"","type":"address","internalType":"address"}],"stateMutability":"view"},{"type":"function","name":"NAME","inputs":[],"outputs":[{"name":"","type":"bytes32","internalType":"bytes32"}],"stateMutability":"view"},{"type":"function","name":"TYPE","inputs":[],"outputs":[{"name":"","type":"bytes32","internalType":"bytes32"}],"stateMutability":"view"},{"type":"function","name":"VERSION","inputs":[],"outputs":[{"name":"","type":"uint256","internalType":"uint256"}],"stateMutability":"view"},{"type":"function","name":"_NAME","inputs":[],"outputs":[{"name":"","type":"string","internalType":"string"}],"stateMutability":"view"},{"type":"function","name":"acceptOwner","inputs":[],"outputs":[],"stateMutability":"nonpayable"},{"type":"function","name":"account","inputs":[],"outputs":[{"name":"","type":"address","internalType":"address"}],"stateMutability":"view"},{"type":"function","name":"addTokenReceivers","inputs":[{"name":"tokenReceivers","type":"tuple[]","internalType":"struct TransferAuthorizer.TokenReceiver[]","components":[{"name":"token","type":"address","internalType":"address"},{"name":"receiver","type":"address","internalType":"address"}]}],"outputs":[],"stateMutability":"nonpayable"},{"type":"function","name":"caller","inputs":[],"outputs":[{"name":"","type":"address","internalType":"address"}],"stateMutability":"view"},{"type":"function","name":"flag","inputs":[],"outputs":[{"name":"","type":"uint256","internalType":"uint256"}],"stateMutability":"view"},{"type":"function","name":"getAllToken","inputs":[],"outputs":[{"name":"","type":"address[]","internalType":"address[]"}],"stateMutability":"view"},{"type":"function","name":"getTokenReceivers","inputs":[{"name":"token","type":"address","internalType":"address"}],"outputs":[{"name":"","type":"address[]","internalType":"address[]"}],"stateMutability":"view"},{"type":"function","name":"getTokens","inputs":[{"name":"start","type":"uint256","internalType":"uint256"},{"name":"end","type":"uint256","internalType":"uint256"}],"outputs":[{"name":"","type":"address[]","internalType":"address[]"}],"stateMutability":"view"},{"type":"function","name":"initialize","inputs":[{"name":"_owner","type":"address","internalType":"address"},{"name":"_caller","type":"address","internalType":"address"}],"outputs":[],"stateMutability":"nonpayable"},{"type":"function","name":"initialize","inputs":[{"name":"_owner","type":"address","internalType":"address"},{"name":"_caller","type":"address","internalType":"address"},{"name":"_account","type":"address","internalType":"address"}],"outputs":[],"stateMutability":"nonpayable"},{"type":"function","name":"initialize","inputs":[{"name":"_owner","type":"address","internalType":"address"}],"outputs":[],"stateMutability":"nonpayable"},{"type":"function","name":"owner","inputs":[],"outputs":[{"name":"","type":"address","internalType":"address"}],"stateMutability":"view"},{"type":"function","name":"paused","inputs":[],"outputs":[{"name":"","type":"bool","internalType":"bool"}],"stateMutability":"view"},{"type":"function","name":"pendingOwner","inputs":[],"outputs":[{"name":"","type":"address","internalType":"address"}],"stateMutability":"view"},{"type":"function","name":"postExecCheck","inputs":[{"name":"transaction","type":"tuple","internalType":"struct TransactionData","components":[{"name":"from","type":"address","internalType":"address"},{"name":"delegate","type":"address","internalType":"address"},{"name":"flag","type":"uint256","internalType":"uint256"},{"name":"to","type":"address","internalType":"address"},{"name":"value","type":"uint256","internalType":"uint256"},{"name":"data","type":"bytes","internalType":"bytes"},{"name":"hint","type":"bytes","internalType":"bytes"},{"name":"extra","type":"bytes","internalType":"bytes"}]},{"name":"callResult","type":"tuple","internalType":"struct TransactionResult","components":[{"name":"success","type":"bool","internalType":"bool"},{"name":"data","type":"bytes","internalType":"bytes"},{"name":"hint","type":"bytes","internalType":"bytes"}]},{"name":"preData","type":"tuple","internalType":"struct AuthorizerReturnData","components":[{"name":"result","type":"uint8","internalType":"enum AuthResult"},{"name":"message","type":"string","internalType":"string"},{"name":"data","type":"bytes","internalType":"bytes"}]}],"outputs":[{"name":"authData","type":"tuple","internalType":"struct AuthorizerReturnData","components":[{"name":"result","type":"uint8","internalType":"enum AuthResult"},{"name":"message","type":"string","internalType":"string"},{"name":"data","type":"bytes","internalType":"bytes"}]}],"stateMutability":"nonpayable"},{"type":"function","name":"postExecProcess","inputs":[{"name":"transaction","type":"tuple","internalType":"struct TransactionData","components":[{"name":"from","type":"address","internalType":"address"},{"name":"delegate","type":"address","internalType":"address"},{"name":"flag","type":"uint256","internalType":"uint256"},{"name":"to","type":"address","internalType":"address"},{"name":"value","type":"uint256","internalType":"uint256"},{"name":"data","type":"bytes","internalType":"bytes"},{"name":"hint","type":"bytes","internalType":"bytes"},{"name":"extra","type":"bytes","internalType":"bytes"}]},{"name":"callResult","type":"tuple","internalType":"struct TransactionResult","components":[{"name":"success","type":"bool","internalType":"bool"},{"name":"data","type":"bytes","internalType":"bytes"},{"name":"hint","type":"bytes","internalType":"bytes"}]}],"outputs":[],"stateMutability":"nonpayable"},{"type":"function","name":"preExecCheck","inputs":[{"name":"transaction","type":"tuple","internalType":"struct TransactionData","components":[{"name":"from","type":"address","internalType":"address"},{"name":"delegate","type":"address","internalType":"address"},{"name":"flag","type":"uint256","internalType":"uint256"},{"name":"to","type":"address","internalType":"address"},{"name":"value","type":"uint256","internalType":"uint256"},{"name":"data","type":"bytes","internalType":"bytes"},{"name":"hint","type":"bytes","internalType":"bytes"},{"name":"extra","type":"bytes","internalType":"bytes"}]}],"outputs":[{"name":"authData","type":"tuple","internalType":"struct AuthorizerReturnData","components":[{"name":"result","type":"uint8","internalType":"enum AuthResult"},{"name":"message","type":"string","internalType":"string"},{"name":"data","type":"bytes","internalType":"bytes"}]}],"stateMutability":"nonpayable"},{"type":"function","name":"preExecProcess","inputs":[{"name":"transaction","type":"tuple","internalType":"struct TransactionData","components":[{"name":"from","type":"address","internalType":"address"},{"name":"delegate","type":"address","internalType":"address"},{"name":"flag","type":"uint256","internalType":"uint256"},{"name":"to","type":"address","internalType":"address"},{"name":"value","type":"uint256","internalType":"uint256"},{"name":"data","type":"bytes","internalType":"bytes"},{"name":"hint","type":"bytes","internalType":"bytes"},{"name":"extra","type":"bytes","internalType":"bytes"}]}],"outputs":[],"stateMutability":"nonpayable"},{"type":"function","name":"removeTokenReceivers","inputs":[{"name":"tokenReceivers","type":"tuple[]","internalType":"struct TransferAuthorizer.TokenReceiver[]","components":[{"name":"token","type":"address","internalType":"address"},{"name":"receiver","type":"address","internalType":"address"}]}],"outputs":[],"stateMutability":"nonpayable"},{"type":"function","name":"renounceOwnership","inputs":[],"outputs":[],"stateMutability":"nonpayable"},{"type":"function","name":"setAccount","inputs":[{"name":"_account","type":"address","internalType":"address"}],"outputs":[],"stateMutability":"nonpayable"},{"type":"function","name":"setCaller","inputs":[{"name":"_caller","type":"address","internalType":"address"}],"outputs":[],"stateMutability":"nonpayable"},{"type":"function","name":"setPaused","inputs":[{"name":"_paused","type":"bool","internalType":"bool"}],"outputs":[],"stateMutability":"nonpayable"},{"type":"function","name":"setPendingOwner","inputs":[{"name":"to","type":"address","internalType":"address"}],"outputs":[],"stateMutability":"nonpayable"},{"type":"function","name":"setTag","inputs":[{"name":"_tag","type":"bytes32","internalType":"bytes32"}],"outputs":[],"stateMutability":"nonpayable"},{"type":"function","name":"tag","inputs":[],"outputs":[{"name":"","type":"bytes32","internalType":"bytes32"}],"stateMutability":"view"},{"type":"function","name":"transferOwnership","inputs":[{"name":"newOwner","type":"address","internalType":"address"}],"outputs":[],"stateMutability":"nonpayable"},{"type":"event","name":"AccountSet","inputs":[{"name":"account","type":"address","indexed":true,"internalType":"address"}],"anonymous":false},{"type":"event","name":"CallerSet","inputs":[{"name":"caller","type":"address","indexed":true,"internalType":"address"}],"anonymous":false},{"type":"event","name":"NewOwnerSet","inputs":[{"name":"owner","type":"address","indexed":true,"internalType":"address"}],"anonymous":false},{"type":"event","name":"PausedSet","inputs":[{"name":"status","type":"bool","indexed":true,"internalType":"bool"}],"anonymous":false},{"type":"event","name":"PendingOwnerSet","inputs":[{"name":"to","type":"address","indexed":true,"internalType":"address"}],"anonymous":false},{"type":"event","name":"TagSet","inputs":[{"name":"tag","type":"bytes32","indexed":true,"internalType":"bytes32"}],"anonymous":false},{"type":"event","name":"TokenAdded","inputs":[{"name":"token","type":"address","indexed":true,"internalType":"address"}],"anonymous":false},{"type":"event","name":"TokenReceiverAdded","inputs":[{"name":"token","type":"address","indexed":true,"internalType":"address"},{"name":"receiver","type":"address","indexed":true,"internalType":"address"}],"anonymous":false},{"type":"event","name":"TokenReceiverRemoved","inputs":[{"name":"token","type":"address","indexed":true,"internalType":"address"},{"name":"receiver","type":"address","indexed":true,"internalType":"address"}],"anonymous":false},{"type":"event","name":"TokenRemoved","inputs":[{"name":"token","type":"address","indexed":true,"internalType":"address"}],"anonymous":false}],"bytecode":{"object":"0x6080346100de57601f61177e38819003918201601f19168301916001600160401b038311848410176100e25780849260409485528339810103126100de57610052602061004b836100f6565b92016100f6565b6001545f80546001600160a01b0319166001600160a01b03909416938417815560405193907f038720101b9ced74445432ced46c7e5e4c80202669153dd67d226c66a0aa477b9080a26001600160b01b031916600160a01b176001555f600255600380546001600160a01b0319166001600160a01b0392909216919091179055611673908161010b8239f35b5f80fd5b634e487b7160e01b5f52604160045260245ffd5b51906001600160a01b03821682036100de5756fe6080806040526004361015610012575f80fd5b5f3560e01c90816308dbebf614610e0f5750806316c38b3c14610d965780632695b4bb14610d2457806329f6d57c14610c71578063485cc95514610c47578063494cfc6c14610af757806351f9106614610ada5780635c975abb14610ab55780635dab242014610a8d5780636c6be213146109a0578063715018a61461092b5780637c4c833b146108cf5780638322fff2146108a157806385e3c1d414610821578063890eba68146108065780638da5cb5b146107df5780639d5228e81461070b578063a3f4df7e146106db578063b695e2ef14610681578063bb24fe8a14610657578063beb92f55146105a5578063c0c53b8b1461052c578063c42069ec146104b2578063c4d66de814610491578063d58c3fc31461047a578063e30c397814610452578063e991479c14610333578063ebbc496514610306578063f266002714610262578063f2fde38b146101c3578063fc9c8d391461019b5763ffa1ad741461017c575f80fd5b34610197575f36600319011261019757602060405160028152f35b5f80fd5b34610197575f366003190112610197576003546040516001600160a01b039091168152602090f35b34610197576020366003190112610197576101dc610ed2565b61020f60018060a01b035f5416604051906101f8604083611029565b600382526245333560e81b6020830152331461105f565b6001600160a01b0381161561022957610227906111dd565b005b60405162461bcd60e51b81526020600482015260116024820152704e6577204f776e6572206973207a65726f60781b6044820152606490fd5b34610197576102f361027336610ff4565b61027b611147565b6102af60018060a01b036003541633146040519061029a604083611029565b600382526245323760e81b602083015261105f565b9060ff60015460a81c165f146102f757505f81526040516102d1604082611029565b6003815262229a1b60e91b602082015260208201525b60405191829182610f94565b0390f35b6103019150611262565b6102e7565b34610197575f366003190112610197576001546001600160a01b03163381900361019757610227906111dd565b346101975761034136610f40565b61035d60018060a01b035f5416604051906101f8604083611029565b5f5b81811061036857005b8061037e6103796001938587611102565b611112565b610394602061038e848789611102565b01611112565b90838060a01b031690815f5260076020526103bb60405f2091858060a01b0316809261158c565b6103c8575b50500161035f565b817f5f5c06e7afc0a1c64810c1bf76a1efa44fcbe5f7570c913316b03b977700db695f80a3828060a01b03610401610379848789611102565b165f52600760205260405f20541561041a575b806103c0565b610423816114cd565b15610414577f4c910b69fe65a61f7531b9c5042b2329ca7179c77290aa7e2eb3afa3c8511fd35f80a284610414565b34610197575f366003190112610197576001546040516001600160a01b039091168152602090f35b346101975761048836610ff4565b50610227611126565b34610197576020366003190112610197576102276104ad610ed2565b611177565b34610197576020366003190112610197576104cb610ed2565b6104e760018060a01b035f5416604051906101f8604083611029565b600180546001600160a01b0319166001600160a01b039290921691821790557f68f49b346b94582a8b5f9d10e3fe3365318fe8f191ff8dce7c59c6cad06b02f55f80a2005b3461019757606036600319011261019757610545610ed2565b61054d610ee8565b6044356001600160a01b0381169291908390036101975761056d9161108f565b600480546001600160a01b031916821790557f195359283029fbdb9a24519b1ec07caf1677655529bf99dc1634c1e8b28811805f80a2005b34610197576020366003190112610197576105be610ed2565b6105da60018060a01b035f5416604051906101f8604083611029565b6001600160a01b0316801561062157600380546001600160a01b031916821790557fac431eb831269b53b41991f6cbfbfc93f4baa395996a8170abac93962b5a358e5f80a2005b60405162461bcd60e51b815260206004820152600e60248201526d24b73b30b634b21031b0b63632b960911b6044820152606490fd5b34610197575f366003190112610197576040516b5472616e736665725479706560a01b8152602090f35b34610197576020366003190112610197576004356106b160018060a01b035f5416604051906101f8604083611029565b806002557fef711e3eb06966d227e22eb4fa0302550dcd7257cf69b537cf4d37af53ea9cda5f80a2005b34610197575f36600319011261019757604051712a3930b739b332b920baba3437b934bd32b960711b8152602090f35b346101975760603660031901126101975760043567ffffffffffffffff8111610197576101009060031990360301126101975760243567ffffffffffffffff81116101975760609060031990360301126101975760443567ffffffffffffffff811161019757606090600319903603011261019757610788611147565b6107a760018060a01b036003541633146040519061029a604083611029565b60015460a81c60ff16156107ca57805f6102f392526040516102d1604082611029565b506102f36107d6611147565b600181526102e7565b34610197575f366003190112610197575f546040516001600160a01b039091168152602090f35b34610197575f36600319011261019757602060405160018152f35b34610197575f3660031901126101975760405180602060055491828152019060055f527f036b6384b5eca791c62761152d0c79bb0604c104a5fb6f4eb0703f3154bb3db0905f5b81811061088b576102f38561087f81870382611029565b60405191829182610efe565b8254845260209093019260019283019201610868565b34610197575f36600319011261019757602060405173eeeeeeeeeeeeeeeeeeeeeeeeeeeeeeeeeeeeeeee8152f35b346101975760403660031901126101975760043567ffffffffffffffff8111610197576101009060031990360301126101975760243567ffffffffffffffff811161019757606090600319903603011261019757610227611126565b34610197575f3660031901126101975761095760018060a01b035f5416604051906101f8604083611029565b6001600160601b0360a01b5f54165f556001600160601b0360a01b600154166001555f7f038720101b9ced74445432ced46c7e5e4c80202669153dd67d226c66a0aa477b8180a2005b34610197576109ae36610f40565b906109cb60018060a01b035f5416604051906101f8604083611029565b5f5b8281106109d657005b806109e76103796001938686611102565b6109f7602061038e848888611102565b90838060a01b0316610a088161140f565b610a63575b805f526007602052610a2b60405f2092858060a01b0316809361147a565b610a38575b5050016109cd565b7f0bebfef01518318526601c75fabba1fb1f644be5bfcf393e34ebbcaa026a87ec5f80a38480610a30565b807f784c8f4dbf0ffedd6e72c76501c545a70f8b203b30a26ce542bf92ba87c248a45f80a2610a0d565b34610197575f366003190112610197576004546040516001600160a01b039091168152602090f35b34610197575f36600319011261019757602060ff60015460a81c166040519015158152f35b34610197575f366003190112610197576020600254604051908152f35b3461019757604036600319011261019757600435602435600554808211610c3f575b5080821015610c0b57610b2c82826110dd565b91610b36836110ea565b92610b446040519485611029565b808452610b53601f19916110ea565b013660208501376005545f5b610b6983856110dd565b811015610bfd57808301808411610be95782811015610bd55760055f527f036b6384b5eca791c62761152d0c79bb0604c104a5fb6f4eb0703f3154bb3db0015485516001600160a01b039091169190811015610bd557600581901b860160200191909152600101610b5f565b634e487b7160e01b5f52603260045260245ffd5b634e487b7160e01b5f52601160045260245ffd5b604051806102f38782610efe565b60405162461bcd60e51b815260206004820152600c60248201526b1cdd185c9d080f8f48195b9960a21b6044820152606490fd5b905082610b19565b3461019757604036600319011261019757610227610c63610ed2565b610c6b610ee8565b9061108f565b3461019757602036600319011261019757610c8a610ed2565b610ca660018060a01b035f5416604051906101f8604083611029565b6001600160a01b03168015610ced57600480546001600160a01b031916821790557f195359283029fbdb9a24519b1ec07caf1677655529bf99dc1634c1e8b28811805f80a2005b60405162461bcd60e51b815260206004820152600f60248201526e125b9d985b1a59081858d8dbdd5b9d608a1b6044820152606490fd5b34610197576020366003190112610197576001600160a01b03610d45610ed2565b165f52600760205260405f206040519081602082549182815201915f5260205f20905f5b818110610d80576102f38561087f81870382611029565b8254845260209093019260019283019201610d69565b346101975760203660031901126101975760043580151580910361019757610dd060018060a01b035f5416604051906101f8604083611029565b6001805460ff60a81b191660a883901b60ff60a81b161790557f40db37ff5c0bdc2c427fbb2078c8f24afea940abac0e3c23bb4ea3bf2da2b2125f80a2005b34610197575f366003190112610197576351fa6fbf60e11b8152602081600481305afa8015610ea3575f90610e6f575b6102f39060405190602082015260208152610e5b604082611029565b604051918291602083526020830190610eae565b506020813d602011610e9b575b81610e8960209383611029565b81010312610197576102f39051610e3f565b3d9150610e7c565b6040513d5f823e3d90fd5b805180835260209291819084018484015e5f828201840152601f01601f1916010190565b600435906001600160a01b038216820361019757565b602435906001600160a01b038216820361019757565b60206040818301928281528451809452019201905f5b818110610f215750505090565b82516001600160a01b0316845260209384019390920191600101610f14565b9060206003198301126101975760043567ffffffffffffffff811161019757826023820112156101975780600401359267ffffffffffffffff84116101975760248460061b83010111610197576024019190565b90602082528051916002831015610fe057610fdd9260208201526040610fc860208401516060838501526080840190610eae565b920151906060601f1982850301910152610eae565b90565b634e487b7160e01b5f52602160045260245ffd5b6020600319820112610197576004359067ffffffffffffffff8211610197576101009082900360031901126101975760040190565b90601f8019910116810190811067ffffffffffffffff82111761104b57604052565b634e487b7160e01b5f52604160045260245ffd5b156110675750565b60405162461bcd60e51b81526020600482015290819061108b906024830190610eae565b0390fd5b61109890611177565b600380546001600160a01b0319166001600160a01b039290921691821790557fac431eb831269b53b41991f6cbfbfc93f4baa395996a8170abac93962b5a358e5f80a2565b91908203918211610be957565b67ffffffffffffffff811161104b5760051b60200190565b9190811015610bd55760061b0190565b356001600160a01b03811681036101975790565b61114560018060a01b036003541633146040519061029a604083611029565b565b604051906060820182811067ffffffffffffffff82111761104b5760405260606040835f81528260208201520152565b60ff60015460a01c166111a25761118d906111dd565b6001805460ff60a01b1916600160a01b179055565b60405162461bcd60e51b8152602060048201526013602482015272105b1c9958591e481a5b9a5d1a585b1a5e9959606a1b6044820152606490fd5b60018060a01b0316806001600160601b0360a01b5f5416175f556001600160601b0360a01b600154166001557f038720101b9ced74445432ced46c7e5e4c80202669153dd67d226c66a0aa477b5f80a2565b903590601e1981360301821215610197570180359067ffffffffffffffff82116101975760200191813603831361019757565b9061126b611147565b9160a08101604461127c828461122f565b90501015806113cf575b806113c3575b156113445761129b908261122f565b806004116101975760409082018290036003190112610197576004013560018060a01b03811680910361019757611300916001600160a01b03906112e190606001611112565b165f52600760205260405f206001915f520160205260405f2054151590565b61133e575b5f8252604051611316604082611029565b60148152731d1c985b9cd9995c881b9bdd08185b1b1bddd95960621b60208201526020830152565b60018252565b61134e908261122f565b905015806113b6575b611362575b50611305565b61137160606113ac9201611112565b6001600160a01b03165f9081527fb2084a3e4595ccf007fb44245853374aaf0de960074375e8e0fb334712e94d0f6020526040902054151590565b61133e575f61135c565b5060808101351515611357565b5060808201351561128c565b506113da818361122f565b60041161019757356001600160e01b03191663a9059cbb60e01b14611286565b8054821015610bd5575f5260205f2001905f90565b805f52600660205260405f2054155f1461147557600554600160401b81101561104b5761145e61144882600185940160055560056113fa565b819391549060031b91821b915f19901b19161790565b9055600554905f52600660205260405f2055600190565b505f90565b5f8281526001820160205260409020546114c757805490600160401b82101561104b57826114b26114488460018096018555846113fa565b90558054925f520160205260405f2055600190565b50505f90565b5f8181526006602052604090205480156114c7575f198101818111610be9576005545f19810191908211610be957818103611554575b5050506005548015611540575f190161151d8160056113fa565b8154905f199060031b1b191690556005555f5260066020525f6040812055600190565b634e487b7160e01b5f52603160045260245ffd5b6115766115656114489360056113fa565b90549060031b1c92839260056113fa565b90555f52600660205260405f20555f8080611503565b906001820191815f528260205260405f20548015155f14611635575f198101818111610be95782545f19810191908211610be957818103611600575b50505080548015611540575f1901906115e182826113fa565b8154905f199060031b1b19169055555f526020525f6040812055600190565b61162061161061144893866113fa565b90549060031b1c928392866113fa565b90555f528360205260405f20555f80806115c8565b505050505f9056fea2646970667358221220ce4239f0f203ce0d9cd5c8cc6708cef11029717e883c0e7703acc63f118c480f64736f6c634300081a0033","linkReferences":{}},"methodIdentifiers":{"ETH()":"8322fff2","NAME()":"a3f4df7e","TYPE()":"bb24fe8a","VERSION()":"ffa1ad74","_NAME()":"08dbebf6","acceptOwner()":"ebbc4965","account()":"5dab2420","addTokenReceivers((address,address)[])":"6c6be213","caller()":"fc9c8d39","flag()":"890eba68","getAllToken()":"85e3c1d4","getTokenReceivers(address)":"2695b4bb","getTokens(uint256,uint256)":"494cfc6c","initialize(address)":"c4d66de8","initialize(address,address)":"485cc955","initialize(address,address,address)":"c0c53b8b","owner()":"8da5cb5b","paused()":"5c975abb","pendingOwner()":"e30c3978","postExecCheck((address,address,uint256,address,uint256,bytes,bytes,bytes),(bool,bytes,bytes),(uint8,string,bytes))":"9d5228e8","postExecProcess((address,address,uint256,address,uint256,bytes,bytes,bytes),(bool,bytes,bytes))":"7c4c833b","preExecCheck((address,address,uint256,address,uint256,bytes,bytes,bytes))":"f2660027","preExecProcess((address,address,uint256,address,uint256,bytes,bytes,bytes))":"d58c3fc3","removeTokenReceivers((address,address)[])":"e991479c","renounceOwnership()":"715018a6","setAccount(address)":"29f6d57c","setCaller(address)":"beb92f55","setPaused(bool)":"16c38b3c","setPendingOwner(address)":"c42069ec","setTag(bytes32)":"b695e2ef","tag()":"51f91066","transferOwnership(address)":"f2fde38b"},"id":97}