{"abi":[{"type":"constructor","inputs":[{"name":"_owner","type":"address","internalType":"address"}],"stateMutability":"nonpayable"},{"type":"function","name":"NAME","inputs":[],"outputs":[{"name":"","type":"bytes32","internalType":"bytes32"}],"stateMutability":"view"},{"type":"function","name":"VERSION","inputs":[],"outputs":[{"name":"","type":"uint256","internalType":"uint256"}],"stateMutability":"view"},{"type":"function","name":"_NAME","inputs":[],"outputs":[{"name":"","type":"string","internalType":"string"}],"stateMutability":"view"},{"type":"function","name":"acceptOwner","inputs":[],"outputs":[],"stateMutability":"nonpayable"},{"type":"function","name":"addRoles","inputs":[{"name":"_roles","type":"bytes32[]","internalType":"bytes32[]"}],"outputs":[],"stateMutability":"nonpayable"},{"type":"function","name":"getAllRoles","inputs":[],"outputs":[{"name":"","type":"bytes32[]","internalType":"bytes32[]"}],"stateMutability":"view"},{"type":"function","name":"getDelegates","inputs":[],"outputs":[{"name":"","type":"address[]","internalType":"address[]"}],"stateMutability":"view"},{"type":"function","name":"getRoles","inputs":[{"name":"delegate","type":"address","internalType":"address"}],"outputs":[{"name":"","type":"bytes32[]","internalType":"bytes32[]"}],"stateMutability":"view"},{"type":"function","name":"grantRoles","inputs":[{"name":"_roles","type":"bytes32[]","internalType":"bytes32[]"},{"name":"_delegates","type":"address[]","internalType":"address[]"}],"outputs":[],"stateMutability":"nonpayable"},{"type":"function","name":"hasRole","inputs":[{"name":"delegate","type":"address","internalType":"address"},{"name":"role","type":"bytes32","internalType":"bytes32"}],"outputs":[{"name":"","type":"bool","internalType":"bool"}],"stateMutability":"view"},{"type":"function","name":"initialize","inputs":[{"name":"_owner","type":"address","internalType":"address"}],"outputs":[],"stateMutability":"nonpayable"},{"type":"function","name":"owner","inputs":[],"outputs":[{"name":"","type":"address","internalType":"address"}],"stateMutability":"view"},{"type":"function","name":"pendingOwner","inputs":[],"outputs":[{"name":"","type":"address","internalType":"address"}],"stateMutability":"view"},{"type":"function","name":"renounceOwnership","inputs":[],"outputs":[],"stateMutability":"nonpayable"},{"type":"function","name":"revokeRoles","inputs":[{"name":"_roles","type":"bytes32[]","internalType":"bytes32[]"},{"name":"_delegates","type":"address[]","internalType":"address[]"}],"outputs":[],"stateMutability":"nonpayable"},{"type":"function","name":"setPendingOwner","inputs":[{"name":"to","type":"address","internalType":"address"}],"outputs":[],"stateMutability":"nonpayable"},{"type":"function","name":"transferOwnership","inputs":[{"name":"newOwner","type":"address","internalType":"address"}],"outputs":[],"stateMutability":"nonpayable"},{"type":"event","name":"DelegateAdded","inputs":[{"name":"delegate","type":"address","indexed":true,"internalType":"address"},{"name":"sender","type":"address","indexed":true,"internalType":"address"}],"anonymous":false},{"type":"event","name":"DelegateRemoved","inputs":[{"name":"delegate","type":"address","indexed":true,"internalType":"address"},{"name":"sender","type":"address","indexed":true,"internalType":"address"}],"anonymous":false},{"type":"event","name":"NewOwnerSet","inputs":[{"name":"owner","type":"address","indexed":true,"internalType":"address"}],"anonymous":false},{"type":"event","name":"PendingOwnerSet","inputs":[{"name":"to","type":"address","indexed":true,"internalType":"address"}],"anonymous":false},{"type":"event","name":"RoleAdded","inputs":[{"name":"role","type":"bytes32","indexed":true,"internalType":"bytes32"},{"name":"sender","type":"address","indexed":true,"internalType":"address"}],"anonymous":false},{"type":"event","name":"RoleGranted","inputs":[{"name":"role","type":"bytes32","indexed":true,"internalType":"bytes32"},{"name":"delegate","type":"address","indexed":true,"internalType":"address"},{"name":"sender","type":"address","indexed":true,"internalType":"address"}],"anonymous":false},{"type":"event","name":"RoleRevoked","inputs":[{"name":"role","type":"bytes32","indexed":true,"internalType":"bytes32"},{"name":"delegate","type":"address","indexed":true,"internalType":"address"},{"name":"sender","type":"address","indexed":true,"internalType":"address"}],"anonymous":false}],"bytecode":{"object":"0x60803460a957601f610fe938819003918201601f19168301916001600160401b0383118484101760ad5780849260209460405283398101031260a957516001600160a01b0381169081900360a9576001545f80546001600160a01b0319168317815560405192907f038720101b9ced74445432ced46c7e5e4c80202669153dd67d226c66a0aa477b9080a26001600160a81b031916600160a01b17600155610f2790816100c28239f35b5f80fd5b634e487b7160e01b5f52604160045260245ffdfe6080806040526004361015610012575f80fd5b5f3560e01c90816308dbebf61461093d575080630e54e58d146107af5780631c27e22d146106435780635e7c67db14610595578063715018a6146105255780638da5cb5b146104fe578063a3f4df7e146104d1578063ac4ab3fb1461047f578063c42069ec1461040a578063c4d66de81461038b578063c838ccb6146102cc578063ce6ccfaf1461025a578063e30c397814610232578063ebbc496514610205578063f2bcac3d14610181578063f2fde38b146100f65763ffa1ad74146100d7575f80fd5b346100f2575f3660031901126100f257602060405160018152f35b5f80fd5b346100f25760203660031901126100f25761010f610a81565b5f5461012e906001600160a01b0316610126610b06565b903314610b36565b6001600160a01b038116156101485761014690610bf8565b005b60405162461bcd60e51b81526020600482015260116024820152704e6577204f776e6572206973207a65726f60781b6044820152606490fd5b346100f2575f3660031901126100f25760405180602060045491828152019060045f527f8a35acfbc15ff81a39ae7d344fd709f28e8600b4aa8c65c6b64bfe7fe36bd19b905f5b8181106101ef576101eb856101df81870382610ad0565b60405191829182610a97565b0390f35b82548452602090930192600192830192016101c8565b346100f2575f3660031901126100f2576001546001600160a01b0316338190036100f25761014690610bf8565b346100f2575f3660031901126100f2576001546040516001600160a01b039091168152602090f35b346100f25760203660031901126100f2576001600160a01b0361027b610a81565b165f52600660205260405f206040519081602082549182815201915f5260205f20905f5b8181106102b6576101eb856101df81870382610ad0565b825484526020909301926001928301920161029f565b346100f2575f3660031901126100f2576040518060206002549283815201809260025f527f405787fa12a823e0f2b7631cc41b3ba8828b3321ca811111fa75cd3aa3bb5ace905f5b818110610375575050508161032a910382610ad0565b604051918291602083019060208452518091526040830191905f5b818110610353575050500390f35b82516001600160a01b0316845285945060209384019390920191600101610345565b8254845260209093019260019283019201610314565b346100f25760203660031901126100f2576103a4610a81565b60ff60015460a01c166103cf576103ba90610bf8565b6001805460ff60a01b1916600160a01b179055005b60405162461bcd60e51b8152602060048201526013602482015272105b1c9958591e481a5b9a5d1a585b1a5e9959606a1b6044820152606490fd5b346100f25760203660031901126100f257610423610a81565b5f5461043a906001600160a01b0316610126610b06565b600180546001600160a01b0319166001600160a01b039290921691821790557f68f49b346b94582a8b5f9d10e3fe3365318fe8f191ff8dce7c59c6cad06b02f55f80a2005b346100f25760403660031901126100f2576001600160a01b036104a0610a81565b165f52600660205260206104c760243560405f206001915f520160205260405f2054151590565b6040519015158152f35b346100f2575f3660031901126100f2576040516e233630ba2937b632a6b0b730b3b2b960891b8152602090f35b346100f2575f3660031901126100f2575f546040516001600160a01b039091168152602090f35b346100f2575f3660031901126100f2575f5461054c906001600160a01b0316610126610b06565b6001600160601b0360a01b5f54165f556001600160601b0360a01b600154166001555f7f038720101b9ced74445432ced46c7e5e4c80202669153dd67d226c66a0aa477b8180a2005b346100f25760203660031901126100f25760043567ffffffffffffffff81116100f2576105c69036906004016109fe565b5f549091906105e0906001600160a01b0316610126610b06565b5f5b8281106105eb57005b806106026105fc6001938686610bc0565b35610c5f565b61060d575b016105e2565b33610619828686610bc0565b357f400b1a91f3c12e695abb38f7fc20dd2cf26f6d9c4d1dc817d39a98b51f146f785f80a3610607565b346100f25761065136610a2f565b5f5492939290919061066e906001600160a01b0316610126610b06565b831515806107a6575b61068090610b5e565b5f5b84811061068b57005b6001906001600160a01b036106a96106a4838787610bc0565b610be4565b165f5260066020526106ca60405f206106c3838989610bc0565b3590610e40565b156107a1576106da818787610bc0565b353390838060a01b036106f16106a4858989610bc0565b16907ff6391f5c32d9c69d2a47ea670b442974b53935d1edc7fd64eb21e047a839171b5f80a4818060a01b0361072b6106a4838787610bc0565b165f52600660205260405f205415610744575b01610682565b610761828060a01b0361075b6106a4848888610bc0565b16610d6d565b5033828060a01b036107776106a4848888610bc0565b167fe8514dd4be968431135580c26314ec35afafc8178268603f99625584960d9c165f80a361073e565b61073e565b50838214610677565b346100f2576107bd36610a2f565b5f549293929091906107da906001600160a01b0316610126610b06565b83151580610934575b6107ec90610b5e565b5f5b8481106107f757005b6001906001600160a01b036108106106a4838787610bc0565b165f52600660205261083160405f2061082a838989610bc0565b3590610d1a565b1561092f576108446105fc828888610bc0565b6108f9575b610866828060a01b036108606106a4848888610bc0565b16610cca565b6108ba575b610876818787610bc0565b353390838060a01b0361088d6106a4858989610bc0565b16907f2f8788117e7eff1d82e926ec794901d17c78024a50270940304540a733656f0d5f80a45b016107ee565b33828060a01b036108cf6106a4848888610bc0565b167f12dade473695d73bd34e031c850d5e815fa17a42b1b5ba13ff72de2497c5e3095f80a361086b565b33610905828888610bc0565b357f400b1a91f3c12e695abb38f7fc20dd2cf26f6d9c4d1dc817d39a98b51f146f785f80a3610849565b6108b4565b508382146107e3565b346100f2575f3660031901126100f2576351fa6fbf60e11b8152602081600481305afa80156109c9575f90610995575b6101eb9060405190602082015260208152610989604082610ad0565b604051918291826109d4565b506020813d6020116109c1575b816109af60209383610ad0565b810103126100f2576101eb905161096d565b3d91506109a2565b6040513d5f823e3d90fd5b602060409281835280519182918282860152018484015e5f828201840152601f01601f1916010190565b9181601f840112156100f25782359167ffffffffffffffff83116100f2576020808501948460051b0101116100f257565b60406003198201126100f25760043567ffffffffffffffff81116100f25781610a5a916004016109fe565b929092916024359067ffffffffffffffff82116100f257610a7d916004016109fe565b9091565b600435906001600160a01b03821682036100f257565b60206040818301928281528451809452019201905f5b818110610aba5750505090565b8251845260209384019390920191600101610aad565b90601f8019910116810190811067ffffffffffffffff821117610af257604052565b634e487b7160e01b5f52604160045260245ffd5b604051906040820182811067ffffffffffffffff821117610af257604052600382526245333560e81b6020830152565b15610b3e5750565b60405162461bcd60e51b8152908190610b5a90600483016109d4565b0390fd5b15610b6557565b60405162461bcd60e51b815260206004820152602d60248201527f466c6174526f6c654d616e616765723a20496e76616c6964205f726f6c65732060448201526c6f72205f64656c65676174657360981b6064820152608490fd5b9190811015610bd05760051b0190565b634e487b7160e01b5f52603260045260245ffd5b356001600160a01b03811681036100f25790565b60018060a01b0316806001600160601b0360a01b5f5416175f556001600160601b0360a01b600154166001557f038720101b9ced74445432ced46c7e5e4c80202669153dd67d226c66a0aa477b5f80a2565b8054821015610bd0575f5260205f2001905f90565b805f52600560205260405f2054155f14610cc557600454600160401b811015610af257610cae610c988260018594016004556004610c4a565b819391549060031b91821b915f19901b19161790565b9055600454905f52600560205260405f2055600190565b505f90565b805f52600360205260405f2054155f14610cc557600254600160401b811015610af257610d03610c988260018594016002556002610c4a565b9055600254905f52600360205260405f2055600190565b5f828152600182016020526040902054610d6757805490600160401b821015610af25782610d52610c98846001809601855584610c4a565b90558054925f520160205260405f2055600190565b50505f90565b5f818152600360205260409020548015610d67575f198101818111610e2c576002545f19810191908211610e2c57818103610df4575b5050506002548015610de0575f1901610dbd816002610c4a565b8154905f199060031b1b191690556002555f5260036020525f6040812055600190565b634e487b7160e01b5f52603160045260245ffd5b610e16610e05610c98936002610c4a565b90549060031b1c9283926002610c4a565b90555f52600360205260405f20555f8080610da3565b634e487b7160e01b5f52601160045260245ffd5b906001820191815f528260205260405f20548015155f14610ee9575f198101818111610e2c5782545f19810191908211610e2c57818103610eb4575b50505080548015610de0575f190190610e958282610c4a565b8154905f199060031b1b19169055555f526020525f6040812055600190565b610ed4610ec4610c989386610c4a565b90549060031b1c92839286610c4a565b90555f528360205260405f20555f8080610e7c565b505050505f9056fea2646970667358221220fdea897c6e009a3814fb673f604ab86905e654d26439fd91bf349ffe156c83d264736f6c634300081a0033","linkReferences":{}},"methodIdentifiers":{"NAME()":"a3f4df7e","VERSION()":"ffa1ad74","_NAME()":"08dbebf6","acceptOwner()":"ebbc4965","addRoles(bytes32[])":"5e7c67db","getAllRoles()":"f2bcac3d","getDelegates()":"c838ccb6","getRoles(address)":"ce6ccfaf","grantRoles(bytes32[],address[])":"0e54e58d","hasRole(address,bytes32)":"ac4ab3fb","initialize(address)":"c4d66de8","owner()":"8da5cb5b","pendingOwner()":"e30c3978","renounceOwnership()":"715018a6","revokeRoles(bytes32[],address[])":"1c27e22d","setPendingOwner(address)":"c42069ec","transferOwnership(address)":"f2fde38b"},"id":67}