{"abi":[{"type":"constructor","inputs":[{"name":"_owner","type":"address","internalType":"address"}],"stateMutability":"nonpayable"},{"type":"function","name":"NAME","inputs":[],"outputs":[{"name":"","type":"bytes32","internalType":"bytes32"}],"stateMutability":"view"},{"type":"function","name":"VERSION","inputs":[],"outputs":[{"name":"","type":"uint256","internalType":"uint256"}],"stateMutability":"view"},{"type":"function","name":"_NAME","inputs":[],"outputs":[{"name":"","type":"string","internalType":"string"}],"stateMutability":"view"},{"type":"function","name":"acceptOwner","inputs":[],"outputs":[],"stateMutability":"nonpayable"},{"type":"function","name":"addImplementation","inputs":[{"name":"impl","type":"address","internalType":"address"}],"outputs":[],"stateMutability":"nonpayable"},{"type":"function","name":"create","inputs":[{"name":"name","type":"bytes32","internalType":"bytes32"}],"outputs":[{"name":"instance","type":"address","internalType":"address"}],"stateMutability":"nonpayable"},{"type":"function","name":"create2","inputs":[{"name":"name","type":"bytes32","internalType":"bytes32"},{"name":"salt","type":"bytes32","internalType":"bytes32"}],"outputs":[{"name":"instance","type":"address","internalType":"address"}],"stateMutability":"nonpayable"},{"type":"function","name":"create2AndRecord","inputs":[{"name":"name","type":"bytes32","internalType":"bytes32"},{"name":"salt","type":"bytes32","internalType":"bytes32"}],"outputs":[{"name":"instance","type":"address","internalType":"address"}],"stateMutability":"nonpayable"},{"type":"function","name":"createAndRecord","inputs":[{"name":"name","type":"bytes32","internalType":"bytes32"}],"outputs":[{"name":"instance","type":"address","internalType":"address"}],"stateMutability":"nonpayable"},{"type":"function","name":"getAllImplementations","inputs":[{"name":"name","type":"bytes32","internalType":"bytes32"}],"outputs":[{"name":"impls","type":"address[]","internalType":"address[]"}],"stateMutability":"view"},{"type":"function","name":"getAllNameStrings","inputs":[],"outputs":[{"name":"_names","type":"string[]","internalType":"string[]"}],"stateMutability":"view"},{"type":"function","name":"getAllNames","inputs":[],"outputs":[{"name":"_names","type":"bytes32[]","internalType":"bytes32[]"}],"stateMutability":"view"},{"type":"function","name":"getAllRecord","inputs":[{"name":"deployer","type":"address","internalType":"address"},{"name":"name","type":"bytes32","internalType":"bytes32"}],"outputs":[{"name":"proxies","type":"address[]","internalType":"address[]"}],"stateMutability":"view"},{"type":"function","name":"getCreate2Address","inputs":[{"name":"creator","type":"address","internalType":"address"},{"name":"name","type":"bytes32","internalType":"bytes32"},{"name":"salt","type":"bytes32","internalType":"bytes32"}],"outputs":[{"name":"instance","type":"address","internalType":"address"}],"stateMutability":"view"},{"type":"function","name":"getLastRecord","inputs":[{"name":"deployer","type":"address","internalType":"address"},{"name":"name","type":"bytes32","internalType":"bytes32"}],"outputs":[{"name":"proxy","type":"address","internalType":"address"}],"stateMutability":"view"},{"type":"function","name":"getLatestImplementation","inputs":[{"name":"name","type":"bytes32","internalType":"bytes32"}],"outputs":[{"name":"impl","type":"address","internalType":"address"}],"stateMutability":"view"},{"type":"function","name":"getNameString","inputs":[{"name":"i","type":"uint256","internalType":"uint256"}],"outputs":[{"name":"_name","type":"string","internalType":"string"}],"stateMutability":"view"},{"type":"function","name":"getRecordSize","inputs":[{"name":"deployer","type":"address","internalType":"address"},{"name":"name","type":"bytes32","internalType":"bytes32"}],"outputs":[{"name":"size","type":"uint256","internalType":"uint256"}],"stateMutability":"view"},{"type":"function","name":"getRecords","inputs":[{"name":"deployer","type":"address","internalType":"address"},{"name":"name","type":"bytes32","internalType":"bytes32"},{"name":"start","type":"uint256","internalType":"uint256"},{"name":"end","type":"uint256","internalType":"uint256"}],"outputs":[{"name":"proxies","type":"address[]","internalType":"address[]"}],"stateMutability":"view"},{"type":"function","name":"implementations","inputs":[{"name":"","type":"bytes32","internalType":"bytes32"},{"name":"","type":"uint256","internalType":"uint256"}],"outputs":[{"name":"","type":"address","internalType":"address"}],"stateMutability":"view"},{"type":"function","name":"initialize","inputs":[{"name":"_owner","type":"address","internalType":"address"}],"outputs":[],"stateMutability":"nonpayable"},{"type":"function","name":"latestImplementations","inputs":[{"name":"","type":"bytes32","internalType":"bytes32"}],"outputs":[{"name":"","type":"address","internalType":"address"}],"stateMutability":"view"},{"type":"function","name":"names","inputs":[{"name":"","type":"uint256","internalType":"uint256"}],"outputs":[{"name":"","type":"bytes32","internalType":"bytes32"}],"stateMutability":"view"},{"type":"function","name":"owner","inputs":[],"outputs":[{"name":"","type":"address","internalType":"address"}],"stateMutability":"view"},{"type":"function","name":"pendingOwner","inputs":[],"outputs":[{"name":"","type":"address","internalType":"address"}],"stateMutability":"view"},{"type":"function","name":"records","inputs":[{"name":"","type":"address","internalType":"address"},{"name":"","type":"bytes32","internalType":"bytes32"},{"name":"","type":"uint256","internalType":"uint256"}],"outputs":[{"name":"","type":"address","internalType":"address"}],"stateMutability":"view"},{"type":"function","name":"renounceOwnership","inputs":[],"outputs":[],"stateMutability":"nonpayable"},{"type":"function","name":"setPendingOwner","inputs":[{"name":"to","type":"address","internalType":"address"}],"outputs":[],"stateMutability":"nonpayable"},{"type":"function","name":"transferOwnership","inputs":[{"name":"newOwner","type":"address","internalType":"address"}],"outputs":[],"stateMutability":"nonpayable"},{"type":"event","name":"ImplementationAdded","inputs":[{"name":"name","type":"bytes32","indexed":true,"internalType":"bytes32"},{"name":"implementation","type":"address","indexed":true,"internalType":"address"}],"anonymous":false},{"type":"event","name":"NewOwnerSet","inputs":[{"name":"owner","type":"address","indexed":true,"internalType":"address"}],"anonymous":false},{"type":"event","name":"PendingOwnerSet","inputs":[{"name":"to","type":"address","indexed":true,"internalType":"address"}],"anonymous":false},{"type":"event","name":"ProxyCreated","inputs":[{"name":"deployer","type":"address","indexed":true,"internalType":"address"},{"name":"name","type":"bytes32","indexed":true,"internalType":"bytes32"},{"name":"implementation","type":"address","indexed":true,"internalType":"address"},{"name":"proxy","type":"address","indexed":false,"internalType":"address"}],"anonymous":false},{"type":"error","name":"FailedDeployment","inputs":[]},{"type":"error","name":"InsufficientBalance","inputs":[{"name":"balance","type":"uint256","internalType":"uint256"},{"name":"needed","type":"uint256","internalType":"uint256"}]}],"bytecode":{"object":"0x60803460a957601f61125438819003918201601f19168301916001600160401b0383118484101760ad5780849260209460405283398101031260a957516001600160a01b0381169081900360a9576001545f80546001600160a01b0319168317815560405192907f038720101b9ced74445432ced46c7e5e4c80202669153dd67d226c66a0aa477b9080a26001600160a81b031916600160a01b1760015561119290816100c28239f35b5f80fd5b634e487b7160e01b5f52604160045260245ffdfe60806040526004361015610011575f80fd5b5f3560e01c80630383eddc14610c0657806308dbebf614610b6f578063271a799c14610a815780632c1b79d614610a3d578063300a62bc14610a1e5780633054b76e146109e757806344ab6680146109645780634622ab03146109af578063523d53241461099657806352b347aa14610964578063715018a6146108f45780637368a8ce146108d65780637662f1121461086c578063772fa9da146108335780638da5cb5b1461080c5780639815121314610785578063a3f4df7e1461075c578063c42069ec146106e7578063c4d66de814610668578063c516bd48146105ef578063c6e2a40014610488578063d9eac8b414610461578063dcebb2001461034a578063e30c397814610322578063ebbc4965146102f5578063eff95b3e146102b8578063f2fde38b1461022d578063fb825e5f146101775763ffa1ad7414610158575f80fd5b34610173575f36600319011261017357602060405160018152f35b5f80fd5b34610173575f366003190112610173576040518060206002549283815201809260025f527f405787fa12a823e0f2b7631cc41b3ba8828b3321ca811111fa75cd3aa3bb5ace905f5b81811061021757505050816101d5910382610cf8565b604051918291602083019060208452518091526040830191905f5b8181106101fe575050500390f35b82518452859450602093840193909201916001016101f0565b82548452602090930192600192830192016101bf565b3461017357602036600319011261017357610246610c49565b5f54610265906001600160a01b031661025d610e8b565b903314610ebb565b6001600160a01b0381161561027f5761027d9061110a565b005b60405162461bcd60e51b81526020600482015260116024820152704e6577204f776e6572206973207a65726f60781b6044820152606490fd5b346101735760603660031901126101735760206102e36102d6610c49565b6044359060243590610ffa565b6040516001600160a01b039091168152f35b34610173575f366003190112610173576001546001600160a01b0316338190036101735761027d9061110a565b34610173575f366003190112610173576001546040516001600160a01b039091168152602090f35b3461017357608036600319011261017357610363610c49565b604435906064359060018060a01b03165f52600560205260405f206024355f5260205260405f20918254808311610459575b5080821115610426576103a88183610f85565b926103b284610d45565b936103c06040519586610cf8565b8085526103cf601f1991610d45565b01366020860137815b8381106103f157604051806103ed8782610cb6565b0390f35b806103fe60019284610c8b565b838060a01b0391549060031b1c1661041f6104198684610f85565b88610d5d565b52016103d8565b60405162461bcd60e51b815260206004820152600b60248201526a195b99080f881cdd185c9d60aa1b6044820152606490fd5b915083610395565b346101735760403660031901126101735760206102e361047f610c49565b60243590610fa6565b34610173576020366003190112610173576104a1610c49565b5f546104b8906001600160a01b031661025d610e8b565b6040516351fa6fbf60e11b81526001600160a01b03821691602082600481865afa9182156105e4575f926105b0575b505f828152600360205260409020546001600160a01b03161561055e575b61053890825f52600360205260405f20846001600160601b0360a01b825416179055825f52600460205260405f20610d71565b7fd58fcbf380bae0241f359d0f293ee1c39cdcc598a96dfa5339ecad21560b4db65f80a3005b60025490600160401b82101561059c576105818260016105389401600255610c5f565b81549060031b9085821b915f19901b19161790559050610505565b634e487b7160e01b5f52604160045260245ffd5b9091506020813d6020116105dc575b816105cc60209383610cf8565b81010312610173575190836104e7565b3d91506105bf565b6040513d5f823e3d90fd5b34610173576020366003190112610173576004355f52600460205260405f206040519081602082549182815201915f5260205f20905f5b818110610649576103ed8561063d81870382610cf8565b60405191829182610cb6565b82546001600160a01b0316845260209093019260019283019201610626565b3461017357602036600319011261017357610681610c49565b60ff60015460a01c166106ac576106979061110a565b6001805460ff60a01b1916600160a01b179055005b60405162461bcd60e51b8152602060048201526013602482015272105b1c9958591e481a5b9a5d1a585b1a5e9959606a1b6044820152606490fd5b3461017357602036600319011261017357610700610c49565b5f54610717906001600160a01b031661025d610e8b565b600180546001600160a01b0319166001600160a01b039290921691821790557f68f49b346b94582a8b5f9d10e3fe3365318fe8f191ff8dce7c59c6cad06b02f55f80a2005b34610173575f366003190112610173576040516a436f626f466163746f727960a81b8152602090f35b34610173576040366003190112610173576001600160a01b036107a6610c49565b165f52600560205260405f206024355f5260205260405f206040519081602082549182815201915f5260205f20905f5b8181106107ed576103ed8561063d81870382610cf8565b82546001600160a01b03168452602090930192600192830192016107d6565b34610173575f366003190112610173575f546040516001600160a01b039091168152602090f35b3461017357602061084e61084636610ca0565b819291610db2565b90335f526005835260405f20905f5282526102e38160405f20610d71565b3461017357606036600319011261017357610885610c49565b6044359060018060a01b03165f52600560205260405f206024355f5260205260405f208054821015610173576020916108bd91610c8b565b905460405160039290921b1c6001600160a01b03168152f35b346101735760203660031901126101735760206102e3600435610eeb565b34610173575f366003190112610173575f5461091b906001600160a01b031661025d610e8b565b6001600160601b0360a01b5f54165f556001600160601b0360a01b600154166001555f7f038720101b9ced74445432ced46c7e5e4c80202669153dd67d226c66a0aa477b8180a2005b34610173576020366003190112610173576004355f526003602052602060018060a01b0360405f205416604051908152f35b346101735760206102e36109a936610ca0565b90610db2565b3461017357602036600319011261017357600435600254811015610173576109d8602091610c5f565b90549060031b1c604051908152f35b34610173576040366003190112610173576024356004355f52600460205260405f208054821015610173576020916108bd91610c8b565b3461017357602036600319011261017357602060043561084e81610eeb565b34610173576040366003190112610173576001600160a01b03610a5e610c49565b165f52600560205260405f206024355f52602052602060405f2054604051908152f35b34610173575f36600319011261017357600254610a9d81610d45565b90610aab6040519283610cf8565b808252601f19610aba82610d45565b015f5b818110610b5e5750505f5b818110610b3657826040518091602082016020835281518091526040830190602060408260051b8601019301915f905b828210610b0757505050500390f35b91936001919395506020610b268192603f198a82030186528851610c25565b9601920192018594939192610af8565b80610b42600192610d1a565b610b4c8286610d5d565b52610b578185610d5d565b5001610ac8565b806060602080938701015201610abd565b34610173575f366003190112610173576040516351fa6fbf60e11b8152602081600481305afa80156105e4575f90610bd2575b6103ed9060405190602082015260208152610bbe604082610cf8565b604051918291602083526020830190610c25565b506020813d602011610bfe575b81610bec60209383610cf8565b81010312610173576103ed9051610ba2565b3d9150610bdf565b34610173576020366003190112610173576103ed610bbe600435610d1a565b805180835260209291819084018484015e5f828201840152601f01601f1916010190565b600435906001600160a01b038216820361017357565b600254811015610c775760025f5260205f2001905f90565b634e487b7160e01b5f52603260045260245ffd5b8054821015610c77575f5260205f2001905f90565b6040906003190112610173576004359060243590565b60206040818301928281528451809452019201905f5b818110610cd95750505090565b82516001600160a01b0316845260209384019390920191600101610ccc565b90601f8019910116810190811067ffffffffffffffff82111761059c57604052565b610d2390610c5f565b90549060031b1c60405190602082015260208152610d42604082610cf8565b90565b67ffffffffffffffff811161059c5760051b60200190565b8051821015610c775760209160051b010190565b8054600160401b81101561059c57610d8e91600182018155610c8b565b81546001600160a01b0393841660039290921b91821b9390911b1916919091179055565b919091610dbe816110b1565b604080513360208201908152918101959095529093610dea81606081015b03601f198101835282610cf8565b519020763d602d80600a3d3981f3363d3d373d3d3d363d7300000062ffffff8560881c16175f526e5af43d82803e903d91602b57fd5bf38460781b17602052603760095ff56001600160a01b03811691908215610e7c57604051928352936001600160a01b03169133907f532cf4635ae9ff4e1e42ba14917e825d00f602f28297cc654fa3b414b911232b90602090a4565b63b06ebf3d60e01b5f5260045ffd5b604051906040820182811067ffffffffffffffff82111761059c57604052600382526245333560e81b6020830152565b15610ec35750565b60405162461bcd60e51b815260206004820152908190610ee7906024830190610c25565b0390fd5b90610ef5826110b1565b91763d602d80600a3d3981f3363d3d373d3d3d363d7300000062ffffff8460881c16175f526e5af43d82803e903d91602b57fd5bf38360781b17602052603760095ff06001600160a01b03811691908215610e7c57604051928352936001600160a01b03169133907f532cf4635ae9ff4e1e42ba14917e825d00f602f28297cc654fa3b414b911232b90602090a4565b91908203918211610f9257565b634e487b7160e01b5f52601160045260245ffd5b60018060a01b03165f52600560205260405f20905f5260205260405f2080548015610ff4575f198101908111610f9257610fdf91610c8b565b905460039190911b1c6001600160a01b031690565b50505f90565b5f91825260036020526040909120546001600160a01b03169182156110aa57604080516001600160a01b039093166020840190815290830191909152906110448160608101610ddc565b5190206040513060388201526f5af43d82803e903d91602b57fd5bf3ff60248201526014810192909252733d602d80600a3d3981f3363d3d373d3d3d363d73825260588201526037600c820120607882015260556043909101206001600160a01b031690565b5050505f90565b5f908152600360205260409020546001600160a01b03169081156110d157565b60405162461bcd60e51b815260206004820152601160248201527027379034b6b83632b6b2b73a30ba34b7b760791b6044820152606490fd5b60018060a01b0316806001600160601b0360a01b5f5416175f556001600160601b0360a01b600154166001557f038720101b9ced74445432ced46c7e5e4c80202669153dd67d226c66a0aa477b5f80a256fea2646970667358221220a4edb8972f9e3b95a2792aa3395b1b50af5907b409673ceed8d3adff715f5bbb64736f6c634300081a0033","linkReferences":{}},"methodIdentifiers":{"NAME()":"a3f4df7e","VERSION()":"ffa1ad74","_NAME()":"08dbebf6","acceptOwner()":"ebbc4965","addImplementation(address)":"c6e2a400","create(bytes32)":"7368a8ce","create2(bytes32,bytes32)":"523d5324","create2AndRecord(bytes32,bytes32)":"772fa9da","createAndRecord(bytes32)":"300a62bc","getAllImplementations(bytes32)":"c516bd48","getAllNameStrings()":"271a799c","getAllNames()":"fb825e5f","getAllRecord(address,bytes32)":"98151213","getCreate2Address(address,bytes32,bytes32)":"eff95b3e","getLastRecord(address,bytes32)":"d9eac8b4","getLatestImplementation(bytes32)":"44ab6680","getNameString(uint256)":"0383eddc","getRecordSize(address,bytes32)":"2c1b79d6","getRecords(address,bytes32,uint256,uint256)":"dcebb200","implementations(bytes32,uint256)":"3054b76e","initialize(address)":"c4d66de8","latestImplementations(bytes32)":"52b347aa","names(uint256)":"4622ab03","owner()":"8da5cb5b","pendingOwner()":"e30c3978","records(address,bytes32,uint256)":"7662f112","renounceOwnership()":"715018a6","setPendingOwner(address)":"c42069ec","transferOwnership(address)":"f2fde38b"},"id":72}