{"abi":[{"type":"constructor","inputs":[{"name":"_owner","type":"address","internalType":"address"},{"name":"_caller","type":"address","internalType":"address"}],"stateMutability":"nonpayable"},{"type":"fallback","stateMutability":"nonpayable"},{"type":"function","name":"NAME","inputs":[],"outputs":[{"name":"","type":"bytes32","internalType":"bytes32"}],"stateMutability":"view"},{"type":"function","name":"TYPE","inputs":[],"outputs":[{"name":"","type":"bytes32","internalType":"bytes32"}],"stateMutability":"view"},{"type":"function","name":"VERSION","inputs":[],"outputs":[{"name":"","type":"uint256","internalType":"uint256"}],"stateMutability":"view"},{"type":"function","name":"_NAME","inputs":[],"outputs":[{"name":"","type":"string","internalType":"string"}],"stateMutability":"view"},{"type":"function","name":"acceptOwner","inputs":[],"outputs":[],"stateMutability":"nonpayable"},{"type":"function","name":"account","inputs":[],"outputs":[{"name":"","type":"address","internalType":"address"}],"stateMutability":"view"},{"type":"function","name":"caller","inputs":[],"outputs":[{"name":"","type":"address","internalType":"address"}],"stateMutability":"view"},{"type":"function","name":"contracts","inputs":[],"outputs":[{"name":"_contracts","type":"address[]","internalType":"address[]"}],"stateMutability":"view"},{"type":"function","name":"flag","inputs":[],"outputs":[{"name":"","type":"uint256","internalType":"uint256"}],"stateMutability":"view"},{"type":"function","name":"initialize","inputs":[{"name":"_owner","type":"address","internalType":"address"},{"name":"_caller","type":"address","internalType":"address"}],"outputs":[],"stateMutability":"nonpayable"},{"type":"function","name":"initialize","inputs":[{"name":"_owner","type":"address","internalType":"address"},{"name":"_caller","type":"address","internalType":"address"},{"name":"_account","type":"address","internalType":"address"}],"outputs":[],"stateMutability":"nonpayable"},{"type":"function","name":"initialize","inputs":[{"name":"_owner","type":"address","internalType":"address"}],"outputs":[],"stateMutability":"nonpayable"},{"type":"function","name":"owner","inputs":[],"outputs":[{"name":"","type":"address","internalType":"address"}],"stateMutability":"view"},{"type":"function","name":"paused","inputs":[],"outputs":[{"name":"","type":"bool","internalType":"bool"}],"stateMutability":"view"},{"type":"function","name":"pendingOwner","inputs":[],"outputs":[{"name":"","type":"address","internalType":"address"}],"stateMutability":"view"},{"type":"function","name":"postExecCheck","inputs":[{"name":"transaction","type":"tuple","internalType":"struct TransactionData","components":[{"name":"from","type":"address","internalType":"address"},{"name":"delegate","type":"address","internalType":"address"},{"name":"flag","type":"uint256","internalType":"uint256"},{"name":"to","type":"address","internalType":"address"},{"name":"value","type":"uint256","internalType":"uint256"},{"name":"data","type":"bytes","internalType":"bytes"},{"name":"hint","type":"bytes","internalType":"bytes"},{"name":"extra","type":"bytes","internalType":"bytes"}]},{"name":"callResult","type":"tuple","internalType":"struct TransactionResult","components":[{"name":"success","type":"bool","internalType":"bool"},{"name":"data","type":"bytes","internalType":"bytes"},{"name":"hint","type":"bytes","internalType":"bytes"}]},{"name":"preData","type":"tuple","internalType":"struct AuthorizerReturnData","components":[{"name":"result","type":"uint8","internalType":"enum AuthResult"},{"name":"message","type":"string","internalType":"string"},{"name":"data","type":"bytes","internalType":"bytes"}]}],"outputs":[{"name":"authData","type":"tuple","internalType":"struct AuthorizerReturnData","components":[{"name":"result","type":"uint8","internalType":"enum AuthResult"},{"name":"message","type":"string","internalType":"string"},{"name":"data","type":"bytes","internalType":"bytes"}]}],"stateMutability":"nonpayable"},{"type":"function","name":"postExecProcess","inputs":[{"name":"transaction","type":"tuple","internalType":"struct TransactionData","components":[{"name":"from","type":"address","internalType":"address"},{"name":"delegate","type":"address","internalType":"address"},{"name":"flag","type":"uint256","internalType":"uint256"},{"name":"to","type":"address","internalType":"address"},{"name":"value","type":"uint256","internalType":"uint256"},{"name":"data","type":"bytes","internalType":"bytes"},{"name":"hint","type":"bytes","internalType":"bytes"},{"name":"extra","type":"bytes","internalType":"bytes"}]},{"name":"callResult","type":"tuple","internalType":"struct TransactionResult","components":[{"name":"success","type":"bool","internalType":"bool"},{"name":"data","type":"bytes","internalType":"bytes"},{"name":"hint","type":"bytes","internalType":"bytes"}]}],"outputs":[],"stateMutability":"nonpayable"},{"type":"function","name":"preExecCheck","inputs":[{"name":"transaction","type":"tuple","internalType":"struct TransactionData","components":[{"name":"from","type":"address","internalType":"address"},{"name":"delegate","type":"address","internalType":"address"},{"name":"flag","type":"uint256","internalType":"uint256"},{"name":"to","type":"address","internalType":"address"},{"name":"value","type":"uint256","internalType":"uint256"},{"name":"data","type":"bytes","internalType":"bytes"},{"name":"hint","type":"bytes","internalType":"bytes"},{"name":"extra","type":"bytes","internalType":"bytes"}]}],"outputs":[{"name":"authData","type":"tuple","internalType":"struct AuthorizerReturnData","components":[{"name":"result","type":"uint8","internalType":"enum AuthResult"},{"name":"message","type":"string","internalType":"string"},{"name":"data","type":"bytes","internalType":"bytes"}]}],"stateMutability":"nonpayable"},{"type":"function","name":"preExecProcess","inputs":[{"name":"transaction","type":"tuple","internalType":"struct TransactionData","components":[{"name":"from","type":"address","internalType":"address"},{"name":"delegate","type":"address","internalType":"address"},{"name":"flag","type":"uint256","internalType":"uint256"},{"name":"to","type":"address","internalType":"address"},{"name":"value","type":"uint256","internalType":"uint256"},{"name":"data","type":"bytes","internalType":"bytes"},{"name":"hint","type":"bytes","internalType":"bytes"},{"name":"extra","type":"bytes","internalType":"bytes"}]}],"outputs":[],"stateMutability":"nonpayable"},{"type":"function","name":"renounceOwnership","inputs":[],"outputs":[],"stateMutability":"nonpayable"},{"type":"function","name":"setAccount","inputs":[{"name":"_account","type":"address","internalType":"address"}],"outputs":[],"stateMutability":"nonpayable"},{"type":"function","name":"setCaller","inputs":[{"name":"_caller","type":"address","internalType":"address"}],"outputs":[],"stateMutability":"nonpayable"},{"type":"function","name":"setPaused","inputs":[{"name":"_paused","type":"bool","internalType":"bool"}],"outputs":[],"stateMutability":"nonpayable"},{"type":"function","name":"setPendingOwner","inputs":[{"name":"to","type":"address","internalType":"address"}],"outputs":[],"stateMutability":"nonpayable"},{"type":"function","name":"setTag","inputs":[{"name":"_tag","type":"bytes32","internalType":"bytes32"}],"outputs":[],"stateMutability":"nonpayable"},{"type":"function","name":"tag","inputs":[],"outputs":[{"name":"","type":"bytes32","internalType":"bytes32"}],"stateMutability":"view"},{"type":"function","name":"transferOwnership","inputs":[{"name":"newOwner","type":"address","internalType":"address"}],"outputs":[],"stateMutability":"nonpayable"},{"type":"event","name":"AccountSet","inputs":[{"name":"account","type":"address","indexed":true,"internalType":"address"}],"anonymous":false},{"type":"event","name":"CallerSet","inputs":[{"name":"caller","type":"address","indexed":true,"internalType":"address"}],"anonymous":false},{"type":"event","name":"NewOwnerSet","inputs":[{"name":"owner","type":"address","indexed":true,"internalType":"address"}],"anonymous":false},{"type":"event","name":"PausedSet","inputs":[{"name":"status","type":"bool","indexed":true,"internalType":"bool"}],"anonymous":false},{"type":"event","name":"PendingOwnerSet","inputs":[{"name":"to","type":"address","indexed":true,"internalType":"address"}],"anonymous":false},{"type":"event","name":"TagSet","inputs":[{"name":"tag","type":"bytes32","indexed":true,"internalType":"bytes32"}],"anonymous":false}],"bytecode":{"object":"0x6080346100de57601f61121438819003918201601f19168301916001600160401b038311848410176100e25780849260409485528339810103126100de57610052602061004b836100f6565b92016100f6565b6001545f80546001600160a01b0319166001600160a01b03909416938417815560405193907f038720101b9ced74445432ced46c7e5e4c80202669153dd67d226c66a0aa477b9080a26001600160b01b031916600160a01b176001555f600255600380546001600160a01b0319166001600160a01b0392909216919091179055611109908161010b8239f35b5f80fd5b634e487b7160e01b5f52604160045260245ffd5b51906001600160a01b03821682036100de5756fe60806040526004361015610019575b3461001557005b5f80fd5b5f3560e01c806308dbebf6146101c457806316c38b3c146101bf57806329f6d57c146101ba578063485cc955146101b557806351f91066146101b05780635c975abb146101ab5780635dab2420146101a65780636c0f79b6146101a1578063715018a61461019c5780637c4c833b14610197578063890eba68146101475780638da5cb5b146101925780639d5228e81461018d578063a3f4df7e14610188578063b695e2ef14610183578063bb24fe8a1461017e578063beb92f5514610179578063c0c53b8b14610174578063c42069ec1461016f578063c4d66de81461016a578063d58c3fc314610165578063e30c397814610160578063ebbc49651461015b578063f266002714610156578063f2fde38b14610151578063fc9c8d391461014c5763ffa1ad740361000e575b6105f3565b610c7e565b610bfd565b610a17565b6109ea565b6109c2565b6109b4565b610968565b6108f3565b61087a565b6107cd565b6107a5565b61074f565b610726565b610692565b61060e565b610598565b61050b565b6104af565b610487565b610462565b610445565b610419565b61036b565b6102af565b610201565b805180835260209291819084018484015e5f828201840152601f01601f1916010190565b9060206101fe9281815201906101c9565b90565b34610015575f366003190112610015576040516351fa6fbf60e11b8152602081600481305afa9081156102a4575f91610270575b61026c610252610260846040519283916020830160209181520190565b03601f198101835282610cba565b604051918291826101ed565b0390f35b90506020813d60201161029c575b8161028b60209383610cba565b810103126100155751610252610235565b3d915061027e565b6040513d5f823e3d90fd5b3461001557602036600319011261001557600435801515809103610015575f546102ec906001600160a01b03166102e4610cfd565b903314610d1e565b6001805460ff60a81b191660a883901b60ff60a81b161790557f40db37ff5c0bdc2c427fbb2078c8f24afea940abac0e3c23bb4ea3bf2da2b2125f80a2005b600435906001600160a01b038216820361001557565b602435906001600160a01b038216820361001557565b35906001600160a01b038216820361001557565b346100155760203660031901126100155761038461032b565b5f5461039b906001600160a01b03166102e4610cfd565b6001600160a01b031680156103e257600480546001600160a01b031916821790557f195359283029fbdb9a24519b1ec07caf1677655529bf99dc1634c1e8b28811805f80a2005b60405162461bcd60e51b815260206004820152600f60248201526e125b9d985b1a59081858d8dbdd5b9d608a1b6044820152606490fd5b346100155760403660031901126100155761044361043561032b565b61043d610341565b90610d4e565b005b34610015575f366003190112610015576020600254604051908152f35b34610015575f36600319011261001557602060ff60015460a81c166040519015158152f35b34610015575f366003190112610015576004546040516001600160a01b039091168152602090f35b34610015575f3660031901126100155760405180602081016020825260605180915260408201906080905f5b8181106104e9575050500390f35b82516001600160a01b03168452859450602093840193909201916001016104db565b34610015575f366003190112610015575f54610532906001600160a01b03166102e4610cfd565b6001600160601b0360a01b5f54165f556001600160601b0360a01b600154166001555f7f038720101b9ced74445432ced46c7e5e4c80202669153dd67d226c66a0aa477b8180a2005b90816101009103126100155790565b908160609103126100155790565b346100155760403660031901126100155760043567ffffffffffffffff8111610015576105c990369060040161057b565b5060243567ffffffffffffffff8111610015576105ea90369060040161058a565b50610443610dbd565b34610015575f36600319011261001557602060405160018152f35b34610015575f366003190112610015575f546040516001600160a01b039091168152602090f35b9060208252805191600283101561067e576101fe9260208201526040610669602084015160608385015260808401906101c9565b920151906060601f19828503019101526101c9565b634e487b7160e01b5f52602160045260245ffd5b346100155760603660031901126100155760043567ffffffffffffffff8111610015576106c390369060040161057b565b60243567ffffffffffffffff8111610015576106e390369060040161058a565b906044359067ffffffffffffffff82116100155761026c9261070c61071a93369060040161058a565b91610715610dd7565b610e07565b60405191829182610635565b34610015575f366003190112610015576040516a105b1b1bddd05b1b1050d360aa1b8152602090f35b34610015576020366003190112610015575f546004359061077b906001600160a01b03166102e4610cfd565b806002557fef711e3eb06966d227e22eb4fa0302550dcd7257cf69b537cf4d37af53ea9cda5f80a2005b34610015575f3660031901126100155760405169436f6d6d6f6e5479706560b01b8152602090f35b34610015576020366003190112610015576107e661032b565b5f546107fd906001600160a01b03166102e4610cfd565b6001600160a01b0316801561084457600380546001600160a01b031916821790557fac431eb831269b53b41991f6cbfbfc93f4baa395996a8170abac93962b5a358e5f80a2005b60405162461bcd60e51b815260206004820152600e60248201526d24b73b30b634b21031b0b63632b960911b6044820152606490fd5b346100155760603660031901126100155761089361032b565b61089b610341565b6044356001600160a01b038116929190839003610015576108bb91610d4e565b600480546001600160a01b031916821790557f195359283029fbdb9a24519b1ec07caf1677655529bf99dc1634c1e8b28811805f80a2005b346100155760203660031901126100155761090c61032b565b5f54610923906001600160a01b03166102e4610cfd565b600180546001600160a01b0319166001600160a01b039290921691821790557f68f49b346b94582a8b5f9d10e3fe3365318fe8f191ff8dce7c59c6cad06b02f55f80a2005b346100155760203660031901126100155761044361098461032b565b610e75565b6020600319820112610015576004359067ffffffffffffffff8211610015576101fe9160040161057b565b34610015576105ea36610989565b34610015575f366003190112610015576001546040516001600160a01b039091168152602090f35b34610015575f366003190112610015576001546001600160a01b0316338190036100155761044390610edb565b346100155761026c610a2836610989565b610a30610dd7565b610a4e60018060a01b03600354163314610a48610d9c565b90610d1e565b9060ff60015460a81c165f14610a7b57505f8152610a6a610e54565b602082015260405191829182610635565b610bf891505f610bdf610bdf610be58394610a94610dd7565b50610252610bb7610bca60405193602080860152610ac560408601610ab883610357565b6001600160a01b03169052565b610ae4610ad460208301610357565b6001600160a01b03166060870152565b60408101356080860152610b0d610afd60608301610357565b6001600160a01b031660a0870152565b608081013560c086015260a0810190610b9486610b86610b66610b46610b338787610f5c565b61010060e0870152610140860191610f8e565b610b5360c0870187610f5c565b858303603f190161010087015290610f8e565b610b7360e0860186610f5c565b848303603f190161012086015290610f8e565b03601f198101885287610cba565b610bc5610ba18383610fae565b9050604051958691602083019190602083019252565b03601f198101865285610cba565b610fae565b96909360405196879560208701998a91610fe1565b90610fee565b5190305afa610bf2610f2d565b90611021565b61071a565b3461001557602036600319011261001557610c1661032b565b5f54610c2d906001600160a01b03166102e4610cfd565b6001600160a01b03811615610c455761044390610edb565b60405162461bcd60e51b81526020600482015260116024820152704e6577204f776e6572206973207a65726f60781b6044820152606490fd5b34610015575f366003190112610015576003546040516001600160a01b039091168152602090f35b634e487b7160e01b5f52604160045260245ffd5b90601f8019910116810190811067ffffffffffffffff821117610cdc57604052565b610ca6565b67ffffffffffffffff8111610cdc57601f01601f191660200190565b60405190610d0c604083610cba565b600382526245333560e81b6020830152565b15610d265750565b60405162461bcd60e51b815260206004820152908190610d4a9060248301906101c9565b0390fd5b610d5790610e75565b600380546001600160a01b0319166001600160a01b039290921691821790557fac431eb831269b53b41991f6cbfbfc93f4baa395996a8170abac93962b5a358e5f80a2565b60405190610dab604083610cba565b600382526245323760e81b6020830152565b610dd560018060a01b03600354163314610a48610d9c565b565b604051906060820182811067ffffffffffffffff821117610cdc5760405260606040835f81528260208201520152565b92505050610e2360018060a01b03600354163314610a48610d9c565b60015460a81c60ff1615610e44575f8152610e3c610e54565b602082015290565b50610e4d610dd7565b6001815290565b60405190610e63604083610cba565b6003825262229a1b60e91b6020830152565b60ff60015460a01c16610ea057610e8b90610edb565b6001805460ff60a01b1916600160a01b179055565b60405162461bcd60e51b8152602060048201526013602482015272105b1c9958591e481a5b9a5d1a585b1a5e9959606a1b6044820152606490fd5b60018060a01b0316806001600160601b0360a01b5f5416175f556001600160601b0360a01b600154166001557f038720101b9ced74445432ced46c7e5e4c80202669153dd67d226c66a0aa477b5f80a2565b3d15610f57573d90610f3e82610ce1565b91610f4c6040519384610cba565b82523d5f602084013e565b606090565b9035601e198236030181121561001557016020813591019167ffffffffffffffff821161001557813603831361001557565b908060209392818452848401375f828201840152601f01601f1916010190565b903590601e1981360301821215610015570180359067ffffffffffffffff82116100155760200191813603831361001557565b908092918237015f815290565b805191908290602001825e015f815290565b6040519061100f604083610cba565b600382526245333960e81b6020830152565b919061102b610dd7565b92156110455761103f905115610a48611000565b60018252565b60448151105f14611057576020830152565b60048101518101602481019190602090829003126100155760248101519067ffffffffffffffff82116100155701816043820112156100155760248101519061109f82610ce1565b926110ad6040519485610cba565b8284526044828401011161001557815f926044602093018386015e83010152602083015256fea2646970667358221220b84b99a459755b738f553061af5d7702ad9e6966247038db80fbae9183dcfa9464736f6c634300081a0033","linkReferences":{}},"methodIdentifiers":{"NAME()":"a3f4df7e","TYPE()":"bb24fe8a","VERSION()":"ffa1ad74","_NAME()":"08dbebf6","acceptOwner()":"ebbc4965","account()":"5dab2420","caller()":"fc9c8d39","contracts()":"6c0f79b6","flag()":"890eba68","initialize(address)":"c4d66de8","initialize(address,address)":"485cc955","initialize(address,address,address)":"c0c53b8b","owner()":"8da5cb5b","paused()":"5c975abb","pendingOwner()":"e30c3978","postExecCheck((address,address,uint256,address,uint256,bytes,bytes,bytes),(bool,bytes,bytes),(uint8,string,bytes))":"9d5228e8","postExecProcess((address,address,uint256,address,uint256,bytes,bytes,bytes),(bool,bytes,bytes))":"7c4c833b","preExecCheck((address,address,uint256,address,uint256,bytes,bytes,bytes))":"f2660027","preExecProcess((address,address,uint256,address,uint256,bytes,bytes,bytes))":"d58c3fc3","renounceOwnership()":"715018a6","setAccount(address)":"29f6d57c","setCaller(address)":"beb92f55","setPaused(bool)":"16c38b3c","setPendingOwner(address)":"c42069ec","setTag(bytes32)":"b695e2ef","tag()":"51f91066","transferOwnership(address)":"f2fde38b"},"id":113}