{"abi":[{"type":"constructor","inputs":[{"name":"_owner","type":"address","internalType":"address"},{"name":"_caller","type":"address","internalType":"address"},{"name":"_token","type":"address","internalType":"address"}],"stateMutability":"nonpayable"},{"type":"fallback","stateMutability":"nonpayable"},{"type":"function","name":"NAME","inputs":[],"outputs":[{"name":"","type":"bytes32","internalType":"bytes32"}],"stateMutability":"view"},{"type":"function","name":"TYPE","inputs":[],"outputs":[{"name":"","type":"bytes32","internalType":"bytes32"}],"stateMutability":"view"},{"type":"function","name":"VERSION","inputs":[],"outputs":[{"name":"","type":"uint256","internalType":"uint256"}],"stateMutability":"view"},{"type":"function","name":"_NAME","inputs":[],"outputs":[{"name":"","type":"string","internalType":"string"}],"stateMutability":"view"},{"type":"function","name":"acceptOwner","inputs":[],"outputs":[],"stateMutability":"nonpayable"},{"type":"function","name":"account","inputs":[],"outputs":[{"name":"","type":"address","internalType":"address"}],"stateMutability":"view"},{"type":"function","name":"caller","inputs":[],"outputs":[{"name":"","type":"address","internalType":"address"}],"stateMutability":"view"},{"type":"function","name":"contracts","inputs":[],"outputs":[{"name":"_contracts","type":"address[]","internalType":"address[]"}],"stateMutability":"view"},{"type":"function","name":"flag","inputs":[],"outputs":[{"name":"","type":"uint256","internalType":"uint256"}],"stateMutability":"view"},{"type":"function","name":"initialize","inputs":[{"name":"_owner","type":"address","internalType":"address"},{"name":"_caller","type":"address","internalType":"address"}],"outputs":[],"stateMutability":"nonpayable"},{"type":"function","name":"initialize","inputs":[{"name":"_owner","type":"address","internalType":"address"},{"name":"_caller","type":"address","internalType":"address"},{"name":"_account","type":"address","internalType":"address"}],"outputs":[],"stateMutability":"nonpayable"},{"type":"function","name":"initialize","inputs":[{"name":"_owner","type":"address","internalType":"address"}],"outputs":[],"stateMutability":"nonpayable"},{"type":"function","name":"owner","inputs":[],"outputs":[{"name":"","type":"address","internalType":"address"}],"stateMutability":"view"},{"type":"function","name":"paused","inputs":[],"outputs":[{"name":"","type":"bool","internalType":"bool"}],"stateMutability":"view"},{"type":"function","name":"pendingOwner","inputs":[],"outputs":[{"name":"","type":"address","internalType":"address"}],"stateMutability":"view"},{"type":"function","name":"postExecCheck","inputs":[{"name":"transaction","type":"tuple","internalType":"struct TransactionData","components":[{"name":"from","type":"address","internalType":"address"},{"name":"delegate","type":"address","internalType":"address"},{"name":"flag","type":"uint256","internalType":"uint256"},{"name":"to","type":"address","internalType":"address"},{"name":"value","type":"uint256","internalType":"uint256"},{"name":"data","type":"bytes","internalType":"bytes"},{"name":"hint","type":"bytes","internalType":"bytes"},{"name":"extra","type":"bytes","internalType":"bytes"}]},{"name":"callResult","type":"tuple","internalType":"struct TransactionResult","components":[{"name":"success","type":"bool","internalType":"bool"},{"name":"data","type":"bytes","internalType":"bytes"},{"name":"hint","type":"bytes","internalType":"bytes"}]},{"name":"preData","type":"tuple","internalType":"struct AuthorizerReturnData","components":[{"name":"result","type":"uint8","internalType":"enum AuthResult"},{"name":"message","type":"string","internalType":"string"},{"name":"data","type":"bytes","internalType":"bytes"}]}],"outputs":[{"name":"authData","type":"tuple","internalType":"struct AuthorizerReturnData","components":[{"name":"result","type":"uint8","internalType":"enum AuthResult"},{"name":"message","type":"string","internalType":"string"},{"name":"data","type":"bytes","internalType":"bytes"}]}],"stateMutability":"nonpayable"},{"type":"function","name":"postExecProcess","inputs":[{"name":"transaction","type":"tuple","internalType":"struct TransactionData","components":[{"name":"from","type":"address","internalType":"address"},{"name":"delegate","type":"address","internalType":"address"},{"name":"flag","type":"uint256","internalType":"uint256"},{"name":"to","type":"address","internalType":"address"},{"name":"value","type":"uint256","internalType":"uint256"},{"name":"data","type":"bytes","internalType":"bytes"},{"name":"hint","type":"bytes","internalType":"bytes"},{"name":"extra","type":"bytes","internalType":"bytes"}]},{"name":"callResult","type":"tuple","internalType":"struct TransactionResult","components":[{"name":"success","type":"bool","internalType":"bool"},{"name":"data","type":"bytes","internalType":"bytes"},{"name":"hint","type":"bytes","internalType":"bytes"}]}],"outputs":[],"stateMutability":"nonpayable"},{"type":"function","name":"preExecCheck","inputs":[{"name":"transaction","type":"tuple","internalType":"struct TransactionData","components":[{"name":"from","type":"address","internalType":"address"},{"name":"delegate","type":"address","internalType":"address"},{"name":"flag","type":"uint256","internalType":"uint256"},{"name":"to","type":"address","internalType":"address"},{"name":"value","type":"uint256","internalType":"uint256"},{"name":"data","type":"bytes","internalType":"bytes"},{"name":"hint","type":"bytes","internalType":"bytes"},{"name":"extra","type":"bytes","internalType":"bytes"}]}],"outputs":[{"name":"authData","type":"tuple","internalType":"struct AuthorizerReturnData","components":[{"name":"result","type":"uint8","internalType":"enum AuthResult"},{"name":"message","type":"string","internalType":"string"},{"name":"data","type":"bytes","internalType":"bytes"}]}],"stateMutability":"nonpayable"},{"type":"function","name":"preExecProcess","inputs":[{"name":"transaction","type":"tuple","internalType":"struct TransactionData","components":[{"name":"from","type":"address","internalType":"address"},{"name":"delegate","type":"address","internalType":"address"},{"name":"flag","type":"uint256","internalType":"uint256"},{"name":"to","type":"address","internalType":"address"},{"name":"value","type":"uint256","internalType":"uint256"},{"name":"data","type":"bytes","internalType":"bytes"},{"name":"hint","type":"bytes","internalType":"bytes"},{"name":"extra","type":"bytes","internalType":"bytes"}]}],"outputs":[],"stateMutability":"nonpayable"},{"type":"function","name":"renounceOwnership","inputs":[],"outputs":[],"stateMutability":"nonpayable"},{"type":"function","name":"setAccount","inputs":[{"name":"_account","type":"address","internalType":"address"}],"outputs":[],"stateMutability":"nonpayable"},{"type":"function","name":"setCaller","inputs":[{"name":"_caller","type":"address","internalType":"address"}],"outputs":[],"stateMutability":"nonpayable"},{"type":"function","name":"setPaused","inputs":[{"name":"_paused","type":"bool","internalType":"bool"}],"outputs":[],"stateMutability":"nonpayable"},{"type":"function","name":"setPendingOwner","inputs":[{"name":"to","type":"address","internalType":"address"}],"outputs":[],"stateMutability":"nonpayable"},{"type":"function","name":"setTag","inputs":[{"name":"_tag","type":"bytes32","internalType":"bytes32"}],"outputs":[],"stateMutability":"nonpayable"},{"type":"function","name":"tag","inputs":[],"outputs":[{"name":"","type":"bytes32","internalType":"bytes32"}],"stateMutability":"view"},{"type":"function","name":"token","inputs":[],"outputs":[{"name":"","type":"address","internalType":"address"}],"stateMutability":"view"},{"type":"function","name":"transfer","inputs":[{"name":"to","type":"address","internalType":"address"},{"name":"amount","type":"uint256","internalType":"uint256"}],"outputs":[],"stateMutability":"view"},{"type":"function","name":"transferOwnership","inputs":[{"name":"newOwner","type":"address","internalType":"address"}],"outputs":[],"stateMutability":"nonpayable"},{"type":"event","name":"AccountSet","inputs":[{"name":"account","type":"address","indexed":true,"internalType":"address"}],"anonymous":false},{"type":"event","name":"CallerSet","inputs":[{"name":"caller","type":"address","indexed":true,"internalType":"address"}],"anonymous":false},{"type":"event","name":"NewOwnerSet","inputs":[{"name":"owner","type":"address","indexed":true,"internalType":"address"}],"anonymous":false},{"type":"event","name":"PausedSet","inputs":[{"name":"status","type":"bool","indexed":true,"internalType":"bool"}],"anonymous":false},{"type":"event","name":"PendingOwnerSet","inputs":[{"name":"to","type":"address","indexed":true,"internalType":"address"}],"anonymous":false},{"type":"event","name":"TagSet","inputs":[{"name":"tag","type":"bytes32","indexed":true,"internalType":"bytes32"}],"anonymous":false}],"bytecode":{"object":"0x60a03461010257601f6115dc38819003918201601f19168301916001600160401b0383118484101761010657808492606094604052833981010312610102576100478161011a565b9061006060406100596020840161011a565b920161011a565b6001545f80546001600160a01b0319166001600160a01b03909516948517815560405194929392907f038720101b9ced74445432ced46c7e5e4c80202669153dd67d226c66a0aa477b9080a26001600160b01b031916600160a01b176001555f600255600380546001600160a01b0319166001600160a01b03929092169190911790556080526114ad908161012f82396080518181816107e70152610d770152f35b5f80fd5b634e487b7160e01b5f52604160045260245ffd5b51906001600160a01b03821682036101025756fe60806040526004361015610019575b34156110d1575b5f80fd5b5f3560e01c806308dbebf6146101e457806316c38b3c146101df57806329f6d57c146101da578063485cc955146101d557806351f91066146101d05780635c975abb146101cb5780635dab2420146101c65780636c0f79b6146101c1578063715018a6146101bc5780637c4c833b146101b7578063890eba681461015d5780638da5cb5b146101b25780639d5228e8146101ad578063a3f4df7e146101a8578063a9059cbb146101a3578063b695e2ef1461019e578063bb24fe8a14610199578063beb92f5514610194578063c0c53b8b1461018f578063c42069ec1461018a578063c4d66de814610185578063d58c3fc314610180578063e30c39781461017b578063ebbc496514610176578063f266002714610171578063f2fde38b1461016c578063fc0c546a14610167578063fc9c8d39146101625763ffa1ad740361000e575b610611565b610da6565b610d62565b610ce1565b610afb565b610ace565b610aa6565b610a98565b610a4d565b6109d8565b61095f565b6108b2565b61088a565b610834565b61076b565b610741565b6106b0565b61062c565b6105b8565b61052b565b6104cf565b6104a7565b610482565b610465565b610439565b61038b565b6102cf565b610221565b805180835260209291819084018484015e5f828201840152601f01601f1916010190565b90602061021e9281815201906101e9565b90565b34610015575f366003190112610015576040516351fa6fbf60e11b8152602081600481305afa9081156102c4575f91610290575b61028c610272610280846040519283916020830160209181520190565b03601f198101835282610de2565b6040519182918261020d565b0390f35b90506020813d6020116102bc575b816102ab60209383610de2565b810103126100155751610272610255565b3d915061029e565b6040513d5f823e3d90fd5b3461001557602036600319011261001557600435801515809103610015575f5461030c906001600160a01b0316610304610e35565b903314610e56565b6001805460ff60a81b191660a883901b60ff60a81b161790557f40db37ff5c0bdc2c427fbb2078c8f24afea940abac0e3c23bb4ea3bf2da2b2125f80a2005b600435906001600160a01b038216820361001557565b602435906001600160a01b038216820361001557565b35906001600160a01b038216820361001557565b34610015576020366003190112610015576103a461034b565b5f546103bb906001600160a01b0316610304610e35565b6001600160a01b0316801561040257600480546001600160a01b031916821790557f195359283029fbdb9a24519b1ec07caf1677655529bf99dc1634c1e8b28811805f80a2005b60405162461bcd60e51b815260206004820152600f60248201526e125b9d985b1a59081858d8dbdd5b9d608a1b6044820152606490fd5b346100155760403660031901126100155761046361045561034b565b61045d610361565b90610e86565b005b34610015575f366003190112610015576020600254604051908152f35b34610015575f36600319011261001557602060ff60015460a81c166040519015158152f35b34610015575f366003190112610015576004546040516001600160a01b039091168152602090f35b34610015575f3660031901126100155760405180602081016020825260605180915260408201906080905f5b818110610509575050500390f35b82516001600160a01b03168452859450602093840193909201916001016104fb565b34610015575f366003190112610015575f54610552906001600160a01b0316610304610e35565b6001600160601b0360a01b5f54165f556001600160601b0360a01b600154166001555f7f038720101b9ced74445432ced46c7e5e4c80202669153dd67d226c66a0aa477b8180a2005b90816101009103126100155790565b908160609103126100155790565b34610015576040366003190112610015576004356001600160401b038111610015576105e890369060040161059b565b506024356001600160401b038111610015576106089036906004016105aa565b50610463610ef5565b34610015575f36600319011261001557602060405160018152f35b34610015575f366003190112610015575f546040516001600160a01b039091168152602090f35b9060208252805191600283101561069c5761021e9260208201526040610687602084015160608385015260808401906101e9565b920151906060601f19828503019101526101e9565b634e487b7160e01b5f52602160045260245ffd5b34610015576060366003190112610015576004356001600160401b038111610015576106e090369060040161059b565b6024356001600160401b038111610015576106ff9036906004016105aa565b90604435906001600160401b0382116100155761028c926107276107359336906004016105aa565b91610730610f0d565b610f3c565b60405191829182610653565b34610015575f366003190112610015576040516b5472616e7366657241434c3360a01b8152602090f35b346100155760403660031901126100155761078461034b565b50602435610790611163565b50610799611163565b50601f193601368111610820573536811161001557610463916108196107c783613a98943603810190611225565b60608101516107e5906080906001600160a01b031692015115610faa565b7f00000000000000000000000000000000000000000000000000000000000000006001600160a01b03908116911614610fe4565b1115611029565b634e487b7160e01b5f52601160045260245ffd5b34610015576020366003190112610015575f5460043590610860906001600160a01b0316610304610e35565b806002557fef711e3eb06966d227e22eb4fa0302550dcd7257cf69b537cf4d37af53ea9cda5f80a2005b34610015575f3660031901126100155760405169436f6d6d6f6e5479706560b01b8152602090f35b34610015576020366003190112610015576108cb61034b565b5f546108e2906001600160a01b0316610304610e35565b6001600160a01b0316801561092957600380546001600160a01b031916821790557fac431eb831269b53b41991f6cbfbfc93f4baa395996a8170abac93962b5a358e5f80a2005b60405162461bcd60e51b815260206004820152600e60248201526d24b73b30b634b21031b0b63632b960911b6044820152606490fd5b346100155760603660031901126100155761097861034b565b610980610361565b6044356001600160a01b038116929190839003610015576109a091610e86565b600480546001600160a01b031916821790557f195359283029fbdb9a24519b1ec07caf1677655529bf99dc1634c1e8b28811805f80a2005b34610015576020366003190112610015576109f161034b565b5f54610a08906001600160a01b0316610304610e35565b600180546001600160a01b0319166001600160a01b039290921691821790557f68f49b346b94582a8b5f9d10e3fe3365318fe8f191ff8dce7c59c6cad06b02f55f80a2005b3461001557602036600319011261001557610463610a6961034b565b61106b565b602060031982011261001557600435906001600160401b0382116100155761021e9160040161059b565b346100155761060836610a6e565b34610015575f366003190112610015576001546040516001600160a01b039091168152602090f35b34610015575f366003190112610015576001546001600160a01b0316338190036100155761046390611111565b346100155761028c610b0c36610a6e565b610b14610f0d565b610b3260018060a01b03600354163314610b2c610ed4565b90610e56565b9060ff60015460a81c165f14610b5f57505f8152610b4e610f89565b602082015260405191829182610653565b610cdc91505f610cc3610cc3610cc98394610b78610f0d565b50610272610c9b610cae60405193602080860152610ba960408601610b9c83610377565b6001600160a01b03169052565b610bc8610bb860208301610377565b6001600160a01b03166060870152565b60408101356080860152610bf1610be160608301610377565b6001600160a01b031660a0870152565b608081013560c086015260a0810190610c7886610c6a610c4a610c2a610c178787611303565b61010060e0870152610140860191611334565b610c3760c0870187611303565b858303603f190161010087015290611334565b610c5760e0860186611303565b848303603f190161012086015290611334565b03601f198101885287610de2565b610ca9610c858383611354565b9050604051958691602083019190602083019252565b03601f198101865285610de2565b611354565b96909360405196879560208701998a91611386565b90611393565b5190305afa610cd66111b0565b906113c6565b610735565b3461001557602036600319011261001557610cfa61034b565b5f54610d11906001600160a01b0316610304610e35565b6001600160a01b03811615610d295761046390611111565b60405162461bcd60e51b81526020600482015260116024820152704e6577204f776e6572206973207a65726f60781b6044820152606490fd5b34610015575f366003190112610015576040517f00000000000000000000000000000000000000000000000000000000000000006001600160a01b03168152602090f35b34610015575f366003190112610015576003546040516001600160a01b039091168152602090f35b634e487b7160e01b5f52604160045260245ffd5b90601f801991011681019081106001600160401b03821117610e0357604052565b610dce565b60405190610e1861010083610de2565b565b6001600160401b038111610e0357601f01601f191660200190565b60405190610e44604083610de2565b600382526245333560e81b6020830152565b15610e5e5750565b60405162461bcd60e51b815260206004820152908190610e829060248301906101e9565b0390fd5b610e8f9061106b565b600380546001600160a01b0319166001600160a01b039290921691821790557fac431eb831269b53b41991f6cbfbfc93f4baa395996a8170abac93962b5a358e5f80a2565b60405190610ee3604083610de2565b600382526245323760e81b6020830152565b610e1860018060a01b03600354163314610b2c610ed4565b60405190606082018281106001600160401b03821117610e035760405260606040835f81528260208201520152565b92505050610f5860018060a01b03600354163314610b2c610ed4565b60015460a81c60ff1615610f79575f8152610f71610f89565b602082015290565b50610f82610f0d565b6001815290565b60405190610f98604083610de2565b6003825262229a1b60e91b6020830152565b15610fb157565b60405162461bcd60e51b815260206004820152600b60248201526a4e6f6e2d70617961626c6560a81b6044820152606490fd5b15610feb57565b60405162461bcd60e51b81526020600482015260166024820152751d1bdad95b881b9bdd081a5b881dda1a5d195b1a5cdd60521b6044820152606490fd5b1561103057565b60405162461bcd60e51b8152602060048201526013602482015272616d6f756e74206e6f7420696e2072616e676560681b6044820152606490fd5b60ff60015460a01c166110965761108190611111565b6001805460ff60a01b1916600160a01b179055565b60405162461bcd60e51b8152602060048201526013602482015272105b1c9958591e481a5b9a5d1a585b1a5e9959606a1b6044820152606490fd5b610e826040516110e2604082610de2565b600381526245343960e81b602082015260405191829162461bcd60e51b835260206004840181815201906101e9565b60018060a01b0316806001600160601b0360a01b5f5416175f556001600160601b0360a01b600154166001557f038720101b9ced74445432ced46c7e5e4c80202669153dd67d226c66a0aa477b5f80a2565b6040519061010082018281106001600160401b03821117610e0357604052606060e0835f81525f60208201525f60408201525f838201525f60808201528260a08201528260c08201520152565b3d156111da573d906111c182610e1a565b916111cf6040519384610de2565b82523d5f602084013e565b606090565b81601f82011215610015578035906111f682610e1a565b926112046040519485610de2565b8284526020838301011161001557815f926020809301838601378301015290565b602081830312610015578035906001600160401b03821161001557016101008183031261001557611254610e08565b9161125e82610377565b835261126c60208301610377565b60208401526040820135604084015261128760608301610377565b60608401526080820135608084015260a08201356001600160401b03811161001557816112b59184016111df565b60a084015260c08201356001600160401b03811161001557816112d99184016111df565b60c084015260e08201356001600160401b038111610015576112fb92016111df565b60e082015290565b9035601e19823603018112156100155701602081359101916001600160401b03821161001557813603831361001557565b908060209392818452848401375f828201840152601f01601f1916010190565b903590601e198136030182121561001557018035906001600160401b0382116100155760200191813603831361001557565b908092918237015f815290565b805191908290602001825e015f815290565b604051906113b4604083610de2565b600382526245333960e81b6020830152565b91906113d0610f0d565b92156113ea576113e4905115610b2c6113a5565b60018252565b60448151105f146113fc576020830152565b6004810151810160248101919060209082900312610015576024810151906001600160401b0382116100155701816043820112156100155760248101519061144382610e1a565b926114516040519485610de2565b8284526044828401011161001557815f926044602093018386015e83010152602083015256fea2646970667358221220d6524ee4409f856a3c40d30752a368001119fbfb9d88213689faa019cbe1227464736f6c634300081a0033","linkReferences":{}},"methodIdentifiers":{"NAME()":"a3f4df7e","TYPE()":"bb24fe8a","VERSION()":"ffa1ad74","_NAME()":"08dbebf6","acceptOwner()":"ebbc4965","account()":"5dab2420","caller()":"fc9c8d39","contracts()":"6c0f79b6","flag()":"890eba68","initialize(address)":"c4d66de8","initialize(address,address)":"485cc955","initialize(address,address,address)":"c0c53b8b","owner()":"8da5cb5b","paused()":"5c975abb","pendingOwner()":"e30c3978","postExecCheck((address,address,uint256,address,uint256,bytes,bytes,bytes),(bool,bytes,bytes),(uint8,string,bytes))":"9d5228e8","postExecProcess((address,address,uint256,address,uint256,bytes,bytes,bytes),(bool,bytes,bytes))":"7c4c833b","preExecCheck((address,address,uint256,address,uint256,bytes,bytes,bytes))":"f2660027","preExecProcess((address,address,uint256,address,uint256,bytes,bytes,bytes))":"d58c3fc3","renounceOwnership()":"715018a6","setAccount(address)":"29f6d57c","setCaller(address)":"beb92f55","setPaused(bool)":"16c38b3c","setPendingOwner(address)":"c42069ec","setTag(bytes32)":"b695e2ef","tag()":"51f91066","token()":"fc0c546a","transfer(address,uint256)":"a9059cbb","transferOwnership(address)":"f2fde38b"},"id":74}