{"abi":[{"type":"constructor","inputs":[{"name":"_owner","type":"address","internalType":"address"},{"name":"_caller","type":"address","internalType":"address"}],"stateMutability":"nonpayable"},{"type":"fallback","stateMutability":"nonpayable"},{"type":"function","name":"LP_TOKEN","inputs":[],"outputs":[{"name":"","type":"address","internalType":"address"}],"stateMutability":"view"},{"type":"function","name":"MASTER_CHEF","inputs":[],"outputs":[{"name":"","type":"address","internalType":"address"}],"stateMutability":"view"},{"type":"function","name":"NAME","inputs":[],"outputs":[{"name":"","type":"bytes32","internalType":"bytes32"}],"stateMutability":"view"},{"type":"function","name":"TYPE","inputs":[],"outputs":[{"name":"","type":"bytes32","internalType":"bytes32"}],"stateMutability":"view"},{"type":"function","name":"VERSION","inputs":[],"outputs":[{"name":"","type":"uint256","internalType":"uint256"}],"stateMutability":"view"},{"type":"function","name":"_NAME","inputs":[],"outputs":[{"name":"","type":"string","internalType":"string"}],"stateMutability":"view"},{"type":"function","name":"acceptOwner","inputs":[],"outputs":[],"stateMutability":"nonpayable"},{"type":"function","name":"account","inputs":[],"outputs":[{"name":"","type":"address","internalType":"address"}],"stateMutability":"view"},{"type":"function","name":"approve","inputs":[{"name":"spender","type":"address","internalType":"address"},{"name":"amount","type":"uint256","internalType":"uint256"}],"outputs":[],"stateMutability":"view"},{"type":"function","name":"caller","inputs":[],"outputs":[{"name":"","type":"address","internalType":"address"}],"stateMutability":"view"},{"type":"function","name":"contracts","inputs":[],"outputs":[{"name":"_contracts","type":"address[]","internalType":"address[]"}],"stateMutability":"view"},{"type":"function","name":"deposit","inputs":[{"name":"_pid","type":"uint256","internalType":"uint256"},{"name":"_amount","type":"uint256","internalType":"uint256"}],"outputs":[],"stateMutability":"view"},{"type":"function","name":"flag","inputs":[],"outputs":[{"name":"","type":"uint256","internalType":"uint256"}],"stateMutability":"view"},{"type":"function","name":"initialize","inputs":[{"name":"_owner","type":"address","internalType":"address"},{"name":"_caller","type":"address","internalType":"address"}],"outputs":[],"stateMutability":"nonpayable"},{"type":"function","name":"initialize","inputs":[{"name":"_owner","type":"address","internalType":"address"},{"name":"_caller","type":"address","internalType":"address"},{"name":"_account","type":"address","internalType":"address"}],"outputs":[],"stateMutability":"nonpayable"},{"type":"function","name":"initialize","inputs":[{"name":"_owner","type":"address","internalType":"address"}],"outputs":[],"stateMutability":"nonpayable"},{"type":"function","name":"owner","inputs":[],"outputs":[{"name":"","type":"address","internalType":"address"}],"stateMutability":"view"},{"type":"function","name":"paused","inputs":[],"outputs":[{"name":"","type":"bool","internalType":"bool"}],"stateMutability":"view"},{"type":"function","name":"pendingOwner","inputs":[],"outputs":[{"name":"","type":"address","internalType":"address"}],"stateMutability":"view"},{"type":"function","name":"postExecCheck","inputs":[{"name":"transaction","type":"tuple","internalType":"struct TransactionData","components":[{"name":"from","type":"address","internalType":"address"},{"name":"delegate","type":"address","internalType":"address"},{"name":"flag","type":"uint256","internalType":"uint256"},{"name":"to","type":"address","internalType":"address"},{"name":"value","type":"uint256","internalType":"uint256"},{"name":"data","type":"bytes","internalType":"bytes"},{"name":"hint","type":"bytes","internalType":"bytes"},{"name":"extra","type":"bytes","internalType":"bytes"}]},{"name":"callResult","type":"tuple","internalType":"struct TransactionResult","components":[{"name":"success","type":"bool","internalType":"bool"},{"name":"data","type":"bytes","internalType":"bytes"},{"name":"hint","type":"bytes","internalType":"bytes"}]},{"name":"preData","type":"tuple","internalType":"struct AuthorizerReturnData","components":[{"name":"result","type":"uint8","internalType":"enum AuthResult"},{"name":"message","type":"string","internalType":"string"},{"name":"data","type":"bytes","internalType":"bytes"}]}],"outputs":[{"name":"authData","type":"tuple","internalType":"struct AuthorizerReturnData","components":[{"name":"result","type":"uint8","internalType":"enum AuthResult"},{"name":"message","type":"string","internalType":"string"},{"name":"data","type":"bytes","internalType":"bytes"}]}],"stateMutability":"nonpayable"},{"type":"function","name":"postExecProcess","inputs":[{"name":"transaction","type":"tuple","internalType":"struct TransactionData","components":[{"name":"from","type":"address","internalType":"address"},{"name":"delegate","type":"address","internalType":"address"},{"name":"flag","type":"uint256","internalType":"uint256"},{"name":"to","type":"address","internalType":"address"},{"name":"value","type":"uint256","internalType":"uint256"},{"name":"data","type":"bytes","internalType":"bytes"},{"name":"hint","type":"bytes","internalType":"bytes"},{"name":"extra","type":"bytes","internalType":"bytes"}]},{"name":"callResult","type":"tuple","internalType":"struct TransactionResult","components":[{"name":"success","type":"bool","internalType":"bool"},{"name":"data","type":"bytes","internalType":"bytes"},{"name":"hint","type":"bytes","internalType":"bytes"}]}],"outputs":[],"stateMutability":"nonpayable"},{"type":"function","name":"preExecCheck","inputs":[{"name":"transaction","type":"tuple","internalType":"struct TransactionData","components":[{"name":"from","type":"address","internalType":"address"},{"name":"delegate","type":"address","internalType":"address"},{"name":"flag","type":"uint256","internalType":"uint256"},{"name":"to","type":"address","internalType":"address"},{"name":"value","type":"uint256","internalType":"uint256"},{"name":"data","type":"bytes","internalType":"bytes"},{"name":"hint","type":"bytes","internalType":"bytes"},{"name":"extra","type":"bytes","internalType":"bytes"}]}],"outputs":[{"name":"authData","type":"tuple","internalType":"struct AuthorizerReturnData","components":[{"name":"result","type":"uint8","internalType":"enum AuthResult"},{"name":"message","type":"string","internalType":"string"},{"name":"data","type":"bytes","internalType":"bytes"}]}],"stateMutability":"nonpayable"},{"type":"function","name":"preExecProcess","inputs":[{"name":"transaction","type":"tuple","internalType":"struct TransactionData","components":[{"name":"from","type":"address","internalType":"address"},{"name":"delegate","type":"address","internalType":"address"},{"name":"flag","type":"uint256","internalType":"uint256"},{"name":"to","type":"address","internalType":"address"},{"name":"value","type":"uint256","internalType":"uint256"},{"name":"data","type":"bytes","internalType":"bytes"},{"name":"hint","type":"bytes","internalType":"bytes"},{"name":"extra","type":"bytes","internalType":"bytes"}]}],"outputs":[],"stateMutability":"nonpayable"},{"type":"function","name":"renounceOwnership","inputs":[],"outputs":[],"stateMutability":"nonpayable"},{"type":"function","name":"setAccount","inputs":[{"name":"_account","type":"address","internalType":"address"}],"outputs":[],"stateMutability":"nonpayable"},{"type":"function","name":"setCaller","inputs":[{"name":"_caller","type":"address","internalType":"address"}],"outputs":[],"stateMutability":"nonpayable"},{"type":"function","name":"setPaused","inputs":[{"name":"_paused","type":"bool","internalType":"bool"}],"outputs":[],"stateMutability":"nonpayable"},{"type":"function","name":"setPendingOwner","inputs":[{"name":"to","type":"address","internalType":"address"}],"outputs":[],"stateMutability":"nonpayable"},{"type":"function","name":"setTag","inputs":[{"name":"_tag","type":"bytes32","internalType":"bytes32"}],"outputs":[],"stateMutability":"nonpayable"},{"type":"function","name":"tag","inputs":[],"outputs":[{"name":"","type":"bytes32","internalType":"bytes32"}],"stateMutability":"view"},{"type":"function","name":"transferOwnership","inputs":[{"name":"newOwner","type":"address","internalType":"address"}],"outputs":[],"stateMutability":"nonpayable"},{"type":"function","name":"withdraw","inputs":[{"name":"_pid","type":"uint256","internalType":"uint256"},{"name":"_amount","type":"uint256","internalType":"uint256"}],"outputs":[],"stateMutability":"view"},{"type":"event","name":"AccountSet","inputs":[{"name":"account","type":"address","indexed":true,"internalType":"address"}],"anonymous":false},{"type":"event","name":"CallerSet","inputs":[{"name":"caller","type":"address","indexed":true,"internalType":"address"}],"anonymous":false},{"type":"event","name":"NewOwnerSet","inputs":[{"name":"owner","type":"address","indexed":true,"internalType":"address"}],"anonymous":false},{"type":"event","name":"PausedSet","inputs":[{"name":"status","type":"bool","indexed":true,"internalType":"bool"}],"anonymous":false},{"type":"event","name":"PendingOwnerSet","inputs":[{"name":"to","type":"address","indexed":true,"internalType":"address"}],"anonymous":false},{"type":"event","name":"TagSet","inputs":[{"name":"tag","type":"bytes32","indexed":true,"internalType":"bytes32"}],"anonymous":false}],"bytecode":{"object":"0x6080346100de57601f61180838819003918201601f19168301916001600160401b038311848410176100e25780849260409485528339810103126100de57610052602061004b836100f6565b92016100f6565b6001545f80546001600160a01b0319166001600160a01b03909416938417815560405193907f038720101b9ced74445432ced46c7e5e4c80202669153dd67d226c66a0aa477b9080a26001600160b01b031916600160a01b176001555f600255600380546001600160a01b0319166001600160a01b03929092169190911790556116fd908161010b8239f35b5f80fd5b634e487b7160e01b5f52604160045260245ffd5b51906001600160a01b03821682036100de5756fe60806040526004361015610019575b341561106a575b5f80fd5b5f3560e01c806308dbebf614610214578063095ea7b31461020f57806316c38b3c1461020a57806329f6d57c14610205578063441a3e7014610200578063485cc955146101fb57806351f91066146101f65780635c975abb146101f15780635dab2420146101ec5780636c0f79b6146101e7578063715018a6146101e25780637c4c833b146101dd578063890eba681461017e5780638da5cb5b146101d85780639d5228e8146101d3578063a3f4df7e146101ce578063b695e2ef146101c9578063bb24fe8a146101c4578063beb92f55146101bf578063bfd9041b146101ba578063c0c53b8b146101b5578063c42069ec146101b0578063c4d66de8146101ab578063d58c3fc3146101a6578063e2bbb158146101a1578063e30c39781461019c578063ebbc496514610197578063edd8b17014610192578063f26600271461018d578063f2fde38b14610188578063fc9c8d39146101835763ffa1ad740361000e575b61079a565b610d8b565b610d06565b610c93565b610c65565b610c38565b610c10565b610ba6565b610b98565b610b49565b610ad0565b610a52565b610a24565b610973565b61094b565b6108f5565b6108ca565b610839565b6107b5565b610741565b6106b4565b61064f565b610627565b610602565b6105e5565b6105b1565b610547565b610495565b610419565b61031d565b610251565b805180835260209291819084018484015e5f828201840152601f01601f1916010190565b90602061024e928181520190610219565b90565b34610015575f366003190112610015576040516351fa6fbf60e11b8152602081600481305afa9081156102f4575f916102c0575b6102bc6102a26102b0846040519283916020830160209181520190565b03601f198101835282610dc7565b6040519182918261023d565b0390f35b90506020813d6020116102ec575b816102db60209383610dc7565b8101031261001557516102a2610285565b3d91506102ce565b6040513d5f823e3d90fd5b6001600160a01b0381160361001557565b359061031b826102ff565b565b346100155760403660031901126100155760043561033a816102ff565b61034261137e565b5061034b61137e565b50601f193601368111610405573590368211610015576103b0606061038a8473a5f8c5dbd5f286960b9d90548680ae5ebff076529536038101906115e9565b01516001600160a01b03167358f876857a02d6762e0101bb5c46a8c1ed44dc16146110aa565b6001600160a01b0316036103c057005b60405162461bcd60e51b815260206004820152601860248201527f617070726f76653a20496e76616c6964207370656e64657200000000000000006044820152606490fd5b634e487b7160e01b5f52601160045260245ffd5b3461001557602036600319011261001557600435801515809103610015575f54610456906001600160a01b031661044e610e18565b903314610e39565b6001805460ff60a81b191660a883901b60ff60a81b161790557f40db37ff5c0bdc2c427fbb2078c8f24afea940abac0e3c23bb4ea3bf2da2b2125f80a2005b34610015576020366003190112610015576004356104b2816102ff565b5f546104c9906001600160a01b031661044e610e18565b6001600160a01b0316801561051057600480546001600160a01b031916821790557f195359283029fbdb9a24519b1ec07caf1677655529bf99dc1634c1e8b28811805f80a2005b60405162461bcd60e51b815260206004820152600f60248201526e125b9d985b1a59081858d8dbdd5b9d608a1b6044820152606490fd5b346100155760403660031901126100155760036004356105656110e9565b0361056c57005b60405162461bcd60e51b815260206004820152601d60248201527f77697468647261773a20506f6f6c206973206e6f7420616c6c6f7765640000006044820152606490fd5b34610015576040366003190112610015576105e36004356105d1816102ff565b602435906105de826102ff565b610e69565b005b34610015575f366003190112610015576020600254604051908152f35b34610015575f36600319011261001557602060ff60015460a81c166040519015158152f35b34610015575f366003190112610015576004546040516001600160a01b039091168152602090f35b34610015575f36600319011261001557610667610eb7565b6040518091602082016020835281518091526020604084019201905f5b818110610692575050500390f35b82516001600160a01b0316845285945060209384019390920191600101610684565b34610015575f366003190112610015575f546106db906001600160a01b031661044e610e18565b6001600160601b0360a01b5f54165f556001600160601b0360a01b600154166001555f7f038720101b9ced74445432ced46c7e5e4c80202669153dd67d226c66a0aa477b8180a2005b90816101009103126100155790565b908160609103126100155790565b34610015576040366003190112610015576004356001600160401b03811161001557610771903690600401610724565b506024356001600160401b03811161001557610791903690600401610733565b506105e3610f4f565b34610015575f36600319011261001557602060405160018152f35b34610015575f366003190112610015575f546040516001600160a01b039091168152602090f35b906020825280519160028310156108255761024e926020820152604061081060208401516060838501526080840190610219565b920151906060601f1982850301910152610219565b634e487b7160e01b5f52602160045260245ffd5b34610015576060366003190112610015576004356001600160401b03811161001557610869903690600401610724565b6024356001600160401b03811161001557610888903690600401610733565b90604435906001600160401b038211610015576102bc926108b06108be933690600401610733565b916108b9610f67565b610f96565b604051918291826107dc565b34610015575f366003190112610015576040516c14d85b5c1b1951985c9b5050d3609a1b8152602090f35b34610015576020366003190112610015575f5460043590610921906001600160a01b031661044e610e18565b806002557fef711e3eb06966d227e22eb4fa0302550dcd7257cf69b537cf4d37af53ea9cda5f80a2005b34610015575f3660031901126100155760405169436f6d6d6f6e5479706560b01b8152602090f35b3461001557602036600319011261001557600435610990816102ff565b5f546109a7906001600160a01b031661044e610e18565b6001600160a01b031680156109ee57600380546001600160a01b031916821790557fac431eb831269b53b41991f6cbfbfc93f4baa395996a8170abac93962b5a358e5f80a2005b60405162461bcd60e51b815260206004820152600e60248201526d24b73b30b634b21031b0b63632b960911b6044820152606490fd5b34610015575f3660031901126100155760206040517358f876857a02d6762e0101bb5c46a8c1ed44dc168152f35b3461001557606036600319011261001557600435610a6f816102ff565b610a8b602435610a7e816102ff565b604435926105de846102ff565b600480546001600160a01b0319166001600160a01b039290921691821790557f195359283029fbdb9a24519b1ec07caf1677655529bf99dc1634c1e8b28811805f80a2005b3461001557602036600319011261001557600435610aed816102ff565b5f54610b04906001600160a01b031661044e610e18565b600180546001600160a01b0319166001600160a01b039290921691821790557f68f49b346b94582a8b5f9d10e3fe3365318fe8f191ff8dce7c59c6cad06b02f55f80a2005b34610015576020366003190112610015576105e3600435610b69816102ff565b611004565b602060031982011261001557600435906001600160401b0382116100155761024e91600401610724565b346100155761079136610b6e565b34610015576040366003190112610015576003600435610bc46110e9565b03610bcb57005b60405162461bcd60e51b815260206004820152601c60248201527f6465706f7369743a20506f6f6c206973206e6f7420616c6c6f776564000000006044820152606490fd5b34610015575f366003190112610015576001546040516001600160a01b039091168152602090f35b34610015575f366003190112610015576001546001600160a01b031633819003610015576105e390611149565b34610015575f36600319011261001557602060405173a5f8c5dbd5f286960b9d90548680ae5ebff076528152f35b34610015576102bc610ca436610b6e565b610cac610f67565b610cca60018060a01b03600354163314610cc4610f2e565b90610e39565b9060ff60015460a81c165f14610cf757505f8152610ce6610fe3565b6020820152604051918291826107dc565b610d0191506111ca565b6108be565b3461001557602036600319011261001557600435610d23816102ff565b5f54610d3a906001600160a01b031661044e610e18565b6001600160a01b03811615610d52576105e390611149565b60405162461bcd60e51b81526020600482015260116024820152704e6577204f776e6572206973207a65726f60781b6044820152606490fd5b34610015575f366003190112610015576003546040516001600160a01b039091168152602090f35b634e487b7160e01b5f52604160045260245ffd5b90601f801991011681019081106001600160401b03821117610de857604052565b610db3565b6040519061031b61010083610dc7565b6001600160401b038111610de857601f01601f191660200190565b60405190610e27604083610dc7565b600382526245333560e81b6020830152565b15610e415750565b60405162461bcd60e51b815260206004820152908190610e65906024830190610219565b0390fd5b610e7290611004565b600380546001600160a01b0319166001600160a01b039290921691821790557fac431eb831269b53b41991f6cbfbfc93f4baa395996a8170abac93962b5a358e5f80a2565b60405190610ec6606083610dc7565b60028252602082019160403684378092815115610f1a577358f876857a02d6762e0101bb5c46a8c1ed44dc169052805160011015610f1a57604073a5f8c5dbd5f286960b9d90548680ae5ebff07652910152565b634e487b7160e01b5f52603260045260245ffd5b60405190610f3d604083610dc7565b600382526245323760e81b6020830152565b61031b60018060a01b03600354163314610cc4610f2e565b60405190606082018281106001600160401b03821117610de85760405260606040835f81528260208201520152565b92505050610fb260018060a01b03600354163314610cc4610f2e565b60015460a81c60ff1615610fd3575f8152610fcb610fe3565b602082015290565b50610fdc610f67565b6001815290565b60405190610ff2604083610dc7565b6003825262229a1b60e91b6020830152565b60ff60015460a01c1661102f5761101a90611149565b6001805460ff60a01b1916600160a01b179055565b60405162461bcd60e51b8152602060048201526013602482015272105b1c9958591e481a5b9a5d1a585b1a5e9959606a1b6044820152606490fd5b610e6560405161107b604082610dc7565b600381526245343960e81b602082015260405191829162461bcd60e51b83526020600484018181520190610219565b156110b157565b60405162461bcd60e51b815260206004820152601060248201526f125b9d985b1a590818dbdb9d1c9858dd60821b6044820152606490fd5b6110f161137e565b506110fa61137e565b50601f19360136811161040557353681116100155760606111238261031b9336038101906115e9565b01516001600160a01b031673a5f8c5dbd5f286960b9d90548680ae5ebff07652146110aa565b60018060a01b0316806001600160601b0360a01b5f5416175f556001600160601b0360a01b600154166001557f038720101b9ced74445432ced46c7e5e4c80202669153dd67d226c66a0aa477b5f80a2565b3d156111c5573d906111ac82610dfd565b916111ba6040519384610dc7565b82523d5f602084013e565b606090565b6111d2610f67565b6111db826113cb565b1561135357505f8061133a61133a61134061024e956102a2611312611325604051936020808601526112206040860161121383610310565b6001600160a01b03169052565b61123f61122f60208301610310565b6001600160a01b03166060870152565b6040810135608086015261126861125860608301610310565b6001600160a01b031660a0870152565b608081013560c086015260a08101906112ef866112e16112c16112a161128e878761142f565b61010060e0870152610140860191611460565b6112ae60c087018761142f565b858303603f190161010087015290611460565b6112ce60e086018661142f565b848303603f190161012086015290611460565b03601f198101885287610dc7565b6113206112fc8383611480565b9050604051958691602083019190602083019252565b03601f198101865285610dc7565b611480565b96909360405196879560208701998a916114b2565b906114bf565b5190305afa61134d61119b565b906114f2565b90505f8152604051611366604082610dc7565b600381526245353560e81b6020820152602082015290565b6040519061010082018281106001600160401b03821117610de857604052606060e0835f81525f60208201525f60408201525f838201525f60808201528260a08201528260c08201520152565b606001356113d8816102ff565b6113e0610eb7565b906001600160a01b03165f5b8251811015611428578251811015610f1a57600581901b8301602001516001600160a01b03168214611420576001016113ec565b505050600190565b5050505f90565b9035601e19823603018112156100155701602081359101916001600160401b03821161001557813603831361001557565b908060209392818452848401375f828201840152601f01601f1916010190565b903590601e198136030182121561001557018035906001600160401b0382116100155760200191813603831361001557565b908092918237015f815290565b805191908290602001825e015f815290565b604051906114e0604083610dc7565b600382526245333960e81b6020830152565b91906114fc610f67565b921561151657611510905115610cc46114d1565b60018252565b60448151105f14611528576020830152565b6004810151810160248101919060209082900312610015576024810151906001600160401b0382116100155701816043820112156100155760248101519061156f82610dfd565b9261157d6040519485610dc7565b8284526044828401011161001557815f926044602093018386015e830101526020830152565b81601f82011215610015578035906115ba82610dfd565b926115c86040519485610dc7565b8284526020838301011161001557815f926020809301838601378301015290565b602081830312610015578035906001600160401b03821161001557016101008183031261001557611618610ded565b9161162282610310565b835261163060208301610310565b60208401526040820135604084015261164b60608301610310565b60608401526080820135608084015260a08201356001600160401b03811161001557816116799184016115a3565b60a084015260c08201356001600160401b038111610015578161169d9184016115a3565b60c084015260e08201356001600160401b038111610015576116bf92016115a3565b60e08201529056fea26469706673582212209b217b848f6122b1a0ff97ef73824a2a3ed0e566ef6108b99f3de4d2b6770ad064736f6c634300081a0033","linkReferences":{}},"methodIdentifiers":{"LP_TOKEN()":"bfd9041b","MASTER_CHEF()":"edd8b170","NAME()":"a3f4df7e","TYPE()":"bb24fe8a","VERSION()":"ffa1ad74","_NAME()":"08dbebf6","acceptOwner()":"ebbc4965","account()":"5dab2420","approve(address,uint256)":"095ea7b3","caller()":"fc9c8d39","contracts()":"6c0f79b6","deposit(uint256,uint256)":"e2bbb158","flag()":"890eba68","initialize(address)":"c4d66de8","initialize(address,address)":"485cc955","initialize(address,address,address)":"c0c53b8b","owner()":"8da5cb5b","paused()":"5c975abb","pendingOwner()":"e30c3978","postExecCheck((address,address,uint256,address,uint256,bytes,bytes,bytes),(bool,bytes,bytes),(uint8,string,bytes))":"9d5228e8","postExecProcess((address,address,uint256,address,uint256,bytes,bytes,bytes),(bool,bytes,bytes))":"7c4c833b","preExecCheck((address,address,uint256,address,uint256,bytes,bytes,bytes))":"f2660027","preExecProcess((address,address,uint256,address,uint256,bytes,bytes,bytes))":"d58c3fc3","renounceOwnership()":"715018a6","setAccount(address)":"29f6d57c","setCaller(address)":"beb92f55","setPaused(bool)":"16c38b3c","setPendingOwner(address)":"c42069ec","setTag(bytes32)":"b695e2ef","tag()":"51f91066","transferOwnership(address)":"f2fde38b","withdraw(uint256,uint256)":"441a3e70"},"id":73}