{"abi":[{"type":"constructor","inputs":[{"name":"_owner","type":"address","internalType":"address"},{"name":"_caller","type":"address","internalType":"address"}],"stateMutability":"nonpayable"},{"type":"fallback","stateMutability":"nonpayable"},{"type":"function","name":"NAME","inputs":[],"outputs":[{"name":"","type":"bytes32","internalType":"bytes32"}],"stateMutability":"view"},{"type":"function","name":"Pool","inputs":[],"outputs":[{"name":"","type":"address","internalType":"address"}],"stateMutability":"view"},{"type":"function","name":"RewardsController","inputs":[],"outputs":[{"name":"","type":"address","internalType":"address"}],"stateMutability":"view"},{"type":"function","name":"TYPE","inputs":[],"outputs":[{"name":"","type":"bytes32","internalType":"bytes32"}],"stateMutability":"view"},{"type":"function","name":"VERSION","inputs":[],"outputs":[{"name":"","type":"uint256","internalType":"uint256"}],"stateMutability":"view"},{"type":"function","name":"WTokenGateway","inputs":[],"outputs":[{"name":"","type":"address","internalType":"address"}],"stateMutability":"view"},{"type":"function","name":"_NAME","inputs":[],"outputs":[{"name":"","type":"string","internalType":"string"}],"stateMutability":"view"},{"type":"function","name":"acceptOwner","inputs":[],"outputs":[],"stateMutability":"nonpayable"},{"type":"function","name":"account","inputs":[],"outputs":[{"name":"","type":"address","internalType":"address"}],"stateMutability":"view"},{"type":"function","name":"borrow","inputs":[{"name":"asset","type":"address","internalType":"address"},{"name":"amount","type":"uint256","internalType":"uint256"},{"name":"interestRateMode","type":"uint256","internalType":"uint256"},{"name":"referralCode","type":"uint16","internalType":"uint16"},{"name":"onBehalfOf","type":"address","internalType":"address"}],"outputs":[],"stateMutability":"nonpayable"},{"type":"function","name":"borrow","inputs":[{"name":"args","type":"bytes32","internalType":"bytes32"}],"outputs":[],"stateMutability":"nonpayable"},{"type":"function","name":"borrowETH","inputs":[{"name":"","type":"address","internalType":"address"},{"name":"amount","type":"uint256","internalType":"uint256"},{"name":"interestRateMode","type":"uint256","internalType":"uint256"},{"name":"referralCode","type":"uint16","internalType":"uint16"}],"outputs":[],"stateMutability":"nonpayable"},{"type":"function","name":"caller","inputs":[],"outputs":[{"name":"","type":"address","internalType":"address"}],"stateMutability":"view"},{"type":"function","name":"claimAllRewards","inputs":[{"name":"assets","type":"address[]","internalType":"address[]"},{"name":"to","type":"address","internalType":"address"}],"outputs":[],"stateMutability":"nonpayable"},{"type":"function","name":"claimRewards","inputs":[{"name":"assets","type":"address[]","internalType":"address[]"},{"name":"amount","type":"uint256","internalType":"uint256"},{"name":"to","type":"address","internalType":"address"},{"name":"reward","type":"address","internalType":"address"}],"outputs":[],"stateMutability":"nonpayable"},{"type":"function","name":"contracts","inputs":[],"outputs":[{"name":"_contracts","type":"address[]","internalType":"address[]"}],"stateMutability":"view"},{"type":"function","name":"depositETH","inputs":[{"name":"","type":"address","internalType":"address"},{"name":"onBehalfOf","type":"address","internalType":"address"},{"name":"referralCode","type":"uint16","internalType":"uint16"}],"outputs":[],"stateMutability":"payable"},{"type":"function","name":"flag","inputs":[],"outputs":[{"name":"","type":"uint256","internalType":"uint256"}],"stateMutability":"view"},{"type":"function","name":"initialize","inputs":[{"name":"_owner","type":"address","internalType":"address"},{"name":"_caller","type":"address","internalType":"address"}],"outputs":[],"stateMutability":"nonpayable"},{"type":"function","name":"initialize","inputs":[{"name":"_owner","type":"address","internalType":"address"},{"name":"_caller","type":"address","internalType":"address"},{"name":"_account","type":"address","internalType":"address"}],"outputs":[],"stateMutability":"nonpayable"},{"type":"function","name":"initialize","inputs":[{"name":"_owner","type":"address","internalType":"address"}],"outputs":[],"stateMutability":"nonpayable"},{"type":"function","name":"owner","inputs":[],"outputs":[{"name":"","type":"address","internalType":"address"}],"stateMutability":"view"},{"type":"function","name":"paused","inputs":[],"outputs":[{"name":"","type":"bool","internalType":"bool"}],"stateMutability":"view"},{"type":"function","name":"pendingOwner","inputs":[],"outputs":[{"name":"","type":"address","internalType":"address"}],"stateMutability":"view"},{"type":"function","name":"postExecCheck","inputs":[{"name":"transaction","type":"tuple","internalType":"struct TransactionData","components":[{"name":"from","type":"address","internalType":"address"},{"name":"delegate","type":"address","internalType":"address"},{"name":"flag","type":"uint256","internalType":"uint256"},{"name":"to","type":"address","internalType":"address"},{"name":"value","type":"uint256","internalType":"uint256"},{"name":"data","type":"bytes","internalType":"bytes"},{"name":"hint","type":"bytes","internalType":"bytes"},{"name":"extra","type":"bytes","internalType":"bytes"}]},{"name":"callResult","type":"tuple","internalType":"struct TransactionResult","components":[{"name":"success","type":"bool","internalType":"bool"},{"name":"data","type":"bytes","internalType":"bytes"},{"name":"hint","type":"bytes","internalType":"bytes"}]},{"name":"preData","type":"tuple","internalType":"struct AuthorizerReturnData","components":[{"name":"result","type":"uint8","internalType":"enum AuthResult"},{"name":"message","type":"string","internalType":"string"},{"name":"data","type":"bytes","internalType":"bytes"}]}],"outputs":[{"name":"authData","type":"tuple","internalType":"struct AuthorizerReturnData","components":[{"name":"result","type":"uint8","internalType":"enum AuthResult"},{"name":"message","type":"string","internalType":"string"},{"name":"data","type":"bytes","internalType":"bytes"}]}],"stateMutability":"nonpayable"},{"type":"function","name":"postExecProcess","inputs":[{"name":"transaction","type":"tuple","internalType":"struct TransactionData","components":[{"name":"from","type":"address","internalType":"address"},{"name":"delegate","type":"address","internalType":"address"},{"name":"flag","type":"uint256","internalType":"uint256"},{"name":"to","type":"address","internalType":"address"},{"name":"value","type":"uint256","internalType":"uint256"},{"name":"data","type":"bytes","internalType":"bytes"},{"name":"hint","type":"bytes","internalType":"bytes"},{"name":"extra","type":"bytes","internalType":"bytes"}]},{"name":"callResult","type":"tuple","internalType":"struct TransactionResult","components":[{"name":"success","type":"bool","internalType":"bool"},{"name":"data","type":"bytes","internalType":"bytes"},{"name":"hint","type":"bytes","internalType":"bytes"}]}],"outputs":[],"stateMutability":"nonpayable"},{"type":"function","name":"preExecCheck","inputs":[{"name":"transaction","type":"tuple","internalType":"struct TransactionData","components":[{"name":"from","type":"address","internalType":"address"},{"name":"delegate","type":"address","internalType":"address"},{"name":"flag","type":"uint256","internalType":"uint256"},{"name":"to","type":"address","internalType":"address"},{"name":"value","type":"uint256","internalType":"uint256"},{"name":"data","type":"bytes","internalType":"bytes"},{"name":"hint","type":"bytes","internalType":"bytes"},{"name":"extra","type":"bytes","internalType":"bytes"}]}],"outputs":[{"name":"authData","type":"tuple","internalType":"struct AuthorizerReturnData","components":[{"name":"result","type":"uint8","internalType":"enum AuthResult"},{"name":"message","type":"string","internalType":"string"},{"name":"data","type":"bytes","internalType":"bytes"}]}],"stateMutability":"nonpayable"},{"type":"function","name":"preExecProcess","inputs":[{"name":"transaction","type":"tuple","internalType":"struct TransactionData","components":[{"name":"from","type":"address","internalType":"address"},{"name":"delegate","type":"address","internalType":"address"},{"name":"flag","type":"uint256","internalType":"uint256"},{"name":"to","type":"address","internalType":"address"},{"name":"value","type":"uint256","internalType":"uint256"},{"name":"data","type":"bytes","internalType":"bytes"},{"name":"hint","type":"bytes","internalType":"bytes"},{"name":"extra","type":"bytes","internalType":"bytes"}]}],"outputs":[],"stateMutability":"nonpayable"},{"type":"function","name":"renounceOwnership","inputs":[],"outputs":[],"stateMutability":"nonpayable"},{"type":"function","name":"repay","inputs":[{"name":"args","type":"bytes32","internalType":"bytes32"}],"outputs":[],"stateMutability":"nonpayable"},{"type":"function","name":"repay","inputs":[{"name":"asset","type":"address","internalType":"address"},{"name":"amount","type":"uint256","internalType":"uint256"},{"name":"interestRateMode","type":"uint256","internalType":"uint256"},{"name":"onBehalfOf","type":"address","internalType":"address"}],"outputs":[],"stateMutability":"nonpayable"},{"type":"function","name":"repayETH","inputs":[{"name":"","type":"address","internalType":"address"},{"name":"amount","type":"uint256","internalType":"uint256"},{"name":"rateMode","type":"uint256","internalType":"uint256"},{"name":"onBehalfOf","type":"address","internalType":"address"}],"outputs":[],"stateMutability":"payable"},{"type":"function","name":"setAccount","inputs":[{"name":"_account","type":"address","internalType":"address"}],"outputs":[],"stateMutability":"nonpayable"},{"type":"function","name":"setCaller","inputs":[{"name":"_caller","type":"address","internalType":"address"}],"outputs":[],"stateMutability":"nonpayable"},{"type":"function","name":"setPaused","inputs":[{"name":"_paused","type":"bool","internalType":"bool"}],"outputs":[],"stateMutability":"nonpayable"},{"type":"function","name":"setPendingOwner","inputs":[{"name":"to","type":"address","internalType":"address"}],"outputs":[],"stateMutability":"nonpayable"},{"type":"function","name":"setTag","inputs":[{"name":"_tag","type":"bytes32","internalType":"bytes32"}],"outputs":[],"stateMutability":"nonpayable"},{"type":"function","name":"supply","inputs":[{"name":"asset","type":"address","internalType":"address"},{"name":"amount","type":"uint256","internalType":"uint256"},{"name":"onBehalfOf","type":"address","internalType":"address"},{"name":"referralCode","type":"uint16","internalType":"uint16"}],"outputs":[],"stateMutability":"nonpayable"},{"type":"function","name":"supply","inputs":[{"name":"args","type":"bytes32","internalType":"bytes32"}],"outputs":[],"stateMutability":"nonpayable"},{"type":"function","name":"tag","inputs":[],"outputs":[{"name":"","type":"bytes32","internalType":"bytes32"}],"stateMutability":"view"},{"type":"function","name":"transferOwnership","inputs":[{"name":"newOwner","type":"address","internalType":"address"}],"outputs":[],"stateMutability":"nonpayable"},{"type":"function","name":"withdraw","inputs":[{"name":"asset","type":"address","internalType":"address"},{"name":"amount","type":"uint256","internalType":"uint256"},{"name":"to","type":"address","internalType":"address"}],"outputs":[],"stateMutability":"nonpayable"},{"type":"function","name":"withdraw","inputs":[{"name":"args","type":"bytes32","internalType":"bytes32"}],"outputs":[],"stateMutability":"nonpayable"},{"type":"function","name":"withdrawETH","inputs":[{"name":"","type":"address","internalType":"address"},{"name":"amount","type":"uint256","internalType":"uint256"},{"name":"to","type":"address","internalType":"address"}],"outputs":[],"stateMutability":"nonpayable"},{"type":"event","name":"AccountSet","inputs":[{"name":"account","type":"address","indexed":true,"internalType":"address"}],"anonymous":false},{"type":"event","name":"CallerSet","inputs":[{"name":"caller","type":"address","indexed":true,"internalType":"address"}],"anonymous":false},{"type":"event","name":"NewOwnerSet","inputs":[{"name":"owner","type":"address","indexed":true,"internalType":"address"}],"anonymous":false},{"type":"event","name":"PausedSet","inputs":[{"name":"status","type":"bool","indexed":true,"internalType":"bool"}],"anonymous":false},{"type":"event","name":"PendingOwnerSet","inputs":[{"name":"to","type":"address","indexed":true,"internalType":"address"}],"anonymous":false},{"type":"event","name":"TagSet","inputs":[{"name":"tag","type":"bytes32","indexed":true,"internalType":"bytes32"}],"anonymous":false}],"bytecode":{"object":"0x60e03461031657601f611a8d38819003918201601f19168301916001600160401b0383118484101761031a57808492604094855283398101031261031657610052602061004b8361032e565b920161032e565b6001545f80546001600160a01b0319166001600160a01b03909416938417815560405193907f038720101b9ced74445432ced46c7e5e4c80202669153dd67d226c66a0aa477b9080a26001600160b01b031916600160a01b1760019081555f600255600380546001600160a01b0319166001600160a01b039390931692909217909155460361016457507387870bca3f3fd6335c3f4ce8392d69350b4fa4e2738164cc65827dcfe994ab23944cbc90e0aa80bfcb73a434d495249abe33e031fe71a969b81f3c07950d5b60c05260a05260805260405161174a9081610343823960805181818161033f015261107c015260a0518181816106fe01526110b2015260c05181818161061501526110ea0152f35b46600a036101b1575073794a61358d6845594f94dc1db02a252b5b4814ad73929ec64c34a17401f460460d4b9390518e5b473e7360ee8b61a13c67d0191c851bec8f0bc85016071061011c565b4661a4b1036101ff575073794a61358d6845594f94dc1db02a252b5b4814ad73929ec64c34a17401f460460d4b9390518e5b473e735760e34c4003752329bc77790b1de44c2799f8c361011c565b466104400361023957507390df02551bb792286e8d4f13e0e357b4bf1d6a577330c1b8f0490fa0908863d6cbd2e36400b4310a6b5f61011c565b4661210503610287575073a238dd80c259a72e81d7e4664a9801593f98d1c573f9cc4f0d883f1a1eb2c253bdb46c254ca51e1f4473729b3ea8c005abc58c9150fb57ec161296f0676661011c565b466089036102d4575073794a61358d6845594f94dc1db02a252b5b4814ad73929ec64c34a17401f460460d4b9390518e5b473e73f5f61a1ab3488fcb6d86451846bcfa9cdc108eb061011c565b62461bcd60e51b815260206004820152601660248201527f6e6f20636861696e206964206973206d617463686564000000000000000000006044820152606490fd5b5f80fd5b634e487b7160e01b5f52604160045260245ffd5b51906001600160a01b03821682036103165756fe60806040526004361015610019575b3415611252575b5f80fd5b5f3560e01c806302c5fcf8146102c057806307f3b8bb146102bb57806308dbebf6146102b657806316c38b3c146102b1578063236300dc146102ac57806329f6d57c146102a757806333c7649c146102a2578063474cf53d1461029d578063485cc9551461029857806351f91066146102935780635337f9481461028e578063563dd6131461020c578063573ade81146102895780635c975abb146102845780635dab24201461027f578063617ba0371461027a57806366514c971461027557806369328dec146102615780636c0f79b614610270578063715018a61461026b5780637c4c833b1461026657806380500d2014610261578063890eba68146102025780638da5cb5b1461025c5780638e19899e1461020c5780639d5228e814610257578063a3f4df7e14610252578063a415bcad1461024d578063b695e2ef14610248578063bb24fe8a14610243578063bb492bf51461023e578063beb92f5514610239578063c0c53b8b14610234578063c42069ec1461022f578063c4d66de81461022a578063d58c3fc314610225578063d5eed8681461020c578063e30c397814610220578063ebbc49651461021b578063f266002714610216578063f2fde38b14610211578063f7a738401461020c578063fc9c8d39146102075763ffa1ad740361000e575b61097a565b610f14565b61073f565b610e8f565b610e1c565b610def565b610dc7565b610db9565b610d6a565b610cf1565b610c73565b610bc2565b610b81565b610b59565b610b0a565b610ad6565b610aaa565b610a19565b610995565b610802565b610921565b610894565b61082f565b6107de565b6107ab565b610783565b61075e565b61074d565b6106e9565b6106cc565b61069a565b610666565b610600565b61054e565b6104fd565b610451565b6103a3565b61032a565b610313565b6001600160a01b0381160361001557565b35906102e1826102c5565b565b6080906003190112610015576004356102fb816102c5565b906024359060443590606435610310816102c5565b90565b61032861031f366102e3565b92505050611292565b005b34610015575f366003190112610015576040517f00000000000000000000000000000000000000000000000000000000000000006001600160a01b03168152602090f35b805180835260209291819084018484015e5f828201840152601f01601f1916010190565b90602061031092818152019061036e565b34610015575f366003190112610015576040516351fa6fbf60e11b8152602081600481305afa908115610446575f91610412575b61040e6103f4610402846040519283916020830160209181520190565b03601f198101835282610f50565b60405191829182610392565b0390f35b90506020813d60201161043e575b8161042d60209383610f50565b8101031261001557516103f46103d7565b3d9150610420565b6040513d5f823e3d90fd5b3461001557602036600319011261001557600435801515809103610015575f5461048e906001600160a01b0316610486610f91565b903314610fb2565b6001805460ff60a81b191660a883901b60ff60a81b161790557f40db37ff5c0bdc2c427fbb2078c8f24afea940abac0e3c23bb4ea3bf2da2b2125f80a2005b9181601f84011215610015578235916001600160401b038311610015576020808501948460051b01011161001557565b34610015576080366003190112610015576004356001600160401b0381116100155761052d9036906004016104cd565b505061032860443561053e816102c5565b6105496064356102c5565b611292565b346100155760203660031901126100155760043561056b816102c5565b5f54610582906001600160a01b0316610486610f91565b6001600160a01b031680156105c957600480546001600160a01b031916821790557f195359283029fbdb9a24519b1ec07caf1677655529bf99dc1634c1e8b28811805f80a2005b60405162461bcd60e51b815260206004820152600f60248201526e125b9d985b1a59081858d8dbdd5b9d608a1b6044820152606490fd5b34610015575f366003190112610015576040517f00000000000000000000000000000000000000000000000000000000000000006001600160a01b03168152602090f35b6044359061ffff8216820361001557565b6064359061ffff8216820361001557565b60603660031901126100155761067d6004356102c5565b61032860243561068c816102c5565b610694610644565b50611292565b34610015576040366003190112610015576103286004356106ba816102c5565b602435906106c7826102c5565b610fe2565b34610015575f366003190112610015576020600254604051908152f35b34610015575f366003190112610015576040517f00000000000000000000000000000000000000000000000000000000000000006001600160a01b03168152602090f35b60209060031901126100155760043590565b34610015576103283661072d565b346100155761032861031f366102e3565b34610015575f36600319011261001557602060ff60015460a81c166040519015158152f35b34610015575f366003190112610015576004546040516001600160a01b039091168152602090f35b34610015576080366003190112610015576107c76004356102c5565b6103286044356107d6816102c5565b610694610655565b34610015576080366003190112610015576107fa6004356102c5565b610328610655565b346100155760603660031901126100155760043561081f816102c5565b50610328604435610549816102c5565b34610015575f36600319011261001557610847611054565b6040518091602082016020835281518091526020604084019201905f5b818110610872575050500390f35b82516001600160a01b0316845285945060209384019390920191600101610864565b34610015575f366003190112610015575f546108bb906001600160a01b0316610486610f91565b6001600160601b0360a01b5f54165f556001600160601b0360a01b600154166001555f7f038720101b9ced74445432ced46c7e5e4c80202669153dd67d226c66a0aa477b8180a2005b90816101009103126100155790565b908160609103126100155790565b34610015576040366003190112610015576004356001600160401b03811161001557610951903690600401610904565b506024356001600160401b03811161001557610971903690600401610913565b50610328611137565b34610015575f36600319011261001557602060405160018152f35b34610015575f366003190112610015575f546040516001600160a01b039091168152602090f35b90602082528051916002831015610a055761031092602082015260406109f06020840151606083850152608084019061036e565b920151906060601f198285030191015261036e565b634e487b7160e01b5f52602160045260245ffd5b34610015576060366003190112610015576004356001600160401b03811161001557610a49903690600401610904565b6024356001600160401b03811161001557610a68903690600401610913565b90604435906001600160401b0382116100155761040e92610a90610a9e933690600401610913565b91610a9961114f565b61117e565b604051918291826109bc565b34610015575f366003190112610015576040516d20b0bb32a0baba3437b934bd32b960911b8152602090f35b346100155760a036600319011261001557610af26004356102c5565b610afa610655565b50610328608435610549816102c5565b3461001557610b183661072d565b5f54610b2f906001600160a01b0316610486610f91565b806002557fef711e3eb06966d227e22eb4fa0302550dcd7257cf69b537cf4d37af53ea9cda5f80a2005b34610015575f3660031901126100155760405169436f6d6d6f6e5479706560b01b8152602090f35b34610015576040366003190112610015576004356001600160401b03811161001557610bb19036906004016104cd565b5050610328602435610549816102c5565b3461001557602036600319011261001557600435610bdf816102c5565b5f54610bf6906001600160a01b0316610486610f91565b6001600160a01b03168015610c3d57600380546001600160a01b031916821790557fac431eb831269b53b41991f6cbfbfc93f4baa395996a8170abac93962b5a358e5f80a2005b60405162461bcd60e51b815260206004820152600e60248201526d24b73b30b634b21031b0b63632b960911b6044820152606490fd5b3461001557606036600319011261001557600435610c90816102c5565b610cac602435610c9f816102c5565b604435926106c7846102c5565b600480546001600160a01b0319166001600160a01b039290921691821790557f195359283029fbdb9a24519b1ec07caf1677655529bf99dc1634c1e8b28811805f80a2005b3461001557602036600319011261001557600435610d0e816102c5565b5f54610d25906001600160a01b0316610486610f91565b600180546001600160a01b0319166001600160a01b039290921691821790557f68f49b346b94582a8b5f9d10e3fe3365318fe8f191ff8dce7c59c6cad06b02f55f80a2005b3461001557602036600319011261001557610328600435610d8a816102c5565b6111ec565b602060031982011261001557600435906001600160401b0382116100155761031091600401610904565b346100155761097136610d8f565b34610015575f366003190112610015576001546040516001600160a01b039091168152602090f35b34610015575f366003190112610015576001546001600160a01b0316338190036100155761032890611307565b346100155761040e610e2d36610d8f565b610e3561114f565b610e5360018060a01b03600354163314610e4d611116565b90610fb2565b9060ff60015460a81c165f14610e8057505f8152610e6f6111cb565b6020820152604051918291826109bc565b610e8a9150611388565b610a9e565b3461001557602036600319011261001557600435610eac816102c5565b5f54610ec3906001600160a01b0316610486610f91565b6001600160a01b03811615610edb5761032890611307565b60405162461bcd60e51b81526020600482015260116024820152704e6577204f776e6572206973207a65726f60781b6044820152606490fd5b34610015575f366003190112610015576003546040516001600160a01b039091168152602090f35b634e487b7160e01b5f52604160045260245ffd5b90601f801991011681019081106001600160401b03821117610f7157604052565b610f3c565b6001600160401b038111610f7157601f01601f191660200190565b60405190610fa0604083610f50565b600382526245333560e81b6020830152565b15610fba5750565b60405162461bcd60e51b815260206004820152908190610fde90602483019061036e565b0390fd5b610feb906111ec565b600380546001600160a01b0319166001600160a01b039290921691821790557fac431eb831269b53b41991f6cbfbfc93f4baa395996a8170abac93962b5a358e5f80a2565b8051600210156110405760600190565b634e487b7160e01b5f52603260045260245ffd5b60405190611063608083610f50565b60038252602082019160603684378092815115611040577f00000000000000000000000000000000000000000000000000000000000000006001600160a01b03169052805160011015611040577f00000000000000000000000000000000000000000000000000000000000000006001600160a01b031660408201526110e890611030565b7f00000000000000000000000000000000000000000000000000000000000000006001600160a01b03169052565b60405190611125604083610f50565b600382526245323760e81b6020830152565b6102e160018060a01b03600354163314610e4d611116565b60405190606082018281106001600160401b03821117610f715760405260606040835f81528260208201520152565b9250505061119a60018060a01b03600354163314610e4d611116565b60015460a81c60ff16156111bb575f81526111b36111cb565b602082015290565b506111c461114f565b6001815290565b604051906111da604083610f50565b6003825262229a1b60e91b6020830152565b60ff60015460a01c166112175761120290611307565b6001805460ff60a01b1916600160a01b179055565b60405162461bcd60e51b8152602060048201526013602482015272105b1c9958591e481a5b9a5d1a585b1a5e9959606a1b6044820152606490fd5b610fde604051611263604082610f50565b600381526245343960e81b602082015260405191829162461bcd60e51b8352602060048401818152019061036e565b5f546001600160a01b039081169116036112a857565b60405162461bcd60e51b815260206004820152603160248201527f41617665417574686f72697a65723a204f6e6c79206f776e65722063616e206360448201527030b636103a3434b990333ab731ba34b7b760791b6064820152608490fd5b60018060a01b0316806001600160601b0360a01b5f5416175f556001600160601b0360a01b600154166001557f038720101b9ced74445432ced46c7e5e4c80202669153dd67d226c66a0aa477b5f80a2565b3d15611383573d9061136a82610f76565b916113786040519384610f50565b82523d5f602084013e565b606090565b61139061114f565b6113998261153c565b1561151157505f806114f86114f86114fe610310956103f46114d06114e3604051936020808601526113de604086016113d1836102d6565b6001600160a01b03169052565b6113fd6113ed602083016102d6565b6001600160a01b03166060870152565b60408101356080860152611426611416606083016102d6565b6001600160a01b031660a0870152565b608081013560c086015260a08101906114ad8661149f61147f61145f61144c87876115a0565b61010060e08701526101408601916115d1565b61146c60c08701876115a0565b858303603f1901610100870152906115d1565b61148c60e08601866115a0565b848303603f1901610120860152906115d1565b03601f198101885287610f50565b6114de6114ba83836115f1565b9050604051958691602083019190602083019252565b03601f198101865285610f50565b6115f1565b96909360405196879560208701998a91611623565b90611630565b5190305afa61150b611359565b90611663565b90505f8152604051611524604082610f50565b600381526245353560e81b6020820152602082015290565b60600135611549816102c5565b611551611054565b906001600160a01b03165f5b825181101561159957825181101561104057600581901b8301602001516001600160a01b031682146115915760010161155d565b505050600190565b5050505f90565b9035601e19823603018112156100155701602081359101916001600160401b03821161001557813603831361001557565b908060209392818452848401375f828201840152601f01601f1916010190565b903590601e198136030182121561001557018035906001600160401b0382116100155760200191813603831361001557565b908092918237015f815290565b805191908290602001825e015f815290565b60405190611651604083610f50565b600382526245333960e81b6020830152565b919061166d61114f565b921561168757611681905115610e4d611642565b60018252565b60448151105f14611699576020830152565b6004810151810160248101919060209082900312610015576024810151906001600160401b038211610015570181604382011215610015576024810151906116e082610f76565b926116ee6040519485610f50565b8284526044828401011161001557815f926044602093018386015e83010152602083015256fea2646970667358221220d2e36ee2be15ca30dc1f0a5d3328a707b101f6c100d8d70edeb1744314c1025364736f6c634300081a0033","linkReferences":{}},"methodIdentifiers":{"NAME()":"a3f4df7e","Pool()":"07f3b8bb","RewardsController()":"5337f948","TYPE()":"bb24fe8a","VERSION()":"ffa1ad74","WTokenGateway()":"33c7649c","_NAME()":"08dbebf6","acceptOwner()":"ebbc4965","account()":"5dab2420","borrow(address,uint256,uint256,uint16,address)":"a415bcad","borrow(bytes32)":"d5eed868","borrowETH(address,uint256,uint256,uint16)":"66514c97","caller()":"fc9c8d39","claimAllRewards(address[],address)":"bb492bf5","claimRewards(address[],uint256,address,address)":"236300dc","contracts()":"6c0f79b6","depositETH(address,address,uint16)":"474cf53d","flag()":"890eba68","initialize(address)":"c4d66de8","initialize(address,address)":"485cc955","initialize(address,address,address)":"c0c53b8b","owner()":"8da5cb5b","paused()":"5c975abb","pendingOwner()":"e30c3978","postExecCheck((address,address,uint256,address,uint256,bytes,bytes,bytes),(bool,bytes,bytes),(uint8,string,bytes))":"9d5228e8","postExecProcess((address,address,uint256,address,uint256,bytes,bytes,bytes),(bool,bytes,bytes))":"7c4c833b","preExecCheck((address,address,uint256,address,uint256,bytes,bytes,bytes))":"f2660027","preExecProcess((address,address,uint256,address,uint256,bytes,bytes,bytes))":"d58c3fc3","renounceOwnership()":"715018a6","repay(address,uint256,uint256,address)":"573ade81","repay(bytes32)":"563dd613","repayETH(address,uint256,uint256,address)":"02c5fcf8","setAccount(address)":"29f6d57c","setCaller(address)":"beb92f55","setPaused(bool)":"16c38b3c","setPendingOwner(address)":"c42069ec","setTag(bytes32)":"b695e2ef","supply(address,uint256,address,uint16)":"617ba037","supply(bytes32)":"f7a73840","tag()":"51f91066","transferOwnership(address)":"f2fde38b","withdraw(address,uint256,address)":"69328dec","withdraw(bytes32)":"8e19899e","withdrawETH(address,uint256,address)":"80500d20"},"id":58}