{"abi":[{"type":"constructor","inputs":[{"name":"_owner","type":"address","internalType":"address"},{"name":"_caller","type":"address","internalType":"address"}],"stateMutability":"nonpayable"},{"type":"fallback","stateMutability":"nonpayable"},{"type":"function","name":"ADMIN","inputs":[],"outputs":[{"name":"","type":"address","internalType":"address"}],"stateMutability":"view"},{"type":"function","name":"MAX_AMOUNT","inputs":[],"outputs":[{"name":"","type":"uint256","internalType":"uint256"}],"stateMutability":"view"},{"type":"function","name":"NAME","inputs":[],"outputs":[{"name":"","type":"bytes32","internalType":"bytes32"}],"stateMutability":"view"},{"type":"function","name":"ROUTER","inputs":[],"outputs":[{"name":"","type":"address","internalType":"address"}],"stateMutability":"view"},{"type":"function","name":"TYPE","inputs":[],"outputs":[{"name":"","type":"bytes32","internalType":"bytes32"}],"stateMutability":"view"},{"type":"function","name":"VERSION","inputs":[],"outputs":[{"name":"","type":"uint256","internalType":"uint256"}],"stateMutability":"view"},{"type":"function","name":"_NAME","inputs":[],"outputs":[{"name":"","type":"string","internalType":"string"}],"stateMutability":"view"},{"type":"function","name":"acceptOwner","inputs":[],"outputs":[],"stateMutability":"nonpayable"},{"type":"function","name":"account","inputs":[],"outputs":[{"name":"","type":"address","internalType":"address"}],"stateMutability":"view"},{"type":"function","name":"addPoolAddress","inputs":[{"name":"_poolAddress","type":"address","internalType":"address"}],"outputs":[],"stateMutability":"nonpayable"},{"type":"function","name":"addPoolAddresses","inputs":[{"name":"_poolAddresses","type":"address[]","internalType":"address[]"}],"outputs":[],"stateMutability":"nonpayable"},{"type":"function","name":"caller","inputs":[],"outputs":[{"name":"","type":"address","internalType":"address"}],"stateMutability":"view"},{"type":"function","name":"contracts","inputs":[],"outputs":[{"name":"_contracts","type":"address[]","internalType":"address[]"}],"stateMutability":"view"},{"type":"function","name":"deposit","inputs":[{"name":"_shares","type":"uint256","internalType":"uint256"},{"name":"_receiver","type":"address","internalType":"address"},{"name":"_owner","type":"address","internalType":"address"}],"outputs":[],"stateMutability":"view"},{"type":"function","name":"execute","inputs":[{"name":"actions","type":"tuple[]","internalType":"struct ISiloRouter.Action[]","components":[{"name":"actionType","type":"uint8","internalType":"enum ISiloRouter.ActionType"},{"name":"silo","type":"address","internalType":"address"},{"name":"asset","type":"address","internalType":"contract IERC20"},{"name":"options","type":"bytes","internalType":"bytes"}]}],"outputs":[],"stateMutability":"view"},{"type":"function","name":"flag","inputs":[],"outputs":[{"name":"","type":"uint256","internalType":"uint256"}],"stateMutability":"view"},{"type":"function","name":"getPoolAddressWhiteList","inputs":[],"outputs":[{"name":"","type":"address[]","internalType":"address[]"}],"stateMutability":"view"},{"type":"function","name":"initialize","inputs":[{"name":"_owner","type":"address","internalType":"address"},{"name":"_caller","type":"address","internalType":"address"}],"outputs":[],"stateMutability":"nonpayable"},{"type":"function","name":"initialize","inputs":[{"name":"_owner","type":"address","internalType":"address"},{"name":"_caller","type":"address","internalType":"address"},{"name":"_account","type":"address","internalType":"address"}],"outputs":[],"stateMutability":"nonpayable"},{"type":"function","name":"initialize","inputs":[{"name":"_owner","type":"address","internalType":"address"}],"outputs":[],"stateMutability":"nonpayable"},{"type":"function","name":"owner","inputs":[],"outputs":[{"name":"","type":"address","internalType":"address"}],"stateMutability":"view"},{"type":"function","name":"paused","inputs":[],"outputs":[{"name":"","type":"bool","internalType":"bool"}],"stateMutability":"view"},{"type":"function","name":"pendingOwner","inputs":[],"outputs":[{"name":"","type":"address","internalType":"address"}],"stateMutability":"view"},{"type":"function","name":"postExecCheck","inputs":[{"name":"transaction","type":"tuple","internalType":"struct TransactionData","components":[{"name":"from","type":"address","internalType":"address"},{"name":"delegate","type":"address","internalType":"address"},{"name":"flag","type":"uint256","internalType":"uint256"},{"name":"to","type":"address","internalType":"address"},{"name":"value","type":"uint256","internalType":"uint256"},{"name":"data","type":"bytes","internalType":"bytes"},{"name":"hint","type":"bytes","internalType":"bytes"},{"name":"extra","type":"bytes","internalType":"bytes"}]},{"name":"callResult","type":"tuple","internalType":"struct TransactionResult","components":[{"name":"success","type":"bool","internalType":"bool"},{"name":"data","type":"bytes","internalType":"bytes"},{"name":"hint","type":"bytes","internalType":"bytes"}]},{"name":"preData","type":"tuple","internalType":"struct AuthorizerReturnData","components":[{"name":"result","type":"uint8","internalType":"enum AuthResult"},{"name":"message","type":"string","internalType":"string"},{"name":"data","type":"bytes","internalType":"bytes"}]}],"outputs":[{"name":"authData","type":"tuple","internalType":"struct AuthorizerReturnData","components":[{"name":"result","type":"uint8","internalType":"enum AuthResult"},{"name":"message","type":"string","internalType":"string"},{"name":"data","type":"bytes","internalType":"bytes"}]}],"stateMutability":"nonpayable"},{"type":"function","name":"postExecProcess","inputs":[{"name":"transaction","type":"tuple","internalType":"struct TransactionData","components":[{"name":"from","type":"address","internalType":"address"},{"name":"delegate","type":"address","internalType":"address"},{"name":"flag","type":"uint256","internalType":"uint256"},{"name":"to","type":"address","internalType":"address"},{"name":"value","type":"uint256","internalType":"uint256"},{"name":"data","type":"bytes","internalType":"bytes"},{"name":"hint","type":"bytes","internalType":"bytes"},{"name":"extra","type":"bytes","internalType":"bytes"}]},{"name":"callResult","type":"tuple","internalType":"struct TransactionResult","components":[{"name":"success","type":"bool","internalType":"bool"},{"name":"data","type":"bytes","internalType":"bytes"},{"name":"hint","type":"bytes","internalType":"bytes"}]}],"outputs":[],"stateMutability":"nonpayable"},{"type":"function","name":"preExecCheck","inputs":[{"name":"transaction","type":"tuple","internalType":"struct TransactionData","components":[{"name":"from","type":"address","internalType":"address"},{"name":"delegate","type":"address","internalType":"address"},{"name":"flag","type":"uint256","internalType":"uint256"},{"name":"to","type":"address","internalType":"address"},{"name":"value","type":"uint256","internalType":"uint256"},{"name":"data","type":"bytes","internalType":"bytes"},{"name":"hint","type":"bytes","internalType":"bytes"},{"name":"extra","type":"bytes","internalType":"bytes"}]}],"outputs":[{"name":"authData","type":"tuple","internalType":"struct AuthorizerReturnData","components":[{"name":"result","type":"uint8","internalType":"enum AuthResult"},{"name":"message","type":"string","internalType":"string"},{"name":"data","type":"bytes","internalType":"bytes"}]}],"stateMutability":"nonpayable"},{"type":"function","name":"preExecProcess","inputs":[{"name":"transaction","type":"tuple","internalType":"struct TransactionData","components":[{"name":"from","type":"address","internalType":"address"},{"name":"delegate","type":"address","internalType":"address"},{"name":"flag","type":"uint256","internalType":"uint256"},{"name":"to","type":"address","internalType":"address"},{"name":"value","type":"uint256","internalType":"uint256"},{"name":"data","type":"bytes","internalType":"bytes"},{"name":"hint","type":"bytes","internalType":"bytes"},{"name":"extra","type":"bytes","internalType":"bytes"}]}],"outputs":[],"stateMutability":"nonpayable"},{"type":"function","name":"redeem","inputs":[{"name":"_shares","type":"uint256","internalType":"uint256"},{"name":"_receiver","type":"address","internalType":"address"},{"name":"_owner","type":"address","internalType":"address"},{"name":"_collateralType","type":"uint8","internalType":"uint8"}],"outputs":[],"stateMutability":"view"},{"type":"function","name":"removePoolAddress","inputs":[{"name":"_poolAddress","type":"address","internalType":"address"}],"outputs":[],"stateMutability":"nonpayable"},{"type":"function","name":"renounceOwnership","inputs":[],"outputs":[],"stateMutability":"nonpayable"},{"type":"function","name":"repay","inputs":[{"name":"_assetAmount","type":"uint256","internalType":"uint256"},{"name":"_borrower","type":"address","internalType":"address"}],"outputs":[],"stateMutability":"view"},{"type":"function","name":"setAccount","inputs":[{"name":"_account","type":"address","internalType":"address"}],"outputs":[],"stateMutability":"nonpayable"},{"type":"function","name":"setAdmin","inputs":[{"name":"_admin","type":"address","internalType":"address"}],"outputs":[],"stateMutability":"nonpayable"},{"type":"function","name":"setCaller","inputs":[{"name":"_caller","type":"address","internalType":"address"}],"outputs":[],"stateMutability":"nonpayable"},{"type":"function","name":"setMaxAmount","inputs":[{"name":"_maxAmount","type":"uint256","internalType":"uint256"}],"outputs":[],"stateMutability":"nonpayable"},{"type":"function","name":"setPaused","inputs":[{"name":"_paused","type":"bool","internalType":"bool"}],"outputs":[],"stateMutability":"nonpayable"},{"type":"function","name":"setPendingOwner","inputs":[{"name":"to","type":"address","internalType":"address"}],"outputs":[],"stateMutability":"nonpayable"},{"type":"function","name":"setTag","inputs":[{"name":"_tag","type":"bytes32","internalType":"bytes32"}],"outputs":[],"stateMutability":"nonpayable"},{"type":"function","name":"tag","inputs":[],"outputs":[{"name":"","type":"bytes32","internalType":"bytes32"}],"stateMutability":"view"},{"type":"function","name":"transferOwnership","inputs":[{"name":"newOwner","type":"address","internalType":"address"}],"outputs":[],"stateMutability":"nonpayable"},{"type":"function","name":"withdraw","inputs":[{"name":"_shares","type":"uint256","internalType":"uint256"},{"name":"_receiver","type":"address","internalType":"address"},{"name":"_owner","type":"address","internalType":"address"}],"outputs":[],"stateMutability":"view"},{"type":"event","name":"AccountSet","inputs":[{"name":"account","type":"address","indexed":true,"internalType":"address"}],"anonymous":false},{"type":"event","name":"CallerSet","inputs":[{"name":"caller","type":"address","indexed":true,"internalType":"address"}],"anonymous":false},{"type":"event","name":"NewOwnerSet","inputs":[{"name":"owner","type":"address","indexed":true,"internalType":"address"}],"anonymous":false},{"type":"event","name":"PausedSet","inputs":[{"name":"status","type":"bool","indexed":true,"internalType":"bool"}],"anonymous":false},{"type":"event","name":"PendingOwnerSet","inputs":[{"name":"to","type":"address","indexed":true,"internalType":"address"}],"anonymous":false},{"type":"event","name":"TagSet","inputs":[{"name":"tag","type":"bytes32","indexed":true,"internalType":"bytes32"}],"anonymous":false}],"bytecode":{"object":"0x6080346100ea57601f611ec538819003918201601f19168301916001600160401b038311848410176100ee5780849260409485528339810103126100ea57610052602061004b83610102565b9201610102565b6001545f80546001600160a01b0319166001600160a01b03909416938417815560405193907f038720101b9ced74445432ced46c7e5e4c80202669153dd67d226c66a0aa477b9080a26001600160b01b031916600160a01b176001555f600255600380546001600160a01b0319166001600160a01b0392909216919091179055678ac7230489e80000600755611dae90816101178239f35b5f80fd5b634e487b7160e01b5f52604160045260245ffd5b51906001600160a01b03821682036100ea5756fe60806040526004361015610019575b34156115a6575b5f80fd5b5f3560e01c806308dbebf6146102a457806316c38b3c1461029f57806329f6d57c1461029a5780632a0acc6a146102955780632e2d29841461029057806332fe7b261461028b5780634349984414610286578063485cc955146102815780634fe47f701461027c57806351f91066146102775780635b72ec83146102725780635c975abb1461026d5780635dab2420146102685780636c0f79b614610263578063704b6c021461025e578063715018a6146102595780637a796db4146102545780637c4c833b1461024f578063838c00391461024a578063890eba68146101e15780638da5cb5b146102455780639d5228e814610240578063a3f4df7e1461023b578063acb7081514610236578063b460af9414610231578063b695e2ef1461022c578063bb24fe8a14610227578063beb92f5514610222578063c0c53b8b1461021d578063c3cd3eda14610218578063c42069ec14610213578063c4d66de81461020e578063d40dc87014610209578063d58c3fc314610204578063da537660146101ff578063e30c3978146101fa578063ebbc4965146101f5578063f2660027146101f0578063f2fde38b146101eb578063fc9c8d39146101e65763ffa1ad740361000e575b61099b565b610fc3565b610f3e565b610ecb565b610e9e565b610e76565b610e35565b610e27565b610de0565b610dbb565b610d42565b610ce7565b610c69565b610bb8565b610b90565b610b3a565b610b1e565b610afe565b610ad0565b610a3f565b6109b6565b610958565b6108ff565b610851565b610780565b61072a565b61070f565b6106e7565b6106c2565b61069b565b61063c565b61060e565b6105cd565b61058a565b61055c565b61052c565b6104db565b610429565b61038f565b6102e1565b805180835260209291819084018484015e5f828201840152601f01601f1916010190565b9060206102de9281815201906102a9565b90565b34610015575f366003190112610015576040516351fa6fbf60e11b8152602081600481305afa908115610384575f91610350575b61034c610332610340846040519283916020830160209181520190565b03601f198101835282610804565b604051918291826102cd565b0390f35b90506020813d60201161037c575b8161036b60209383610804565b810103126100155751610332610315565b3d915061035e565b6040513d5f823e3d90fd5b3461001557602036600319011261001557600435801515809103610015575f546103cc906001600160a01b03166103c4611006565b903314611027565b6001805460ff60a81b191660a883901b60ff60a81b161790557f40db37ff5c0bdc2c427fbb2078c8f24afea940abac0e3c23bb4ea3bf2da2b2125f80a2005b6001600160a01b0381160361001557565b35906104278261040b565b565b34610015576020366003190112610015576004356104468161040b565b5f5461045d906001600160a01b03166103c4611006565b6001600160a01b031680156104a457600480546001600160a01b031916821790557f195359283029fbdb9a24519b1ec07caf1677655529bf99dc1634c1e8b28811805f80a2005b60405162461bcd60e51b815260206004820152600f60248201526e125b9d985b1a59081858d8dbdd5b9d608a1b6044820152606490fd5b34610015575f366003190112610015576008546040516001600160a01b039091168152602090f35b6060906003190112610015576004359060243561051f8161040b565b906044356102de8161040b565b346100155761055a61054b61055061054336610503565b9193906115e6565b6115e6565b6007541015611057565b005b34610015575f3660031901126100155760206040517322aacdec57b13911de9f188cf69633cc537bdb768152f35b346100155760203660031901126100155761055a6004356105aa8161040b565b6105bf60018060a01b036008541633146110ae565b6001600160a01b0316611a0b565b346100155760403660031901126100155761055a6004356105ed8161040b565b602435906105fa8261040b565b611104565b90816020910312610015573590565b346100155760203660031901126100155760043561063760018060a01b036008541633146110ae565b600755005b34610015575f366003190112610015576020600254604051908152f35b60206040818301928281528451809452019201905f5b81811061067c5750505090565b82516001600160a01b031684526020938401939092019160010161066f565b34610015575f3660031901126100155761034c6106b6611a85565b60405191829182610659565b34610015575f36600319011261001557602060ff60015460a81c166040519015158152f35b34610015575f366003190112610015576004546040516001600160a01b039091168152602090f35b34610015575f3660031901126100155761034c6106b66111a6565b34610015576020366003190112610015576004356107478161040b565b5f5461075e906001600160a01b03166103c4611006565b600880546001600160a01b0319166001600160a01b0392909216919091179055005b34610015575f366003190112610015575f546107a7906001600160a01b03166103c4611006565b6001600160601b0360a01b5f54165f556001600160601b0360a01b600154166001555f7f038720101b9ced74445432ced46c7e5e4c80202669153dd67d226c66a0aa477b8180a2005b634e487b7160e01b5f52604160045260245ffd5b90601f801991011681019081106001600160401b0382111761082557604052565b6107f0565b6040519061042761010083610804565b6001600160401b0381116108255760051b60200190565b34610015576020366003190112610015576004356001600160401b03811161001557366023820112156100155780600401359061088d8261083a565b9161089b6040519384610804565b8083526024602084019160051b8301019136831161001557602401905b8282106108c85761055a84611263565b6020809183356108d78161040b565b8152019101906108b8565b90816101009103126100155790565b908160609103126100155790565b34610015576040366003190112610015576004356001600160401b0381116100155761092f9036906004016108e2565b506024356001600160401b0381116100155761094f9036906004016108f1565b5061055a6112d0565b346100155760203660031901126100155761055a6004356109788161040b565b61098d60018060a01b036008541633146110ae565b6001600160a01b0316611b08565b34610015575f36600319011261001557602060405160018152f35b34610015575f366003190112610015575f546040516001600160a01b039091168152602090f35b634e487b7160e01b5f52602160045260245ffd5b90602082528051916002831015610a3a576102de9260208201526040610a25602084015160608385015260808401906102a9565b920151906060601f19828503019101526102a9565b6109dd565b34610015576060366003190112610015576004356001600160401b03811161001557610a6f9036906004016108e2565b6024356001600160401b03811161001557610a8e9036906004016108f1565b90604435906001600160401b0382116100155761034c92610ab6610ac49336906004016108f1565b91610abf6112e8565b611317565b604051918291826109f1565b34610015575f366003190112610015576040516f53696c6f417574686f72697a6572563360801b8152602090f35b346100155760403660031901126100155761055a60243561054b8161040b565b346100155761055a61054b610b3236610503565b9291506115e6565b34610015576020366003190112610015575f5460043590610b66906001600160a01b03166103c4611006565b806002557fef711e3eb06966d227e22eb4fa0302550dcd7257cf69b537cf4d37af53ea9cda5f80a2005b34610015575f3660031901126100155760405169436f6d6d6f6e5479706560b01b8152602090f35b3461001557602036600319011261001557600435610bd58161040b565b5f54610bec906001600160a01b03166103c4611006565b6001600160a01b03168015610c3357600380546001600160a01b031916821790557fac431eb831269b53b41991f6cbfbfc93f4baa395996a8170abac93962b5a358e5f80a2005b60405162461bcd60e51b815260206004820152600e60248201526d24b73b30b634b21031b0b63632b960911b6044820152606490fd5b3461001557606036600319011261001557600435610c868161040b565b610ca2602435610c958161040b565b604435926105fa8461040b565b600480546001600160a01b0319166001600160a01b039290921691821790557f195359283029fbdb9a24519b1ec07caf1677655529bf99dc1634c1e8b28811805f80a2005b34610015576020366003190112610015576004356001600160401b03811161001557366023820112156100155780600401356001600160401b038111610015573660248260051b8401011161001557602461055a9201611385565b3461001557602036600319011261001557600435610d5f8161040b565b5f54610d76906001600160a01b03166103c4611006565b600180546001600160a01b0319166001600160a01b039290921691821790557f68f49b346b94582a8b5f9d10e3fe3365318fe8f191ff8dce7c59c6cad06b02f55f80a2005b346100155760203660031901126100155761055a600435610ddb8161040b565b611540565b34610015575f366003190112610015576020600754604051908152f35b602060031982011261001557600435906001600160401b038211610015576102de916004016108e2565b346100155761094f36610dfd565b3461001557608036600319011261001557602435610e528161040b565b604435610e5e8161040b565b60643560ff8116036100155761054b61055a926115e6565b34610015575f366003190112610015576001546040516001600160a01b039091168152602090f35b34610015575f366003190112610015576001546001600160a01b0316338190036100155761055a90611643565b346100155761034c610edc36610dfd565b610ee46112e8565b610f0260018060a01b03600354163314610efc6112af565b90611027565b9060ff60015460a81c165f14610f2f57505f8152610f1e611364565b6020820152604051918291826109f1565b610f399150611825565b610ac4565b3461001557602036600319011261001557600435610f5b8161040b565b5f54610f72906001600160a01b03166103c4611006565b6001600160a01b03811615610f8a5761055a90611643565b60405162461bcd60e51b81526020600482015260116024820152704e6577204f776e6572206973207a65726f60781b6044820152606490fd5b34610015575f366003190112610015576003546040516001600160a01b039091168152602090f35b6001600160401b03811161082557601f01601f191660200190565b60405190611015604083610804565b600382526245333560e81b6020830152565b1561102f5750565b60405162461bcd60e51b8152602060048201529081906110539060248301906102a9565b0390fd5b1561105e57565b60405162461bcd60e51b815260206004820152602260248201527f416d6f756e74206578636565647320746865206d6178696d756d20616c6c6f77604482015261195960f21b6064820152608490fd5b156110b557565b60405162461bcd60e51b815260206004820152602160248201527f4f6e6c792061646d696e2063616e2063616c6c20746869732066756e6374696f6044820152603760f91b6064820152608490fd5b61110d90611540565b600380546001600160a01b0319166001600160a01b039290921691821790557fac431eb831269b53b41991f6cbfbfc93f4baa395996a8170abac93962b5a358e5f80a2565b634e487b7160e01b5f52601160045260245ffd5b906001820180921161117457565b611152565b634e487b7160e01b5f52603260045260245ffd5b80518210156111a15760209160051b010190565b611179565b6111ae611a85565b9081516001019182600111611174576111df6111c98461083a565b936111d76040519586610804565b80855261083a565b6020840190601f190136823783908451156111a1577322aacdec57b13911de9f188cf69633cc537bdb7690525f5b825181101561125d57806112576112366112296001948761118d565b516001600160a01b031690565b61124861124284611166565b8961118d565b6001600160a01b039091169052565b0161120d565b50925050565b9061127960018060a01b036008541633146110ae565b5f5b82518110156112aa576001906112a36001600160a01b0361129c838761118d565b5116611a0b565b500161127b565b509050565b604051906112be604083610804565b600382526245323760e81b6020830152565b61042760018060a01b03600354163314610efc6112af565b60405190606082018281106001600160401b038211176108255760405260606040835f81528260208201520152565b9250505061133360018060a01b03600354163314610efc6112af565b60015460a81c60ff1615611354575f815261134c611364565b602082015290565b5061135d6112e8565b6001815290565b60405190611373604083610804565b6003825262229a1b60e91b6020830152565b91906001600160a01b0360606113996116e2565b0151167322aacdec57b13911de9f188cf69633cc537bdb7603611429579036839003607e1901905f5b83811015611422578060051b8501359083821215610015576113ef6113ea60019388016114a7565b611533565b6113f881611529565b15611404575b016113c2565b61141d60806114116116e2565b01516007541015611057565b6113fe565b5092505050565b60405162461bcd60e51b815260206004820152601060248201526f125b9d985b1a590818dbdb9d1c9858dd60821b6044820152606490fd5b81601f820112156100155780359061147882610feb565b926114866040519485610804565b8284526020838301011161001557815f926020809301838601378301015290565b6080813603126100155760405190608082018281106001600160401b03821117610825576040528035600481101561001557825260208101356114e98161040b565b602083015260408101356114fc8161040b565b60408301526060810135906001600160401b0382116100155761152191369101611461565b606082015290565b60041115610a3a57565b516004811015610a3a5790565b60ff60015460a01c1661156b5761155690611643565b6001805460ff60a01b1916600160a01b179055565b60405162461bcd60e51b8152602060048201526013602482015272105b1c9958591e481a5b9a5d1a585b1a5e9959606a1b6044820152606490fd5b6110536040516115b7604082610804565b600381526245343960e81b602082015260405191829162461bcd60e51b835260206004840181815201906102a9565b6001600160a01b036115f66116e2565b51166001600160a01b039091160361160a57565b60405162461bcd60e51b8152602060048201526011602482015270125b9d985b1a59081c9958da5c1a595b9d607a1b6044820152606490fd5b60018060a01b0316806001600160601b0360a01b5f5416175f556001600160601b0360a01b600154166001557f038720101b9ced74445432ced46c7e5e4c80202669153dd67d226c66a0aa477b5f80a2565b6040519061010082018281106001600160401b0382111761082557604052606060e0835f81525f60208201525f60408201525f838201525f60808201528260a08201528260c08201520152565b6116ea611695565b506116f3611695565b50601f1936013681116111745761170b9036906105ff565b36811161001557803603810190602081830312610015578035906001600160401b0382116100155701610100818303126100155761174761082a565b916117518261041c565b835261175f6020830161041c565b60208401526040820135604084015261177a6060830161041c565b60608401526080820135608084015260a08201356001600160401b03811161001557816117a8918401611461565b60a084015260c08201356001600160401b03811161001557816117cc918401611461565b60c084015260e08201356001600160401b038111610015576117ee9201611461565b60e082015290565b3d15611820573d9061180782610feb565b916118156040519384610804565b82523d5f602084013e565b606090565b61182d6112e8565b61183682611ba9565b156119ae57505f8061199561199561199b6102de9561033261196d6119806040519360208086015261187b6040860161186e8361041c565b6001600160a01b03169052565b61189a61188a6020830161041c565b6001600160a01b03166060870152565b604081013560808601526118c36118b36060830161041c565b6001600160a01b031660a0870152565b608081013560c086015260a081019061194a8661193c61191c6118fc6118e98787611c04565b61010060e0870152610140860191611c35565b61190960c0870187611c04565b858303603f190161010087015290611c35565b61192960e0860186611c04565b848303603f190161012086015290611c35565b03601f198101885287610804565b61197b6119578383611c55565b9050604051958691602083019190602083019252565b03601f198101865285610804565b611c55565b96909360405196879560208701998a91611c87565b90611c94565b5190305afa6119a86117f6565b90611cc7565b90505f81526040516119c1604082610804565b600381526245353560e81b6020820152602082015290565b80548210156111a1575f5260205f2001905f90565b91611a079183549060031b91821b915f19901b19161790565b9055565b805f52600660205260405f2054155f14611a80576005546801000000000000000081101561082557600181016005556005548110156111a1577f036b6384b5eca791c62761152d0c79bb0604c104a5fb6f4eb0703f3154bb3db0018190556005545f9182526006602052604090912055600190565b505f90565b60405190600554808352826020810160055f5260205f20925f5b818110611ab457505061042792500383610804565b8454835260019485019487945060209093019201611a9f565b80548015611af4575f190190611ae382826119d9565b8154905f199060031b1b1916905555565b634e487b7160e01b5f52603160045260245ffd5b5f81815260066020526040902054908115611ba3575f19820190828211611174576005545f198101939084116111745783835f95611b629503611b68575b505050611b536005611acd565b6006905f5260205260405f2090565b55600190565b611b53611b9491611b8a611b80611b9a9560056119d9565b90549060031b1c90565b92839160056119d9565b906119ee565b555f8080611b46565b50505f90565b60600135611bb68161040b565b611bbe6111a6565b906001600160a01b03165f5b8251811015611bfd576001600160a01b03611be5828561118d565b51168214611bf557600101611bca565b505050600190565b5050505f90565b9035601e19823603018112156100155701602081359101916001600160401b03821161001557813603831361001557565b908060209392818452848401375f828201840152601f01601f1916010190565b903590601e198136030182121561001557018035906001600160401b0382116100155760200191813603831361001557565b908092918237015f815290565b805191908290602001825e015f815290565b60405190611cb5604083610804565b600382526245333960e81b6020830152565b9190611cd16112e8565b9215611ceb57611ce5905115610efc611ca6565b60018252565b60448151105f14611cfd576020830152565b6004810151810160248101919060209082900312610015576024810151906001600160401b03821161001557018160438201121561001557602481015190611d4482610feb565b92611d526040519485610804565b8284526044828401011161001557815f926044602093018386015e83010152602083015256fea264697066735822122054edf82156814f44293c62fcb7cc45a4e70a2a6849bc3adb9c45d6ad6d93854064736f6c634300081a0033","linkReferences":{}},"methodIdentifiers":{"ADMIN()":"2a0acc6a","MAX_AMOUNT()":"d40dc870","NAME()":"a3f4df7e","ROUTER()":"32fe7b26","TYPE()":"bb24fe8a","VERSION()":"ffa1ad74","_NAME()":"08dbebf6","acceptOwner()":"ebbc4965","account()":"5dab2420","addPoolAddress(address)":"43499844","addPoolAddresses(address[])":"7a796db4","caller()":"fc9c8d39","contracts()":"6c0f79b6","deposit(uint256,address,address)":"2e2d2984","execute((uint8,address,address,bytes)[])":"c3cd3eda","flag()":"890eba68","getPoolAddressWhiteList()":"5b72ec83","initialize(address)":"c4d66de8","initialize(address,address)":"485cc955","initialize(address,address,address)":"c0c53b8b","owner()":"8da5cb5b","paused()":"5c975abb","pendingOwner()":"e30c3978","postExecCheck((address,address,uint256,address,uint256,bytes,bytes,bytes),(bool,bytes,bytes),(uint8,string,bytes))":"9d5228e8","postExecProcess((address,address,uint256,address,uint256,bytes,bytes,bytes),(bool,bytes,bytes))":"7c4c833b","preExecCheck((address,address,uint256,address,uint256,bytes,bytes,bytes))":"f2660027","preExecProcess((address,address,uint256,address,uint256,bytes,bytes,bytes))":"d58c3fc3","redeem(uint256,address,address,uint8)":"da537660","removePoolAddress(address)":"838c0039","renounceOwnership()":"715018a6","repay(uint256,address)":"acb70815","setAccount(address)":"29f6d57c","setAdmin(address)":"704b6c02","setCaller(address)":"beb92f55","setMaxAmount(uint256)":"4fe47f70","setPaused(bool)":"16c38b3c","setPendingOwner(address)":"c42069ec","setTag(bytes32)":"b695e2ef","tag()":"51f91066","transferOwnership(address)":"f2fde38b","withdraw(uint256,address,address)":"b460af94"},"id":64}