{"abi":[{"type":"constructor","inputs":[{"name":"_owner","type":"address","internalType":"address"},{"name":"_caller","type":"address","internalType":"address"}],"stateMutability":"nonpayable"},{"type":"fallback","stateMutability":"nonpayable"},{"type":"function","name":"NAME","inputs":[],"outputs":[{"name":"","type":"bytes32","internalType":"bytes32"}],"stateMutability":"view"},{"type":"function","name":"ROUTER","inputs":[],"outputs":[{"name":"","type":"address","internalType":"address"}],"stateMutability":"view"},{"type":"function","name":"TYPE","inputs":[],"outputs":[{"name":"","type":"bytes32","internalType":"bytes32"}],"stateMutability":"view"},{"type":"function","name":"VERSION","inputs":[],"outputs":[{"name":"","type":"uint256","internalType":"uint256"}],"stateMutability":"view"},{"type":"function","name":"_NAME","inputs":[],"outputs":[{"name":"","type":"string","internalType":"string"}],"stateMutability":"view"},{"type":"function","name":"acceptOwner","inputs":[],"outputs":[],"stateMutability":"nonpayable"},{"type":"function","name":"account","inputs":[],"outputs":[{"name":"","type":"address","internalType":"address"}],"stateMutability":"view"},{"type":"function","name":"addPoolAddresses","inputs":[{"name":"_poolAddresses","type":"address[]","internalType":"address[]"}],"outputs":[],"stateMutability":"nonpayable"},{"type":"function","name":"addPoolIds","inputs":[{"name":"_poolIds","type":"uint256[]","internalType":"uint256[]"}],"outputs":[],"stateMutability":"nonpayable"},{"type":"function","name":"caller","inputs":[],"outputs":[{"name":"","type":"address","internalType":"address"}],"stateMutability":"view"},{"type":"function","name":"contracts","inputs":[],"outputs":[{"name":"_contracts","type":"address[]","internalType":"address[]"}],"stateMutability":"view"},{"type":"function","name":"deposit","inputs":[{"name":"_shares","type":"uint256","internalType":"uint256"},{"name":"_receiver","type":"address","internalType":"address"},{"name":"_owner","type":"address","internalType":"address"}],"outputs":[],"stateMutability":"view"},{"type":"function","name":"execute","inputs":[{"name":"actions","type":"tuple[]","internalType":"struct ISiloRouter.Action[]","components":[{"name":"actionType","type":"uint8","internalType":"enum ISiloRouter.ActionType"},{"name":"silo","type":"address","internalType":"address"},{"name":"asset","type":"address","internalType":"contract IERC20"},{"name":"options","type":"bytes","internalType":"bytes"}]}],"outputs":[],"stateMutability":"view"},{"type":"function","name":"flag","inputs":[],"outputs":[{"name":"","type":"uint256","internalType":"uint256"}],"stateMutability":"view"},{"type":"function","name":"getPoolAddressWhiteList","inputs":[],"outputs":[{"name":"","type":"address[]","internalType":"address[]"}],"stateMutability":"view"},{"type":"function","name":"getPoolIdWhiteList","inputs":[],"outputs":[{"name":"","type":"uint256[]","internalType":"uint256[]"}],"stateMutability":"view"},{"type":"function","name":"initialize","inputs":[{"name":"_owner","type":"address","internalType":"address"},{"name":"_caller","type":"address","internalType":"address"}],"outputs":[],"stateMutability":"nonpayable"},{"type":"function","name":"initialize","inputs":[{"name":"_owner","type":"address","internalType":"address"},{"name":"_caller","type":"address","internalType":"address"},{"name":"_account","type":"address","internalType":"address"}],"outputs":[],"stateMutability":"nonpayable"},{"type":"function","name":"initialize","inputs":[{"name":"_owner","type":"address","internalType":"address"}],"outputs":[],"stateMutability":"nonpayable"},{"type":"function","name":"owner","inputs":[],"outputs":[{"name":"","type":"address","internalType":"address"}],"stateMutability":"view"},{"type":"function","name":"paused","inputs":[],"outputs":[{"name":"","type":"bool","internalType":"bool"}],"stateMutability":"view"},{"type":"function","name":"pendingOwner","inputs":[],"outputs":[{"name":"","type":"address","internalType":"address"}],"stateMutability":"view"},{"type":"function","name":"postExecCheck","inputs":[{"name":"transaction","type":"tuple","internalType":"struct TransactionData","components":[{"name":"from","type":"address","internalType":"address"},{"name":"delegate","type":"address","internalType":"address"},{"name":"flag","type":"uint256","internalType":"uint256"},{"name":"to","type":"address","internalType":"address"},{"name":"value","type":"uint256","internalType":"uint256"},{"name":"data","type":"bytes","internalType":"bytes"},{"name":"hint","type":"bytes","internalType":"bytes"},{"name":"extra","type":"bytes","internalType":"bytes"}]},{"name":"callResult","type":"tuple","internalType":"struct TransactionResult","components":[{"name":"success","type":"bool","internalType":"bool"},{"name":"data","type":"bytes","internalType":"bytes"},{"name":"hint","type":"bytes","internalType":"bytes"}]},{"name":"preData","type":"tuple","internalType":"struct AuthorizerReturnData","components":[{"name":"result","type":"uint8","internalType":"enum AuthResult"},{"name":"message","type":"string","internalType":"string"},{"name":"data","type":"bytes","internalType":"bytes"}]}],"outputs":[{"name":"authData","type":"tuple","internalType":"struct AuthorizerReturnData","components":[{"name":"result","type":"uint8","internalType":"enum AuthResult"},{"name":"message","type":"string","internalType":"string"},{"name":"data","type":"bytes","internalType":"bytes"}]}],"stateMutability":"nonpayable"},{"type":"function","name":"postExecProcess","inputs":[{"name":"transaction","type":"tuple","internalType":"struct TransactionData","components":[{"name":"from","type":"address","internalType":"address"},{"name":"delegate","type":"address","internalType":"address"},{"name":"flag","type":"uint256","internalType":"uint256"},{"name":"to","type":"address","internalType":"address"},{"name":"value","type":"uint256","internalType":"uint256"},{"name":"data","type":"bytes","internalType":"bytes"},{"name":"hint","type":"bytes","internalType":"bytes"},{"name":"extra","type":"bytes","internalType":"bytes"}]},{"name":"callResult","type":"tuple","internalType":"struct TransactionResult","components":[{"name":"success","type":"bool","internalType":"bool"},{"name":"data","type":"bytes","internalType":"bytes"},{"name":"hint","type":"bytes","internalType":"bytes"}]}],"outputs":[],"stateMutability":"nonpayable"},{"type":"function","name":"preExecCheck","inputs":[{"name":"transaction","type":"tuple","internalType":"struct TransactionData","components":[{"name":"from","type":"address","internalType":"address"},{"name":"delegate","type":"address","internalType":"address"},{"name":"flag","type":"uint256","internalType":"uint256"},{"name":"to","type":"address","internalType":"address"},{"name":"value","type":"uint256","internalType":"uint256"},{"name":"data","type":"bytes","internalType":"bytes"},{"name":"hint","type":"bytes","internalType":"bytes"},{"name":"extra","type":"bytes","internalType":"bytes"}]}],"outputs":[{"name":"authData","type":"tuple","internalType":"struct AuthorizerReturnData","components":[{"name":"result","type":"uint8","internalType":"enum AuthResult"},{"name":"message","type":"string","internalType":"string"},{"name":"data","type":"bytes","internalType":"bytes"}]}],"stateMutability":"nonpayable"},{"type":"function","name":"preExecProcess","inputs":[{"name":"transaction","type":"tuple","internalType":"struct TransactionData","components":[{"name":"from","type":"address","internalType":"address"},{"name":"delegate","type":"address","internalType":"address"},{"name":"flag","type":"uint256","internalType":"uint256"},{"name":"to","type":"address","internalType":"address"},{"name":"value","type":"uint256","internalType":"uint256"},{"name":"data","type":"bytes","internalType":"bytes"},{"name":"hint","type":"bytes","internalType":"bytes"},{"name":"extra","type":"bytes","internalType":"bytes"}]}],"outputs":[],"stateMutability":"nonpayable"},{"type":"function","name":"redeem","inputs":[{"name":"_shares","type":"uint256","internalType":"uint256"},{"name":"_receiver","type":"address","internalType":"address"},{"name":"_owner","type":"address","internalType":"address"}],"outputs":[],"stateMutability":"view"},{"type":"function","name":"removePoolAddresses","inputs":[{"name":"_poolAddresses","type":"address[]","internalType":"address[]"}],"outputs":[],"stateMutability":"nonpayable"},{"type":"function","name":"removePoolIds","inputs":[{"name":"_poolIds","type":"uint256[]","internalType":"uint256[]"}],"outputs":[],"stateMutability":"nonpayable"},{"type":"function","name":"renounceOwnership","inputs":[],"outputs":[],"stateMutability":"nonpayable"},{"type":"function","name":"repay","inputs":[{"name":"_assetAmount","type":"uint256","internalType":"uint256"},{"name":"_borrower","type":"address","internalType":"address"}],"outputs":[],"stateMutability":"view"},{"type":"function","name":"setAccount","inputs":[{"name":"_account","type":"address","internalType":"address"}],"outputs":[],"stateMutability":"nonpayable"},{"type":"function","name":"setCaller","inputs":[{"name":"_caller","type":"address","internalType":"address"}],"outputs":[],"stateMutability":"nonpayable"},{"type":"function","name":"setPaused","inputs":[{"name":"_paused","type":"bool","internalType":"bool"}],"outputs":[],"stateMutability":"nonpayable"},{"type":"function","name":"setPendingOwner","inputs":[{"name":"to","type":"address","internalType":"address"}],"outputs":[],"stateMutability":"nonpayable"},{"type":"function","name":"setTag","inputs":[{"name":"_tag","type":"bytes32","internalType":"bytes32"}],"outputs":[],"stateMutability":"nonpayable"},{"type":"function","name":"tag","inputs":[],"outputs":[{"name":"","type":"bytes32","internalType":"bytes32"}],"stateMutability":"view"},{"type":"function","name":"transferOwnership","inputs":[{"name":"newOwner","type":"address","internalType":"address"}],"outputs":[],"stateMutability":"nonpayable"},{"type":"function","name":"withdraw","inputs":[{"name":"_shares","type":"uint256","internalType":"uint256"},{"name":"_receiver","type":"address","internalType":"address"},{"name":"_owner","type":"address","internalType":"address"}],"outputs":[],"stateMutability":"view"},{"type":"event","name":"AccountSet","inputs":[{"name":"account","type":"address","indexed":true,"internalType":"address"}],"anonymous":false},{"type":"event","name":"AddPoolAddressWhitelist","inputs":[{"name":"_poolAddress","type":"address","indexed":true,"internalType":"address"},{"name":"user","type":"address","indexed":true,"internalType":"address"}],"anonymous":false},{"type":"event","name":"AddPoolIdWhitelist","inputs":[{"name":"_poolId","type":"uint256","indexed":true,"internalType":"uint256"},{"name":"user","type":"address","indexed":true,"internalType":"address"}],"anonymous":false},{"type":"event","name":"CallerSet","inputs":[{"name":"caller","type":"address","indexed":true,"internalType":"address"}],"anonymous":false},{"type":"event","name":"NewOwnerSet","inputs":[{"name":"owner","type":"address","indexed":true,"internalType":"address"}],"anonymous":false},{"type":"event","name":"PausedSet","inputs":[{"name":"status","type":"bool","indexed":true,"internalType":"bool"}],"anonymous":false},{"type":"event","name":"PendingOwnerSet","inputs":[{"name":"to","type":"address","indexed":true,"internalType":"address"}],"anonymous":false},{"type":"event","name":"RemovePoolAddressWhitelist","inputs":[{"name":"_poolAddress","type":"address","indexed":true,"internalType":"address"},{"name":"user","type":"address","indexed":true,"internalType":"address"}],"anonymous":false},{"type":"event","name":"RemovePoolIdWhitelist","inputs":[{"name":"_poolId","type":"uint256","indexed":true,"internalType":"uint256"},{"name":"user","type":"address","indexed":true,"internalType":"address"}],"anonymous":false},{"type":"event","name":"TagSet","inputs":[{"name":"tag","type":"bytes32","indexed":true,"internalType":"bytes32"}],"anonymous":false}],"bytecode":{"object":"0x60a03461010d57601f611f9338819003918201601f19168301916001600160401b0383118484101761011157808492604094855283398101031261010d57610052602061004b83610125565b9201610125565b6001545f80546001600160a01b0319166001600160a01b03909416938417815560405193907f038720101b9ced74445432ced46c7e5e4c80202669153dd67d226c66a0aa477b9080a26001600160b01b031916600160a01b176001555f600255600380546001600160a01b0319166001600160a01b03929092169190911790557322aacdec57b13911de9f188cf69633cc537bdb76608052611e59908161013a82396080518181816105d501528181610e5101526113170152f35b5f80fd5b634e487b7160e01b5f52604160045260245ffd5b51906001600160a01b038216820361010d5756fe60806040526004361015610019575b341561156d575b5f80fd5b5f3560e01c806308dbebf61461027a57806316c38b3c146102755780631fd6d9591461027057806329f6d57c1461026b5780632e2d29841461020c57806332fe7b26146102665780633e92ef78146102615780633ff7916c1461025c578063485cc9551461025757806351f91066146102525780635b72ec831461024d5780635c975abb146102485780635cb81a0d146102435780635dab24201461023e5780636c0f79b614610239578063715018a6146102345780637a796db41461022f5780637c4c833b1461022a578063890eba68146101cb5780638da5cb5b146102255780639d5228e814610220578063a3f4df7e1461021b578063acb7081514610216578063b460af941461020c578063b695e2ef14610211578063ba0876521461020c578063bb24fe8a14610207578063beb92f5514610202578063c0c53b8b146101fd578063c3cd3eda146101f8578063c42069ec146101f3578063c4d66de8146101ee578063d58c3fc3146101e9578063e30c3978146101e4578063ebbc4965146101df578063f2660027146101da578063f2fde38b146101d5578063fc9c8d39146101d05763ffa1ad740361000e575b610b00565b6110db565b611056565b610fe3565b610fb6565b610f8e565b610f80565b610f31565b610eb8565b610e29565b610dab565b610cfa565b610cd2565b610589565b610c7c565b610c5c565b610c30565b610b9f565b610b1b565b610aa7565b6109de565b61096e565b610953565b61092b565b61089f565b61087a565b6107fa565b61079b565b610769565b6106bd565b61063d565b6105c0565b6104d7565b61042d565b61035f565b6102b7565b805180835260209291819084018484015e5f828201840152601f01601f1916010190565b9060206102b492818152019061027f565b90565b34610015575f366003190112610015576040516351fa6fbf60e11b8152602081600481305afa90811561035a575f91610326575b610322610308610316846040519283916020830160209181520190565b03601f198101835282611117565b604051918291826102a3565b0390f35b90506020813d602011610352575b8161034160209383611117565b8101031261001557516103086102eb565b3d9150610334565b61113d565b3461001557602036600319011261001557600435801515809103610015575f5461039c906001600160a01b0316610394611173565b903314611194565b6001805460ff60a81b191660a883901b60ff60a81b161790557f40db37ff5c0bdc2c427fbb2078c8f24afea940abac0e3c23bb4ea3bf2da2b2125f80a2005b906020600319830112610015576004356001600160401b0381116100155760040182601f82011215610015578035926001600160401b038411610015576020808301928560051b010111610015579190565b346100155761043b366103db565b5f54909190610455906001600160a01b0316610394611173565b5f5b82811061046057005b8061047761047160019386866111d8565b35611871565b610482575b01610457565b61048d8185856111d8565b3533907facdd6aba368bd3361860dcb4f5e9def4d6935ce550436e3ce90ee6cdd5910f795f80a361047c565b6001600160a01b0381160361001557565b35906104d5826104b9565b565b34610015576020366003190112610015576004356104f4816104b9565b5f5461050b906001600160a01b0316610394611173565b6001600160a01b0316801561055257600480546001600160a01b031916821790557f195359283029fbdb9a24519b1ec07caf1677655529bf99dc1634c1e8b28811805f80a2005b60405162461bcd60e51b815260206004820152600f60248201526e125b9d985b1a59081858d8dbdd5b9d608a1b6044820152606490fd5b34610015576060366003190112610015576105be6024356105a9816104b9565b6105b9604435916105b9836104b9565b6115ad565b005b34610015575f366003190112610015576040517f00000000000000000000000000000000000000000000000000000000000000006001600160a01b03168152602090f35b60206040818301928281528451809452019201905f5b8181106106275750505090565b825184526020938401939092019160010161061a565b34610015575f3660031901126100155760405180602060055491828152019060055f527f036b6384b5eca791c62761152d0c79bb0604c104a5fb6f4eb0703f3154bb3db0905f5b8181106106a7576103228561069b81870382611117565b60405191829182610604565b8254845260209093019260019283019201610684565b34610015576106cb366103db565b5f549091906106e5906001600160a01b0316610394611173565b5f5b8281106106f057005b8061071761070160019386866111d8565b3561070b816104b9565b838060a01b0316611ae8565b610722575b016106e7565b61072d8185856111d8565b35610737816104b9565b3390838060a01b03167f5c67bd19bae53975fd875da73cc5116c5040fd57ba2771340ad6b5ff18e12f0b5f80a361071c565b34610015576040366003190112610015576105be600435610789816104b9565b60243590610796826104b9565b6111ed565b34610015575f366003190112610015576020600254604051908152f35b60206040818301928281528451809452019201905f5b8181106107db5750505090565b82516001600160a01b03168452602093840193909201916001016107ce565b34610015575f3660031901126100155760405180602060075491828152019060075f527fa66cc928b5edb82af9bd49922954155ab7b0942694bea4ce44661d9a8736c688905f5b818110610864576103228561085881870382611117565b604051918291826107b8565b8254845260209093019260019283019201610841565b34610015575f36600319011261001557602060ff60015460a81c166040519015158152f35b34610015576108ad366103db565b5f549091906108c7906001600160a01b0316610394611173565b5f5b8281106108d257005b806108e96108e360019386866111d8565b35611b89565b6108f4575b016108c9565b6108ff8185856111d8565b3533907f4317a31e7a2d9600dfde2005ba8c5dfd4c0849b8772a28891ea543fc997ed4355f80a36108ee565b34610015575f366003190112610015576004546040516001600160a01b039091168152602090f35b34610015575f366003190112610015576103226108586112da565b34610015575f366003190112610015575f54610995906001600160a01b0316610394611173565b6001600160601b0360a01b5f54165f556001600160601b0360a01b600154166001555f7f038720101b9ced74445432ced46c7e5e4c80202669153dd67d226c66a0aa477b8180a2005b34610015576109ec366103db565b5f54909190610a06906001600160a01b0316610394611173565b5f5b828110610a1157005b80610a38610a2260019386866111d8565b35610a2c816104b9565b838060a01b03166118e6565b610a43575b01610a08565b610a4e8185856111d8565b35610a58816104b9565b3390838060a01b03167f9dba6d66383f9ab187c7e2a59620f98f7b46fd0060f7b905ed1ddc6370ce0ca95f80a3610a3d565b90816101009103126100155790565b908160609103126100155790565b34610015576040366003190112610015576004356001600160401b03811161001557610ad7903690600401610a8a565b506024356001600160401b03811161001557610af7903690600401610a99565b506105be611452565b34610015575f36600319011261001557602060405160018152f35b34610015575f366003190112610015575f546040516001600160a01b039091168152602090f35b90602082528051916002831015610b8b576102b49260208201526040610b766020840151606083850152608084019061027f565b920151906060601f198285030191015261027f565b634e487b7160e01b5f52602160045260245ffd5b34610015576060366003190112610015576004356001600160401b03811161001557610bcf903690600401610a8a565b6024356001600160401b03811161001557610bee903690600401610a99565b90604435906001600160401b0382116100155761032292610c16610c24933690600401610a99565b91610c1f61146a565b611499565b60405191829182610b42565b34610015575f366003190112610015576040516d29b4b637a0baba3437b934bd32b960911b8152602090f35b34610015576040366003190112610015576105be6024356105b9816104b9565b34610015576020366003190112610015575f5460043590610ca8906001600160a01b0316610394611173565b806002557fef711e3eb06966d227e22eb4fa0302550dcd7257cf69b537cf4d37af53ea9cda5f80a2005b34610015575f3660031901126100155760405169436f6d6d6f6e5479706560b01b8152602090f35b3461001557602036600319011261001557600435610d17816104b9565b5f54610d2e906001600160a01b0316610394611173565b6001600160a01b03168015610d7557600380546001600160a01b031916821790557fac431eb831269b53b41991f6cbfbfc93f4baa395996a8170abac93962b5a358e5f80a2005b60405162461bcd60e51b815260206004820152600e60248201526d24b73b30b634b21031b0b63632b960911b6044820152606490fd5b3461001557606036600319011261001557600435610dc8816104b9565b610de4602435610dd7816104b9565b60443592610796846104b9565b600480546001600160a01b0319166001600160a01b039290921691821790557f195359283029fbdb9a24519b1ec07caf1677655529bf99dc1634c1e8b28811805f80a2005b3461001557610e37366103db565b506001600160a01b0390506060610e4c6119a3565b0151167f00000000000000000000000000000000000000000000000000000000000000006001600160a01b031603610e8057005b60405162461bcd60e51b815260206004820152601060248201526f125b9d985b1a590818dbdb9d1c9858dd60821b6044820152606490fd5b3461001557602036600319011261001557600435610ed5816104b9565b5f54610eec906001600160a01b0316610394611173565b600180546001600160a01b0319166001600160a01b039290921691821790557f68f49b346b94582a8b5f9d10e3fe3365318fe8f191ff8dce7c59c6cad06b02f55f80a2005b34610015576020366003190112610015576105be600435610f51816104b9565b611507565b602060031982011261001557600435906001600160401b038211610015576102b491600401610a8a565b3461001557610af736610f56565b34610015575f366003190112610015576001546040516001600160a01b039091168152602090f35b34610015575f366003190112610015576001546001600160a01b031633819003610015576105be9061160a565b3461001557610322610ff436610f56565b610ffc61146a565b61101a60018060a01b03600354163314611014611431565b90611194565b9060ff60015460a81c165f1461104757505f81526110366114e6565b602082015260405191829182610b42565b611051915061168b565b610c24565b3461001557602036600319011261001557600435611073816104b9565b5f5461108a906001600160a01b0316610394611173565b6001600160a01b038116156110a2576105be9061160a565b60405162461bcd60e51b81526020600482015260116024820152704e6577204f776e6572206973207a65726f60781b6044820152606490fd5b34610015575f366003190112610015576003546040516001600160a01b039091168152602090f35b634e487b7160e01b5f52604160045260245ffd5b90601f801991011681019081106001600160401b0382111761113857604052565b611103565b6040513d5f823e3d90fd5b604051906104d561010083611117565b6001600160401b03811161113857601f01601f191660200190565b60405190611182604083611117565b600382526245333560e81b6020830152565b1561119c5750565b60405162461bcd60e51b8152602060048201529081906111c090602483019061027f565b0390fd5b634e487b7160e01b5f52603260045260245ffd5b91908110156111e85760051b0190565b6111c4565b6111f690611507565b600380546001600160a01b0319166001600160a01b039290921691821790557fac431eb831269b53b41991f6cbfbfc93f4baa395996a8170abac93962b5a358e5f80a2565b6001600160401b0381116111385760051b60200190565b634e487b7160e01b5f52601160045260245ffd5b600101908160011161127457565b611252565b906001820180921161127457565b906112918261123b565b61129e6040519182611117565b82815280926112af601f199161123b565b0190602036910137565b8051156111e85760200190565b80518210156111e85760209160051b010190565b604051635b72ec8360e01b8152905f82600481305afa91821561035a575f92611395575b5061131161130c8351611266565b611287565b9161134e7f000000000000000000000000000000000000000000000000000000000000000061133f856112b9565b6001600160a01b039091169052565b5f5b8151811015611391578061138b61137961136c600194866112c6565b516001600160a01b031690565b61133f61138584611279565b886112c6565b01611350565b5050565b9091503d805f833e6113a78183611117565b810190602081830312610015578051906001600160401b03821161001557019080601f830112156100155781516113dd8161123b565b926113eb6040519485611117565b81845260208085019260051b82010192831161001557602001905b82821061141757505050905f6112fe565b602080918351611426816104b9565b815201910190611406565b60405190611440604083611117565b600382526245323760e81b6020830152565b6104d560018060a01b03600354163314611014611431565b60405190606082018281106001600160401b038211176111385760405260606040835f81528260208201520152565b925050506114b560018060a01b03600354163314611014611431565b60015460a81c60ff16156114d6575f81526114ce6114e6565b602082015290565b506114df61146a565b6001815290565b604051906114f5604083611117565b6003825262229a1b60e91b6020830152565b60ff60015460a01c166115325761151d9061160a565b6001805460ff60a01b1916600160a01b179055565b60405162461bcd60e51b8152602060048201526013602482015272105b1c9958591e481a5b9a5d1a585b1a5e9959606a1b6044820152606490fd5b6111c060405161157e604082611117565b600381526245343960e81b602082015260405191829162461bcd60e51b8352602060048401818152019061027f565b6001600160a01b036115bd6119a3565b51166001600160a01b03909116036115d157565b60405162461bcd60e51b8152602060048201526011602482015270125b9d985b1a59081c9958da5c1a595b9d607a1b6044820152606490fd5b60018060a01b0316806001600160601b0360a01b5f5416175f556001600160601b0360a01b600154166001557f038720101b9ced74445432ced46c7e5e4c80202669153dd67d226c66a0aa477b5f80a2565b3d15611686573d9061166d82611158565b9161167b6040519384611117565b82523d5f602084013e565b606090565b61169361146a565b61169c82611c0e565b1561181457505f806117fb6117fb6118016102b4956103086117d36117e6604051936020808601526116e1604086016116d4836104ca565b6001600160a01b03169052565b6117006116f0602083016104ca565b6001600160a01b03166060870152565b60408101356080860152611729611719606083016104ca565b6001600160a01b031660a0870152565b608081013560c086015260a08101906117b0866117a261178261176261174f8787611c69565b61010060e0870152610140860191611c9a565b61176f60c0870187611c69565b858303603f190161010087015290611c9a565b61178f60e0860186611c69565b848303603f190161012086015290611c9a565b03601f198101885287611117565b6117e16117bd8383611cba565b9050604051958691602083019190602083019252565b03601f198101865285611117565b611cba565b96909360405196879560208701998a91611cec565b90611cf9565b5190305afa61180e61165c565b90611d2c565b90505f8152604051611827604082611117565b600381526245353560e81b6020820152602082015290565b80548210156111e8575f5260205f2001905f90565b9161186d9183549060031b91821b915f19901b19161790565b9055565b805f52600660205260405f2054155f146118e157600554600160401b81101561113857600181016005556005548110156111e8577f036b6384b5eca791c62761152d0c79bb0604c104a5fb6f4eb0703f3154bb3db0018190556005545f9182526006602052604090912055600190565b505f90565b805f52600860205260405f2054155f146118e157600754600160401b81101561113857600181016007556007548110156111e8577fa66cc928b5edb82af9bd49922954155ab7b0942694bea4ce44661d9a8736c688018190556007545f9182526008602052604090912055600190565b6040519061010082018281106001600160401b0382111761113857604052606060e0835f81525f60208201525f60408201525f838201525f60808201528260a08201528260c08201520152565b6119ab611956565b506119b4611956565b50601f193601368111611274573536811161001557803603810190602081830312610015578035906001600160401b038211610015570161010081830312610015576119fe611148565b91611a08826104ca565b8352611a16602083016104ca565b602084015260408201356040840152611a31606083016104ca565b60608401526080820135608084015260a08201356001600160401b0381116100155781611a5f918401611ddd565b60a084015260c08201356001600160401b0381116100155781611a83918401611ddd565b60c084015260e08201356001600160401b03811161001557611aa59201611ddd565b60e082015290565b80548015611ad4575f190190611ac3828261183f565b8154905f199060031b1b1916905555565b634e487b7160e01b5f52603160045260245ffd5b5f81815260086020526040902054908115611b83575f19820190828211611274576007545f198101939084116112745783835f95611b429503611b48575b505050611b336007611aad565b6008905f5260205260405f2090565b55600190565b611b33611b7491611b6a611b60611b7a95600761183f565b90549060031b1c90565b928391600761183f565b90611854565b555f8080611b26565b50505f90565b5f81815260066020526040902054908115611b83575f19820190828211611274576005545f198101939084116112745783835f95611b429503611be3575b505050611bd46005611aad565b6006905f5260205260405f2090565b611bd4611b7491611bfb611b60611c0595600561183f565b928391600561183f565b555f8080611bc7565b60600135611c1b816104b9565b611c236112da565b906001600160a01b03165f5b8251811015611c62576001600160a01b03611c4a82856112c6565b51168214611c5a57600101611c2f565b505050600190565b5050505f90565b9035601e19823603018112156100155701602081359101916001600160401b03821161001557813603831361001557565b908060209392818452848401375f828201840152601f01601f1916010190565b903590601e198136030182121561001557018035906001600160401b0382116100155760200191813603831361001557565b908092918237015f815290565b805191908290602001825e015f815290565b60405190611d1a604083611117565b600382526245333960e81b6020830152565b9190611d3661146a565b9215611d5057611d4a905115611014611d0b565b60018252565b60448151105f14611d62576020830152565b6004810151810160248101919060209082900312610015576024810151906001600160401b03821161001557018160438201121561001557602481015190611da982611158565b92611db76040519485611117565b8284526044828401011161001557815f926044602093018386015e830101526020830152565b81601f8201121561001557803590611df482611158565b92611e026040519485611117565b8284526020838301011161001557815f92602080930183860137830101529056fea26469706673582212202ed7311f81015067646c4d15d37a3f5497e1fd187673a221c09efbe612ed2a9e64736f6c634300081a0033","linkReferences":{}},"methodIdentifiers":{"NAME()":"a3f4df7e","ROUTER()":"32fe7b26","TYPE()":"bb24fe8a","VERSION()":"ffa1ad74","_NAME()":"08dbebf6","acceptOwner()":"ebbc4965","account()":"5dab2420","addPoolAddresses(address[])":"7a796db4","addPoolIds(uint256[])":"1fd6d959","caller()":"fc9c8d39","contracts()":"6c0f79b6","deposit(uint256,address,address)":"2e2d2984","execute((uint8,address,address,bytes)[])":"c3cd3eda","flag()":"890eba68","getPoolAddressWhiteList()":"5b72ec83","getPoolIdWhiteList()":"3e92ef78","initialize(address)":"c4d66de8","initialize(address,address)":"485cc955","initialize(address,address,address)":"c0c53b8b","owner()":"8da5cb5b","paused()":"5c975abb","pendingOwner()":"e30c3978","postExecCheck((address,address,uint256,address,uint256,bytes,bytes,bytes),(bool,bytes,bytes),(uint8,string,bytes))":"9d5228e8","postExecProcess((address,address,uint256,address,uint256,bytes,bytes,bytes),(bool,bytes,bytes))":"7c4c833b","preExecCheck((address,address,uint256,address,uint256,bytes,bytes,bytes))":"f2660027","preExecProcess((address,address,uint256,address,uint256,bytes,bytes,bytes))":"d58c3fc3","redeem(uint256,address,address)":"ba087652","removePoolAddresses(address[])":"3ff7916c","removePoolIds(uint256[])":"5cb81a0d","renounceOwnership()":"715018a6","repay(uint256,address)":"acb70815","setAccount(address)":"29f6d57c","setCaller(address)":"beb92f55","setPaused(bool)":"16c38b3c","setPendingOwner(address)":"c42069ec","setTag(bytes32)":"b695e2ef","tag()":"51f91066","transferOwnership(address)":"f2fde38b","withdraw(uint256,address,address)":"b460af94"},"id":31}