{"abi":[{"type":"constructor","inputs":[{"name":"_owner","type":"address","internalType":"address"},{"name":"_caller","type":"address","internalType":"address"}],"stateMutability":"nonpayable"},{"type":"function","name":"NAME","inputs":[],"outputs":[{"name":"","type":"bytes32","internalType":"bytes32"}],"stateMutability":"view"},{"type":"function","name":"TYPE","inputs":[],"outputs":[{"name":"","type":"bytes32","internalType":"bytes32"}],"stateMutability":"view"},{"type":"function","name":"VERSION","inputs":[],"outputs":[{"name":"","type":"uint256","internalType":"uint256"}],"stateMutability":"view"},{"type":"function","name":"_NAME","inputs":[],"outputs":[{"name":"","type":"string","internalType":"string"}],"stateMutability":"view"},{"type":"function","name":"acceptOwner","inputs":[],"outputs":[],"stateMutability":"nonpayable"},{"type":"function","name":"account","inputs":[],"outputs":[{"name":"","type":"address","internalType":"address"}],"stateMutability":"view"},{"type":"function","name":"caller","inputs":[],"outputs":[{"name":"","type":"address","internalType":"address"}],"stateMutability":"view"},{"type":"function","name":"flag","inputs":[],"outputs":[{"name":"","type":"uint256","internalType":"uint256"}],"stateMutability":"view"},{"type":"function","name":"initialize","inputs":[{"name":"_owner","type":"address","internalType":"address"},{"name":"_caller","type":"address","internalType":"address"}],"outputs":[],"stateMutability":"nonpayable"},{"type":"function","name":"initialize","inputs":[{"name":"_owner","type":"address","internalType":"address"},{"name":"_caller","type":"address","internalType":"address"},{"name":"_account","type":"address","internalType":"address"}],"outputs":[],"stateMutability":"nonpayable"},{"type":"function","name":"initialize","inputs":[{"name":"_owner","type":"address","internalType":"address"}],"outputs":[],"stateMutability":"nonpayable"},{"type":"function","name":"owner","inputs":[],"outputs":[{"name":"","type":"address","internalType":"address"}],"stateMutability":"view"},{"type":"function","name":"paused","inputs":[],"outputs":[{"name":"","type":"bool","internalType":"bool"}],"stateMutability":"view"},{"type":"function","name":"pendingOwner","inputs":[],"outputs":[{"name":"","type":"address","internalType":"address"}],"stateMutability":"view"},{"type":"function","name":"postExecCheck","inputs":[{"name":"transaction","type":"tuple","internalType":"struct TransactionData","components":[{"name":"from","type":"address","internalType":"address"},{"name":"delegate","type":"address","internalType":"address"},{"name":"flag","type":"uint256","internalType":"uint256"},{"name":"to","type":"address","internalType":"address"},{"name":"value","type":"uint256","internalType":"uint256"},{"name":"data","type":"bytes","internalType":"bytes"},{"name":"hint","type":"bytes","internalType":"bytes"},{"name":"extra","type":"bytes","internalType":"bytes"}]},{"name":"callResult","type":"tuple","internalType":"struct TransactionResult","components":[{"name":"success","type":"bool","internalType":"bool"},{"name":"data","type":"bytes","internalType":"bytes"},{"name":"hint","type":"bytes","internalType":"bytes"}]},{"name":"preData","type":"tuple","internalType":"struct AuthorizerReturnData","components":[{"name":"result","type":"uint8","internalType":"enum AuthResult"},{"name":"message","type":"string","internalType":"string"},{"name":"data","type":"bytes","internalType":"bytes"}]}],"outputs":[{"name":"authData","type":"tuple","internalType":"struct AuthorizerReturnData","components":[{"name":"result","type":"uint8","internalType":"enum AuthResult"},{"name":"message","type":"string","internalType":"string"},{"name":"data","type":"bytes","internalType":"bytes"}]}],"stateMutability":"nonpayable"},{"type":"function","name":"postExecProcess","inputs":[{"name":"transaction","type":"tuple","internalType":"struct TransactionData","components":[{"name":"from","type":"address","internalType":"address"},{"name":"delegate","type":"address","internalType":"address"},{"name":"flag","type":"uint256","internalType":"uint256"},{"name":"to","type":"address","internalType":"address"},{"name":"value","type":"uint256","internalType":"uint256"},{"name":"data","type":"bytes","internalType":"bytes"},{"name":"hint","type":"bytes","internalType":"bytes"},{"name":"extra","type":"bytes","internalType":"bytes"}]},{"name":"callResult","type":"tuple","internalType":"struct TransactionResult","components":[{"name":"success","type":"bool","internalType":"bool"},{"name":"data","type":"bytes","internalType":"bytes"},{"name":"hint","type":"bytes","internalType":"bytes"}]}],"outputs":[],"stateMutability":"nonpayable"},{"type":"function","name":"preExecCheck","inputs":[{"name":"transaction","type":"tuple","internalType":"struct TransactionData","components":[{"name":"from","type":"address","internalType":"address"},{"name":"delegate","type":"address","internalType":"address"},{"name":"flag","type":"uint256","internalType":"uint256"},{"name":"to","type":"address","internalType":"address"},{"name":"value","type":"uint256","internalType":"uint256"},{"name":"data","type":"bytes","internalType":"bytes"},{"name":"hint","type":"bytes","internalType":"bytes"},{"name":"extra","type":"bytes","internalType":"bytes"}]}],"outputs":[{"name":"authData","type":"tuple","internalType":"struct AuthorizerReturnData","components":[{"name":"result","type":"uint8","internalType":"enum AuthResult"},{"name":"message","type":"string","internalType":"string"},{"name":"data","type":"bytes","internalType":"bytes"}]}],"stateMutability":"nonpayable"},{"type":"function","name":"preExecProcess","inputs":[{"name":"transaction","type":"tuple","internalType":"struct TransactionData","components":[{"name":"from","type":"address","internalType":"address"},{"name":"delegate","type":"address","internalType":"address"},{"name":"flag","type":"uint256","internalType":"uint256"},{"name":"to","type":"address","internalType":"address"},{"name":"value","type":"uint256","internalType":"uint256"},{"name":"data","type":"bytes","internalType":"bytes"},{"name":"hint","type":"bytes","internalType":"bytes"},{"name":"extra","type":"bytes","internalType":"bytes"}]}],"outputs":[],"stateMutability":"nonpayable"},{"type":"function","name":"renounceOwnership","inputs":[],"outputs":[],"stateMutability":"nonpayable"},{"type":"function","name":"setAccount","inputs":[{"name":"_account","type":"address","internalType":"address"}],"outputs":[],"stateMutability":"nonpayable"},{"type":"function","name":"setCaller","inputs":[{"name":"_caller","type":"address","internalType":"address"}],"outputs":[],"stateMutability":"nonpayable"},{"type":"function","name":"setPaused","inputs":[{"name":"_paused","type":"bool","internalType":"bool"}],"outputs":[],"stateMutability":"nonpayable"},{"type":"function","name":"setPendingOwner","inputs":[{"name":"to","type":"address","internalType":"address"}],"outputs":[],"stateMutability":"nonpayable"},{"type":"function","name":"setTag","inputs":[{"name":"_tag","type":"bytes32","internalType":"bytes32"}],"outputs":[],"stateMutability":"nonpayable"},{"type":"function","name":"tag","inputs":[],"outputs":[{"name":"","type":"bytes32","internalType":"bytes32"}],"stateMutability":"view"},{"type":"function","name":"transferOwnership","inputs":[{"name":"newOwner","type":"address","internalType":"address"}],"outputs":[],"stateMutability":"nonpayable"},{"type":"event","name":"AccountSet","inputs":[{"name":"account","type":"address","indexed":true,"internalType":"address"}],"anonymous":false},{"type":"event","name":"CallerSet","inputs":[{"name":"caller","type":"address","indexed":true,"internalType":"address"}],"anonymous":false},{"type":"event","name":"NewOwnerSet","inputs":[{"name":"owner","type":"address","indexed":true,"internalType":"address"}],"anonymous":false},{"type":"event","name":"PausedSet","inputs":[{"name":"status","type":"bool","indexed":true,"internalType":"bool"}],"anonymous":false},{"type":"event","name":"PendingOwnerSet","inputs":[{"name":"to","type":"address","indexed":true,"internalType":"address"}],"anonymous":false},{"type":"event","name":"TagSet","inputs":[{"name":"tag","type":"bytes32","indexed":true,"internalType":"bytes32"}],"anonymous":false}],"bytecode":{"object":"0x6080346100de57601f610e8e38819003918201601f19168301916001600160401b038311848410176100e25780849260409485528339810103126100de57610052602061004b836100f6565b92016100f6565b6001545f80546001600160a01b0319166001600160a01b03909416938417815560405193907f038720101b9ced74445432ced46c7e5e4c80202669153dd67d226c66a0aa477b9080a26001600160b01b031916600160a01b176001555f600255600380546001600160a01b0319166001600160a01b0392909216919091179055610d83908161010b8239f35b5f80fd5b634e487b7160e01b5f52604160045260245ffd5b51906001600160a01b03821682036100de5756fe6080806040526004361015610012575f80fd5b5f3560e01c90816308dbebf614610a0c5750806316c38b3c1461099357806329f6d57c146108e0578063485cc955146108b657806351f91066146108995780635c975abb146108745780635dab24201461084c578063715018a6146107d75780637c4c833b1461077b578063890eba68146107605780638da5cb5b146107395780639d5228e8146105fd578063a3f4df7e146105cf578063b695e2ef14610575578063bb24fe8a1461054d578063beb92f551461049b578063c0c53b8b14610422578063c42069ec146103a8578063c4d66de814610387578063d58c3fc314610370578063e30c397814610348578063ebbc49651461031b578063f266002714610220578063f2fde38b14610181578063fc9c8d39146101595763ffa1ad741461013a575f80fd5b34610155575f36600319011261015557602060405160018152f35b5f80fd5b34610155575f366003190112610155576003546040516001600160a01b039091168152602090f35b346101555760203660031901126101555761019a610acf565b6101cd60018060a01b035f5416604051906101b6604083610b90565b600382526245333560e81b60208301523314610bc6565b6001600160a01b038116156101e7576101e590610cfb565b005b60405162461bcd60e51b81526020600482015260116024820152704e6577204f776e6572206973207a65726f60781b6044820152606490fd5b34610155576102b161023136610b5b565b610239610c65565b61026d60018060a01b0360035416331460405190610258604083610b90565b600382526245323760e81b6020830152610bc6565b9060ff60015460a81c165f146102b557505f815260405161028f604082610b90565b6003815262229a1b60e91b602082015260208201525b60405191829182610afb565b0390f35b90506103e860806102c4610c65565b92013510156102d657600181526102a5565b5f81526040516102e7604082610b90565b601981527f56616c7565206f76657220316b206e6f7420616c6c6f77656400000000000000602082015260208201526102a5565b34610155575f366003190112610155576001546001600160a01b031633819003610155576101e590610cfb565b34610155575f366003190112610155576001546040516001600160a01b039091168152602090f35b346101555761037e36610b5b565b506101e5610c44565b34610155576020366003190112610155576101e56103a3610acf565b610c95565b34610155576020366003190112610155576103c1610acf565b6103dd60018060a01b035f5416604051906101b6604083610b90565b600180546001600160a01b0319166001600160a01b039290921691821790557f68f49b346b94582a8b5f9d10e3fe3365318fe8f191ff8dce7c59c6cad06b02f55f80a2005b346101555760603660031901126101555761043b610acf565b610443610ae5565b6044356001600160a01b0381169291908390036101555761046391610bf6565b600480546001600160a01b031916821790557f195359283029fbdb9a24519b1ec07caf1677655529bf99dc1634c1e8b28811805f80a2005b34610155576020366003190112610155576104b4610acf565b6104d060018060a01b035f5416604051906101b6604083610b90565b6001600160a01b0316801561051757600380546001600160a01b031916821790557fac431eb831269b53b41991f6cbfbfc93f4baa395996a8170abac93962b5a358e5f80a2005b60405162461bcd60e51b815260206004820152600e60248201526d24b73b30b634b21031b0b63632b960911b6044820152606490fd5b34610155575f3660031901126101555760405169436f6d6d6f6e5479706560b01b8152602090f35b34610155576020366003190112610155576004356105a560018060a01b035f5416604051906101b6604083610b90565b806002557fef711e3eb06966d227e22eb4fa0302550dcd7257cf69b537cf4d37af53ea9cda5f80a2005b34610155575f366003190112610155576040516f29b0b6b83632a0baba3437b934bd32b960811b8152602090f35b346101555760603660031901126101555760043567ffffffffffffffff81116101555761010060031982360301126101555760243567ffffffffffffffff81116101555760609060031990360301126101555760443567ffffffffffffffff811161015557606090600319903603011261015557610679610c65565b61069860018060a01b0360035416331460405190610258604083610b90565b60015460a81c60ff16156106bc576102b191505f815260405161028f604082610b90565b506106c5610c65565b600490910135906001600160a01b0382168203610155576127106102b19231115f146106f457600181526102a5565b5f8152604051610705604082610b90565b602081527f57616c6c65742062616c616e63652064726f707065642062656c6f772031306b602082015260208201526102a5565b34610155575f366003190112610155575f546040516001600160a01b039091168152602090f35b34610155575f366003190112610155576020604051600f8152f35b346101555760403660031901126101555760043567ffffffffffffffff8111610155576101009060031990360301126101555760243567ffffffffffffffff8111610155576060906003199036030112610155576101e5610c44565b34610155575f3660031901126101555761080360018060a01b035f5416604051906101b6604083610b90565b6001600160601b0360a01b5f54165f556001600160601b0360a01b600154166001555f7f038720101b9ced74445432ced46c7e5e4c80202669153dd67d226c66a0aa477b8180a2005b34610155575f366003190112610155576004546040516001600160a01b039091168152602090f35b34610155575f36600319011261015557602060ff60015460a81c166040519015158152f35b34610155575f366003190112610155576020600254604051908152f35b34610155576040366003190112610155576101e56108d2610acf565b6108da610ae5565b90610bf6565b34610155576020366003190112610155576108f9610acf565b61091560018060a01b035f5416604051906101b6604083610b90565b6001600160a01b0316801561095c57600480546001600160a01b031916821790557f195359283029fbdb9a24519b1ec07caf1677655529bf99dc1634c1e8b28811805f80a2005b60405162461bcd60e51b815260206004820152600f60248201526e125b9d985b1a59081858d8dbdd5b9d608a1b6044820152606490fd5b3461015557602036600319011261015557600435801515809103610155576109cd60018060a01b035f5416604051906101b6604083610b90565b6001805460ff60a81b191660a883901b60ff60a81b161790557f40db37ff5c0bdc2c427fbb2078c8f24afea940abac0e3c23bb4ea3bf2da2b2125f80a2005b34610155575f366003190112610155576351fa6fbf60e11b8152602081600481305afa8015610aa0575f90610a6c575b6102b19060405190602082015260208152610a58604082610b90565b604051918291602083526020830190610aab565b506020813d602011610a98575b81610a8660209383610b90565b81010312610155576102b19051610a3c565b3d9150610a79565b6040513d5f823e3d90fd5b805180835260209291819084018484015e5f828201840152601f01601f1916010190565b600435906001600160a01b038216820361015557565b602435906001600160a01b038216820361015557565b90602082528051916002831015610b4757610b449260208201526040610b2f60208401516060838501526080840190610aab565b920151906060601f1982850301910152610aab565b90565b634e487b7160e01b5f52602160045260245ffd5b6020600319820112610155576004359067ffffffffffffffff8211610155576101009082900360031901126101555760040190565b90601f8019910116810190811067ffffffffffffffff821117610bb257604052565b634e487b7160e01b5f52604160045260245ffd5b15610bce5750565b60405162461bcd60e51b815260206004820152908190610bf2906024830190610aab565b0390fd5b610bff90610c95565b600380546001600160a01b0319166001600160a01b039290921691821790557fac431eb831269b53b41991f6cbfbfc93f4baa395996a8170abac93962b5a358e5f80a2565b610c6360018060a01b0360035416331460405190610258604083610b90565b565b604051906060820182811067ffffffffffffffff821117610bb25760405260606040835f81528260208201520152565b60ff60015460a01c16610cc057610cab90610cfb565b6001805460ff60a01b1916600160a01b179055565b60405162461bcd60e51b8152602060048201526013602482015272105b1c9958591e481a5b9a5d1a585b1a5e9959606a1b6044820152606490fd5b60018060a01b0316806001600160601b0360a01b5f5416175f556001600160601b0360a01b600154166001557f038720101b9ced74445432ced46c7e5e4c80202669153dd67d226c66a0aa477b5f80a256fea264697066735822122077723d329fc8ced82aa686b2f6af33d2b9d05f038187ae51a20b6eb21685da0864736f6c634300081a0033","linkReferences":{}},"methodIdentifiers":{"NAME()":"a3f4df7e","TYPE()":"bb24fe8a","VERSION()":"ffa1ad74","_NAME()":"08dbebf6","acceptOwner()":"ebbc4965","account()":"5dab2420","caller()":"fc9c8d39","flag()":"890eba68","initialize(address)":"c4d66de8","initialize(address,address)":"485cc955","initialize(address,address,address)":"c0c53b8b","owner()":"8da5cb5b","paused()":"5c975abb","pendingOwner()":"e30c3978","postExecCheck((address,address,uint256,address,uint256,bytes,bytes,bytes),(bool,bytes,bytes),(uint8,string,bytes))":"9d5228e8","postExecProcess((address,address,uint256,address,uint256,bytes,bytes,bytes),(bool,bytes,bytes))":"7c4c833b","preExecCheck((address,address,uint256,address,uint256,bytes,bytes,bytes))":"f2660027","preExecProcess((address,address,uint256,address,uint256,bytes,bytes,bytes))":"d58c3fc3","renounceOwnership()":"715018a6","setAccount(address)":"29f6d57c","setCaller(address)":"beb92f55","setPaused(bool)":"16c38b3c","setPendingOwner(address)":"c42069ec","setTag(bytes32)":"b695e2ef","tag()":"51f91066","transferOwnership(address)":"f2fde38b"},"id":111}