{"abi":[{"type":"constructor","inputs":[{"name":"_owner","type":"address","internalType":"address"},{"name":"_caller","type":"address","internalType":"address"}],"stateMutability":"nonpayable"},{"type":"fallback","stateMutability":"nonpayable"},{"type":"function","name":"NAME","inputs":[],"outputs":[{"name":"","type":"bytes32","internalType":"bytes32"}],"stateMutability":"view"},{"type":"function","name":"ROUTER","inputs":[],"outputs":[{"name":"","type":"address","internalType":"address"}],"stateMutability":"view"},{"type":"function","name":"TYPE","inputs":[],"outputs":[{"name":"","type":"bytes32","internalType":"bytes32"}],"stateMutability":"view"},{"type":"function","name":"VERSION","inputs":[],"outputs":[{"name":"","type":"uint256","internalType":"uint256"}],"stateMutability":"view"},{"type":"function","name":"WETH","inputs":[],"outputs":[{"name":"","type":"address","internalType":"address"}],"stateMutability":"view"},{"type":"function","name":"_NAME","inputs":[],"outputs":[{"name":"","type":"string","internalType":"string"}],"stateMutability":"view"},{"type":"function","name":"acceptOwner","inputs":[],"outputs":[],"stateMutability":"nonpayable"},{"type":"function","name":"account","inputs":[],"outputs":[{"name":"","type":"address","internalType":"address"}],"stateMutability":"view"},{"type":"function","name":"addSwapInTokens","inputs":[{"name":"_tokens","type":"address[]","internalType":"address[]"}],"outputs":[],"stateMutability":"nonpayable"},{"type":"function","name":"addSwapOutTokens","inputs":[{"name":"_tokens","type":"address[]","internalType":"address[]"}],"outputs":[],"stateMutability":"nonpayable"},{"type":"function","name":"caller","inputs":[],"outputs":[{"name":"","type":"address","internalType":"address"}],"stateMutability":"view"},{"type":"function","name":"clipperSwap","inputs":[{"name":"clipperExchange","type":"address","internalType":"address"},{"name":"srcToken","type":"address","internalType":"address"},{"name":"dstToken","type":"address","internalType":"address"},{"name":"inputAmount","type":"uint256","internalType":"uint256"},{"name":"outputAmount","type":"uint256","internalType":"uint256"},{"name":"goodUntil","type":"uint256","internalType":"uint256"},{"name":"r","type":"bytes32","internalType":"bytes32"},{"name":"vs","type":"bytes32","internalType":"bytes32"}],"outputs":[],"stateMutability":"view"},{"type":"function","name":"contracts","inputs":[],"outputs":[{"name":"_contracts","type":"address[]","internalType":"address[]"}],"stateMutability":"view"},{"type":"function","name":"fillOrder","inputs":[{"name":"order","type":"tuple","internalType":"struct OneinchV5Authorizer.Order","components":[{"name":"salt","type":"uint256","internalType":"uint256"},{"name":"makerAsset","type":"address","internalType":"address"},{"name":"takerAsset","type":"address","internalType":"address"},{"name":"maker","type":"address","internalType":"address"},{"name":"receiver","type":"address","internalType":"address"},{"name":"allowedSender","type":"address","internalType":"address"},{"name":"makingAmount","type":"uint256","internalType":"uint256"},{"name":"takingAmount","type":"uint256","internalType":"uint256"},{"name":"offsets","type":"uint256","internalType":"uint256"},{"name":"interactions","type":"bytes","internalType":"bytes"}]},{"name":"signature","type":"bytes","internalType":"bytes"},{"name":"interaction","type":"bytes","internalType":"bytes"},{"name":"makingAmount","type":"uint256","internalType":"uint256"},{"name":"takingAmount","type":"uint256","internalType":"uint256"},{"name":"skipPermitAndThresholdAmount","type":"uint256","internalType":"uint256"}],"outputs":[],"stateMutability":"view"},{"type":"function","name":"fillOrderRFQ","inputs":[{"name":"order","type":"tuple","internalType":"struct OneinchV5Authorizer.OrderRFQ","components":[{"name":"info","type":"uint256","internalType":"uint256"},{"name":"makerAsset","type":"address","internalType":"address"},{"name":"takerAsset","type":"address","internalType":"address"},{"name":"maker","type":"address","internalType":"address"},{"name":"allowedSender","type":"address","internalType":"address"},{"name":"makingAmount","type":"uint256","internalType":"uint256"},{"name":"takingAmount","type":"uint256","internalType":"uint256"}]},{"name":"signature","type":"bytes","internalType":"bytes"},{"name":"flagsAndAmount","type":"uint256","internalType":"uint256"}],"outputs":[],"stateMutability":"view"},{"type":"function","name":"fillOrderRFQCompact","inputs":[{"name":"order","type":"tuple","internalType":"struct OneinchV5Authorizer.OrderRFQ","components":[{"name":"info","type":"uint256","internalType":"uint256"},{"name":"makerAsset","type":"address","internalType":"address"},{"name":"takerAsset","type":"address","internalType":"address"},{"name":"maker","type":"address","internalType":"address"},{"name":"allowedSender","type":"address","internalType":"address"},{"name":"makingAmount","type":"uint256","internalType":"uint256"},{"name":"takingAmount","type":"uint256","internalType":"uint256"}]},{"name":"r","type":"bytes32","internalType":"bytes32"},{"name":"vs","type":"bytes32","internalType":"bytes32"},{"name":"flagsAndAmount","type":"uint256","internalType":"uint256"}],"outputs":[],"stateMutability":"view"},{"type":"function","name":"flag","inputs":[],"outputs":[{"name":"","type":"uint256","internalType":"uint256"}],"stateMutability":"view"},{"type":"function","name":"getSwapInTokens","inputs":[],"outputs":[{"name":"tokens","type":"address[]","internalType":"address[]"}],"stateMutability":"view"},{"type":"function","name":"getSwapOutTokens","inputs":[],"outputs":[{"name":"tokens","type":"address[]","internalType":"address[]"}],"stateMutability":"view"},{"type":"function","name":"hasSwapInToken","inputs":[{"name":"_token","type":"address","internalType":"address"}],"outputs":[{"name":"","type":"bool","internalType":"bool"}],"stateMutability":"view"},{"type":"function","name":"hasSwapOutToken","inputs":[{"name":"_token","type":"address","internalType":"address"}],"outputs":[{"name":"","type":"bool","internalType":"bool"}],"stateMutability":"view"},{"type":"function","name":"initialize","inputs":[{"name":"_owner","type":"address","internalType":"address"},{"name":"_caller","type":"address","internalType":"address"}],"outputs":[],"stateMutability":"nonpayable"},{"type":"function","name":"initialize","inputs":[{"name":"_owner","type":"address","internalType":"address"},{"name":"_caller","type":"address","internalType":"address"},{"name":"_account","type":"address","internalType":"address"}],"outputs":[],"stateMutability":"nonpayable"},{"type":"function","name":"initialize","inputs":[{"name":"_owner","type":"address","internalType":"address"}],"outputs":[],"stateMutability":"nonpayable"},{"type":"function","name":"owner","inputs":[],"outputs":[{"name":"","type":"address","internalType":"address"}],"stateMutability":"view"},{"type":"function","name":"paused","inputs":[],"outputs":[{"name":"","type":"bool","internalType":"bool"}],"stateMutability":"view"},{"type":"function","name":"pendingOwner","inputs":[],"outputs":[{"name":"","type":"address","internalType":"address"}],"stateMutability":"view"},{"type":"function","name":"postExecCheck","inputs":[{"name":"transaction","type":"tuple","internalType":"struct TransactionData","components":[{"name":"from","type":"address","internalType":"address"},{"name":"delegate","type":"address","internalType":"address"},{"name":"flag","type":"uint256","internalType":"uint256"},{"name":"to","type":"address","internalType":"address"},{"name":"value","type":"uint256","internalType":"uint256"},{"name":"data","type":"bytes","internalType":"bytes"},{"name":"hint","type":"bytes","internalType":"bytes"},{"name":"extra","type":"bytes","internalType":"bytes"}]},{"name":"callResult","type":"tuple","internalType":"struct TransactionResult","components":[{"name":"success","type":"bool","internalType":"bool"},{"name":"data","type":"bytes","internalType":"bytes"},{"name":"hint","type":"bytes","internalType":"bytes"}]},{"name":"preData","type":"tuple","internalType":"struct AuthorizerReturnData","components":[{"name":"result","type":"uint8","internalType":"enum AuthResult"},{"name":"message","type":"string","internalType":"string"},{"name":"data","type":"bytes","internalType":"bytes"}]}],"outputs":[{"name":"authData","type":"tuple","internalType":"struct AuthorizerReturnData","components":[{"name":"result","type":"uint8","internalType":"enum AuthResult"},{"name":"message","type":"string","internalType":"string"},{"name":"data","type":"bytes","internalType":"bytes"}]}],"stateMutability":"nonpayable"},{"type":"function","name":"postExecProcess","inputs":[{"name":"transaction","type":"tuple","internalType":"struct TransactionData","components":[{"name":"from","type":"address","internalType":"address"},{"name":"delegate","type":"address","internalType":"address"},{"name":"flag","type":"uint256","internalType":"uint256"},{"name":"to","type":"address","internalType":"address"},{"name":"value","type":"uint256","internalType":"uint256"},{"name":"data","type":"bytes","internalType":"bytes"},{"name":"hint","type":"bytes","internalType":"bytes"},{"name":"extra","type":"bytes","internalType":"bytes"}]},{"name":"callResult","type":"tuple","internalType":"struct TransactionResult","components":[{"name":"success","type":"bool","internalType":"bool"},{"name":"data","type":"bytes","internalType":"bytes"},{"name":"hint","type":"bytes","internalType":"bytes"}]}],"outputs":[],"stateMutability":"nonpayable"},{"type":"function","name":"preExecCheck","inputs":[{"name":"transaction","type":"tuple","internalType":"struct TransactionData","components":[{"name":"from","type":"address","internalType":"address"},{"name":"delegate","type":"address","internalType":"address"},{"name":"flag","type":"uint256","internalType":"uint256"},{"name":"to","type":"address","internalType":"address"},{"name":"value","type":"uint256","internalType":"uint256"},{"name":"data","type":"bytes","internalType":"bytes"},{"name":"hint","type":"bytes","internalType":"bytes"},{"name":"extra","type":"bytes","internalType":"bytes"}]}],"outputs":[{"name":"authData","type":"tuple","internalType":"struct AuthorizerReturnData","components":[{"name":"result","type":"uint8","internalType":"enum AuthResult"},{"name":"message","type":"string","internalType":"string"},{"name":"data","type":"bytes","internalType":"bytes"}]}],"stateMutability":"nonpayable"},{"type":"function","name":"preExecProcess","inputs":[{"name":"transaction","type":"tuple","internalType":"struct TransactionData","components":[{"name":"from","type":"address","internalType":"address"},{"name":"delegate","type":"address","internalType":"address"},{"name":"flag","type":"uint256","internalType":"uint256"},{"name":"to","type":"address","internalType":"address"},{"name":"value","type":"uint256","internalType":"uint256"},{"name":"data","type":"bytes","internalType":"bytes"},{"name":"hint","type":"bytes","internalType":"bytes"},{"name":"extra","type":"bytes","internalType":"bytes"}]}],"outputs":[],"stateMutability":"nonpayable"},{"type":"function","name":"removeSwapInTokens","inputs":[{"name":"_tokens","type":"address[]","internalType":"address[]"}],"outputs":[],"stateMutability":"nonpayable"},{"type":"function","name":"removeSwapOutTokens","inputs":[{"name":"_tokens","type":"address[]","internalType":"address[]"}],"outputs":[],"stateMutability":"nonpayable"},{"type":"function","name":"renounceOwnership","inputs":[],"outputs":[],"stateMutability":"nonpayable"},{"type":"function","name":"setAccount","inputs":[{"name":"_account","type":"address","internalType":"address"}],"outputs":[],"stateMutability":"nonpayable"},{"type":"function","name":"setCaller","inputs":[{"name":"_caller","type":"address","internalType":"address"}],"outputs":[],"stateMutability":"nonpayable"},{"type":"function","name":"setPaused","inputs":[{"name":"_paused","type":"bool","internalType":"bool"}],"outputs":[],"stateMutability":"nonpayable"},{"type":"function","name":"setPendingOwner","inputs":[{"name":"to","type":"address","internalType":"address"}],"outputs":[],"stateMutability":"nonpayable"},{"type":"function","name":"setTag","inputs":[{"name":"_tag","type":"bytes32","internalType":"bytes32"}],"outputs":[],"stateMutability":"nonpayable"},{"type":"function","name":"swap","inputs":[{"name":"","type":"address","internalType":"address"},{"name":"_desc","type":"tuple","internalType":"struct OneinchV5Authorizer.SwapDescription","components":[{"name":"srcToken","type":"address","internalType":"address"},{"name":"dstToken","type":"address","internalType":"address"},{"name":"srcReceiver","type":"address","internalType":"address"},{"name":"dstReceiver","type":"address","internalType":"address"},{"name":"amount","type":"uint256","internalType":"uint256"},{"name":"minReturnAmount","type":"uint256","internalType":"uint256"},{"name":"flags","type":"uint256","internalType":"uint256"}]},{"name":"","type":"bytes","internalType":"bytes"},{"name":"","type":"bytes","internalType":"bytes"}],"outputs":[],"stateMutability":"view"},{"type":"function","name":"tag","inputs":[],"outputs":[{"name":"","type":"bytes32","internalType":"bytes32"}],"stateMutability":"view"},{"type":"function","name":"transferOwnership","inputs":[{"name":"newOwner","type":"address","internalType":"address"}],"outputs":[],"stateMutability":"nonpayable"},{"type":"function","name":"uniswapV3Swap","inputs":[{"name":"amount","type":"uint256","internalType":"uint256"},{"name":"minReturn","type":"uint256","internalType":"uint256"},{"name":"pools","type":"uint256[]","internalType":"uint256[]"}],"outputs":[],"stateMutability":"view"},{"type":"function","name":"unoswap","inputs":[{"name":"_srcToken","type":"address","internalType":"address"},{"name":"","type":"uint256","internalType":"uint256"},{"name":"","type":"uint256","internalType":"uint256"},{"name":"pools","type":"uint256[]","internalType":"uint256[]"}],"outputs":[],"stateMutability":"view"},{"type":"event","name":"AccountSet","inputs":[{"name":"account","type":"address","indexed":true,"internalType":"address"}],"anonymous":false},{"type":"event","name":"CallerSet","inputs":[{"name":"caller","type":"address","indexed":true,"internalType":"address"}],"anonymous":false},{"type":"event","name":"NewOwnerSet","inputs":[{"name":"owner","type":"address","indexed":true,"internalType":"address"}],"anonymous":false},{"type":"event","name":"PausedSet","inputs":[{"name":"status","type":"bool","indexed":true,"internalType":"bool"}],"anonymous":false},{"type":"event","name":"PendingOwnerSet","inputs":[{"name":"to","type":"address","indexed":true,"internalType":"address"}],"anonymous":false},{"type":"event","name":"SwapInTokenAdded","inputs":[{"name":"token","type":"address","indexed":true,"internalType":"address"}],"anonymous":false},{"type":"event","name":"SwapInTokenRemoved","inputs":[{"name":"token","type":"address","indexed":true,"internalType":"address"}],"anonymous":false},{"type":"event","name":"SwapOutTokenAdded","inputs":[{"name":"token","type":"address","indexed":true,"internalType":"address"}],"anonymous":false},{"type":"event","name":"SwapOutTokenRemoved","inputs":[{"name":"token","type":"address","indexed":true,"internalType":"address"}],"anonymous":false},{"type":"event","name":"TagSet","inputs":[{"name":"tag","type":"bytes32","indexed":true,"internalType":"bytes32"}],"anonymous":false}],"bytecode":{"object":"0x60a03461011057601f61271c38819003918201601f19168301916001600160401b0383118484101761011457808492604094855283398101031261011057610052602061004b83610128565b9201610128565b6001545f80546001600160a01b0319166001600160a01b039094169384178155919290917f038720101b9ced74445432ced46c7e5e4c80202669153dd67d226c66a0aa477b9080a26001600160b01b031916600160a01b176001555f600255600380546001600160a01b0319166001600160a01b03929092169190911790556100d961013c565b6080526040516124e6908161023682396080518181816103e201528181610a1e0152818161116f0152818161154a01526115a30152f35b5f80fd5b634e487b7160e01b5f52604160045260245ffd5b51906001600160a01b038216820361011057565b6001461461021d57600a461461020557603846146101ed57608946146101d55761a4b146146101bd5761a86a46146101a55760405162461bcd60e51b815260206004820152600f60248201526e2ab739bab83837b93a1031b430b4b760891b6044820152606490fd5b73b31f66aa3c1e785363f0875a1b74e27b85fd66c790565b7382af49447d8a07e3bd95bd0d56f35241523fbab190565b730d500b1d8e8ef31e21c99d1db9a6444d3adf127090565b73bb4cdb9cbd36b01bd1cbaebf2de08d9173bc095c90565b73420000000000000000000000000000000000000690565b73c02aaa39b223fe8d0a0e5c4f27ead9083c756cc29056fe60806040526004361015610019575b3415611ba8575b5f80fd5b5f3560e01c80630502b1c5146102d457806308dbebf6146102cf57806312aa3caf146102ca57806316c38b3c146102c557806316ea5c5d146102c057806325060650146102bb57806329f6d57c146102b657806332fe7b26146102b15780633eca9c0a146102ac57806342905ba9146102a7578063485cc955146102a257806351f910661461029d5780635c975abb146102985780635dab24201461029357806362e238bb1461028e5780636c0f79b614610289578063712beb0914610284578063715018a61461027f5780637c4c833b1461027a57806384bd6d291461027557806384c76c7c14610270578063890eba68146102025780638da5cb5b1461026b5780639326bc5e14610266578063935532bb146102615780639570eeee1461025c57806397bd65a8146102575780639d5228e814610252578063a3f4df7e1461024d578063ad5c464814610248578063b695e2ef14610243578063bb24fe8a1461023e578063beb92f5514610239578063c0c53b8b14610234578063c42069ec1461022f578063c4d66de81461022a578063d58c3fc314610225578063e30c397814610220578063e449022e1461021b578063ebbc496514610216578063f266002714610211578063f2fde38b1461020c578063fc9c8d39146102075763ffa1ad740361000e575b610ec0565b6117e9565b611764565b6116f1565b6116c4565b611446565b61141e565b611410565b6113c1565b611348565b6112ca565b611219565b6111f4565b61119e565b61115a565b61112b565b61109a565b610fff565b610fd8565b610f4a565b610f02565b610edb565b610e32565b610df3565b610d9a565b610d0d565b610c99565b610c7e565b610bff565b610bd7565b610bb2565b610b95565b610b63565b610ad5565b6109af565b610981565b6108cf565b610841565b610793565b6106d5565b6105d8565b6104e6565b610327565b6001600160a01b0381160361001557565b35906102f5826102d9565b565b9181601f84011215610015578235916001600160401b038311610015576020808501948460051b01011161001557565b3461001557608036600319011261001557600435610344816102d9565b606435906001600160401b03821161001557610377610368600493369085016102f7565b61037181611811565b91611855565b35906001600160a01b0382169060209061039090611be8565b91600160ff1b84166104645760405163d21220a760e01b815294859182905afa801561045f576103d7935f91610430575b505b918290600160fe1b166103d9575b50611c0f565b005b909150610414907f00000000000000000000000000000000000000000000000000000000000000006001600160a01b039081169116146118bf565b73eeeeeeeeeeeeeeeeeeeeeeeeeeeeeeeeeeeeeeee905f6103d1565b610452915060203d602011610458575b61044a8183611879565b81019061189f565b5f6103c1565b503d610440565b6118b4565b604051630dfe168160e01b815294859182905afa801561045f576103d7935f9161048f575b506103c3565b6104a8915060203d6020116104585761044a8183611879565b5f610489565b805180835260209291819084018484015e5f828201840152601f01601f1916010190565b9060206104e39281815201906104ae565b90565b34610015575f366003190112610015576040516351fa6fbf60e11b8152602081600481305afa90811561045f575f91610555575b610551610537610545846040519283916020830160209181520190565b03601f198101835282611879565b604051918291826104d2565b0390f35b90506020813d602011610581575b8161057060209383611879565b81010312610015575161053761051a565b3d9150610563565b60e090602319011261001557602490565b60e090600319011261001557600490565b9181601f84011215610015578235916001600160401b038311610015576020838186019501011161001557565b3461001557610140366003190112610015576105f56004356102d9565b6105fe36610589565b610104356001600160401b0381116100155761061e9036906004016105ab565b5050610124356001600160401b038111610015576106409036906004016105ab565b50506060810135610650816102d9565b6001600160a01b03610660611d61565b51166001600160a01b039091160361069c578061069661068a602061068f61068a6103d7966118fa565b611be8565b93016118fa565b90611c0f565b60405162461bcd60e51b8152602060048201526011602482015270125b9d985b1a59081c9958da5c1a595b9d607a1b6044820152606490fd5b3461001557602036600319011261001557600435801515809103610015575f54610712906001600160a01b031661070a61192f565b903314611950565b6001805460ff60a81b191660a883901b60ff60a81b161790557f40db37ff5c0bdc2c427fbb2078c8f24afea940abac0e3c23bb4ea3bf2da2b2125f80a2005b60206040818301928281528451809452019201905f5b8181106107745750505090565b82516001600160a01b0316845260209384019390920191600101610767565b34610015575f3660031901126100155760405180602060055491828152019060055f527f036b6384b5eca791c62761152d0c79bb0604c104a5fb6f4eb0703f3154bb3db0905f5b8181106107fd57610551856107f181870382611879565b60405191829182610751565b82548452602090930192600192830192016107da565b602060031982011261001557600435906001600160401b0382116100155761083d916004016102f7565b9091565b346100155761084f36610813565b5f54610866906001600160a01b031661070a61192f565b5f5b81811061087157005b8061087f6001928486611855565b35610889816102d9565b828060a01b0316610899816120bb565b6108a5575b5001610868565b7f11d761ef41dc70cdaee3d0610189711c62da37a797d661034f0986f14399b06f5f80a25f61089e565b34610015576020366003190112610015576004356108ec816102d9565b5f54610903906001600160a01b031661070a61192f565b6001600160a01b0316801561094a57600480546001600160a01b031916821790557f195359283029fbdb9a24519b1ec07caf1677655529bf99dc1634c1e8b28811805f80a2005b60405162461bcd60e51b815260206004820152600f60248201526e125b9d985b1a59081858d8dbdd5b9d608a1b6044820152606490fd5b34610015575f366003190112610015576020604051731111111254eeb25477b68fb85ed929f73a9605828152f35b3461001557610120366003190112610015576109ca3661059a565b60e435906001600160401b038211610015576109ed6103d79236906004016105ab565b5050610104355b90604081013591610a04836102d9565b60208392013592610a14846102d9565b6001600160a01b037f0000000000000000000000000000000000000000000000000000000000000000811691859116821480610ac1575b610aa5575b6001600160a01b0316149081610a95575b50610a79575b610a7361069691611be8565b91611be8565b73eeeeeeeeeeeeeeeeeeeeeeeeeeeeeeeeeeeeeeee9150610a67565b600160fc1b16151590505f610a61565b73eeeeeeeeeeeeeeeeeeeeeeeeeeeeeeeeeeeeeeee9350610a50565b506080610acc611d61565b01511515610a4b565b3461001557610ae336610813565b5f54610afa906001600160a01b031661070a61192f565b5f5b818110610b0557005b80610b136001928486611855565b35610b1d816102d9565b828060a01b0316610b2d81612159565b610b39575b5001610afc565b7f79f0e54b3eae4cd6491b0a5038f048490bcec1e21b97818b8302cf5587066ee65f80a25f610b32565b34610015576040366003190112610015576103d7600435610b83816102d9565b60243590610b90826102d9565b611980565b34610015575f366003190112610015576020600254604051908152f35b34610015575f36600319011261001557602060ff60015460a81c166040519015158152f35b34610015575f366003190112610015576004546040516001600160a01b039091168152602090f35b346100155760c0366003190112610015576004356001600160401b038111610015576101406003198236030112610015576024356001600160401b03811161001557610c4f9036906004016105ab565b5050604435906001600160401b03821161001557610c746103d79236906004016105ab565b50506004016119ce565b34610015575f366003190112610015576105516107f16119f5565b34610015575f3660031901126100155760405180602060075491828152019060075f527fa66cc928b5edb82af9bd49922954155ab7b0942694bea4ce44661d9a8736c688905f5b818110610cf757610551856107f181870382611879565b8254845260209093019260019283019201610ce0565b34610015575f366003190112610015575f54610d34906001600160a01b031661070a61192f565b6001600160601b0360a01b5f54165f556001600160601b0360a01b600154166001555f7f038720101b9ced74445432ced46c7e5e4c80202669153dd67d226c66a0aa477b8180a2005b90816101009103126100155790565b908160609103126100155790565b34610015576040366003190112610015576004356001600160401b03811161001557610dca903690600401610d7d565b506024356001600160401b03811161001557610dea903690600401610d8c565b506103d7611a52565b346100155761010036600319011261001557610e106004356102d9565b6103d7602435610e1f816102d9565b610696610a736044359261068a846102d9565b3461001557610e4036610813565b5f54610e57906001600160a01b031661070a61192f565b5f5b818110610e6257005b80610e706001928486611855565b35610e7a816102d9565b828060a01b0316610e8a816121db565b610e96575b5001610e59565b7f67bb215b6aed7cca18e965f9b5088e24f9a2dd29dabd4e5c5e786462275adf2b5f80a25f610e8f565b34610015575f36600319011261001557602060405160018152f35b34610015575f366003190112610015575f546040516001600160a01b039091168152602090f35b34610015576020366003190112610015576020610f40600435610f24816102d9565b6001600160a01b03165f90815260066020526040902054151590565b6040519015158152f35b3461001557610f5836610813565b5f54610f6f906001600160a01b031661070a61192f565b5f5b818110610f7a57005b80610f886001928486611855565b35610f92816102d9565b828060a01b0316610fa281612244565b610fae575b5001610f71565b7fec44f51830691f58dcfc9f96d0c988a4d599bcef0b7768f4a24c4ecec8faa7425f80a25f610fa7565b3461001557610140366003190112610015576103d7610ff63661059a565b610124356109f4565b34610015576020366003190112610015576020610f40600435611021816102d9565b6001600160a01b03165f90815260086020526040902054151590565b90602082528051916002831015611086576104e39260208201526040611071602084015160608385015260808401906104ae565b920151906060601f19828503019101526104ae565b634e487b7160e01b5f52602160045260245ffd5b34610015576060366003190112610015576004356001600160401b038111610015576110ca903690600401610d7d565b6024356001600160401b038111610015576110e9903690600401610d8c565b90604435906001600160401b038211610015576105519261111161111f933690600401610d8c565b9161111a611a6a565b611a99565b6040519182918261103d565b34610015575f366003190112610015576040517018b4b731b42b1aa0baba3437b934bd32b960791b8152602090f35b34610015575f366003190112610015576040517f00000000000000000000000000000000000000000000000000000000000000006001600160a01b03168152602090f35b34610015576020366003190112610015575f54600435906111ca906001600160a01b031661070a61192f565b806002557fef711e3eb06966d227e22eb4fa0302550dcd7257cf69b537cf4d37af53ea9cda5f80a2005b34610015575f36600319011261001557604051664465785479706560c81b8152602090f35b3461001557602036600319011261001557600435611236816102d9565b5f5461124d906001600160a01b031661070a61192f565b6001600160a01b0316801561129457600380546001600160a01b031916821790557fac431eb831269b53b41991f6cbfbfc93f4baa395996a8170abac93962b5a358e5f80a2005b60405162461bcd60e51b815260206004820152600e60248201526d24b73b30b634b21031b0b63632b960911b6044820152606490fd5b34610015576060366003190112610015576004356112e7816102d9565b6113036024356112f6816102d9565b60443592610b90846102d9565b600480546001600160a01b0319166001600160a01b039290921691821790557f195359283029fbdb9a24519b1ec07caf1677655529bf99dc1634c1e8b28811805f80a2005b3461001557602036600319011261001557600435611365816102d9565b5f5461137c906001600160a01b031661070a61192f565b600180546001600160a01b0319166001600160a01b039290921691821790557f68f49b346b94582a8b5f9d10e3fe3365318fe8f191ff8dce7c59c6cad06b02f55f80a2005b34610015576020366003190112610015576103d76004356113e1816102d9565b611b07565b602060031982011261001557600435906001600160401b038211610015576104e391600401610d7d565b3461001557610dea366113e6565b34610015575f366003190112610015576001546040516001600160a01b039091168152602090f35b34610015576060366003190112610015576044356001600160401b0381116100155761149761147a600492369084016102f7565b61149061148982949394611811565b8285611855565b3592611847565b6001600160a01b0382811691602091903590811690600160ff1b1661167a57604051630dfe168160e01b815294859182905afa801561045f576004935f9161165b575b50915b8291602090600160ff1b83166116105760405163d21220a760e01b815295869182905afa801561045f576103d7945f916115f1575b50905b81936080611521611d61565b015161159a575b50600160fd1b16611541575b50610a7361069691611be8565b90915061157c907f00000000000000000000000000000000000000000000000000000000000000006001600160a01b039081169116146118bf565b73eeeeeeeeeeeeeeeeeeeeeeeeeeeeeeeeeeeeeeee90610a73611534565b9092506115d5907f00000000000000000000000000000000000000000000000000000000000000006001600160a01b03908116911614611b6d565b73eeeeeeeeeeeeeeeeeeeeeeeeeeeeeeeeeeeeeeee915f611528565b61160a915060203d6020116104585761044a8183611879565b5f611512565b604051630dfe168160e01b815295869182905afa801561045f576103d7945f9161163c575b5090611515565b611655915060203d6020116104585761044a8183611879565b5f611635565b611674915060203d6020116104585761044a8183611879565b5f6114da565b60405163d21220a760e01b815294859182905afa801561045f576004935f916116a5575b50916114dd565b6116be915060203d6020116104585761044a8183611879565b5f61169e565b34610015575f366003190112610015576001546001600160a01b031633819003610015576103d790611cc2565b3461001557610551611702366113e6565b61170a611a6a565b61172860018060a01b03600354163314611722611a31565b90611950565b9060ff60015460a81c165f1461175557505f8152611744611ae6565b60208201526040519182918261103d565b61175f9150611e9a565b61111f565b3461001557602036600319011261001557600435611781816102d9565b5f54611798906001600160a01b031661070a61192f565b6001600160a01b038116156117b0576103d790611cc2565b60405162461bcd60e51b81526020600482015260116024820152704e6577204f776e6572206973207a65726f60781b6044820152606490fd5b34610015575f366003190112610015576003546040516001600160a01b039091168152602090f35b5f1981019190821161181f57565b634e487b7160e01b5f52601160045260245ffd5b634e487b7160e01b5f52603260045260245ffd5b90156118505790565b611833565b91908110156118505760051b0190565b634e487b7160e01b5f52604160045260245ffd5b90601f801991011681019081106001600160401b0382111761189a57604052565b611865565b9081602091031261001557516104e3816102d9565b6040513d5f823e3d90fd5b156118c657565b60405162461bcd60e51b815260206004820152600c60248201526b088e6e840dcdee840ae8aa8960a31b6044820152606490fd5b356104e3816102d9565b604051906102f561010083611879565b6001600160401b03811161189a57601f01601f191660200190565b6040519061193e604083611879565b600382526245333560e81b6020830152565b156119585750565b60405162461bcd60e51b81526020600482015290819061197c9060248301906104ae565b0390fd5b61198990611b07565b600380546001600160a01b0319166001600160a01b039290921691821790557fac431eb831269b53b41991f6cbfbfc93f4baa395996a8170abac93962b5a358e5f80a2565b6102f590610696610a7360206040840135936119e9856102d9565b01359261068a846102d9565b60405190611a04604083611879565b6001825260208083019036823782511561185057731111111254eeb25477b68fb85ed929f73a9605829052565b60405190611a40604083611879565b600382526245323760e81b6020830152565b6102f560018060a01b03600354163314611722611a31565b60405190606082018281106001600160401b0382111761189a5760405260606040835f81528260208201520152565b92505050611ab560018060a01b03600354163314611722611a31565b60015460a81c60ff1615611ad6575f8152611ace611ae6565b602082015290565b50611adf611a6a565b6001815290565b60405190611af5604083611879565b6003825262229a1b60e91b6020830152565b60ff60015460a01c16611b3257611b1d90611cc2565b6001805460ff60a01b1916600160a01b179055565b60405162461bcd60e51b8152602060048201526013602482015272105b1c9958591e481a5b9a5d1a585b1a5e9959606a1b6044820152606490fd5b15611b7457565b60405162461bcd60e51b815260206004820152600c60248201526b0a6e4c640dcdee840ae8aa8960a31b6044820152606490fd5b61197c604051611bb9604082611879565b600381526245343960e81b602082015260405191829162461bcd60e51b835260206004840181815201906104ae565b6001600160a01b0381166104e3575073eeeeeeeeeeeeeeeeeeeeeeeeeeeeeeeeeeeeeeee90565b6001600160a01b03165f9081526006602052604090205415611c86576001600160a01b03165f9081526008602052604090205415611c4957565b60405162461bcd60e51b815260206004820152601560248201527413dd5d081d1bdad95b881b9bdd08185b1b1bddd959605a1b6044820152606490fd5b60405162461bcd60e51b8152602060048201526014602482015273125b881d1bdad95b881b9bdd08185b1b1bddd95960621b6044820152606490fd5b60018060a01b0316806001600160601b0360a01b5f5416175f556001600160601b0360a01b600154166001557f038720101b9ced74445432ced46c7e5e4c80202669153dd67d226c66a0aa477b5f80a2565b6040519061010082018281106001600160401b0382111761189a57604052606060e0835f81525f60208201525f60408201525f838201525f60808201528260a08201528260c08201520152565b611d69611d14565b50611d72611d14565b50601f19360136811161181f573536811161001557803603810190602081830312610015578035906001600160401b03821161001557016101008183031261001557611dbc611904565b91611dc6826102ea565b8352611dd4602083016102ea565b602084015260408201356040840152611def606083016102ea565b60608401526080820135608084015260a08201356001600160401b0381116100155781611e1d918401612292565b60a084015260c08201356001600160401b0381116100155781611e41918401612292565b60c084015260e08201356001600160401b03811161001557611e639201612292565b60e082015290565b3d15611e95573d90611e7c82611914565b91611e8a6040519384611879565b82523d5f602084013e565b606090565b611ea2611a6a565b611eab826122d8565b1561202357505f8061200a61200a6120106104e395610537611fe2611ff560405193602080860152611ef060408601611ee3836102ea565b6001600160a01b03169052565b611f0f611eff602083016102ea565b6001600160a01b03166060870152565b60408101356080860152611f38611f28606083016102ea565b6001600160a01b031660a0870152565b608081013560c086015260a0810190611fbf86611fb1611f91611f71611f5e878761233c565b61010060e087015261014086019161236d565b611f7e60c087018761233c565b858303603f19016101008701529061236d565b611f9e60e086018661233c565b848303603f19016101208601529061236d565b03601f198101885287611879565b611ff0611fcc838361238d565b9050604051958691602083019190602083019252565b03601f198101865285611879565b61238d565b96909360405196879560208701998a916123bf565b906123cc565b5190305afa61201d611e6b565b906123ff565b90505f8152604051612036604082611879565b600381526245353560e81b6020820152602082015290565b8054821015611850575f5260205f2001905f90565b9161207c9183549060031b91821b915f19901b19161790565b9055565b805480156120a7575f190190612096828261204e565b8154905f199060031b1b1916905555565b634e487b7160e01b5f52603160045260245ffd5b5f81815260066020526040902054908115612153575f1982019082821161181f575f92612112926120ed600554611811565b90818103612118575b5050506121036005612080565b6006905f5260205260405f2090565b55600190565b6121036121449161213a61213061214a95600561204e565b90549060031b1c90565b928391600561204e565b90612063565b555f80806120f6565b50505f90565b5f81815260086020526040902054908115612153575f1982019082821161181f575f926121129261218b600754611811565b908181036121b0575b5050506121a16007612080565b6008905f5260205260405f2090565b6121a1612144916121c86121306121d295600761204e565b928391600761204e565b555f8080612194565b5f8181526008602052604090205461223f57600754600160401b81101561189a57612228612212826001859401600755600761204e565b819391549060031b91821b915f19901b19161790565b9055600754905f52600860205260405f2055600190565b505f90565b5f8181526006602052604090205461223f57600554600160401b81101561189a5761227b612212826001859401600555600561204e565b9055600554905f52600660205260405f2055600190565b81601f82011215610015578035906122a982611914565b926122b76040519485611879565b8284526020838301011161001557815f926020809301838601378301015290565b606001356122e5816102d9565b6122ed6119f5565b906001600160a01b03165f5b825181101561233557825181101561185057600581901b8301602001516001600160a01b0316821461232d576001016122f9565b505050600190565b5050505f90565b9035601e19823603018112156100155701602081359101916001600160401b03821161001557813603831361001557565b908060209392818452848401375f828201840152601f01601f1916010190565b903590601e198136030182121561001557018035906001600160401b0382116100155760200191813603831361001557565b908092918237015f815290565b805191908290602001825e015f815290565b604051906123ed604083611879565b600382526245333960e81b6020830152565b9190612409611a6a565b92156124235761241d9051156117226123de565b60018252565b60448151105f14612435576020830152565b6004810151810160248101919060209082900312610015576024810151906001600160401b0382116100155701816043820112156100155760248101519061247c82611914565b9261248a6040519485611879565b8284526044828401011161001557815f926044602093018386015e83010152602083015256fea26469706673582212206315a5941a84b667c830767952a1f1c34b4e14224d8212f9ac95357e4b8472fa64736f6c634300081a0033","linkReferences":{}},"methodIdentifiers":{"NAME()":"a3f4df7e","ROUTER()":"32fe7b26","TYPE()":"bb24fe8a","VERSION()":"ffa1ad74","WETH()":"ad5c4648","_NAME()":"08dbebf6","acceptOwner()":"ebbc4965","account()":"5dab2420","addSwapInTokens(address[])":"935532bb","addSwapOutTokens(address[])":"84c76c7c","caller()":"fc9c8d39","clipperSwap(address,address,address,uint256,uint256,uint256,bytes32,bytes32)":"84bd6d29","contracts()":"6c0f79b6","fillOrder((uint256,address,address,address,address,address,uint256,uint256,uint256,bytes),bytes,bytes,uint256,uint256,uint256)":"62e238bb","fillOrderRFQ((uint256,address,address,address,address,uint256,uint256),bytes,uint256)":"3eca9c0a","fillOrderRFQCompact((uint256,address,address,address,address,uint256,uint256),bytes32,bytes32,uint256)":"9570eeee","flag()":"890eba68","getSwapInTokens()":"16ea5c5d","getSwapOutTokens()":"712beb09","hasSwapInToken(address)":"9326bc5e","hasSwapOutToken(address)":"97bd65a8","initialize(address)":"c4d66de8","initialize(address,address)":"485cc955","initialize(address,address,address)":"c0c53b8b","owner()":"8da5cb5b","paused()":"5c975abb","pendingOwner()":"e30c3978","postExecCheck((address,address,uint256,address,uint256,bytes,bytes,bytes),(bool,bytes,bytes),(uint8,string,bytes))":"9d5228e8","postExecProcess((address,address,uint256,address,uint256,bytes,bytes,bytes),(bool,bytes,bytes))":"7c4c833b","preExecCheck((address,address,uint256,address,uint256,bytes,bytes,bytes))":"f2660027","preExecProcess((address,address,uint256,address,uint256,bytes,bytes,bytes))":"d58c3fc3","removeSwapInTokens(address[])":"25060650","removeSwapOutTokens(address[])":"42905ba9","renounceOwnership()":"715018a6","setAccount(address)":"29f6d57c","setCaller(address)":"beb92f55","setPaused(bool)":"16c38b3c","setPendingOwner(address)":"c42069ec","setTag(bytes32)":"b695e2ef","swap(address,(address,address,address,address,uint256,uint256,uint256),bytes,bytes)":"12aa3caf","tag()":"51f91066","transferOwnership(address)":"f2fde38b","uniswapV3Swap(uint256,uint256,uint256[])":"e449022e","unoswap(address,uint256,uint256,uint256[])":"0502b1c5"},"id":39}