{"abi":[{"type":"constructor","inputs":[{"name":"_owner","type":"address","internalType":"address"},{"name":"_caller","type":"address","internalType":"address"}],"stateMutability":"nonpayable"},{"type":"fallback","stateMutability":"nonpayable"},{"type":"function","name":"NAME","inputs":[],"outputs":[{"name":"","type":"bytes32","internalType":"bytes32"}],"stateMutability":"view"},{"type":"function","name":"TYPE","inputs":[],"outputs":[{"name":"","type":"bytes32","internalType":"bytes32"}],"stateMutability":"view"},{"type":"function","name":"VERSION","inputs":[],"outputs":[{"name":"","type":"uint256","internalType":"uint256"}],"stateMutability":"view"},{"type":"function","name":"_NAME","inputs":[],"outputs":[{"name":"","type":"string","internalType":"string"}],"stateMutability":"view"},{"type":"function","name":"acceptOwner","inputs":[],"outputs":[],"stateMutability":"nonpayable"},{"type":"function","name":"account","inputs":[],"outputs":[{"name":"","type":"address","internalType":"address"}],"stateMutability":"view"},{"type":"function","name":"addToContracts","inputs":[{"name":"_contract","type":"address","internalType":"address"}],"outputs":[],"stateMutability":"nonpayable"},{"type":"function","name":"addToSpenders","inputs":[{"name":"_contract","type":"address","internalType":"address"}],"outputs":[],"stateMutability":"nonpayable"},{"type":"function","name":"approve","inputs":[{"name":"spender","type":"address","internalType":"address"},{"name":"value","type":"uint256","internalType":"uint256"}],"outputs":[],"stateMutability":"view"},{"type":"function","name":"caller","inputs":[],"outputs":[{"name":"","type":"address","internalType":"address"}],"stateMutability":"view"},{"type":"function","name":"containContract","inputs":[{"name":"_contract","type":"address","internalType":"address"}],"outputs":[{"name":"","type":"address","internalType":"address"}],"stateMutability":"view"},{"type":"function","name":"contracts","inputs":[],"outputs":[{"name":"_contracts","type":"address[]","internalType":"address[]"}],"stateMutability":"view"},{"type":"function","name":"flag","inputs":[],"outputs":[{"name":"","type":"uint256","internalType":"uint256"}],"stateMutability":"view"},{"type":"function","name":"getAdmins","inputs":[],"outputs":[{"name":"","type":"address[]","internalType":"address[]"}],"stateMutability":"view"},{"type":"function","name":"getContractsSet","inputs":[],"outputs":[{"name":"","type":"address[]","internalType":"address[]"}],"stateMutability":"view"},{"type":"function","name":"getSpendersSet","inputs":[],"outputs":[{"name":"","type":"address[]","internalType":"address[]"}],"stateMutability":"view"},{"type":"function","name":"initialize","inputs":[{"name":"_owner","type":"address","internalType":"address"},{"name":"_caller","type":"address","internalType":"address"}],"outputs":[],"stateMutability":"nonpayable"},{"type":"function","name":"initialize","inputs":[{"name":"_owner","type":"address","internalType":"address"},{"name":"_caller","type":"address","internalType":"address"},{"name":"_account","type":"address","internalType":"address"}],"outputs":[],"stateMutability":"nonpayable"},{"type":"function","name":"initialize","inputs":[{"name":"_owner","type":"address","internalType":"address"}],"outputs":[],"stateMutability":"nonpayable"},{"type":"function","name":"owner","inputs":[],"outputs":[{"name":"","type":"address","internalType":"address"}],"stateMutability":"view"},{"type":"function","name":"paused","inputs":[],"outputs":[{"name":"","type":"bool","internalType":"bool"}],"stateMutability":"view"},{"type":"function","name":"pendingOwner","inputs":[],"outputs":[{"name":"","type":"address","internalType":"address"}],"stateMutability":"view"},{"type":"function","name":"postExecCheck","inputs":[{"name":"transaction","type":"tuple","internalType":"struct TransactionData","components":[{"name":"from","type":"address","internalType":"address"},{"name":"delegate","type":"address","internalType":"address"},{"name":"flag","type":"uint256","internalType":"uint256"},{"name":"to","type":"address","internalType":"address"},{"name":"value","type":"uint256","internalType":"uint256"},{"name":"data","type":"bytes","internalType":"bytes"},{"name":"hint","type":"bytes","internalType":"bytes"},{"name":"extra","type":"bytes","internalType":"bytes"}]},{"name":"callResult","type":"tuple","internalType":"struct TransactionResult","components":[{"name":"success","type":"bool","internalType":"bool"},{"name":"data","type":"bytes","internalType":"bytes"},{"name":"hint","type":"bytes","internalType":"bytes"}]},{"name":"preData","type":"tuple","internalType":"struct AuthorizerReturnData","components":[{"name":"result","type":"uint8","internalType":"enum AuthResult"},{"name":"message","type":"string","internalType":"string"},{"name":"data","type":"bytes","internalType":"bytes"}]}],"outputs":[{"name":"authData","type":"tuple","internalType":"struct AuthorizerReturnData","components":[{"name":"result","type":"uint8","internalType":"enum AuthResult"},{"name":"message","type":"string","internalType":"string"},{"name":"data","type":"bytes","internalType":"bytes"}]}],"stateMutability":"nonpayable"},{"type":"function","name":"postExecProcess","inputs":[{"name":"transaction","type":"tuple","internalType":"struct TransactionData","components":[{"name":"from","type":"address","internalType":"address"},{"name":"delegate","type":"address","internalType":"address"},{"name":"flag","type":"uint256","internalType":"uint256"},{"name":"to","type":"address","internalType":"address"},{"name":"value","type":"uint256","internalType":"uint256"},{"name":"data","type":"bytes","internalType":"bytes"},{"name":"hint","type":"bytes","internalType":"bytes"},{"name":"extra","type":"bytes","internalType":"bytes"}]},{"name":"callResult","type":"tuple","internalType":"struct TransactionResult","components":[{"name":"success","type":"bool","internalType":"bool"},{"name":"data","type":"bytes","internalType":"bytes"},{"name":"hint","type":"bytes","internalType":"bytes"}]}],"outputs":[],"stateMutability":"nonpayable"},{"type":"function","name":"preExecCheck","inputs":[{"name":"transaction","type":"tuple","internalType":"struct TransactionData","components":[{"name":"from","type":"address","internalType":"address"},{"name":"delegate","type":"address","internalType":"address"},{"name":"flag","type":"uint256","internalType":"uint256"},{"name":"to","type":"address","internalType":"address"},{"name":"value","type":"uint256","internalType":"uint256"},{"name":"data","type":"bytes","internalType":"bytes"},{"name":"hint","type":"bytes","internalType":"bytes"},{"name":"extra","type":"bytes","internalType":"bytes"}]}],"outputs":[{"name":"authData","type":"tuple","internalType":"struct AuthorizerReturnData","components":[{"name":"result","type":"uint8","internalType":"enum AuthResult"},{"name":"message","type":"string","internalType":"string"},{"name":"data","type":"bytes","internalType":"bytes"}]}],"stateMutability":"nonpayable"},{"type":"function","name":"preExecProcess","inputs":[{"name":"transaction","type":"tuple","internalType":"struct TransactionData","components":[{"name":"from","type":"address","internalType":"address"},{"name":"delegate","type":"address","internalType":"address"},{"name":"flag","type":"uint256","internalType":"uint256"},{"name":"to","type":"address","internalType":"address"},{"name":"value","type":"uint256","internalType":"uint256"},{"name":"data","type":"bytes","internalType":"bytes"},{"name":"hint","type":"bytes","internalType":"bytes"},{"name":"extra","type":"bytes","internalType":"bytes"}]}],"outputs":[],"stateMutability":"nonpayable"},{"type":"function","name":"removeAdmin","inputs":[{"name":"_address","type":"address","internalType":"address"}],"outputs":[],"stateMutability":"nonpayable"},{"type":"function","name":"removeFromContracts","inputs":[{"name":"_contract","type":"address","internalType":"address"}],"outputs":[],"stateMutability":"nonpayable"},{"type":"function","name":"removeFromSpenders","inputs":[{"name":"_contract","type":"address","internalType":"address"}],"outputs":[],"stateMutability":"nonpayable"},{"type":"function","name":"renounceOwnership","inputs":[],"outputs":[],"stateMutability":"nonpayable"},{"type":"function","name":"setAccount","inputs":[{"name":"_account","type":"address","internalType":"address"}],"outputs":[],"stateMutability":"nonpayable"},{"type":"function","name":"setAdmin","inputs":[{"name":"_address","type":"address","internalType":"address"}],"outputs":[],"stateMutability":"nonpayable"},{"type":"function","name":"setCaller","inputs":[{"name":"_caller","type":"address","internalType":"address"}],"outputs":[],"stateMutability":"nonpayable"},{"type":"function","name":"setPaused","inputs":[{"name":"_paused","type":"bool","internalType":"bool"}],"outputs":[],"stateMutability":"nonpayable"},{"type":"function","name":"setPendingOwner","inputs":[{"name":"to","type":"address","internalType":"address"}],"outputs":[],"stateMutability":"nonpayable"},{"type":"function","name":"setTag","inputs":[{"name":"_tag","type":"bytes32","internalType":"bytes32"}],"outputs":[],"stateMutability":"nonpayable"},{"type":"function","name":"tag","inputs":[],"outputs":[{"name":"","type":"bytes32","internalType":"bytes32"}],"stateMutability":"view"},{"type":"function","name":"transferOwnership","inputs":[{"name":"newOwner","type":"address","internalType":"address"}],"outputs":[],"stateMutability":"nonpayable"},{"type":"event","name":"AccountSet","inputs":[{"name":"account","type":"address","indexed":true,"internalType":"address"}],"anonymous":false},{"type":"event","name":"CallerSet","inputs":[{"name":"caller","type":"address","indexed":true,"internalType":"address"}],"anonymous":false},{"type":"event","name":"NewOwnerSet","inputs":[{"name":"owner","type":"address","indexed":true,"internalType":"address"}],"anonymous":false},{"type":"event","name":"PausedSet","inputs":[{"name":"status","type":"bool","indexed":true,"internalType":"bool"}],"anonymous":false},{"type":"event","name":"PendingOwnerSet","inputs":[{"name":"to","type":"address","indexed":true,"internalType":"address"}],"anonymous":false},{"type":"event","name":"TagSet","inputs":[{"name":"tag","type":"bytes32","indexed":true,"internalType":"bytes32"}],"anonymous":false},{"type":"event","name":"newAdmin","inputs":[{"name":"newAdmin","type":"address","indexed":false,"internalType":"address"}],"anonymous":false}],"bytecode":{"object":"0x6080346100de57601f611ce638819003918201601f19168301916001600160401b038311848410176100e25780849260409485528339810103126100de57610052602061004b836100f6565b92016100f6565b6001545f80546001600160a01b0319166001600160a01b03909416938417815560405193907f038720101b9ced74445432ced46c7e5e4c80202669153dd67d226c66a0aa477b9080a26001600160b01b031916600160a01b176001555f600255600380546001600160a01b0319166001600160a01b0392909216919091179055611bdb908161010b8239f35b5f80fd5b634e487b7160e01b5f52604160045260245ffd5b51906001600160a01b03821682036100de5756fe60806040526004361015610019575b3415611251575b5f80fd5b5f3560e01c806304ae97ed1461026f57806308dbebf61461026a578063095ea7b31461026557806316c38b3c146102605780631785f53c1461025b57806329f6d57c1461025657806331ae450b14610251578063485cc9551461024c57806351f91066146102475780635c975abb146102425780635dab24201461023d5780636c0f79b6146101e8578063704b6c0214610238578063715018a614610233578063727b64851461022e5780637c4c833b14610229578063890eba68146101c05780638da5cb5b146102245780639d5228e81461021f578063a3f4df7e1461021a578063a9dcedb014610215578063b695e2ef14610210578063bb24fe8a1461020b578063beb92f5514610206578063c0c53b8b14610201578063c224a479146101fc578063c42069ec146101f7578063c4d66de8146101f2578063d58c3fc3146101ed578063d9f09125146101e8578063e30c3978146101e3578063ea86abc3146101de578063ebbc4965146101d9578063f21a83fe146101d4578063f2660027146101cf578063f2fde38b146101ca578063fc9c8d39146101c55763ffa1ad740361000e575b6108fc565b610f46565b610ec1565b610e4e565b610df8565b610dcb565b610d85565b610d5d565b610742565b610d4f565b610d00565b610c87565b610c4e565b610bd0565b610b1f565b610af7565b610aa1565b610a5b565b610a2c565b61099b565b610917565b6108a3565b610840565b6107d0565b61075d565b61071a565b6106f5565b6106d8565b6106a6565b610644565b610550565b61050b565b61048f565b6103c5565b610317565b610292565b6001600160a01b0381160361001557565b359061029082610274565b565b34610015576020366003190112610015576102dd6004356102b281610274565b6102cf6102ca335f52600660205260405f2054151590565b610f6e565b6001600160a01b0316611576565b005b805180835260209291819084018484015e5f828201840152601f01601f1916010190565b9060206103149281815201906102df565b90565b34610015575f366003190112610015576040516351fa6fbf60e11b8152602081600481305afa9081156103ba575f91610386575b610382610368610376846040519283916020830160209181520190565b03601f198101835282610fba565b60405191829182610303565b0390f35b90506020813d6020116103b2575b816103a160209383610fba565b81010312610015575161036861034b565b3d9150610394565b6040513d5f823e3d90fd5b34610015576040366003190112610015576004356103e281610274565b6103ea611291565b506103f3611291565b50601f19360136811161047b57353681116100155761046a61045e6102dd9361045e61045961043d606061042f886104599936038101906116cf565b01516001600160a01b031690565b6001600160a01b03165f90815260086020526040902054151590565b610fe0565b6001600160a01b031690565b5f52600a60205260405f2054151590565b634e487b7160e01b5f52601160045260245ffd5b3461001557602036600319011261001557600435801515809103610015575f546104cc906001600160a01b03166104c4611012565b903314611033565b6001805460ff60a81b191660a883901b60ff60a81b161790557f40db37ff5c0bdc2c427fbb2078c8f24afea940abac0e3c23bb4ea3bf2da2b2125f80a2005b34610015576020366003190112610015576102dd60043561052b81610274565b5f54610542906001600160a01b03166104c4611012565b6001600160a01b03166117e8565b346100155760203660031901126100155760043561056d81610274565b5f54610584906001600160a01b03166104c4611012565b6001600160a01b031680156105cb57600480546001600160a01b031916821790557f195359283029fbdb9a24519b1ec07caf1677655529bf99dc1634c1e8b28811805f80a2005b60405162461bcd60e51b815260206004820152600f60248201526e125b9d985b1a59081858d8dbdd5b9d608a1b6044820152606490fd5b60206040818301928281528451809452019201905f5b8181106106255750505090565b82516001600160a01b0316845260209384019390920191600101610618565b34610015575f36600319011261001557604051600554808252602082019060055f5260205f20905f5b818110610690576103828561068481870382610fba565b60405191829182610602565b825484526020909301926001928301920161066d565b34610015576040366003190112610015576102dd6004356106c681610274565b602435906106d382610274565b611063565b34610015575f366003190112610015576020600254604051908152f35b34610015575f36600319011261001557602060ff60015460a81c166040519015158152f35b34610015575f366003190112610015576004546040516001600160a01b039091168152602090f35b34610015575f3660031901126100155761038261068461198a565b34610015576020366003190112610015577fa6ba31c1adac651e51a12cb801ecc9e2b43d89fd6c30db7fc12c71f483d764bc602060043561079d81610274565b5f546107b4906001600160a01b03166104c4611012565b6001600160a01b03166107c6816115df565b50604051908152a1005b34610015575f366003190112610015575f546107f7906001600160a01b03166104c4611012565b6001600160601b0360a01b5f54165f556001600160601b0360a01b600154166001555f7f038720101b9ced74445432ced46c7e5e4c80202669153dd67d226c66a0aa477b8180a2005b34610015576020366003190112610015576102dd60043561086081610274565b6108786102ca335f52600660205260405f2054151590565b6001600160a01b0316611886565b90816101009103126100155790565b908160609103126100155790565b34610015576040366003190112610015576004356001600160401b038111610015576108d3903690600401610886565b506024356001600160401b038111610015576108f3903690600401610895565b506102dd6110d2565b34610015575f36600319011261001557602060405160018152f35b34610015575f366003190112610015575f546040516001600160a01b039091168152602090f35b90602082528051916002831015610987576103149260208201526040610972602084015160608385015260808401906102df565b920151906060601f19828503019101526102df565b634e487b7160e01b5f52602160045260245ffd5b34610015576060366003190112610015576004356001600160401b038111610015576109cb903690600401610886565b6024356001600160401b038111610015576109ea903690600401610895565b90604435906001600160401b0382116100155761038292610a12610a20933690600401610895565b91610a1b6110ea565b611119565b6040519182918261093e565b34610015575f366003190112610015576040517020b8383937bb32a0baba3437b934bd32b960791b8152602090f35b34610015576020366003190112610015576102dd600435610a7b81610274565b610a936102ca335f52600660205260405f2054151590565b6001600160a01b0316611908565b34610015576020366003190112610015575f5460043590610acd906001600160a01b03166104c4611012565b806002557fef711e3eb06966d227e22eb4fa0302550dcd7257cf69b537cf4d37af53ea9cda5f80a2005b34610015575f3660031901126100155760405169436f6d6d6f6e5479706560b01b8152602090f35b3461001557602036600319011261001557600435610b3c81610274565b5f54610b53906001600160a01b03166104c4611012565b6001600160a01b03168015610b9a57600380546001600160a01b031916821790557fac431eb831269b53b41991f6cbfbfc93f4baa395996a8170abac93962b5a358e5f80a2005b60405162461bcd60e51b815260206004820152600e60248201526d24b73b30b634b21031b0b63632b960911b6044820152606490fd5b3461001557606036600319011261001557600435610bed81610274565b610c09602435610bfc81610274565b604435926106d384610274565b600480546001600160a01b0319166001600160a01b039290921691821790557f195359283029fbdb9a24519b1ec07caf1677655529bf99dc1634c1e8b28811805f80a2005b34610015576020366003190112610015576020610c75600435610c7081610274565b611187565b6040516001600160a01b039091168152f35b3461001557602036600319011261001557600435610ca481610274565b5f54610cbb906001600160a01b03166104c4611012565b600180546001600160a01b0319166001600160a01b039290921691821790557f68f49b346b94582a8b5f9d10e3fe3365318fe8f191ff8dce7c59c6cad06b02f55f80a2005b34610015576020366003190112610015576102dd600435610d2081610274565b6111eb565b602060031982011261001557600435906001600160401b0382116100155761031491600401610886565b34610015576108f336610d25565b34610015575f366003190112610015576001546040516001600160a01b039091168152602090f35b34610015576020366003190112610015576102dd600435610da581610274565b610dbd6102ca335f52600660205260405f2054151590565b6001600160a01b031661162d565b34610015575f366003190112610015576001546001600160a01b031633819003610015576102dd906112de565b34610015575f36600319011261001557604051600954808252602082019060095f5260205f20905f5b818110610e38576103828561068481870382610fba565b8254845260209093019260019283019201610e21565b3461001557610382610e5f36610d25565b610e676110ea565b610e8560018060a01b03600354163314610e7f6110b1565b90611033565b9060ff60015460a81c165f14610eb257505f8152610ea1611166565b60208201526040519182918261093e565b610ebc915061135f565b610a20565b3461001557602036600319011261001557600435610ede81610274565b5f54610ef5906001600160a01b03166104c4611012565b6001600160a01b03811615610f0d576102dd906112de565b60405162461bcd60e51b81526020600482015260116024820152704e6577204f776e6572206973207a65726f60781b6044820152606490fd5b34610015575f366003190112610015576003546040516001600160a01b039091168152602090f35b15610f7557565b60405162461bcd60e51b81526020600482015260096024820152683737ba1020b236b4b760b91b6044820152606490fd5b634e487b7160e01b5f52604160045260245ffd5b90601f801991011681019081106001600160401b03821117610fdb57604052565b610fa6565b1561001557565b6040519061029061010083610fba565b6001600160401b038111610fdb57601f01601f191660200190565b60405190611021604083610fba565b600382526245333560e81b6020830152565b1561103b5750565b60405162461bcd60e51b81526020600482015290819061105f9060248301906102df565b0390fd5b61106c906111eb565b600380546001600160a01b0319166001600160a01b039290921691821790557fac431eb831269b53b41991f6cbfbfc93f4baa395996a8170abac93962b5a358e5f80a2565b604051906110c0604083610fba565b600382526245323760e81b6020830152565b61029060018060a01b03600354163314610e7f6110b1565b60405190606082018281106001600160401b03821117610fdb5760405260606040835f81528260208201520152565b9250505061113560018060a01b03600354163314610e7f6110b1565b60015460a81c60ff1615611156575f815261114e611166565b602082015290565b5061115f6110ea565b6001815290565b60405190611175604083610fba565b6003825262229a1b60e91b6020830152565b6007545f9291835b82811061119b57505050565b6111a481611527565b905460039190911b1c6001600160a01b03908116908316146111c85760010161118f565b9150506111d6919250611527565b905460039190911b1c6001600160a01b031690565b60ff60015460a01c1661121657611201906112de565b6001805460ff60a01b1916600160a01b179055565b60405162461bcd60e51b8152602060048201526013602482015272105b1c9958591e481a5b9a5d1a585b1a5e9959606a1b6044820152606490fd5b61105f604051611262604082610fba565b600381526245343960e81b602082015260405191829162461bcd60e51b835260206004840181815201906102df565b6040519061010082018281106001600160401b03821117610fdb57604052606060e0835f81525f60208201525f60408201525f838201525f60808201528260a08201528260c08201520152565b60018060a01b0316806001600160601b0360a01b5f5416175f556001600160601b0360a01b600154166001557f038720101b9ced74445432ced46c7e5e4c80202669153dd67d226c66a0aa477b5f80a2565b3d1561135a573d9061134182610ff7565b9161134f6040519384610fba565b82523d5f602084013e565b606090565b6113676110ea565b611370826119d2565b156114e857505f806114cf6114cf6114d5610314956103686114a76114ba604051936020808601526113b5604086016113a883610285565b6001600160a01b03169052565b6113d46113c460208301610285565b6001600160a01b03166060870152565b604081013560808601526113fd6113ed60608301610285565b6001600160a01b031660a0870152565b608081013560c086015260a0810190611484866114766114566114366114238787611a31565b61010060e0870152610140860191611a62565b61144360c0870187611a31565b858303603f190161010087015290611a62565b61146360e0860186611a31565b848303603f190161012086015290611a62565b03601f198101885287610fba565b6114b56114918383611a82565b9050604051958691602083019190602083019252565b03601f198101865285610fba565b611a82565b96909360405196879560208701998a91611ab4565b90611ac1565b5190305afa6114e2611330565b90611af4565b90505f81526040516114fb604082610fba565b600381526245353560e81b6020820152602082015290565b634e487b7160e01b5f52603260045260245ffd5b60075481101561153f5760075f5260205f2001905f90565b611513565b805482101561153f575f5260205f2001905f90565b916115729183549060031b91821b915f19901b19161790565b9055565b5f818152600a60205260409020546115da57600954600160401b811015610fdb576115c36115ad8260018594016009556009611544565b819391549060031b91821b915f19901b19161790565b9055600954905f52600a60205260405f2055600190565b505f90565b5f818152600660205260409020546115da57600554600160401b811015610fdb576116166115ad8260018594016005556005611544565b9055600554905f52600660205260405f2055600190565b5f818152600860205260409020546115da57600754600160401b811015610fdb576116646115ad8260018594016007556007611544565b9055600754905f52600860205260405f2055600190565b5f1981019190821161047b57565b81601f82011215610015578035906116a082610ff7565b926116ae6040519485610fba565b8284526020838301011161001557815f926020809301838601378301015290565b602081830312610015578035906001600160401b038211610015570161010081830312610015576116fe610fe7565b9161170882610285565b835261171660208301610285565b60208401526040820135604084015261173160608301610285565b60608401526080820135608084015260a08201356001600160401b038111610015578161175f918401611689565b60a084015260c08201356001600160401b0381116100155781611783918401611689565b60c084015260e08201356001600160401b038111610015576117a59201611689565b60e082015290565b805480156117d4575f1901906117c38282611544565b8154905f199060031b1b1916905555565b634e487b7160e01b5f52603160045260245ffd5b5f81815260066020526040902054908115611880575f1982019082821161047b575f9261183f9261181a60055461167b565b90818103611845575b50505061183060056117ad565b6006905f5260205260405f2090565b55600190565b6118306118719161186761185d611877956005611544565b90549060031b1c90565b9283916005611544565b90611559565b555f8080611823565b50505f90565b5f81815260086020526040902054908115611880575f1982019082821161047b575f9261183f926118b860075461167b565b908181036118dd575b5050506118ce60076117ad565b6008905f5260205260405f2090565b6118ce611871916118f561185d6118ff956007611544565b9283916007611544565b555f80806118c1565b5f818152600a6020526040902054908115611880575f1982019082821161047b575f9261183f9261193a60095461167b565b9081810361195f575b50505061195060096117ad565b600a905f5260205260405f2090565b6119506118719161197761185d611981956009611544565b9283916009611544565b555f8080611943565b60405190600754808352826020810160075f5260205f20925f5b8181106119b957505061029092500383610fba565b84548352600194850194879450602090930192016119a4565b606001356119df81610274565b6119e761198a565b8051916001600160a01b0316905f5b83811015611a2957600581901b8201602001516001600160a01b03168314611a20576001016119f6565b50505050600190565b505050505f90565b9035601e19823603018112156100155701602081359101916001600160401b03821161001557813603831361001557565b908060209392818452848401375f828201840152601f01601f1916010190565b903590601e198136030182121561001557018035906001600160401b0382116100155760200191813603831361001557565b908092918237015f815290565b805191908290602001825e015f815290565b60405190611ae2604083610fba565b600382526245333960e81b6020830152565b9190611afe6110ea565b9215611b1857611b12905115610e7f611ad3565b60018252565b60448151105f14611b2a576020830152565b6004810151810160248101919060209082900312610015576024810151906001600160401b03821161001557018160438201121561001557602481015190611b7182610ff7565b92611b7f6040519485610fba565b8284526044828401011161001557815f926044602093018386015e83010152602083015256fea2646970667358221220835190c9a360e8117cd27398bce63c3557b013de75cc8eb242eac8dad698b5f364736f6c634300081a0033","linkReferences":{}},"methodIdentifiers":{"NAME()":"a3f4df7e","TYPE()":"bb24fe8a","VERSION()":"ffa1ad74","_NAME()":"08dbebf6","acceptOwner()":"ebbc4965","account()":"5dab2420","addToContracts(address)":"ea86abc3","addToSpenders(address)":"04ae97ed","approve(address,uint256)":"095ea7b3","caller()":"fc9c8d39","containContract(address)":"c224a479","contracts()":"6c0f79b6","flag()":"890eba68","getAdmins()":"31ae450b","getContractsSet()":"d9f09125","getSpendersSet()":"f21a83fe","initialize(address)":"c4d66de8","initialize(address,address)":"485cc955","initialize(address,address,address)":"c0c53b8b","owner()":"8da5cb5b","paused()":"5c975abb","pendingOwner()":"e30c3978","postExecCheck((address,address,uint256,address,uint256,bytes,bytes,bytes),(bool,bytes,bytes),(uint8,string,bytes))":"9d5228e8","postExecProcess((address,address,uint256,address,uint256,bytes,bytes,bytes),(bool,bytes,bytes))":"7c4c833b","preExecCheck((address,address,uint256,address,uint256,bytes,bytes,bytes))":"f2660027","preExecProcess((address,address,uint256,address,uint256,bytes,bytes,bytes))":"d58c3fc3","removeAdmin(address)":"1785f53c","removeFromContracts(address)":"727b6485","removeFromSpenders(address)":"a9dcedb0","renounceOwnership()":"715018a6","setAccount(address)":"29f6d57c","setAdmin(address)":"704b6c02","setCaller(address)":"beb92f55","setPaused(bool)":"16c38b3c","setPendingOwner(address)":"c42069ec","setTag(bytes32)":"b695e2ef","tag()":"51f91066","transferOwnership(address)":"f2fde38b"},"id":44}