{"abi":[{"type":"constructor","inputs":[{"name":"_owner","type":"address","internalType":"address"},{"name":"_caller","type":"address","internalType":"address"}],"stateMutability":"nonpayable"},{"type":"fallback","stateMutability":"nonpayable"},{"type":"function","name":"NAME","inputs":[],"outputs":[{"name":"","type":"bytes32","internalType":"bytes32"}],"stateMutability":"view"},{"type":"function","name":"TYPE","inputs":[],"outputs":[{"name":"","type":"bytes32","internalType":"bytes32"}],"stateMutability":"view"},{"type":"function","name":"VERSION","inputs":[],"outputs":[{"name":"","type":"uint256","internalType":"uint256"}],"stateMutability":"view"},{"type":"function","name":"_NAME","inputs":[],"outputs":[{"name":"","type":"string","internalType":"string"}],"stateMutability":"view"},{"type":"function","name":"acceptOwner","inputs":[],"outputs":[],"stateMutability":"nonpayable"},{"type":"function","name":"account","inputs":[],"outputs":[{"name":"","type":"address","internalType":"address"}],"stateMutability":"view"},{"type":"function","name":"addLiquidity","inputs":[{"name":"poolId","type":"uint256","internalType":"uint256"},{"name":"","type":"uint256","internalType":"uint256"},{"name":"_to","type":"address","internalType":"address"}],"outputs":[],"stateMutability":"view"},{"type":"function","name":"addPoolAddresses","inputs":[{"name":"_poolAddresses","type":"address[]","internalType":"address[]"}],"outputs":[],"stateMutability":"nonpayable"},{"type":"function","name":"addPoolIds","inputs":[{"name":"_poolIds","type":"uint256[]","internalType":"uint256[]"}],"outputs":[],"stateMutability":"nonpayable"},{"type":"function","name":"caller","inputs":[],"outputs":[{"name":"","type":"address","internalType":"address"}],"stateMutability":"view"},{"type":"function","name":"contracts","inputs":[],"outputs":[{"name":"_contracts","type":"address[]","internalType":"address[]"}],"stateMutability":"view"},{"type":"function","name":"deposit","inputs":[{"name":"_pid","type":"uint256","internalType":"uint256"},{"name":"","type":"uint256","internalType":"uint256"}],"outputs":[],"stateMutability":"view"},{"type":"function","name":"flag","inputs":[],"outputs":[{"name":"","type":"uint256","internalType":"uint256"}],"stateMutability":"view"},{"type":"function","name":"getPoolAddressWhiteList","inputs":[],"outputs":[{"name":"","type":"address[]","internalType":"address[]"}],"stateMutability":"view"},{"type":"function","name":"getPoolIdWhiteList","inputs":[],"outputs":[{"name":"","type":"uint256[]","internalType":"uint256[]"}],"stateMutability":"view"},{"type":"function","name":"initialize","inputs":[{"name":"_owner","type":"address","internalType":"address"},{"name":"_caller","type":"address","internalType":"address"}],"outputs":[],"stateMutability":"nonpayable"},{"type":"function","name":"initialize","inputs":[{"name":"_owner","type":"address","internalType":"address"},{"name":"_caller","type":"address","internalType":"address"},{"name":"_account","type":"address","internalType":"address"}],"outputs":[],"stateMutability":"nonpayable"},{"type":"function","name":"initialize","inputs":[{"name":"_owner","type":"address","internalType":"address"}],"outputs":[],"stateMutability":"nonpayable"},{"type":"function","name":"owner","inputs":[],"outputs":[{"name":"","type":"address","internalType":"address"}],"stateMutability":"view"},{"type":"function","name":"paused","inputs":[],"outputs":[{"name":"","type":"bool","internalType":"bool"}],"stateMutability":"view"},{"type":"function","name":"pendingOwner","inputs":[],"outputs":[{"name":"","type":"address","internalType":"address"}],"stateMutability":"view"},{"type":"function","name":"postExecCheck","inputs":[{"name":"transaction","type":"tuple","internalType":"struct TransactionData","components":[{"name":"from","type":"address","internalType":"address"},{"name":"delegate","type":"address","internalType":"address"},{"name":"flag","type":"uint256","internalType":"uint256"},{"name":"to","type":"address","internalType":"address"},{"name":"value","type":"uint256","internalType":"uint256"},{"name":"data","type":"bytes","internalType":"bytes"},{"name":"hint","type":"bytes","internalType":"bytes"},{"name":"extra","type":"bytes","internalType":"bytes"}]},{"name":"callResult","type":"tuple","internalType":"struct TransactionResult","components":[{"name":"success","type":"bool","internalType":"bool"},{"name":"data","type":"bytes","internalType":"bytes"},{"name":"hint","type":"bytes","internalType":"bytes"}]},{"name":"preData","type":"tuple","internalType":"struct AuthorizerReturnData","components":[{"name":"result","type":"uint8","internalType":"enum AuthResult"},{"name":"message","type":"string","internalType":"string"},{"name":"data","type":"bytes","internalType":"bytes"}]}],"outputs":[{"name":"authData","type":"tuple","internalType":"struct AuthorizerReturnData","components":[{"name":"result","type":"uint8","internalType":"enum AuthResult"},{"name":"message","type":"string","internalType":"string"},{"name":"data","type":"bytes","internalType":"bytes"}]}],"stateMutability":"nonpayable"},{"type":"function","name":"postExecProcess","inputs":[{"name":"transaction","type":"tuple","internalType":"struct TransactionData","components":[{"name":"from","type":"address","internalType":"address"},{"name":"delegate","type":"address","internalType":"address"},{"name":"flag","type":"uint256","internalType":"uint256"},{"name":"to","type":"address","internalType":"address"},{"name":"value","type":"uint256","internalType":"uint256"},{"name":"data","type":"bytes","internalType":"bytes"},{"name":"hint","type":"bytes","internalType":"bytes"},{"name":"extra","type":"bytes","internalType":"bytes"}]},{"name":"callResult","type":"tuple","internalType":"struct TransactionResult","components":[{"name":"success","type":"bool","internalType":"bool"},{"name":"data","type":"bytes","internalType":"bytes"},{"name":"hint","type":"bytes","internalType":"bytes"}]}],"outputs":[],"stateMutability":"nonpayable"},{"type":"function","name":"preExecCheck","inputs":[{"name":"transaction","type":"tuple","internalType":"struct TransactionData","components":[{"name":"from","type":"address","internalType":"address"},{"name":"delegate","type":"address","internalType":"address"},{"name":"flag","type":"uint256","internalType":"uint256"},{"name":"to","type":"address","internalType":"address"},{"name":"value","type":"uint256","internalType":"uint256"},{"name":"data","type":"bytes","internalType":"bytes"},{"name":"hint","type":"bytes","internalType":"bytes"},{"name":"extra","type":"bytes","internalType":"bytes"}]}],"outputs":[{"name":"authData","type":"tuple","internalType":"struct AuthorizerReturnData","components":[{"name":"result","type":"uint8","internalType":"enum AuthResult"},{"name":"message","type":"string","internalType":"string"},{"name":"data","type":"bytes","internalType":"bytes"}]}],"stateMutability":"nonpayable"},{"type":"function","name":"preExecProcess","inputs":[{"name":"transaction","type":"tuple","internalType":"struct TransactionData","components":[{"name":"from","type":"address","internalType":"address"},{"name":"delegate","type":"address","internalType":"address"},{"name":"flag","type":"uint256","internalType":"uint256"},{"name":"to","type":"address","internalType":"address"},{"name":"value","type":"uint256","internalType":"uint256"},{"name":"data","type":"bytes","internalType":"bytes"},{"name":"hint","type":"bytes","internalType":"bytes"},{"name":"extra","type":"bytes","internalType":"bytes"}]}],"outputs":[],"stateMutability":"nonpayable"},{"type":"function","name":"removePoolAddresses","inputs":[{"name":"_poolAddresses","type":"address[]","internalType":"address[]"}],"outputs":[],"stateMutability":"nonpayable"},{"type":"function","name":"removePoolIds","inputs":[{"name":"_poolIds","type":"uint256[]","internalType":"uint256[]"}],"outputs":[],"stateMutability":"nonpayable"},{"type":"function","name":"renounceOwnership","inputs":[],"outputs":[],"stateMutability":"nonpayable"},{"type":"function","name":"router","inputs":[],"outputs":[{"name":"","type":"address","internalType":"address"}],"stateMutability":"view"},{"type":"function","name":"setAccount","inputs":[{"name":"_account","type":"address","internalType":"address"}],"outputs":[],"stateMutability":"nonpayable"},{"type":"function","name":"setCaller","inputs":[{"name":"_caller","type":"address","internalType":"address"}],"outputs":[],"stateMutability":"nonpayable"},{"type":"function","name":"setPaused","inputs":[{"name":"_paused","type":"bool","internalType":"bool"}],"outputs":[],"stateMutability":"nonpayable"},{"type":"function","name":"setPendingOwner","inputs":[{"name":"to","type":"address","internalType":"address"}],"outputs":[],"stateMutability":"nonpayable"},{"type":"function","name":"setTag","inputs":[{"name":"_tag","type":"bytes32","internalType":"bytes32"}],"outputs":[],"stateMutability":"nonpayable"},{"type":"function","name":"stakingPool","inputs":[],"outputs":[{"name":"","type":"address","internalType":"address"}],"stateMutability":"view"},{"type":"function","name":"stargateFactory","inputs":[],"outputs":[{"name":"","type":"address","internalType":"address"}],"stateMutability":"view"},{"type":"function","name":"tag","inputs":[],"outputs":[{"name":"","type":"bytes32","internalType":"bytes32"}],"stateMutability":"view"},{"type":"function","name":"transferOwnership","inputs":[{"name":"newOwner","type":"address","internalType":"address"}],"outputs":[],"stateMutability":"nonpayable"},{"type":"event","name":"AccountSet","inputs":[{"name":"account","type":"address","indexed":true,"internalType":"address"}],"anonymous":false},{"type":"event","name":"AddPoolAddressWhitelist","inputs":[{"name":"_poolAddress","type":"address","indexed":true,"internalType":"address"},{"name":"user","type":"address","indexed":true,"internalType":"address"}],"anonymous":false},{"type":"event","name":"AddPoolIdWhitelist","inputs":[{"name":"_poolId","type":"uint256","indexed":true,"internalType":"uint256"},{"name":"user","type":"address","indexed":true,"internalType":"address"}],"anonymous":false},{"type":"event","name":"CallerSet","inputs":[{"name":"caller","type":"address","indexed":true,"internalType":"address"}],"anonymous":false},{"type":"event","name":"NewOwnerSet","inputs":[{"name":"owner","type":"address","indexed":true,"internalType":"address"}],"anonymous":false},{"type":"event","name":"PausedSet","inputs":[{"name":"status","type":"bool","indexed":true,"internalType":"bool"}],"anonymous":false},{"type":"event","name":"PendingOwnerSet","inputs":[{"name":"to","type":"address","indexed":true,"internalType":"address"}],"anonymous":false},{"type":"event","name":"RemovePoolAddressWhitelist","inputs":[{"name":"_poolAddress","type":"address","indexed":true,"internalType":"address"},{"name":"user","type":"address","indexed":true,"internalType":"address"}],"anonymous":false},{"type":"event","name":"RemovePoolIdWhitelist","inputs":[{"name":"_poolId","type":"uint256","indexed":true,"internalType":"uint256"},{"name":"user","type":"address","indexed":true,"internalType":"address"}],"anonymous":false},{"type":"event","name":"TagSet","inputs":[{"name":"tag","type":"bytes32","indexed":true,"internalType":"bytes32"}],"anonymous":false}],"bytecode":{"object":"0x60e0346102fc57601f6121fe38819003918201601f19168301916001600160401b038311848410176103005780849260409485528339810103126102fc57610052602061004b83610314565b9201610314565b6001545f80546001600160a01b0319166001600160a01b03909416938417815560405193907f038720101b9ced74445432ced46c7e5e4c80202669153dd67d226c66a0aa477b9080a26001600160b01b031916600160a01b1760019081555f600255600380546001600160a01b0319166001600160a01b039390931692909217909155460361017257507377b2043768d28e9c9ab44e1abfc95944bce5793173c026395860db2d07ee33e05fe50ed7bd583189c773933597a323eb81cae705c5bc29985172fd5a39735b60c05260805260a052604051611ed590816103298239608051818181610b2e015281816111d6015261138d015260a05181818161036e0152818161100201526113c3015260c0518181816105dc0152610b6f0152f35b4661a86a036101ac57505f735634c4a5fed09819e3c46d86a965dd9447d86e477312dc9256acc9895b076f6638d628382881e62cee61011c565b466089036101e557505f739aa02d4fae7f58b8e8f34c66e756cc734dac7fe473d47b03ee6d86cf251ee7860fb2acf9f91b9fd4d761011c565b4661a4b103610233575073a45b5130f36cdca45667738e2a258ab09f4a5f7f73e8cdf27acd73a434d661c84887215f7598e7d0d373ce8cca271ebc0533920c83d39f417ed6a0abb7d061011c565b46600a03610280575073e8cdf27acd73a434d661c84887215f7598e7d0d373ce8cca271ebc0533920c83d39f417ed6a0abb7d07319cfce47ed54a88614648dc3f19a5980097007dd61011c565b46612105036102ba575073dc181bd607330aeebef6ea62e03e5e1fb4b6f7c77327a16dc786820b16e5c9028b75b99f6f604b5d265f61011c565b62461bcd60e51b815260206004820152601660248201527f6e6f20636861696e206964206973206d617463686564000000000000000000006044820152606490fd5b5f80fd5b634e487b7160e01b5f52604160045260245ffd5b51906001600160a01b03821682036102fc5756fe60806040526004361015610019575b3415611530575b5f80fd5b5f3560e01c806308dbebf6146102745780630c56ae3b1461026f57806316c38b3c1461026a5780631fd6d9591461026557806329f6d57c1461026057806330e7a49b1461025b5780633e92ef78146102565780633ff7916c14610251578063485cc9551461024c57806351f91066146102475780635b72ec83146102425780635c975abb1461023d5780635cb81a0d146102385780635dab2420146102335780636c0f79b61461022e578063715018a6146102295780637a796db4146102245780637c4c833b1461021f57806387b21efc1461021a578063890eba68146101c05780638da5cb5b146102155780639d5228e814610210578063a3f4df7e1461020b578063b695e2ef14610206578063bb24fe8a14610201578063beb92f55146101fc578063c0c53b8b146101f7578063c42069ec146101f2578063c4d66de8146101ed578063d58c3fc3146101e8578063e2bbb158146101e3578063e30c3978146101de578063ebbc4965146101d9578063f2660027146101d4578063f2fde38b146101cf578063f887ea40146101ca578063fc9c8d39146101c55763ffa1ad740361000e575b610bfc565b611205565b6111c1565b61113c565b6110c9565b61109c565b611074565b610fe9565b610fdb565b610f8c565b610f13565b610e95565b610de4565b610dbc565b610d66565b610d2c565b610c9b565b610c17565b610b09565b610ab0565b6109e7565b610977565b61095c565b610934565b6108a8565b610883565b610803565b6107a4565b610770565b6106c4565b610644565b6105c7565b610515565b61046b565b61039d565b610359565b6102b1565b805180835260209291819084018484015e5f828201840152601f01601f1916010190565b9060206102ae928181520190610279565b90565b34610015575f366003190112610015576040516351fa6fbf60e11b8152602081600481305afa908115610354575f91610320575b61031c610302610310846040519283916020830160209181520190565b03601f198101835282611241565b6040519182918261029d565b0390f35b90506020813d60201161034c575b8161033b60209383611241565b8101031261001557516103026102e5565b3d915061032e565b611267565b34610015575f366003190112610015576040517f00000000000000000000000000000000000000000000000000000000000000006001600160a01b03168152602090f35b3461001557602036600319011261001557600435801515809103610015575f546103da906001600160a01b03166103d261129d565b9033146112be565b6001805460ff60a81b191660a883901b60ff60a81b161790557f40db37ff5c0bdc2c427fbb2078c8f24afea940abac0e3c23bb4ea3bf2da2b2125f80a2005b906020600319830112610015576004356001600160401b0381116100155760040182601f82011215610015578035926001600160401b038411610015576020808301928560051b010111610015579190565b346100155761047936610419565b5f54909190610493906001600160a01b03166103d261129d565b5f5b82811061049e57005b806104b56104af6001938686611302565b356118f6565b6104c0575b01610495565b6104cb818585611302565b3533907facdd6aba368bd3361860dcb4f5e9def4d6935ce550436e3ce90ee6cdd5910f795f80a36104ba565b6001600160a01b0381160361001557565b3590610513826104f7565b565b3461001557602036600319011261001557600435610532816104f7565b5f54610549906001600160a01b03166103d261129d565b6001600160a01b0316801561059057600480546001600160a01b031916821790557f195359283029fbdb9a24519b1ec07caf1677655529bf99dc1634c1e8b28811805f80a2005b60405162461bcd60e51b815260206004820152600f60248201526e125b9d985b1a59081858d8dbdd5b9d608a1b6044820152606490fd5b34610015575f366003190112610015576040517f00000000000000000000000000000000000000000000000000000000000000006001600160a01b03168152602090f35b60206040818301928281528451809452019201905f5b81811061062e5750505090565b8251845260209384019390920191600101610621565b34610015575f3660031901126100155760405180602060055491828152019060055f527f036b6384b5eca791c62761152d0c79bb0604c104a5fb6f4eb0703f3154bb3db0905f5b8181106106ae5761031c856106a281870382611241565b6040519182918261060b565b825484526020909301926001928301920161068b565b34610015576106d236610419565b5f549091906106ec906001600160a01b03166103d261129d565b5f5b8281106106f757005b8061071e6107086001938686611302565b35610712816104f7565b838060a01b0316611a0a565b610729575b016106ee565b610734818585611302565b3561073e816104f7565b3390838060a01b03167f5c67bd19bae53975fd875da73cc5116c5040fd57ba2771340ad6b5ff18e12f0b5f80a3610723565b34610015576040366003190112610015576107a2600435610790816104f7565b6024359061079d826104f7565b611317565b005b34610015575f366003190112610015576020600254604051908152f35b60206040818301928281528451809452019201905f5b8181106107e45750505090565b82516001600160a01b03168452602093840193909201916001016107d7565b34610015575f3660031901126100155760405180602060075491828152019060075f527fa66cc928b5edb82af9bd49922954155ab7b0942694bea4ce44661d9a8736c688905f5b81811061086d5761031c8561086181870382611241565b604051918291826107c1565b825484526020909301926001928301920161084a565b34610015575f36600319011261001557602060ff60015460a81c166040519015158152f35b34610015576108b636610419565b5f549091906108d0906001600160a01b03166103d261129d565b5f5b8281106108db57005b806108f26108ec6001938686611302565b35611aa8565b6108fd575b016108d2565b610908818585611302565b3533907f4317a31e7a2d9600dfde2005ba8c5dfd4c0849b8772a28891ea543fc997ed4355f80a36108f7565b34610015575f366003190112610015576004546040516001600160a01b039091168152602090f35b34610015575f3660031901126100155761031c610861611365565b34610015575f366003190112610015575f5461099e906001600160a01b03166103d261129d565b6001600160601b0360a01b5f54165f556001600160601b0360a01b600154166001555f7f038720101b9ced74445432ced46c7e5e4c80202669153dd67d226c66a0aa477b8180a2005b34610015576109f536610419565b5f54909190610a0f906001600160a01b03166103d261129d565b5f5b828110610a1a57005b80610a41610a2b6001938686611302565b35610a35816104f7565b838060a01b031661195f565b610a4c575b01610a11565b610a57818585611302565b35610a61816104f7565b3390838060a01b03167f9dba6d66383f9ab187c7e2a59620f98f7b46fd0060f7b905ed1ddc6370ce0ca95f80a3610a46565b90816101009103126100155790565b908160609103126100155790565b34610015576040366003190112610015576004356001600160401b03811161001557610ae0903690600401610a93565b506024356001600160401b03811161001557610b00903690600401610aa2565b506107a2611415565b3461001557606036600319011261001557600435604435610b29816104f7565b610b527f00000000000000000000000000000000000000000000000000000000000000006115c2565b60405163068bcd8d60e01b815260048101929092526020826024817f00000000000000000000000000000000000000000000000000000000000000006001600160a01b03165afa918215610354575f92610bb9575b50610bb46107a292611621565b611684565b91506020823d602011610bf4575b81610bd460209383611241565b8101031261001557610bb46107a29251610bed816104f7565b9250610ba7565b3d9150610bc7565b34610015575f36600319011261001557602060405160018152f35b34610015575f366003190112610015575f546040516001600160a01b039091168152602090f35b90602082528051916002831015610c87576102ae9260208201526040610c7260208401516060838501526080840190610279565b920151906060601f1982850301910152610279565b634e487b7160e01b5f52602160045260245ffd5b34610015576060366003190112610015576004356001600160401b03811161001557610ccb903690600401610a93565b6024356001600160401b03811161001557610cea903690600401610aa2565b90604435906001600160401b0382116100155761031c92610d12610d20933690600401610aa2565b91610d1b61142d565b61145c565b60405191829182610c3e565b34610015575f3660031901126100155760206040517f53746172676174654465706f736974417574686f72697a6572000000000000008152f35b34610015576020366003190112610015575f5460043590610d92906001600160a01b03166103d261129d565b806002557fef711e3eb06966d227e22eb4fa0302550dcd7257cf69b537cf4d37af53ea9cda5f80a2005b34610015575f3660031901126100155760405169436f6d6d6f6e5479706560b01b8152602090f35b3461001557602036600319011261001557600435610e01816104f7565b5f54610e18906001600160a01b03166103d261129d565b6001600160a01b03168015610e5f57600380546001600160a01b031916821790557fac431eb831269b53b41991f6cbfbfc93f4baa395996a8170abac93962b5a358e5f80a2005b60405162461bcd60e51b815260206004820152600e60248201526d24b73b30b634b21031b0b63632b960911b6044820152606490fd5b3461001557606036600319011261001557600435610eb2816104f7565b610ece602435610ec1816104f7565b6044359261079d846104f7565b600480546001600160a01b0319166001600160a01b039290921691821790557f195359283029fbdb9a24519b1ec07caf1677655529bf99dc1634c1e8b28811805f80a2005b3461001557602036600319011261001557600435610f30816104f7565b5f54610f47906001600160a01b03166103d261129d565b600180546001600160a01b0319166001600160a01b039290921691821790557f68f49b346b94582a8b5f9d10e3fe3365318fe8f191ff8dce7c59c6cad06b02f55f80a2005b34610015576020366003190112610015576107a2600435610fac816104f7565b6114ca565b602060031982011261001557600435906001600160401b038211610015576102ae91600401610a93565b3461001557610b0036610fb1565b34610015576040366003190112610015576004356110267f00000000000000000000000000000000000000000000000000000000000000006115c2565b5f52600660205260405f20541561103957005b60405162461bcd60e51b81526020600482015260136024820152721c1bdbdb081a59081b9bdd08185b1b1bddd959606a1b6044820152606490fd5b34610015575f366003190112610015576001546040516001600160a01b039091168152602090f35b34610015575f366003190112610015576001546001600160a01b031633819003610015576107a290611570565b346100155761031c6110da36610fb1565b6110e261142d565b61110060018060a01b036003541633146110fa6113f4565b906112be565b9060ff60015460a81c165f1461112d57505f815261111c6114a9565b602082015260405191829182610c3e565b6111379150611710565b610d20565b3461001557602036600319011261001557600435611159816104f7565b5f54611170906001600160a01b03166103d261129d565b6001600160a01b03811615611188576107a290611570565b60405162461bcd60e51b81526020600482015260116024820152704e6577204f776e6572206973207a65726f60781b6044820152606490fd5b34610015575f366003190112610015576040517f00000000000000000000000000000000000000000000000000000000000000006001600160a01b03168152602090f35b34610015575f366003190112610015576003546040516001600160a01b039091168152602090f35b634e487b7160e01b5f52604160045260245ffd5b90601f801991011681019081106001600160401b0382111761126257604052565b61122d565b6040513d5f823e3d90fd5b6040519061051361010083611241565b6001600160401b03811161126257601f01601f191660200190565b604051906112ac604083611241565b600382526245333560e81b6020830152565b156112c65750565b60405162461bcd60e51b8152602060048201529081906112ea906024830190610279565b0390fd5b634e487b7160e01b5f52603260045260245ffd5b91908110156113125760051b0190565b6112ee565b611320906114ca565b600380546001600160a01b0319166001600160a01b039290921691821790557fac431eb831269b53b41991f6cbfbfc93f4baa395996a8170abac93962b5a358e5f80a2565b60405190611374606083611241565b60028252602082019160403684378092815115611312577f00000000000000000000000000000000000000000000000000000000000000006001600160a01b03169052805160011015611312577f00000000000000000000000000000000000000000000000000000000000000006001600160a01b031660409190910152565b60405190611403604083611241565b600382526245323760e81b6020830152565b61051360018060a01b036003541633146110fa6113f4565b60405190606082018281106001600160401b038211176112625760405260606040835f81528260208201520152565b9250505061147860018060a01b036003541633146110fa6113f4565b60015460a81c60ff1615611499575f81526114916114a9565b602082015290565b506114a261142d565b6001815290565b604051906114b8604083611241565b6003825262229a1b60e91b6020830152565b60ff60015460a01c166114f5576114e090611570565b6001805460ff60a01b1916600160a01b179055565b60405162461bcd60e51b8152602060048201526013602482015272105b1c9958591e481a5b9a5d1a585b1a5e9959606a1b6044820152606490fd5b6112ea604051611541604082611241565b600381526245343960e81b602082015260405191829162461bcd60e51b83526020600484018181520190610279565b60018060a01b0316806001600160601b0360a01b5f5416175f556001600160601b0360a01b600154166001557f038720101b9ced74445432ced46c7e5e4c80202669153dd67d226c66a0aa477b5f80a2565b6001600160a01b0360606115d4611b77565b0151166001600160a01b03909116036115e957565b60405162461bcd60e51b815260206004820152601060248201526f125b9d985b1a590818dbdb9d1c9858dd60821b6044820152606490fd5b6001600160a01b03165f908152600860205260409020541561163f57565b60405162461bcd60e51b815260206004820152601860248201527f706f6f6c2061646472657373206e6f7420616c6c6f77656400000000000000006044820152606490fd5b6001600160a01b03611694611b77565b51166001600160a01b03909116036116a857565b60405162461bcd60e51b8152602060048201526011602482015270125b9d985b1a59081c9958da5c1a595b9d607a1b6044820152606490fd5b3d1561170b573d906116f282611282565b916117006040519384611241565b82523d5f602084013e565b606090565b61171861142d565b61172182611c81565b1561189957505f806118806118806118866102ae9561030261185861186b604051936020808601526117666040860161175983610508565b6001600160a01b03169052565b61178561177560208301610508565b6001600160a01b03166060870152565b604081013560808601526117ae61179e60608301610508565b6001600160a01b031660a0870152565b608081013560c086015260a0810190611835866118276118076117e76117d48787611ce5565b61010060e0870152610140860191611d16565b6117f460c0870187611ce5565b858303603f190161010087015290611d16565b61181460e0860186611ce5565b848303603f190161012086015290611d16565b03601f198101885287611241565b6118666118428383611d36565b9050604051958691602083019190602083019252565b03601f198101865285611241565b611d36565b96909360405196879560208701998a91611d68565b90611d75565b5190305afa6118936116e1565b90611da8565b90505f81526040516118ac604082611241565b600381526245353560e81b6020820152602082015290565b8054821015611312575f5260205f2001905f90565b916118f29183549060031b91821b915f19901b19161790565b9055565b5f8181526006602052604090205461195a57600554600160401b8110156112625761194361192d82600185940160055560056118c4565b819391549060031b91821b915f19901b19161790565b9055600554905f52600660205260405f2055600190565b505f90565b5f8181526008602052604090205461195a57600754600160401b8110156112625761199661192d82600185940160075560076118c4565b9055600754905f52600860205260405f2055600190565b5f198101919082116119bb57565b634e487b7160e01b5f52601160045260245ffd5b805480156119f6575f1901906119e582826118c4565b8154905f199060031b1b1916905555565b634e487b7160e01b5f52603160045260245ffd5b5f81815260086020526040902054908115611aa2575f198201908282116119bb575f92611a6192611a3c6007546119ad565b90818103611a67575b505050611a5260076119cf565b6008905f5260205260405f2090565b55600190565b611a52611a9391611a89611a7f611a999560076118c4565b90549060031b1c90565b92839160076118c4565b906118d9565b555f8080611a45565b50505f90565b5f81815260066020526040902054908115611aa2575f198201908282116119bb575f92611a6192611ada6005546119ad565b90818103611aff575b505050611af060056119cf565b6006905f5260205260405f2090565b611af0611a9391611b17611a7f611b219560056118c4565b92839160056118c4565b555f8080611ae3565b6040519061010082018281106001600160401b0382111761126257604052606060e0835f81525f60208201525f60408201525f838201525f60808201528260a08201528260c08201520152565b611b7f611b2a565b50611b88611b2a565b50601f1936013681116119bb573536811161001557803603810190602081830312610015578035906001600160401b03821161001557016101008183031261001557611bd2611272565b91611bdc82610508565b8352611bea60208301610508565b602084015260408201356040840152611c0560608301610508565b60608401526080820135608084015260a08201356001600160401b0381116100155781611c33918401611e59565b60a084015260c08201356001600160401b0381116100155781611c57918401611e59565b60c084015260e08201356001600160401b03811161001557611c799201611e59565b60e082015290565b60600135611c8e816104f7565b611c96611365565b906001600160a01b03165f5b8251811015611cde57825181101561131257600581901b8301602001516001600160a01b03168214611cd657600101611ca2565b505050600190565b5050505f90565b9035601e19823603018112156100155701602081359101916001600160401b03821161001557813603831361001557565b908060209392818452848401375f828201840152601f01601f1916010190565b903590601e198136030182121561001557018035906001600160401b0382116100155760200191813603831361001557565b908092918237015f815290565b805191908290602001825e015f815290565b60405190611d96604083611241565b600382526245333960e81b6020830152565b9190611db261142d565b9215611dcc57611dc69051156110fa611d87565b60018252565b60448151105f14611dde576020830152565b6004810151810160248101919060209082900312610015576024810151906001600160401b03821161001557018160438201121561001557602481015190611e2582611282565b92611e336040519485611241565b8284526044828401011161001557815f926044602093018386015e830101526020830152565b81601f8201121561001557803590611e7082611282565b92611e7e6040519485611241565b8284526020838301011161001557815f92602080930183860137830101529056fea2646970667358221220d3ce06ba4d6a2dfa9814e37b6ae594bd21a5daa7b35efa8bd07f4fb4f365c54864736f6c634300081a0033","linkReferences":{}},"methodIdentifiers":{"NAME()":"a3f4df7e","TYPE()":"bb24fe8a","VERSION()":"ffa1ad74","_NAME()":"08dbebf6","acceptOwner()":"ebbc4965","account()":"5dab2420","addLiquidity(uint256,uint256,address)":"87b21efc","addPoolAddresses(address[])":"7a796db4","addPoolIds(uint256[])":"1fd6d959","caller()":"fc9c8d39","contracts()":"6c0f79b6","deposit(uint256,uint256)":"e2bbb158","flag()":"890eba68","getPoolAddressWhiteList()":"5b72ec83","getPoolIdWhiteList()":"3e92ef78","initialize(address)":"c4d66de8","initialize(address,address)":"485cc955","initialize(address,address,address)":"c0c53b8b","owner()":"8da5cb5b","paused()":"5c975abb","pendingOwner()":"e30c3978","postExecCheck((address,address,uint256,address,uint256,bytes,bytes,bytes),(bool,bytes,bytes),(uint8,string,bytes))":"9d5228e8","postExecProcess((address,address,uint256,address,uint256,bytes,bytes,bytes),(bool,bytes,bytes))":"7c4c833b","preExecCheck((address,address,uint256,address,uint256,bytes,bytes,bytes))":"f2660027","preExecProcess((address,address,uint256,address,uint256,bytes,bytes,bytes))":"d58c3fc3","removePoolAddresses(address[])":"3ff7916c","removePoolIds(uint256[])":"5cb81a0d","renounceOwnership()":"715018a6","router()":"f887ea40","setAccount(address)":"29f6d57c","setCaller(address)":"beb92f55","setPaused(bool)":"16c38b3c","setPendingOwner(address)":"c42069ec","setTag(bytes32)":"b695e2ef","stakingPool()":"0c56ae3b","stargateFactory()":"30e7a49b","tag()":"51f91066","transferOwnership(address)":"f2fde38b"},"id":52}