{"abi":[{"type":"constructor","inputs":[{"name":"_owner","type":"address","internalType":"address"},{"name":"_caller","type":"address","internalType":"address"}],"stateMutability":"nonpayable"},{"type":"function","name":"NAME","inputs":[],"outputs":[{"name":"","type":"bytes32","internalType":"bytes32"}],"stateMutability":"view"},{"type":"function","name":"TYPE","inputs":[],"outputs":[{"name":"","type":"bytes32","internalType":"bytes32"}],"stateMutability":"view"},{"type":"function","name":"VERSION","inputs":[],"outputs":[{"name":"","type":"uint256","internalType":"uint256"}],"stateMutability":"view"},{"type":"function","name":"_NAME","inputs":[],"outputs":[{"name":"","type":"string","internalType":"string"}],"stateMutability":"view"},{"type":"function","name":"acceptOwner","inputs":[],"outputs":[],"stateMutability":"nonpayable"},{"type":"function","name":"account","inputs":[],"outputs":[{"name":"","type":"address","internalType":"address"}],"stateMutability":"view"},{"type":"function","name":"caller","inputs":[],"outputs":[{"name":"","type":"address","internalType":"address"}],"stateMutability":"view"},{"type":"function","name":"flag","inputs":[],"outputs":[{"name":"","type":"uint256","internalType":"uint256"}],"stateMutability":"view"},{"type":"function","name":"initialize","inputs":[{"name":"_owner","type":"address","internalType":"address"},{"name":"_caller","type":"address","internalType":"address"}],"outputs":[],"stateMutability":"nonpayable"},{"type":"function","name":"initialize","inputs":[{"name":"_owner","type":"address","internalType":"address"},{"name":"_caller","type":"address","internalType":"address"},{"name":"_account","type":"address","internalType":"address"}],"outputs":[],"stateMutability":"nonpayable"},{"type":"function","name":"initialize","inputs":[{"name":"_owner","type":"address","internalType":"address"}],"outputs":[],"stateMutability":"nonpayable"},{"type":"function","name":"owner","inputs":[],"outputs":[{"name":"","type":"address","internalType":"address"}],"stateMutability":"view"},{"type":"function","name":"paused","inputs":[],"outputs":[{"name":"","type":"bool","internalType":"bool"}],"stateMutability":"view"},{"type":"function","name":"pendingOwner","inputs":[],"outputs":[{"name":"","type":"address","internalType":"address"}],"stateMutability":"view"},{"type":"function","name":"postCheckCounter","inputs":[],"outputs":[{"name":"","type":"uint256","internalType":"uint256"}],"stateMutability":"view"},{"type":"function","name":"postExecCheck","inputs":[{"name":"transaction","type":"tuple","internalType":"struct TransactionData","components":[{"name":"from","type":"address","internalType":"address"},{"name":"delegate","type":"address","internalType":"address"},{"name":"flag","type":"uint256","internalType":"uint256"},{"name":"to","type":"address","internalType":"address"},{"name":"value","type":"uint256","internalType":"uint256"},{"name":"data","type":"bytes","internalType":"bytes"},{"name":"hint","type":"bytes","internalType":"bytes"},{"name":"extra","type":"bytes","internalType":"bytes"}]},{"name":"callResult","type":"tuple","internalType":"struct TransactionResult","components":[{"name":"success","type":"bool","internalType":"bool"},{"name":"data","type":"bytes","internalType":"bytes"},{"name":"hint","type":"bytes","internalType":"bytes"}]},{"name":"preData","type":"tuple","internalType":"struct AuthorizerReturnData","components":[{"name":"result","type":"uint8","internalType":"enum AuthResult"},{"name":"message","type":"string","internalType":"string"},{"name":"data","type":"bytes","internalType":"bytes"}]}],"outputs":[{"name":"authData","type":"tuple","internalType":"struct AuthorizerReturnData","components":[{"name":"result","type":"uint8","internalType":"enum AuthResult"},{"name":"message","type":"string","internalType":"string"},{"name":"data","type":"bytes","internalType":"bytes"}]}],"stateMutability":"nonpayable"},{"type":"function","name":"postExecProcess","inputs":[{"name":"transaction","type":"tuple","internalType":"struct TransactionData","components":[{"name":"from","type":"address","internalType":"address"},{"name":"delegate","type":"address","internalType":"address"},{"name":"flag","type":"uint256","internalType":"uint256"},{"name":"to","type":"address","internalType":"address"},{"name":"value","type":"uint256","internalType":"uint256"},{"name":"data","type":"bytes","internalType":"bytes"},{"name":"hint","type":"bytes","internalType":"bytes"},{"name":"extra","type":"bytes","internalType":"bytes"}]},{"name":"callResult","type":"tuple","internalType":"struct TransactionResult","components":[{"name":"success","type":"bool","internalType":"bool"},{"name":"data","type":"bytes","internalType":"bytes"},{"name":"hint","type":"bytes","internalType":"bytes"}]}],"outputs":[],"stateMutability":"nonpayable"},{"type":"function","name":"postProcessCounter","inputs":[],"outputs":[{"name":"","type":"uint256","internalType":"uint256"}],"stateMutability":"view"},{"type":"function","name":"preCheckCounter","inputs":[],"outputs":[{"name":"","type":"uint256","internalType":"uint256"}],"stateMutability":"view"},{"type":"function","name":"preExecCheck","inputs":[{"name":"transaction","type":"tuple","internalType":"struct TransactionData","components":[{"name":"from","type":"address","internalType":"address"},{"name":"delegate","type":"address","internalType":"address"},{"name":"flag","type":"uint256","internalType":"uint256"},{"name":"to","type":"address","internalType":"address"},{"name":"value","type":"uint256","internalType":"uint256"},{"name":"data","type":"bytes","internalType":"bytes"},{"name":"hint","type":"bytes","internalType":"bytes"},{"name":"extra","type":"bytes","internalType":"bytes"}]}],"outputs":[{"name":"authData","type":"tuple","internalType":"struct AuthorizerReturnData","components":[{"name":"result","type":"uint8","internalType":"enum AuthResult"},{"name":"message","type":"string","internalType":"string"},{"name":"data","type":"bytes","internalType":"bytes"}]}],"stateMutability":"nonpayable"},{"type":"function","name":"preExecProcess","inputs":[{"name":"transaction","type":"tuple","internalType":"struct TransactionData","components":[{"name":"from","type":"address","internalType":"address"},{"name":"delegate","type":"address","internalType":"address"},{"name":"flag","type":"uint256","internalType":"uint256"},{"name":"to","type":"address","internalType":"address"},{"name":"value","type":"uint256","internalType":"uint256"},{"name":"data","type":"bytes","internalType":"bytes"},{"name":"hint","type":"bytes","internalType":"bytes"},{"name":"extra","type":"bytes","internalType":"bytes"}]}],"outputs":[],"stateMutability":"nonpayable"},{"type":"function","name":"preProcessCounter","inputs":[],"outputs":[{"name":"","type":"uint256","internalType":"uint256"}],"stateMutability":"view"},{"type":"function","name":"renounceOwnership","inputs":[],"outputs":[],"stateMutability":"nonpayable"},{"type":"function","name":"reset","inputs":[],"outputs":[],"stateMutability":"nonpayable"},{"type":"function","name":"setAccount","inputs":[{"name":"_account","type":"address","internalType":"address"}],"outputs":[],"stateMutability":"nonpayable"},{"type":"function","name":"setCaller","inputs":[{"name":"_caller","type":"address","internalType":"address"}],"outputs":[],"stateMutability":"nonpayable"},{"type":"function","name":"setPaused","inputs":[{"name":"_paused","type":"bool","internalType":"bool"}],"outputs":[],"stateMutability":"nonpayable"},{"type":"function","name":"setPendingOwner","inputs":[{"name":"to","type":"address","internalType":"address"}],"outputs":[],"stateMutability":"nonpayable"},{"type":"function","name":"setTag","inputs":[{"name":"_tag","type":"bytes32","internalType":"bytes32"}],"outputs":[],"stateMutability":"nonpayable"},{"type":"function","name":"tag","inputs":[],"outputs":[{"name":"","type":"bytes32","internalType":"bytes32"}],"stateMutability":"view"},{"type":"function","name":"transferOwnership","inputs":[{"name":"newOwner","type":"address","internalType":"address"}],"outputs":[],"stateMutability":"nonpayable"},{"type":"event","name":"AccountSet","inputs":[{"name":"account","type":"address","indexed":true,"internalType":"address"}],"anonymous":false},{"type":"event","name":"CallerSet","inputs":[{"name":"caller","type":"address","indexed":true,"internalType":"address"}],"anonymous":false},{"type":"event","name":"NewOwnerSet","inputs":[{"name":"owner","type":"address","indexed":true,"internalType":"address"}],"anonymous":false},{"type":"event","name":"PausedSet","inputs":[{"name":"status","type":"bool","indexed":true,"internalType":"bool"}],"anonymous":false},{"type":"event","name":"PendingOwnerSet","inputs":[{"name":"to","type":"address","indexed":true,"internalType":"address"}],"anonymous":false},{"type":"event","name":"TagSet","inputs":[{"name":"tag","type":"bytes32","indexed":true,"internalType":"bytes32"}],"anonymous":false}],"bytecode":{"object":"0x6080346100f357601f610f4938819003918201601f19168301916001600160401b038311848410176100f75780849260409485528339810103126100f357610052602061004b8361010b565b920161010b565b6001545f80546001600160a01b0319166001600160a01b03909416938417815560405193907f038720101b9ced74445432ced46c7e5e4c80202669153dd67d226c66a0aa477b9080a26001600160b01b031916600160a01b176001555f6002819055600380546001600160a01b0319166001600160a01b039390931692909217909155600581905560068190556007819055600855610e2990816101208239f35b5f80fd5b634e487b7160e01b5f52604160045260245ffd5b51906001600160a01b03821682036100f35756fe6080806040526004361015610012575f80fd5b5f3560e01c90816308dbebf614610ab15750806316c38b3c14610a3857806329f6d57c146109855780632e89f53d14610968578063485cc9551461093e57806351f91066146109215780635c975abb146108fc5780635dab2420146108d4578063715018a61461085f5780637c4c833b146107cc57806380920215146107af578063890eba68146107945780638da5cb5b1461076d57806392ff81a5146107505780639843cfda146107335780639d5228e814610651578063a3f4df7e1461061d578063b695e2ef146105c3578063bb24fe8a1461059b578063beb92f55146104e9578063c0c53b8b14610470578063c42069ec146103f6578063c4d66de8146103d5578063d58c3fc314610387578063d826f88f14610363578063e30c39781461033b578063ebbc49651461030e578063f266002714610257578063f2fde38b146101b8578063fc9c8d39146101905763ffa1ad7414610171575f80fd5b3461018c575f36600319011261018c57602060405160018152f35b5f80fd5b3461018c575f36600319011261018c576003546040516001600160a01b039091168152602090f35b3461018c57602036600319011261018c576101d1610b74565b61020460018060a01b035f5416604051906101ed604083610c35565b600382526245333560e81b60208301523314610c6b565b6001600160a01b0381161561021e5761021c90610d7f565b005b60405162461bcd60e51b81526020600482015260116024820152704e6577204f776e6572206973207a65726f60781b6044820152606490fd5b3461018c5761026536610c00565b5061026e610ce9565b6102a260018060a01b036003541633146040519061028d604083610c35565b600382526245323760e81b6020830152610c6b565b60015460a81c60ff16156102eb57805f6102e792526040516102c5604082610c35565b6003815262229a1b60e91b602082015260208201525b60405191829182610ba0565b0390f35b506102e76102f7610ce9565b60018152610306600554610dd1565b6005556102db565b3461018c575f36600319011261018c576001546001600160a01b03163381900361018c5761021c90610d7f565b3461018c575f36600319011261018c576001546040516001600160a01b039091168152602090f35b3461018c575f36600319011261018c575f6005555f6006555f6007555f6008555f80f35b3461018c5761039536610c00565b506103b560018060a01b036003541633146040519061028d604083610c35565b60ff60015460a81c16156103c557005b6103d0600754610dd1565b600755005b3461018c57602036600319011261018c5761021c6103f1610b74565b610d19565b3461018c57602036600319011261018c5761040f610b74565b61042b60018060a01b035f5416604051906101ed604083610c35565b600180546001600160a01b0319166001600160a01b039290921691821790557f68f49b346b94582a8b5f9d10e3fe3365318fe8f191ff8dce7c59c6cad06b02f55f80a2005b3461018c57606036600319011261018c57610489610b74565b610491610b8a565b6044356001600160a01b03811692919083900361018c576104b191610c9b565b600480546001600160a01b031916821790557f195359283029fbdb9a24519b1ec07caf1677655529bf99dc1634c1e8b28811805f80a2005b3461018c57602036600319011261018c57610502610b74565b61051e60018060a01b035f5416604051906101ed604083610c35565b6001600160a01b0316801561056557600380546001600160a01b031916821790557fac431eb831269b53b41991f6cbfbfc93f4baa395996a8170abac93962b5a358e5f80a2005b60405162461bcd60e51b815260206004820152600e60248201526d24b73b30b634b21031b0b63632b960911b6044820152606490fd5b3461018c575f36600319011261018c5760405169436f6d6d6f6e5479706560b01b8152602090f35b3461018c57602036600319011261018c576004356105f360018060a01b035f5416604051906101ed604083610c35565b806002557fef711e3eb06966d227e22eb4fa0302550dcd7257cf69b537cf4d37af53ea9cda5f80a2005b3461018c575f36600319011261018c5760405175223ab6b6bca1b7bab73a32b920baba3437b934bd32b960511b8152602090f35b3461018c57606036600319011261018c5760043567ffffffffffffffff811161018c5761010090600319903603011261018c5760243567ffffffffffffffff811161018c57606090600319903603011261018c5760443567ffffffffffffffff811161018c57606090600319903603011261018c576106ce610ce9565b6106ed60018060a01b036003541633146040519061028d604083610c35565b60015460a81c60ff161561071057805f6102e792526040516102c5604082610c35565b506102e761071c610ce9565b6001815261072b600654610dd1565b6006556102db565b3461018c575f36600319011261018c576020600754604051908152f35b3461018c575f36600319011261018c576020600554604051908152f35b3461018c575f36600319011261018c575f546040516001600160a01b039091168152602090f35b3461018c575f36600319011261018c576020604051600f8152f35b3461018c575f36600319011261018c576020600654604051908152f35b3461018c57604036600319011261018c5760043567ffffffffffffffff811161018c5761010090600319903603011261018c5760243567ffffffffffffffff811161018c57606090600319903603011261018c5761083f60018060a01b036003541633146040519061028d604083610c35565b60ff60015460a81c161561084f57005b61085a600854610dd1565b600855005b3461018c575f36600319011261018c5761088b60018060a01b035f5416604051906101ed604083610c35565b6001600160601b0360a01b5f54165f556001600160601b0360a01b600154166001555f7f038720101b9ced74445432ced46c7e5e4c80202669153dd67d226c66a0aa477b8180a2005b3461018c575f36600319011261018c576004546040516001600160a01b039091168152602090f35b3461018c575f36600319011261018c57602060ff60015460a81c166040519015158152f35b3461018c575f36600319011261018c576020600254604051908152f35b3461018c57604036600319011261018c5761021c61095a610b74565b610962610b8a565b90610c9b565b3461018c575f36600319011261018c576020600854604051908152f35b3461018c57602036600319011261018c5761099e610b74565b6109ba60018060a01b035f5416604051906101ed604083610c35565b6001600160a01b03168015610a0157600480546001600160a01b031916821790557f195359283029fbdb9a24519b1ec07caf1677655529bf99dc1634c1e8b28811805f80a2005b60405162461bcd60e51b815260206004820152600f60248201526e125b9d985b1a59081858d8dbdd5b9d608a1b6044820152606490fd5b3461018c57602036600319011261018c5760043580151580910361018c57610a7260018060a01b035f5416604051906101ed604083610c35565b6001805460ff60a81b191660a883901b60ff60a81b161790557f40db37ff5c0bdc2c427fbb2078c8f24afea940abac0e3c23bb4ea3bf2da2b2125f80a2005b3461018c575f36600319011261018c576351fa6fbf60e11b8152602081600481305afa8015610b45575f90610b11575b6102e79060405190602082015260208152610afd604082610c35565b604051918291602083526020830190610b50565b506020813d602011610b3d575b81610b2b60209383610c35565b8101031261018c576102e79051610ae1565b3d9150610b1e565b6040513d5f823e3d90fd5b805180835260209291819084018484015e5f828201840152601f01601f1916010190565b600435906001600160a01b038216820361018c57565b602435906001600160a01b038216820361018c57565b90602082528051916002831015610bec57610be99260208201526040610bd460208401516060838501526080840190610b50565b920151906060601f1982850301910152610b50565b90565b634e487b7160e01b5f52602160045260245ffd5b602060031982011261018c576004359067ffffffffffffffff821161018c5761010090829003600319011261018c5760040190565b90601f8019910116810190811067ffffffffffffffff821117610c5757604052565b634e487b7160e01b5f52604160045260245ffd5b15610c735750565b60405162461bcd60e51b815260206004820152908190610c97906024830190610b50565b0390fd5b610ca490610d19565b600380546001600160a01b0319166001600160a01b039290921691821790557fac431eb831269b53b41991f6cbfbfc93f4baa395996a8170abac93962b5a358e5f80a2565b604051906060820182811067ffffffffffffffff821117610c575760405260606040835f81528260208201520152565b60ff60015460a01c16610d4457610d2f90610d7f565b6001805460ff60a01b1916600160a01b179055565b60405162461bcd60e51b8152602060048201526013602482015272105b1c9958591e481a5b9a5d1a585b1a5e9959606a1b6044820152606490fd5b60018060a01b0316806001600160601b0360a01b5f5416175f556001600160601b0360a01b600154166001557f038720101b9ced74445432ced46c7e5e4c80202669153dd67d226c66a0aa477b5f80a2565b5f198114610ddf5760010190565b634e487b7160e01b5f52601160045260245ffdfea2646970667358221220e2d13d4f739e2f795cb87bcfc6ffb58345d8d5401dda732c37dc5f6fcefc9c1e64736f6c634300081a0033","linkReferences":{}},"methodIdentifiers":{"NAME()":"a3f4df7e","TYPE()":"bb24fe8a","VERSION()":"ffa1ad74","_NAME()":"08dbebf6","acceptOwner()":"ebbc4965","account()":"5dab2420","caller()":"fc9c8d39","flag()":"890eba68","initialize(address)":"c4d66de8","initialize(address,address)":"485cc955","initialize(address,address,address)":"c0c53b8b","owner()":"8da5cb5b","paused()":"5c975abb","pendingOwner()":"e30c3978","postCheckCounter()":"80920215","postExecCheck((address,address,uint256,address,uint256,bytes,bytes,bytes),(bool,bytes,bytes),(uint8,string,bytes))":"9d5228e8","postExecProcess((address,address,uint256,address,uint256,bytes,bytes,bytes),(bool,bytes,bytes))":"7c4c833b","postProcessCounter()":"2e89f53d","preCheckCounter()":"92ff81a5","preExecCheck((address,address,uint256,address,uint256,bytes,bytes,bytes))":"f2660027","preExecProcess((address,address,uint256,address,uint256,bytes,bytes,bytes))":"d58c3fc3","preProcessCounter()":"9843cfda","renounceOwnership()":"715018a6","reset()":"d826f88f","setAccount(address)":"29f6d57c","setCaller(address)":"beb92f55","setPaused(bool)":"16c38b3c","setPendingOwner(address)":"c42069ec","setTag(bytes32)":"b695e2ef","tag()":"51f91066","transferOwnership(address)":"f2fde38b"},"id":70}