{"abi":[{"type":"constructor","inputs":[{"name":"_owner","type":"address","internalType":"address"}],"stateMutability":"nonpayable"},{"type":"receive","stateMutability":"payable"},{"type":"function","name":"NAME","inputs":[],"outputs":[{"name":"","type":"bytes32","internalType":"bytes32"}],"stateMutability":"view"},{"type":"function","name":"VERSION","inputs":[],"outputs":[{"name":"","type":"uint256","internalType":"uint256"}],"stateMutability":"view"},{"type":"function","name":"_NAME","inputs":[],"outputs":[{"name":"","type":"string","internalType":"string"}],"stateMutability":"view"},{"type":"function","name":"acceptOwner","inputs":[],"outputs":[],"stateMutability":"nonpayable"},{"type":"function","name":"addDelegate","inputs":[{"name":"_delegate","type":"address","internalType":"address"}],"outputs":[],"stateMutability":"nonpayable"},{"type":"function","name":"addDelegates","inputs":[{"name":"_delegates","type":"address[]","internalType":"address[]"}],"outputs":[],"stateMutability":"nonpayable"},{"type":"function","name":"authorizer","inputs":[],"outputs":[{"name":"","type":"address","internalType":"address"}],"stateMutability":"view"},{"type":"function","name":"execTransaction","inputs":[{"name":"callData","type":"tuple","internalType":"struct CallData","components":[{"name":"flag","type":"uint256","internalType":"uint256"},{"name":"to","type":"address","internalType":"address"},{"name":"value","type":"uint256","internalType":"uint256"},{"name":"data","type":"bytes","internalType":"bytes"},{"name":"hint","type":"bytes","internalType":"bytes"},{"name":"extra","type":"bytes","internalType":"bytes"}]}],"outputs":[{"name":"result","type":"tuple","internalType":"struct TransactionResult","components":[{"name":"success","type":"bool","internalType":"bool"},{"name":"data","type":"bytes","internalType":"bytes"},{"name":"hint","type":"bytes","internalType":"bytes"}]}],"stateMutability":"nonpayable"},{"type":"function","name":"execTransactions","inputs":[{"name":"callDataList","type":"tuple[]","internalType":"struct CallData[]","components":[{"name":"flag","type":"uint256","internalType":"uint256"},{"name":"to","type":"address","internalType":"address"},{"name":"value","type":"uint256","internalType":"uint256"},{"name":"data","type":"bytes","internalType":"bytes"},{"name":"hint","type":"bytes","internalType":"bytes"},{"name":"extra","type":"bytes","internalType":"bytes"}]}],"outputs":[{"name":"resultList","type":"tuple[]","internalType":"struct TransactionResult[]","components":[{"name":"success","type":"bool","internalType":"bool"},{"name":"data","type":"bytes","internalType":"bytes"},{"name":"hint","type":"bytes","internalType":"bytes"}]}],"stateMutability":"nonpayable"},{"type":"function","name":"getAccountAddress","inputs":[],"outputs":[{"name":"account","type":"address","internalType":"address"}],"stateMutability":"view"},{"type":"function","name":"getAllDelegates","inputs":[],"outputs":[{"name":"","type":"address[]","internalType":"address[]"}],"stateMutability":"view"},{"type":"function","name":"hasDelegate","inputs":[{"name":"_delegate","type":"address","internalType":"address"}],"outputs":[{"name":"","type":"bool","internalType":"bool"}],"stateMutability":"view"},{"type":"function","name":"initialize","inputs":[{"name":"_owner","type":"address","internalType":"address"},{"name":"_roleManager","type":"address","internalType":"address"},{"name":"_authorizer","type":"address","internalType":"address"}],"outputs":[],"stateMutability":"nonpayable"},{"type":"function","name":"initialize","inputs":[{"name":"_owner","type":"address","internalType":"address"}],"outputs":[],"stateMutability":"nonpayable"},{"type":"function","name":"owner","inputs":[],"outputs":[{"name":"","type":"address","internalType":"address"}],"stateMutability":"view"},{"type":"function","name":"pendingOwner","inputs":[],"outputs":[{"name":"","type":"address","internalType":"address"}],"stateMutability":"view"},{"type":"function","name":"removeDelegate","inputs":[{"name":"_delegate","type":"address","internalType":"address"}],"outputs":[],"stateMutability":"nonpayable"},{"type":"function","name":"removeDelegates","inputs":[{"name":"_delegates","type":"address[]","internalType":"address[]"}],"outputs":[],"stateMutability":"nonpayable"},{"type":"function","name":"renounceOwnership","inputs":[],"outputs":[],"stateMutability":"nonpayable"},{"type":"function","name":"roleManager","inputs":[],"outputs":[{"name":"","type":"address","internalType":"address"}],"stateMutability":"view"},{"type":"function","name":"safe","inputs":[],"outputs":[{"name":"","type":"address","internalType":"address"}],"stateMutability":"view"},{"type":"function","name":"setAuthorizer","inputs":[{"name":"_authorizer","type":"address","internalType":"address"}],"outputs":[],"stateMutability":"nonpayable"},{"type":"function","name":"setPendingOwner","inputs":[{"name":"to","type":"address","internalType":"address"}],"outputs":[],"stateMutability":"nonpayable"},{"type":"function","name":"setRoleManager","inputs":[{"name":"_roleManager","type":"address","internalType":"address"}],"outputs":[],"stateMutability":"nonpayable"},{"type":"function","name":"transferOwnership","inputs":[{"name":"newOwner","type":"address","internalType":"address"}],"outputs":[],"stateMutability":"nonpayable"},{"type":"event","name":"AuthorizerSet","inputs":[{"name":"authorizer","type":"address","indexed":true,"internalType":"address"}],"anonymous":false},{"type":"event","name":"DelegateAdded","inputs":[{"name":"delegate","type":"address","indexed":true,"internalType":"address"}],"anonymous":false},{"type":"event","name":"DelegateRemoved","inputs":[{"name":"delegate","type":"address","indexed":true,"internalType":"address"}],"anonymous":false},{"type":"event","name":"NewOwnerSet","inputs":[{"name":"owner","type":"address","indexed":true,"internalType":"address"}],"anonymous":false},{"type":"event","name":"PendingOwnerSet","inputs":[{"name":"to","type":"address","indexed":true,"internalType":"address"}],"anonymous":false},{"type":"event","name":"RoleManagerSet","inputs":[{"name":"roleManager","type":"address","indexed":true,"internalType":"address"}],"anonymous":false},{"type":"event","name":"TransactionExecuted","inputs":[{"name":"to","type":"address","indexed":true,"internalType":"address"},{"name":"selector","type":"bytes4","indexed":true,"internalType":"bytes4"},{"name":"value","type":"uint256","indexed":true,"internalType":"uint256"},{"name":"transaction","type":"tuple","indexed":false,"internalType":"struct TransactionData","components":[{"name":"from","type":"address","internalType":"address"},{"name":"delegate","type":"address","internalType":"address"},{"name":"flag","type":"uint256","internalType":"uint256"},{"name":"to","type":"address","internalType":"address"},{"name":"value","type":"uint256","internalType":"uint256"},{"name":"data","type":"bytes","internalType":"bytes"},{"name":"hint","type":"bytes","internalType":"bytes"},{"name":"extra","type":"bytes","internalType":"bytes"}]}],"anonymous":false}],"bytecode":{"object":"0x60803460a957601f611b0d38819003918201601f19168301916001600160401b0383118484101760ad5780849260209460405283398101031260a957516001600160a01b0381169081900360a9576001545f80546001600160a01b0319168317815560405192907f038720101b9ced74445432ced46c7e5e4c80202669153dd67d226c66a0aa477b9080a26001600160a81b031916600160a01b17600155611a4b90816100c28239f35b5f80fd5b634e487b7160e01b5f52604160045260245ffdfe6080604052600436101561001a575b3615610018575f80fd5b005b5f3560e01c8062435da51461019e578063058a628f1461019957806308dbebf6146101945780630e2562d914610171578063186f03541461017157806347ab91491461018f578063480005cd1461018a57806367e7646f14610185578063715018a614610180578063747235551461017b5780637a4f3764146101765780638da5cb5b14610171578063a3f4df7e1461016c578063c0c53b8b14610167578063c42069ec14610162578063c4d66de81461015d578063d09edf3114610158578063e30c397814610153578063e71bdf411461014e578063eb70037314610149578063ebbc496514610144578063f1d588c51461013f578063f2fde38b1461013a578063f5ff8ef2146101355763ffa1ad740361000e57610c23565b610a8a565b6109a6565b61096f565b610942565b6108ee565b6108b2565b61088a565b610862565b610842565b6107c9565b610780565b610753565b6102ff565b6106d3565b61063d565b61057b565b61053f565b6104f7565b61036d565b610257565b6101db565b346101c6575f3660031901126101c6576002546040516001600160a01b039091168152602090f35b5f80fd5b6001600160a01b038116036101c657565b346101c65760203660031901126101c6576100186004356101fb816101ca565b5f5461021a906001600160a01b0316610212610cae565b903314610ccf565b611009565b805180835260209291819084018484015e5f828201840152601f01601f1916010190565b90602061025492818152019061021f565b90565b346101c6575f3660031901126101c6576040516351fa6fbf60e11b8152602081600481305afa9081156102fa575f916102c6575b6102c26102a86102b6846040519283916020830160209181520190565b03601f198101835282610c72565b60405191829182610243565b0390f35b90506020813d6020116102f2575b816102e160209383610c72565b810103126101c657516102a861028b565b3d91506102d4565b610cff565b346101c6575f3660031901126101c6575f546040516001600160a01b039091168152602090f35b61025491815115158152604061034b602084015160606020850152606084019061021f565b92015190604081840391015261021f565b906020610254928181520190610326565b346101c65760203660031901126101c6576004356001600160401b0381116101c6578060040160c060031983360301126101c6576102c2916103ad610d0a565b506103d46103c6335f52600560205260405f2054151590565b6103ce610d29565b90610ccf565b6103dc610d4a565b5f549092906103fc906001600160a01b03165b6001600160a01b03168452565b33602084015280356040840152602482019261042a61041a85610d97565b6001600160a01b03166060830152565b7e0f8708785e90dac3172a799e69be02455af248d971acdd26dc38e07cdb596b6104e86104c46104be6044870135968760808701526104a161047960a46064840193610480610479868d610da1565b3691610dd3565b60a08b0152610495610479608483018d610da1565b60c08b01520189610da1565b60e08701526104b86104b287611183565b99610d97565b96610da1565b90610e09565b6040516001600160e01b0319909116946001600160a01b0316939091829182610ecd565b0390a46040519182918261035c565b346101c65760203660031901126101c6576020610535600435610519816101ca565b6001600160a01b03165f90815260056020526040902054151590565b6040519015158152f35b346101c65760203660031901126101c65761001860043561055f816101ca565b5f54610576906001600160a01b0316610212610cae565b6113a1565b346101c6575f3660031901126101c6575f546105a2906001600160a01b0316610212610cae565b6001600160601b0360a01b5f54165f556001600160601b0360a01b600154166001555f7f038720101b9ced74445432ced46c7e5e4c80202669153dd67d226c66a0aa477b8180a2005b9060206003198301126101c6576004356001600160401b0381116101c65760040182601f820112156101c6578035926001600160401b0384116101c6576020808301928560051b0101116101c6579190565b346101c65761064b366105eb565b5f54909190610665906001600160a01b0316610212610cae565b5f5b82811061067057005b8061068b6106816001938686610ef2565b35610576816101ca565b01610667565b60206040818301928281528451809452019201905f5b8181106106b45750505090565b82516001600160a01b03168452602093840193909201916001016106a7565b346101c6575f3660031901126101c65760405180602060045491828152019060045f527f8a35acfbc15ff81a39ae7d344fd709f28e8600b4aa8c65c6b64bfe7fe36bd19b905f5b81811061073d576102c28561073181870382610c72565b60405191829182610691565b825484526020909301926001928301920161071a565b346101c6575f3660031901126101c6576040516e10dbd89bd4d859995058d8dbdd5b9d608a1b8152602090f35b346101c65760603660031901126101c6576100186004356107a0816101ca565b61021a6024356107af816101ca565b6107c4604435936107bf856101ca565b610f07565b611432565b346101c65760203660031901126101c6576004356107e6816101ca565b5f546107fd906001600160a01b0316610212610cae565b600180546001600160a01b0319166001600160a01b039290921691821790557f68f49b346b94582a8b5f9d10e3fe3365318fe8f191ff8dce7c59c6cad06b02f55f80a2005b346101c65760203660031901126101c6576100186004356107bf816101ca565b346101c6575f3660031901126101c6576003546040516001600160a01b039091168152602090f35b346101c6575f3660031901126101c6576001546040516001600160a01b039091168152602090f35b346101c65760203660031901126101c6576100186004356108d2816101ca565b5f546108e9906001600160a01b0316610212610cae565b611477565b346101c6576108fc366105eb565b5f54909190610916906001600160a01b0316610212610cae565b5f5b82811061092157005b8061093c6109326001938686610ef2565b356108e9816101ca565b01610918565b346101c6575f3660031901126101c6576001546001600160a01b0316338190036101c657610018906113e0565b346101c65760203660031901126101c65761001860043561098f816101ca565b5f546107c4906001600160a01b0316610212610cae565b346101c65760203660031901126101c6576004356109c3816101ca565b5f546109da906001600160a01b0316610212610cae565b6001600160a01b038116156109f257610018906113e0565b60405162461bcd60e51b81526020600482015260116024820152704e6577204f776e6572206973207a65726f60781b6044820152606490fd5b602081016020825282518091526040820191602060408360051b8301019401925f915b838310610a5d57505050505090565b9091929394602080610a7b600193603f198682030187528951610326565b97019301930191939290610a4e565b346101c657610a98366105eb565b90610ab16103c6335f52600560205260405f2054151590565b610ab9610d4a565b5f54909290610ad0906001600160a01b03166103ef565b336020840152610adf81610f84565b925f906060810192608082019360a0830193604084019260c085019060e08601925b818110610b1657604051806102c28d82610a2b565b610b2181838c610fd3565b8b6020820191610b3083610d97565b6001600160a01b03168852604081013592838d526060820192610b538484610da1565b3690610b5e92610dd3565b8d5282358b52610b716080840184610da1565b3690610b7c92610dd3565b8852610b8b60a0840184610da1565b3690610b9692610dd3565b895285610ba28d611183565b610bac8284610ff5565b52610bb691610ff5565b50610bc090610d97565b91610bca91610da1565b610bd391610e09565b6040516001600160e01b0319909116916001600160a01b03169080610bf88c82610ecd565b037e0f8708785e90dac3172a799e69be02455af248d971acdd26dc38e07cdb596b91a4600101610b01565b346101c6575f3660031901126101c657602060405160028152f35b634e487b7160e01b5f52604160045260245ffd5b606081019081106001600160401b03821117610c6d57604052565b610c3e565b90601f801991011681019081106001600160401b03821117610c6d57604052565b6001600160401b038111610c6d57601f01601f191660200190565b60405190610cbd604083610c72565b600382526245333560e81b6020830152565b15610cd75750565b60405162461bcd60e51b815260206004820152908190610cfb90602483019061021f565b0390fd5b6040513d5f823e3d90fd5b60405190610d1782610c52565b60606040835f81528260208201520152565b60405190610d38604083610c72565b600382526245343160e81b6020830152565b6040519061010082018281106001600160401b03821117610c6d57604052606060e0835f81525f60208201525f60408201525f838201525f60808201528260a08201528260c08201520152565b35610254816101ca565b903590601e19813603018212156101c657018035906001600160401b0382116101c6576020019181360383136101c657565b929192610ddf82610c93565b91610ded6040519384610c72565b8294818452818301116101c6578281602093845f960137010152565b356001600160e01b0319811692919060048210610e24575050565b6001600160e01b031960049290920360031b82901b16169150565b80516001600160a01b03168252610254916020828101516001600160a01b031690820152604082810151908201526060808301516001600160a01b0316908201526080820151608082015260e0610ebc610eaa60a085015161010060a086015261010085019061021f565b60c085015184820360c086015261021f565b9201519060e081840391015261021f565b906020610254928181520190610e3f565b634e487b7160e01b5f52603260045260245ffd5b9190811015610f025760051b0190565b610ede565b60ff60015460a01c16610f3257610f1d906113e0565b6001805460ff60a01b1916600160a01b179055565b60405162461bcd60e51b8152602060048201526013602482015272105b1c9958591e481a5b9a5d1a585b1a5e9959606a1b6044820152606490fd5b6001600160401b038111610c6d5760051b60200190565b90610f8e82610f6d565b610f9b6040519182610c72565b8281528092610fac601f1991610f6d565b01905f5b828110610fbc57505050565b602090610fc7610d0a565b82828501015201610fb0565b9190811015610f025760051b8101359060be19813603018212156101c6570190565b8051821015610f025760209160051b010190565b600380546001600160a01b0319166001600160a01b039290921691821790557fb251079a3e59729d2256949e48e44b7959908cdf34789078b6a1462ec32767205f80a2565b6040519061105d604083610c72565b6003825262114d0d60ea1b6020830152565b908160209103126101c6575190565b6040519061108d604083610c72565b600382526245343560e81b6020830152565b9291926110ab82610c93565b916110b96040519384610c72565b8294818452818301116101c6578281602093845f96015e010152565b9080601f830112156101c65781516102549260200161109f565b906020828203126101c65781516001600160401b0381116101c65761025492016110d5565b6002111561111e57565b634e487b7160e01b5f52602160045260245ffd5b61025491815161114181611114565b8152604061034b602084015160606020850152606084019061021f565b909161117561025493604084526040840190611132565b916020818403910152611132565b9061118c610d0a565b506003546004906020906111cf906111c3906001600160a01b03166111c36111b261104e565b6001600160a01b0383161515610ccf565b6001600160a01b031690565b604051631121d74d60e31b815292839182905afa9081156102fa575f91611372575b5060c0830151511561120d611205836114b6565b6103ce61107e565b611215610d0a565b90809281159384611366575b611355575b60048116611347575b611238866116d7565b9561125061124c6040830151600216151590565b1590565b611339575b61125d610d0a565b94839061132d575b61131a575b866008831661130a575b5050816112fd575b50611285575050565b6003546112c1925f9290916112a4906111c3906001600160a01b031681565b90604051809581948293636f6a565960e01b84526004840161115e565b03915afa9081156102fa575f916112db575b506040830152565b6112f791503d805f833e6112ef8183610c72565b8101906110ef565b5f6112d3565b604016151590505f61127c565b61131391611825565b5f86611274565b93506113278387866117b8565b9361126a565b50600282161515611265565b611342876117a2565b611255565b6113508661160e565b61122f565b91506113608561156b565b91611226565b50600181161515611221565b611394915060203d60201161139a575b61138c8183610c72565b81019061106f565b5f6111f1565b503d611382565b6001600160a01b03166113b381611909565b6113ba5750565b7f5a362b199d4fb2bd4e51a3436d86df24cb19b1b0890da774e2b54253d53aa4eb5f80a2565b60018060a01b0316806001600160601b0360a01b5f5416175f556001600160601b0360a01b600154166001557f038720101b9ced74445432ced46c7e5e4c80202669153dd67d226c66a0aa477b5f80a2565b600280546001600160a01b0319166001600160a01b039290921691821790557f765235f6b1f9df25a0fa901c365a8db93771de0abb8f48ffed12959c5c4d59b95f80a2565b6001600160a01b0316611489816119a7565b6114905750565b7f3be018e2afae1fe2bb23bb3cc019524cfe3872f2863d1c80b7a228c57bc1065a5f80a2565b6001811615908115916114c7575090565b6002915016151590565b6020818303126101c6578051906001600160401b0382116101c657016060818303126101c6576040519161150483610c52565b815160028110156101c657835260208201516001600160401b0381116101c657820181601f820112156101c657818160206115419351910161109f565b602084015260408201516001600160401b0381116101c65761156392016110d5565b604082015290565b905f6115af819361157a610d0a565b5060035460405163f266002760e01b8152602060048201529586936001600160a01b0390921692849283916024830190610e3f565b03925af19182156102fa575f926115ea575b506115e882600160208251926115d684611114565b6115df84611114565b01519114610ccf565b565b6116079192503d805f833e6115ff8183610c72565b8101906114d1565b905f6115c1565b6003546001600160a01b0316803b156101c65760405163d58c3fc360e01b815260206004820152915f91839182908490829061164e906024830190610e3f565b03925af180156102fa5761165f5750565b5f6115e891610c72565b9190916040818403126101c657805180151581036101c6579260208201516001600160401b0381116101c65761025492016110d5565b9493926060926116c99260018060a01b03168752602087015260806040870152608086019061021f565b936116d383611114565b0152565b906116e0610d0a565b915f6116fb6111c36111c36111c3845460018060a01b031690565b60608301519092906001600160a01b0316926080820151611727604060a0850151940151600116151590565b841461179a57836001955b61175260405197889687958694635229073f60e01b86526004860161169f565b03925af19081156102fa576115e8915f915f91611776575b50602085015215158352565b905061179491503d805f833e61178c8183610c72565b810190611669565b5f61176a565b838095611732565b6020815115910151906117b25750565b60208101fd5b9061181393926118015f80946117cc610d0a565b506115af60018060a01b036003541694604051998a97889687956313aa451d60e31b8752606060048801526064870190610e3f565b85810360031901602487015290610326565b83810360031901604485015290611132565b6003546001600160a01b031691823b156101c65761164e926118685f809460405196879586948593637c4c833b60e01b8552604060048601526044850190610e3f565b83810360031901602485015290610326565b5f1981019190821161188857565b634e487b7160e01b5f52601160045260245ffd5b8054821015610f02575f5260205f2001905f90565b916118ca9183549060031b91821b915f19901b19161790565b9055565b805480156118f5575f1901906118e4828261189c565b8154905f199060031b1b1916905555565b634e487b7160e01b5f52603160045260245ffd5b5f818152600560205260409020549081156119a1575f19820190828211611888575f926119609261193b60045461187a565b90818103611966575b50505061195160046118ce565b6005905f5260205260405f2090565b55600190565b6119516119929161198861197e61199895600461189c565b90549060031b1c90565b928391600461189c565b906118b1565b555f8080611944565b50505f90565b5f81815260056020526040902054611a105760045468010000000000000000811015610c6d576119f96119e3826001859401600455600461189c565b819391549060031b91821b915f19901b19161790565b9055600454905f52600560205260405f2055600190565b505f9056fea2646970667358221220c2daa3d8fbd1c80dac02ffa5ea13bb9519a07442acbb83fc5158266f006b313e64736f6c634300081a0033","linkReferences":{}},"methodIdentifiers":{"NAME()":"a3f4df7e","VERSION()":"ffa1ad74","_NAME()":"08dbebf6","acceptOwner()":"ebbc4965","addDelegate(address)":"e71bdf41","addDelegates(address[])":"eb700373","authorizer()":"d09edf31","execTransaction((uint256,address,uint256,bytes,bytes,bytes))":"47ab9149","execTransactions((uint256,address,uint256,bytes,bytes,bytes)[])":"f5ff8ef2","getAccountAddress()":"0e2562d9","getAllDelegates()":"7a4f3764","hasDelegate(address)":"480005cd","initialize(address)":"c4d66de8","initialize(address,address,address)":"c0c53b8b","owner()":"8da5cb5b","pendingOwner()":"e30c3978","removeDelegate(address)":"67e7646f","removeDelegates(address[])":"74723555","renounceOwnership()":"715018a6","roleManager()":"00435da5","safe()":"186f0354","setAuthorizer(address)":"058a628f","setPendingOwner(address)":"c42069ec","setRoleManager(address)":"f1d588c5","transferOwnership(address)":"f2fde38b"},"id":73}