{"abi":[{"type":"constructor","inputs":[{"name":"_owner","type":"address","internalType":"address"},{"name":"_caller","type":"address","internalType":"address"},{"name":"_maxValue","type":"uint256","internalType":"uint256"},{"name":"_minValue","type":"uint256","internalType":"uint256"}],"stateMutability":"nonpayable"},{"type":"function","name":"NAME","inputs":[],"outputs":[{"name":"","type":"bytes32","internalType":"bytes32"}],"stateMutability":"view"},{"type":"function","name":"TYPE","inputs":[],"outputs":[{"name":"","type":"bytes32","internalType":"bytes32"}],"stateMutability":"view"},{"type":"function","name":"VERSION","inputs":[],"outputs":[{"name":"","type":"uint256","internalType":"uint256"}],"stateMutability":"view"},{"type":"function","name":"_NAME","inputs":[],"outputs":[{"name":"","type":"string","internalType":"string"}],"stateMutability":"view"},{"type":"function","name":"acceptOwner","inputs":[],"outputs":[],"stateMutability":"nonpayable"},{"type":"function","name":"account","inputs":[],"outputs":[{"name":"","type":"address","internalType":"address"}],"stateMutability":"view"},{"type":"function","name":"caller","inputs":[],"outputs":[{"name":"","type":"address","internalType":"address"}],"stateMutability":"view"},{"type":"function","name":"flag","inputs":[],"outputs":[{"name":"","type":"uint256","internalType":"uint256"}],"stateMutability":"view"},{"type":"function","name":"initialize","inputs":[{"name":"_owner","type":"address","internalType":"address"},{"name":"_caller","type":"address","internalType":"address"}],"outputs":[],"stateMutability":"nonpayable"},{"type":"function","name":"initialize","inputs":[{"name":"_owner","type":"address","internalType":"address"},{"name":"_caller","type":"address","internalType":"address"},{"name":"_account","type":"address","internalType":"address"}],"outputs":[],"stateMutability":"nonpayable"},{"type":"function","name":"initialize","inputs":[{"name":"_owner","type":"address","internalType":"address"}],"outputs":[],"stateMutability":"nonpayable"},{"type":"function","name":"maxValue","inputs":[],"outputs":[{"name":"","type":"uint256","internalType":"uint256"}],"stateMutability":"view"},{"type":"function","name":"minValue","inputs":[],"outputs":[{"name":"","type":"uint256","internalType":"uint256"}],"stateMutability":"view"},{"type":"function","name":"owner","inputs":[],"outputs":[{"name":"","type":"address","internalType":"address"}],"stateMutability":"view"},{"type":"function","name":"paused","inputs":[],"outputs":[{"name":"","type":"bool","internalType":"bool"}],"stateMutability":"view"},{"type":"function","name":"pendingOwner","inputs":[],"outputs":[{"name":"","type":"address","internalType":"address"}],"stateMutability":"view"},{"type":"function","name":"postExecCheck","inputs":[{"name":"transaction","type":"tuple","internalType":"struct TransactionData","components":[{"name":"from","type":"address","internalType":"address"},{"name":"delegate","type":"address","internalType":"address"},{"name":"flag","type":"uint256","internalType":"uint256"},{"name":"to","type":"address","internalType":"address"},{"name":"value","type":"uint256","internalType":"uint256"},{"name":"data","type":"bytes","internalType":"bytes"},{"name":"hint","type":"bytes","internalType":"bytes"},{"name":"extra","type":"bytes","internalType":"bytes"}]},{"name":"callResult","type":"tuple","internalType":"struct TransactionResult","components":[{"name":"success","type":"bool","internalType":"bool"},{"name":"data","type":"bytes","internalType":"bytes"},{"name":"hint","type":"bytes","internalType":"bytes"}]},{"name":"preData","type":"tuple","internalType":"struct AuthorizerReturnData","components":[{"name":"result","type":"uint8","internalType":"enum AuthResult"},{"name":"message","type":"string","internalType":"string"},{"name":"data","type":"bytes","internalType":"bytes"}]}],"outputs":[{"name":"authData","type":"tuple","internalType":"struct AuthorizerReturnData","components":[{"name":"result","type":"uint8","internalType":"enum AuthResult"},{"name":"message","type":"string","internalType":"string"},{"name":"data","type":"bytes","internalType":"bytes"}]}],"stateMutability":"nonpayable"},{"type":"function","name":"postExecProcess","inputs":[{"name":"transaction","type":"tuple","internalType":"struct TransactionData","components":[{"name":"from","type":"address","internalType":"address"},{"name":"delegate","type":"address","internalType":"address"},{"name":"flag","type":"uint256","internalType":"uint256"},{"name":"to","type":"address","internalType":"address"},{"name":"value","type":"uint256","internalType":"uint256"},{"name":"data","type":"bytes","internalType":"bytes"},{"name":"hint","type":"bytes","internalType":"bytes"},{"name":"extra","type":"bytes","internalType":"bytes"}]},{"name":"callResult","type":"tuple","internalType":"struct TransactionResult","components":[{"name":"success","type":"bool","internalType":"bool"},{"name":"data","type":"bytes","internalType":"bytes"},{"name":"hint","type":"bytes","internalType":"bytes"}]}],"outputs":[],"stateMutability":"nonpayable"},{"type":"function","name":"preExecCheck","inputs":[{"name":"transaction","type":"tuple","internalType":"struct TransactionData","components":[{"name":"from","type":"address","internalType":"address"},{"name":"delegate","type":"address","internalType":"address"},{"name":"flag","type":"uint256","internalType":"uint256"},{"name":"to","type":"address","internalType":"address"},{"name":"value","type":"uint256","internalType":"uint256"},{"name":"data","type":"bytes","internalType":"bytes"},{"name":"hint","type":"bytes","internalType":"bytes"},{"name":"extra","type":"bytes","internalType":"bytes"}]}],"outputs":[{"name":"authData","type":"tuple","internalType":"struct AuthorizerReturnData","components":[{"name":"result","type":"uint8","internalType":"enum AuthResult"},{"name":"message","type":"string","internalType":"string"},{"name":"data","type":"bytes","internalType":"bytes"}]}],"stateMutability":"nonpayable"},{"type":"function","name":"preExecProcess","inputs":[{"name":"transaction","type":"tuple","internalType":"struct TransactionData","components":[{"name":"from","type":"address","internalType":"address"},{"name":"delegate","type":"address","internalType":"address"},{"name":"flag","type":"uint256","internalType":"uint256"},{"name":"to","type":"address","internalType":"address"},{"name":"value","type":"uint256","internalType":"uint256"},{"name":"data","type":"bytes","internalType":"bytes"},{"name":"hint","type":"bytes","internalType":"bytes"},{"name":"extra","type":"bytes","internalType":"bytes"}]}],"outputs":[],"stateMutability":"nonpayable"},{"type":"function","name":"renounceOwnership","inputs":[],"outputs":[],"stateMutability":"nonpayable"},{"type":"function","name":"setAccount","inputs":[{"name":"_account","type":"address","internalType":"address"}],"outputs":[],"stateMutability":"nonpayable"},{"type":"function","name":"setCaller","inputs":[{"name":"_caller","type":"address","internalType":"address"}],"outputs":[],"stateMutability":"nonpayable"},{"type":"function","name":"setPaused","inputs":[{"name":"_paused","type":"bool","internalType":"bool"}],"outputs":[],"stateMutability":"nonpayable"},{"type":"function","name":"setPendingOwner","inputs":[{"name":"to","type":"address","internalType":"address"}],"outputs":[],"stateMutability":"nonpayable"},{"type":"function","name":"setTag","inputs":[{"name":"_tag","type":"bytes32","internalType":"bytes32"}],"outputs":[],"stateMutability":"nonpayable"},{"type":"function","name":"tag","inputs":[],"outputs":[{"name":"","type":"bytes32","internalType":"bytes32"}],"stateMutability":"view"},{"type":"function","name":"transferOwnership","inputs":[{"name":"newOwner","type":"address","internalType":"address"}],"outputs":[],"stateMutability":"nonpayable"},{"type":"event","name":"AccountSet","inputs":[{"name":"account","type":"address","indexed":true,"internalType":"address"}],"anonymous":false},{"type":"event","name":"CallerSet","inputs":[{"name":"caller","type":"address","indexed":true,"internalType":"address"}],"anonymous":false},{"type":"event","name":"NewOwnerSet","inputs":[{"name":"owner","type":"address","indexed":true,"internalType":"address"}],"anonymous":false},{"type":"event","name":"PausedSet","inputs":[{"name":"status","type":"bool","indexed":true,"internalType":"bool"}],"anonymous":false},{"type":"event","name":"PendingOwnerSet","inputs":[{"name":"to","type":"address","indexed":true,"internalType":"address"}],"anonymous":false},{"type":"event","name":"TagSet","inputs":[{"name":"tag","type":"bytes32","indexed":true,"internalType":"bytes32"}],"anonymous":false}],"bytecode":{"object":"0x60c03461010d57601f610f1d38819003918201601f19168301916001600160401b038311848410176101115780849260809460405283398101031261010d5761004781610125565b9061005460208201610125565b9060606040820151910151916001549360018060a01b0316938460018060a01b03195f5416175f55604051947f038720101b9ced74445432ced46c7e5e4c80202669153dd67d226c66a0aa477b5f80a26001600160b01b031916600160a01b176001555f600255600380546001600160a01b0319166001600160a01b039290921691909117905560805260a052610de3908161013a82396080518181816103470152610776015260a0518181816102c6015261073c0152f35b5f80fd5b634e487b7160e01b5f52604160045260245ffd5b51906001600160a01b038216820361010d5756fe6080806040526004361015610012575f80fd5b5f3560e01c90816308dbebf614610a515750806316c38b3c146109d857806329f6d57c14610925578063485cc955146108fb57806351f91066146108de5780635c975abb146108b95780635dab242014610891578063715018a61461081c5780637c4c833b146107c0578063890eba68146101505780638da5cb5b1461079957806394a5c2e41461075f578063963e63c7146107255780639d5228e814610651578063a3f4df7e14610622578063b695e2ef146105c8578063bb24fe8a146105a0578063beb92f55146104ee578063c0c53b8b14610475578063c42069ec146103fb578063c4d66de8146103da578063d58c3fc3146103c3578063e30c39781461039b578063ebbc49651461036e578063f266002714610220578063f2fde38b14610181578063fc9c8d39146101555763ffa1ad7414610150575f80fd5b610b40565b3461017d575f36600319011261017d576003546040516001600160a01b039091168152602090f35b5f80fd5b3461017d57602036600319011261017d5761019a610b14565b6101cd60018060a01b035f5416604051906101b6604083610bf0565b600382526245333560e81b60208301523314610c26565b6001600160a01b038116156101e7576101e590610d5b565b005b60405162461bcd60e51b81526020600482015260116024820152704e6577204f776e6572206973207a65726f60781b6044820152606490fd5b3461017d576102b161023136610bbb565b610239610cc5565b61026d60018060a01b0360035416331460405190610258604083610bf0565b600382526245323760e81b6020830152610c26565b9060ff60015460a81c165f146102b557505f815260405161028f604082610bf0565b6003815262229a1b60e91b602082015260208201525b60405191829182610b5b565b0390f35b905060806102c1610cc5565b9101357f00000000000000000000000000000000000000000000000000000000000000008110159081610343575b50156102fe57600181526102a5565b5f815260405161030f604082610bf0565b602081527f56616c7565507265507572653a2056616c7565206e6f7420696e2072616e6765602082015260208201526102a5565b90507f00000000000000000000000000000000000000000000000000000000000000001015836102ef565b3461017d575f36600319011261017d576001546001600160a01b03163381900361017d576101e590610d5b565b3461017d575f36600319011261017d576001546040516001600160a01b039091168152602090f35b3461017d576103d136610bbb565b506101e5610ca4565b3461017d57602036600319011261017d576101e56103f6610b14565b610cf5565b3461017d57602036600319011261017d57610414610b14565b61043060018060a01b035f5416604051906101b6604083610bf0565b600180546001600160a01b0319166001600160a01b039290921691821790557f68f49b346b94582a8b5f9d10e3fe3365318fe8f191ff8dce7c59c6cad06b02f55f80a2005b3461017d57606036600319011261017d5761048e610b14565b610496610b2a565b6044356001600160a01b03811692919083900361017d576104b691610c56565b600480546001600160a01b031916821790557f195359283029fbdb9a24519b1ec07caf1677655529bf99dc1634c1e8b28811805f80a2005b3461017d57602036600319011261017d57610507610b14565b61052360018060a01b035f5416604051906101b6604083610bf0565b6001600160a01b0316801561056a57600380546001600160a01b031916821790557fac431eb831269b53b41991f6cbfbfc93f4baa395996a8170abac93962b5a358e5f80a2005b60405162461bcd60e51b815260206004820152600e60248201526d24b73b30b634b21031b0b63632b960911b6044820152606490fd5b3461017d575f36600319011261017d5760405169436f6d6d6f6e5479706560b01b8152602090f35b3461017d57602036600319011261017d576004356105f860018060a01b035f5416604051906101b6604083610bf0565b806002557fef711e3eb06966d227e22eb4fa0302550dcd7257cf69b537cf4d37af53ea9cda5f80a2005b3461017d575f36600319011261017d576040517056616c756550726550757265436865636b60781b8152602090f35b3461017d57606036600319011261017d5760043567ffffffffffffffff811161017d5761010090600319903603011261017d5760243567ffffffffffffffff811161017d57606090600319903603011261017d5760443567ffffffffffffffff811161017d57606090600319903603011261017d576106ce610cc5565b6106ed60018060a01b0360035416331460405190610258604083610bf0565b60015460a81c60ff161561071057805f6102b1925260405161028f604082610bf0565b506102b161071c610cc5565b600181526102a5565b3461017d575f36600319011261017d5760206040517f00000000000000000000000000000000000000000000000000000000000000008152f35b3461017d575f36600319011261017d5760206040517f00000000000000000000000000000000000000000000000000000000000000008152f35b3461017d575f36600319011261017d575f546040516001600160a01b039091168152602090f35b3461017d57604036600319011261017d5760043567ffffffffffffffff811161017d5761010090600319903603011261017d5760243567ffffffffffffffff811161017d57606090600319903603011261017d576101e5610ca4565b3461017d575f36600319011261017d5761084860018060a01b035f5416604051906101b6604083610bf0565b6001600160601b0360a01b5f54165f556001600160601b0360a01b600154166001555f7f038720101b9ced74445432ced46c7e5e4c80202669153dd67d226c66a0aa477b8180a2005b3461017d575f36600319011261017d576004546040516001600160a01b039091168152602090f35b3461017d575f36600319011261017d57602060ff60015460a81c166040519015158152f35b3461017d575f36600319011261017d576020600254604051908152f35b3461017d57604036600319011261017d576101e5610917610b14565b61091f610b2a565b90610c56565b3461017d57602036600319011261017d5761093e610b14565b61095a60018060a01b035f5416604051906101b6604083610bf0565b6001600160a01b031680156109a157600480546001600160a01b031916821790557f195359283029fbdb9a24519b1ec07caf1677655529bf99dc1634c1e8b28811805f80a2005b60405162461bcd60e51b815260206004820152600f60248201526e125b9d985b1a59081858d8dbdd5b9d608a1b6044820152606490fd5b3461017d57602036600319011261017d5760043580151580910361017d57610a1260018060a01b035f5416604051906101b6604083610bf0565b6001805460ff60a81b191660a883901b60ff60a81b161790557f40db37ff5c0bdc2c427fbb2078c8f24afea940abac0e3c23bb4ea3bf2da2b2125f80a2005b3461017d575f36600319011261017d576351fa6fbf60e11b8152602081600481305afa8015610ae5575f90610ab1575b6102b19060405190602082015260208152610a9d604082610bf0565b604051918291602083526020830190610af0565b506020813d602011610add575b81610acb60209383610bf0565b8101031261017d576102b19051610a81565b3d9150610abe565b6040513d5f823e3d90fd5b805180835260209291819084018484015e5f828201840152601f01601f1916010190565b600435906001600160a01b038216820361017d57565b602435906001600160a01b038216820361017d57565b3461017d575f36600319011261017d57602060405160018152f35b90602082528051916002831015610ba757610ba49260208201526040610b8f60208401516060838501526080840190610af0565b920151906060601f1982850301910152610af0565b90565b634e487b7160e01b5f52602160045260245ffd5b602060031982011261017d576004359067ffffffffffffffff821161017d5761010090829003600319011261017d5760040190565b90601f8019910116810190811067ffffffffffffffff821117610c1257604052565b634e487b7160e01b5f52604160045260245ffd5b15610c2e5750565b60405162461bcd60e51b815260206004820152908190610c52906024830190610af0565b0390fd5b610c5f90610cf5565b600380546001600160a01b0319166001600160a01b039290921691821790557fac431eb831269b53b41991f6cbfbfc93f4baa395996a8170abac93962b5a358e5f80a2565b610cc360018060a01b0360035416331460405190610258604083610bf0565b565b604051906060820182811067ffffffffffffffff821117610c125760405260606040835f81528260208201520152565b60ff60015460a01c16610d2057610d0b90610d5b565b6001805460ff60a01b1916600160a01b179055565b60405162461bcd60e51b8152602060048201526013602482015272105b1c9958591e481a5b9a5d1a585b1a5e9959606a1b6044820152606490fd5b60018060a01b0316806001600160601b0360a01b5f5416175f556001600160601b0360a01b600154166001557f038720101b9ced74445432ced46c7e5e4c80202669153dd67d226c66a0aa477b5f80a256fea264697066735822122084be9a13dc505d1156475c5b34176dfeca97822d365d08510a550e5f92ddb28464736f6c634300081a0033","linkReferences":{}},"methodIdentifiers":{"NAME()":"a3f4df7e","TYPE()":"bb24fe8a","VERSION()":"ffa1ad74","_NAME()":"08dbebf6","acceptOwner()":"ebbc4965","account()":"5dab2420","caller()":"fc9c8d39","flag()":"890eba68","initialize(address)":"c4d66de8","initialize(address,address)":"485cc955","initialize(address,address,address)":"c0c53b8b","maxValue()":"94a5c2e4","minValue()":"963e63c7","owner()":"8da5cb5b","paused()":"5c975abb","pendingOwner()":"e30c3978","postExecCheck((address,address,uint256,address,uint256,bytes,bytes,bytes),(bool,bytes,bytes),(uint8,string,bytes))":"9d5228e8","postExecProcess((address,address,uint256,address,uint256,bytes,bytes,bytes),(bool,bytes,bytes))":"7c4c833b","preExecCheck((address,address,uint256,address,uint256,bytes,bytes,bytes))":"f2660027","preExecProcess((address,address,uint256,address,uint256,bytes,bytes,bytes))":"d58c3fc3","renounceOwnership()":"715018a6","setAccount(address)":"29f6d57c","setCaller(address)":"beb92f55","setPaused(bool)":"16c38b3c","setPendingOwner(address)":"c42069ec","setTag(bytes32)":"b695e2ef","tag()":"51f91066","transferOwnership(address)":"f2fde38b"},"id":92}