{"abi":[{"type":"constructor","inputs":[{"name":"_owner","type":"address","internalType":"address"},{"name":"_caller","type":"address","internalType":"address"}],"stateMutability":"nonpayable"},{"type":"fallback","stateMutability":"nonpayable"},{"type":"function","name":"APPROVELISTMANAGER","inputs":[],"outputs":[{"name":"","type":"bytes32","internalType":"bytes32"}],"stateMutability":"view"},{"type":"function","name":"NAME","inputs":[],"outputs":[{"name":"","type":"bytes32","internalType":"bytes32"}],"stateMutability":"view"},{"type":"function","name":"TYPE","inputs":[],"outputs":[{"name":"","type":"bytes32","internalType":"bytes32"}],"stateMutability":"view"},{"type":"function","name":"VERSION","inputs":[],"outputs":[{"name":"","type":"uint256","internalType":"uint256"}],"stateMutability":"view"},{"type":"function","name":"_NAME","inputs":[],"outputs":[{"name":"","type":"string","internalType":"string"}],"stateMutability":"view"},{"type":"function","name":"acceptOwner","inputs":[],"outputs":[],"stateMutability":"nonpayable"},{"type":"function","name":"account","inputs":[],"outputs":[{"name":"","type":"address","internalType":"address"}],"stateMutability":"view"},{"type":"function","name":"addContracts","inputs":[{"name":"_contracts","type":"address[]","internalType":"address[]"}],"outputs":[],"stateMutability":"nonpayable"},{"type":"function","name":"addSpenders","inputs":[{"name":"_contracts","type":"address[]","internalType":"address[]"}],"outputs":[],"stateMutability":"nonpayable"},{"type":"function","name":"addToContracts","inputs":[{"name":"_contract","type":"address","internalType":"address"}],"outputs":[],"stateMutability":"nonpayable"},{"type":"function","name":"addToSpenders","inputs":[{"name":"_contract","type":"address","internalType":"address"}],"outputs":[],"stateMutability":"nonpayable"},{"type":"function","name":"approve","inputs":[{"name":"spender","type":"address","internalType":"address"},{"name":"value","type":"uint256","internalType":"uint256"}],"outputs":[],"stateMutability":"view"},{"type":"function","name":"approveListManager","inputs":[],"outputs":[{"name":"","type":"address","internalType":"address"}],"stateMutability":"view"},{"type":"function","name":"caller","inputs":[],"outputs":[{"name":"","type":"address","internalType":"address"}],"stateMutability":"view"},{"type":"function","name":"containContract","inputs":[{"name":"_contract","type":"address","internalType":"address"}],"outputs":[{"name":"","type":"address","internalType":"address"}],"stateMutability":"view"},{"type":"function","name":"contracts","inputs":[],"outputs":[{"name":"_contracts","type":"address[]","internalType":"address[]"}],"stateMutability":"view"},{"type":"function","name":"flag","inputs":[],"outputs":[{"name":"","type":"uint256","internalType":"uint256"}],"stateMutability":"view"},{"type":"function","name":"getContractsSet","inputs":[],"outputs":[{"name":"","type":"address[]","internalType":"address[]"}],"stateMutability":"view"},{"type":"function","name":"getSpendersSet","inputs":[],"outputs":[{"name":"","type":"address[]","internalType":"address[]"}],"stateMutability":"view"},{"type":"function","name":"initialize","inputs":[{"name":"_owner","type":"address","internalType":"address"},{"name":"_caller","type":"address","internalType":"address"}],"outputs":[],"stateMutability":"nonpayable"},{"type":"function","name":"initialize","inputs":[{"name":"_owner","type":"address","internalType":"address"},{"name":"_caller","type":"address","internalType":"address"},{"name":"_account","type":"address","internalType":"address"}],"outputs":[],"stateMutability":"nonpayable"},{"type":"function","name":"initialize","inputs":[{"name":"_owner","type":"address","internalType":"address"}],"outputs":[],"stateMutability":"nonpayable"},{"type":"function","name":"owner","inputs":[],"outputs":[{"name":"","type":"address","internalType":"address"}],"stateMutability":"view"},{"type":"function","name":"paused","inputs":[],"outputs":[{"name":"","type":"bool","internalType":"bool"}],"stateMutability":"view"},{"type":"function","name":"pendingOwner","inputs":[],"outputs":[{"name":"","type":"address","internalType":"address"}],"stateMutability":"view"},{"type":"function","name":"postExecCheck","inputs":[{"name":"transaction","type":"tuple","internalType":"struct TransactionData","components":[{"name":"from","type":"address","internalType":"address"},{"name":"delegate","type":"address","internalType":"address"},{"name":"flag","type":"uint256","internalType":"uint256"},{"name":"to","type":"address","internalType":"address"},{"name":"value","type":"uint256","internalType":"uint256"},{"name":"data","type":"bytes","internalType":"bytes"},{"name":"hint","type":"bytes","internalType":"bytes"},{"name":"extra","type":"bytes","internalType":"bytes"}]},{"name":"callResult","type":"tuple","internalType":"struct TransactionResult","components":[{"name":"success","type":"bool","internalType":"bool"},{"name":"data","type":"bytes","internalType":"bytes"},{"name":"hint","type":"bytes","internalType":"bytes"}]},{"name":"preData","type":"tuple","internalType":"struct AuthorizerReturnData","components":[{"name":"result","type":"uint8","internalType":"enum AuthResult"},{"name":"message","type":"string","internalType":"string"},{"name":"data","type":"bytes","internalType":"bytes"}]}],"outputs":[{"name":"authData","type":"tuple","internalType":"struct AuthorizerReturnData","components":[{"name":"result","type":"uint8","internalType":"enum AuthResult"},{"name":"message","type":"string","internalType":"string"},{"name":"data","type":"bytes","internalType":"bytes"}]}],"stateMutability":"nonpayable"},{"type":"function","name":"postExecProcess","inputs":[{"name":"transaction","type":"tuple","internalType":"struct TransactionData","components":[{"name":"from","type":"address","internalType":"address"},{"name":"delegate","type":"address","internalType":"address"},{"name":"flag","type":"uint256","internalType":"uint256"},{"name":"to","type":"address","internalType":"address"},{"name":"value","type":"uint256","internalType":"uint256"},{"name":"data","type":"bytes","internalType":"bytes"},{"name":"hint","type":"bytes","internalType":"bytes"},{"name":"extra","type":"bytes","internalType":"bytes"}]},{"name":"callResult","type":"tuple","internalType":"struct TransactionResult","components":[{"name":"success","type":"bool","internalType":"bool"},{"name":"data","type":"bytes","internalType":"bytes"},{"name":"hint","type":"bytes","internalType":"bytes"}]}],"outputs":[],"stateMutability":"nonpayable"},{"type":"function","name":"preExecCheck","inputs":[{"name":"transaction","type":"tuple","internalType":"struct TransactionData","components":[{"name":"from","type":"address","internalType":"address"},{"name":"delegate","type":"address","internalType":"address"},{"name":"flag","type":"uint256","internalType":"uint256"},{"name":"to","type":"address","internalType":"address"},{"name":"value","type":"uint256","internalType":"uint256"},{"name":"data","type":"bytes","internalType":"bytes"},{"name":"hint","type":"bytes","internalType":"bytes"},{"name":"extra","type":"bytes","internalType":"bytes"}]}],"outputs":[{"name":"authData","type":"tuple","internalType":"struct AuthorizerReturnData","components":[{"name":"result","type":"uint8","internalType":"enum AuthResult"},{"name":"message","type":"string","internalType":"string"},{"name":"data","type":"bytes","internalType":"bytes"}]}],"stateMutability":"nonpayable"},{"type":"function","name":"preExecProcess","inputs":[{"name":"transaction","type":"tuple","internalType":"struct TransactionData","components":[{"name":"from","type":"address","internalType":"address"},{"name":"delegate","type":"address","internalType":"address"},{"name":"flag","type":"uint256","internalType":"uint256"},{"name":"to","type":"address","internalType":"address"},{"name":"value","type":"uint256","internalType":"uint256"},{"name":"data","type":"bytes","internalType":"bytes"},{"name":"hint","type":"bytes","internalType":"bytes"},{"name":"extra","type":"bytes","internalType":"bytes"}]}],"outputs":[],"stateMutability":"nonpayable"},{"type":"function","name":"removeContracts","inputs":[{"name":"_contracts","type":"address[]","internalType":"address[]"}],"outputs":[],"stateMutability":"nonpayable"},{"type":"function","name":"removeFromContracts","inputs":[{"name":"_contract","type":"address","internalType":"address"}],"outputs":[],"stateMutability":"nonpayable"},{"type":"function","name":"removeFromSpenders","inputs":[{"name":"_contract","type":"address","internalType":"address"}],"outputs":[],"stateMutability":"nonpayable"},{"type":"function","name":"removeSpenders","inputs":[{"name":"_contracts","type":"address[]","internalType":"address[]"}],"outputs":[],"stateMutability":"nonpayable"},{"type":"function","name":"renounceOwnership","inputs":[],"outputs":[],"stateMutability":"nonpayable"},{"type":"function","name":"replaceApproveListManager","inputs":[{"name":"_newApproveListManager","type":"address","internalType":"address"}],"outputs":[],"stateMutability":"nonpayable"},{"type":"function","name":"setAccount","inputs":[{"name":"_account","type":"address","internalType":"address"}],"outputs":[],"stateMutability":"nonpayable"},{"type":"function","name":"setApproveListManager","inputs":[{"name":"_approveListManager","type":"address","internalType":"address"}],"outputs":[],"stateMutability":"nonpayable"},{"type":"function","name":"setCaller","inputs":[{"name":"_caller","type":"address","internalType":"address"}],"outputs":[],"stateMutability":"nonpayable"},{"type":"function","name":"setPaused","inputs":[{"name":"_paused","type":"bool","internalType":"bool"}],"outputs":[],"stateMutability":"nonpayable"},{"type":"function","name":"setPendingOwner","inputs":[{"name":"to","type":"address","internalType":"address"}],"outputs":[],"stateMutability":"nonpayable"},{"type":"function","name":"setTag","inputs":[{"name":"_tag","type":"bytes32","internalType":"bytes32"}],"outputs":[],"stateMutability":"nonpayable"},{"type":"function","name":"tag","inputs":[],"outputs":[{"name":"","type":"bytes32","internalType":"bytes32"}],"stateMutability":"view"},{"type":"function","name":"transferOwnership","inputs":[{"name":"newOwner","type":"address","internalType":"address"}],"outputs":[],"stateMutability":"nonpayable"},{"type":"event","name":"AccountSet","inputs":[{"name":"account","type":"address","indexed":true,"internalType":"address"}],"anonymous":false},{"type":"event","name":"CallerSet","inputs":[{"name":"caller","type":"address","indexed":true,"internalType":"address"}],"anonymous":false},{"type":"event","name":"ContractAdded","inputs":[{"name":"_address","type":"address","indexed":true,"internalType":"address"}],"anonymous":false},{"type":"event","name":"ContractRemoved","inputs":[{"name":"_address","type":"address","indexed":true,"internalType":"address"}],"anonymous":false},{"type":"event","name":"NewOwnerSet","inputs":[{"name":"owner","type":"address","indexed":true,"internalType":"address"}],"anonymous":false},{"type":"event","name":"PausedSet","inputs":[{"name":"status","type":"bool","indexed":true,"internalType":"bool"}],"anonymous":false},{"type":"event","name":"PendingOwnerSet","inputs":[{"name":"to","type":"address","indexed":true,"internalType":"address"}],"anonymous":false},{"type":"event","name":"SpenderAdded","inputs":[{"name":"_address","type":"address","indexed":true,"internalType":"address"}],"anonymous":false},{"type":"event","name":"SpenderRemoved","inputs":[{"name":"_address","type":"address","indexed":true,"internalType":"address"}],"anonymous":false},{"type":"event","name":"TagSet","inputs":[{"name":"tag","type":"bytes32","indexed":true,"internalType":"bytes32"}],"anonymous":false}],"bytecode":{"object":"0x6080346100de57601f611e5738819003918201601f19168301916001600160401b038311848410176100e25780849260409485528339810103126100de57610052602061004b836100f6565b92016100f6565b6001545f80546001600160a01b0319166001600160a01b03909416938417815560405193907f038720101b9ced74445432ced46c7e5e4c80202669153dd67d226c66a0aa477b9080a26001600160b01b031916600160a01b176001555f600255600380546001600160a01b0319166001600160a01b0392909216919091179055611d4c908161010b8239f35b5f80fd5b634e487b7160e01b5f52604160045260245ffd5b51906001600160a01b03821682036100de5756fe60806040526004361015610019575b34156114ab575b5f80fd5b5f3560e01c806304ae97ed146102be57806308dbebf6146102b9578063095ea7b3146102b457806314cd58f9146102af57806316c38b3c146102aa57806329f6d57c146102a55780632fcc1c34146102a057806333c415231461029b578063485cc9551461029657806351f91066146102915780635c975abb1461028c5780635dab24201461028757806361ffab02146102285780636c0f79b61461022d578063715018a614610282578063727b64851461027d5780637ac9b27d146102785780637c4c833b14610273578063890eba681461026e5780638da5cb5b146102695780639d5228e814610264578063a3f4df7e1461025f578063a9dcedb01461025a578063b695e2ef14610255578063bb24fe8a14610250578063beb92f551461024b578063c0c53b8b14610246578063c224a47914610241578063c42069ec1461023c578063c4d66de814610237578063d58c3fc314610232578063d9f091251461022d578063dae5068514610228578063dae5184814610223578063e28ffa6b1461021e578063e30c397814610219578063ea86abc314610214578063ebbc49651461020f578063f21a83fe1461020a578063f266002714610205578063f2fde38b14610200578063fc9c8d39146101fb5763ffa1ad740361000e576111bc565b611194565b61110f565b61109c565b611046565b611019565b610fd8565b610fb0565b610f27565b610e9e565b610832565b6108ca565b610e90565b610e41565b610dc8565b610d8f565b610d11565b610c60565b610c38565b610be2565b610ba1565b610b70565b610adf565b610a5b565b610a40565b6109e7565b6109a2565b610961565b6108f1565b61080a565b6107e5565b6107c8565b610796565b61070d565b6106dd565b61062b565b6105af565b610526565b61040a565b61035c565b6102e1565b6001600160a01b0381160361001557565b35906102df826102c3565b565b34610015576020366003190112610015576004356102fe816102c3565b6005546001600160a01b0316330361001557610322906001600160a01b03166117b7565b005b805180835260209291819084018484015e5f828201840152601f01601f1916010190565b906020610359928181520190610324565b90565b34610015575f366003190112610015576040516351fa6fbf60e11b8152602081600481305afa9081156103ff575f916103cb575b6103c76103ad6103bb846040519283916020830160209181520190565b03601f1981018352826111f2565b60405191829182610348565b0390f35b90506020813d6020116103f7575b816103e6602093836111f2565b8101031261001557516103ad610390565b3d91506103d9565b6040513d5f823e3d90fd5b3461001557604036600319011261001557600435610427816102c3565b61042f6114eb565b506104386114eb565b50601f1936013681116104c05735368111610015576104af6104a3610322936104a361049e61048260606104748861049e9936038101906118c2565b01516001600160a01b031690565b6001600160a01b03165f90815260076020526040902054151590565b6111d7565b6001600160a01b031690565b5f52600960205260405f2054151590565b634e487b7160e01b5f52601160045260245ffd5b906020600319830112610015576004356001600160401b0381116100155782602382011215610015578060040135926001600160401b0384116100155760248460051b83010111610015576024019190565b3461001557610534366104d4565b6005546001600160a01b03163303610015575f5b81811061055157005b8061055f600192848661122c565b35610569816102c3565b828060a01b031661057981611820565b610585575b5001610548565b7f89c66952b48f3e96bf1d8ba1b63189520fd988a6979b8b740bd5c5d8dc53e2055f80a25f61057e565b3461001557602036600319011261001557600435801515809103610015575f546105ec906001600160a01b03166105e461126c565b90331461128d565b6001805460ff60a81b191660a883901b60ff60a81b161790557f40db37ff5c0bdc2c427fbb2078c8f24afea940abac0e3c23bb4ea3bf2da2b2125f80a2005b3461001557602036600319011261001557600435610648816102c3565b5f5461065f906001600160a01b03166105e461126c565b6001600160a01b031680156106a657600480546001600160a01b031916821790557f195359283029fbdb9a24519b1ec07caf1677655529bf99dc1634c1e8b28811805f80a2005b60405162461bcd60e51b815260206004820152600f60248201526e125b9d985b1a59081858d8dbdd5b9d608a1b6044820152606490fd5b34610015575f366003190112610015576040517120b8383937bb32a634b9ba26b0b730b3b2b960711b8152602090f35b346100155761071b366104d4565b6005546001600160a01b03163303610015575f5b81811061073857005b80610746600192848661122c565b35610750816102c3565b828060a01b0316610760816117b7565b61076c575b500161072f565b7f3139419c41cdd7abca84fa19dd21118cd285d3e2ce1a9444e8161ce9fa62fdcd5f80a25f610765565b34610015576040366003190112610015576103226004356107b6816102c3565b602435906107c3826102c3565b6112bd565b34610015575f366003190112610015576020600254604051908152f35b34610015575f36600319011261001557602060ff60015460a81c166040519015158152f35b34610015575f366003190112610015576004546040516001600160a01b039091168152602090f35b346100155760203660031901126100155760043561084f816102c3565b5f54610866906001600160a01b03166105e461126c565b600580546001600160a01b0319166001600160a01b0392909216919091179055005b60206040818301928281528451809452019201905f5b8181106108ab5750505090565b82516001600160a01b031684526020938401939092019160010161089e565b34610015575f366003190112610015576103c76108e56119a0565b60405191829182610888565b34610015575f366003190112610015575f54610918906001600160a01b03166105e461126c565b6001600160601b0360a01b5f54165f556001600160601b0360a01b600154166001555f7f038720101b9ced74445432ced46c7e5e4c80202669153dd67d226c66a0aa477b8180a2005b346100155760203660031901126100155760043561097e816102c3565b6005546001600160a01b0316330361001557610322906001600160a01b0316611a23565b34610015575f366003190112610015576005546040516001600160a01b039091168152602090f35b90816101009103126100155790565b908160609103126100155790565b34610015576040366003190112610015576004356001600160401b03811161001557610a179036906004016109ca565b506024356001600160401b03811161001557610a379036906004016109d9565b5061032261132c565b34610015575f36600319011261001557602060405160018152f35b34610015575f366003190112610015575f546040516001600160a01b039091168152602090f35b90602082528051916002831015610acb576103599260208201526040610ab660208401516060838501526080840190610324565b920151906060601f1982850301910152610324565b634e487b7160e01b5f52602160045260245ffd5b34610015576060366003190112610015576004356001600160401b03811161001557610b0f9036906004016109ca565b6024356001600160401b03811161001557610b2e9036906004016109d9565b90604435906001600160401b038211610015576103c792610b56610b649336906004016109d9565b91610b5f611344565b611373565b60405191829182610a82565b34610015575f366003190112610015576040517220b8383937bb32a0baba3437b934bd32b92b1960691b8152602090f35b3461001557602036600319011261001557600435610bbe816102c3565b6005546001600160a01b0316330361001557610322906001600160a01b0316611ac1565b34610015576020366003190112610015575f5460043590610c0e906001600160a01b03166105e461126c565b806002557fef711e3eb06966d227e22eb4fa0302550dcd7257cf69b537cf4d37af53ea9cda5f80a2005b34610015575f3660031901126100155760405169436f6d6d6f6e5479706560b01b8152602090f35b3461001557602036600319011261001557600435610c7d816102c3565b5f54610c94906001600160a01b03166105e461126c565b6001600160a01b03168015610cdb57600380546001600160a01b031916821790557fac431eb831269b53b41991f6cbfbfc93f4baa395996a8170abac93962b5a358e5f80a2005b60405162461bcd60e51b815260206004820152600e60248201526d24b73b30b634b21031b0b63632b960911b6044820152606490fd5b3461001557606036600319011261001557600435610d2e816102c3565b610d4a602435610d3d816102c3565b604435926107c3846102c3565b600480546001600160a01b0319166001600160a01b039290921691821790557f195359283029fbdb9a24519b1ec07caf1677655529bf99dc1634c1e8b28811805f80a2005b34610015576020366003190112610015576020610db6600435610db1816102c3565b6113e1565b6040516001600160a01b039091168152f35b3461001557602036600319011261001557600435610de5816102c3565b5f54610dfc906001600160a01b03166105e461126c565b600180546001600160a01b0319166001600160a01b039290921691821790557f68f49b346b94582a8b5f9d10e3fe3365318fe8f191ff8dce7c59c6cad06b02f55f80a2005b3461001557602036600319011261001557610322600435610e61816102c3565b611445565b602060031982011261001557600435906001600160401b03821161001557610359916004016109ca565b3461001557610a3736610e66565b3461001557610eac366104d4565b6005546001600160a01b03163303610015575f5b818110610ec957005b80610ed7600192848661122c565b35610ee1816102c3565b828060a01b0316610ef181611ac1565b610efd575b5001610ec0565b7fab8cff50266d80b9c9d9703af934ca455b9218286bf4fcaa05653a564c499e4b5f80a25f610ef6565b3461001557610f35366104d4565b6005546001600160a01b03163303610015575f5b818110610f5257005b80610f60600192848661122c565b35610f6a816102c3565b828060a01b0316610f7a81611a23565b610f86575b5001610f49565b7f8d30d41865a0b811b9545d879520d2dde9f4cc49e4241f486ad9752bc904b5655f80a25f610f7f565b34610015575f366003190112610015576001546040516001600160a01b039091168152602090f35b3461001557602036600319011261001557600435610ff5816102c3565b6005546001600160a01b0316330361001557610322906001600160a01b0316611820565b34610015575f366003190112610015576001546001600160a01b0316338190036100155761032290611538565b34610015575f36600319011261001557604051600854808252602082019060085f5260205f20905f5b818110611086576103c7856108e5818703826111f2565b825484526020909301926001928301920161106f565b34610015576103c76110ad36610e66565b6110b5611344565b6110d360018060a01b036003541633146110cd61130b565b9061128d565b9060ff60015460a81c165f1461110057505f81526110ef6113c0565b602082015260405191829182610a82565b61110a91506115b9565b610b64565b346100155760203660031901126100155760043561112c816102c3565b5f54611143906001600160a01b03166105e461126c565b6001600160a01b0381161561115b5761032290611538565b60405162461bcd60e51b81526020600482015260116024820152704e6577204f776e6572206973207a65726f60781b6044820152606490fd5b34610015575f366003190112610015576003546040516001600160a01b039091168152602090f35b34610015575f36600319011261001557602060405160028152f35b1561001557565b634e487b7160e01b5f52604160045260245ffd5b90601f801991011681019081106001600160401b0382111761121357604052565b6111de565b634e487b7160e01b5f52603260045260245ffd5b919081101561123c5760051b0190565b611218565b604051906102df610100836111f2565b6001600160401b03811161121357601f01601f191660200190565b6040519061127b6040836111f2565b600382526245333560e81b6020830152565b156112955750565b60405162461bcd60e51b8152602060048201529081906112b9906024830190610324565b0390fd5b6112c690611445565b600380546001600160a01b0319166001600160a01b039290921691821790557fac431eb831269b53b41991f6cbfbfc93f4baa395996a8170abac93962b5a358e5f80a2565b6040519061131a6040836111f2565b600382526245323760e81b6020830152565b6102df60018060a01b036003541633146110cd61130b565b60405190606082018281106001600160401b038211176112135760405260606040835f81528260208201520152565b9250505061138f60018060a01b036003541633146110cd61130b565b60015460a81c60ff16156113b0575f81526113a86113c0565b602082015290565b506113b9611344565b6001815290565b604051906113cf6040836111f2565b6003825262229a1b60e91b6020830152565b6006545f9291835b8281106113f557505050565b6113fe8161176d565b905460039190911b1c6001600160a01b0390811690831614611422576001016113e9565b91505061143091925061176d565b905460039190911b1c6001600160a01b031690565b60ff60015460a01c166114705761145b90611538565b6001805460ff60a01b1916600160a01b179055565b60405162461bcd60e51b8152602060048201526013602482015272105b1c9958591e481a5b9a5d1a585b1a5e9959606a1b6044820152606490fd5b6112b96040516114bc6040826111f2565b600381526245343960e81b602082015260405191829162461bcd60e51b83526020600484018181520190610324565b6040519061010082018281106001600160401b0382111761121357604052606060e0835f81525f60208201525f60408201525f838201525f60808201528260a08201528260c08201520152565b60018060a01b0316806001600160601b0360a01b5f5416175f556001600160601b0360a01b600154166001557f038720101b9ced74445432ced46c7e5e4c80202669153dd67d226c66a0aa477b5f80a2565b3d156115b4573d9061159b82611251565b916115a960405193846111f2565b82523d5f602084013e565b606090565b6115c1611344565b6115ca82611b43565b1561174257505f8061172961172961172f610359956103ad6117016117146040519360208086015261160f60408601611602836102d4565b6001600160a01b03169052565b61162e61161e602083016102d4565b6001600160a01b03166060870152565b60408101356080860152611657611647606083016102d4565b6001600160a01b031660a0870152565b608081013560c086015260a08101906116de866116d06116b061169061167d8787611ba2565b61010060e0870152610140860191611bd3565b61169d60c0870187611ba2565b858303603f190161010087015290611bd3565b6116bd60e0860186611ba2565b848303603f190161012086015290611bd3565b03601f1981018852876111f2565b61170f6116eb8383611bf3565b9050604051958691602083019190602083019252565b03601f1981018652856111f2565b611bf3565b96909360405196879560208701998a91611c25565b90611c32565b5190305afa61173c61158a565b90611c65565b90505f81526040516117556040826111f2565b600381526245353560e81b6020820152602082015290565b60065481101561123c5760065f5260205f2001905f90565b805482101561123c575f5260205f2001905f90565b916117b39183549060031b91821b915f19901b19161790565b9055565b5f8181526009602052604090205461181b57600854600160401b811015611213576118046117ee8260018594016008556008611785565b819391549060031b91821b915f19901b19161790565b9055600854905f52600960205260405f2055600190565b505f90565b5f8181526007602052604090205461181b57600654600160401b811015611213576118576117ee8260018594016006556006611785565b9055600654905f52600760205260405f2055600190565b5f198101919082116104c057565b81601f820112156100155780359061189382611251565b926118a160405194856111f2565b8284526020838301011161001557815f926020809301838601378301015290565b602081830312610015578035906001600160401b038211610015570161010081830312610015576118f1611241565b916118fb826102d4565b8352611909602083016102d4565b602084015260408201356040840152611924606083016102d4565b60608401526080820135608084015260a08201356001600160401b038111610015578161195291840161187c565b60a084015260c08201356001600160401b038111610015578161197691840161187c565b60c084015260e08201356001600160401b03811161001557611998920161187c565b60e082015290565b60405190600654808352826020810160065f5260205f20925f5b8181106119cf5750506102df925003836111f2565b84548352600194850194879450602090930192016119ba565b80548015611a0f575f1901906119fe8282611785565b8154905f199060031b1b1916905555565b634e487b7160e01b5f52603160045260245ffd5b5f81815260076020526040902054908115611abb575f198201908282116104c0575f92611a7a92611a5560065461186e565b90818103611a80575b505050611a6b60066119e8565b6007905f5260205260405f2090565b55600190565b611a6b611aac91611aa2611a98611ab2956006611785565b90549060031b1c90565b9283916006611785565b9061179a565b555f8080611a5e565b50505f90565b5f81815260096020526040902054908115611abb575f198201908282116104c0575f92611a7a92611af360085461186e565b90818103611b18575b505050611b0960086119e8565b6009905f5260205260405f2090565b611b09611aac91611b30611a98611b3a956008611785565b9283916008611785565b555f8080611afc565b60600135611b50816102c3565b611b586119a0565b8051916001600160a01b0316905f5b83811015611b9a57600581901b8201602001516001600160a01b03168314611b9157600101611b67565b50505050600190565b505050505f90565b9035601e19823603018112156100155701602081359101916001600160401b03821161001557813603831361001557565b908060209392818452848401375f828201840152601f01601f1916010190565b903590601e198136030182121561001557018035906001600160401b0382116100155760200191813603831361001557565b908092918237015f815290565b805191908290602001825e015f815290565b60405190611c536040836111f2565b600382526245333960e81b6020830152565b9190611c6f611344565b9215611c8957611c839051156110cd611c44565b60018252565b60448151105f14611c9b576020830152565b6004810151810160248101919060209082900312610015576024810151906001600160401b03821161001557018160438201121561001557602481015190611ce282611251565b92611cf060405194856111f2565b8284526044828401011161001557815f926044602093018386015e83010152602083015256fea26469706673582212204531b1e546535eeeb6626a310059d2d3b4e1205e145b9edf280f4d013c58cd5264736f6c634300081a0033","linkReferences":{}},"methodIdentifiers":{"APPROVELISTMANAGER()":"2fcc1c34","NAME()":"a3f4df7e","TYPE()":"bb24fe8a","VERSION()":"ffa1ad74","_NAME()":"08dbebf6","acceptOwner()":"ebbc4965","account()":"5dab2420","addContracts(address[])":"14cd58f9","addSpenders(address[])":"33c41523","addToContracts(address)":"ea86abc3","addToSpenders(address)":"04ae97ed","approve(address,uint256)":"095ea7b3","approveListManager()":"7ac9b27d","caller()":"fc9c8d39","containContract(address)":"c224a479","contracts()":"6c0f79b6","flag()":"890eba68","getContractsSet()":"d9f09125","getSpendersSet()":"f21a83fe","initialize(address)":"c4d66de8","initialize(address,address)":"485cc955","initialize(address,address,address)":"c0c53b8b","owner()":"8da5cb5b","paused()":"5c975abb","pendingOwner()":"e30c3978","postExecCheck((address,address,uint256,address,uint256,bytes,bytes,bytes),(bool,bytes,bytes),(uint8,string,bytes))":"9d5228e8","postExecProcess((address,address,uint256,address,uint256,bytes,bytes,bytes),(bool,bytes,bytes))":"7c4c833b","preExecCheck((address,address,uint256,address,uint256,bytes,bytes,bytes))":"f2660027","preExecProcess((address,address,uint256,address,uint256,bytes,bytes,bytes))":"d58c3fc3","removeContracts(address[])":"e28ffa6b","removeFromContracts(address)":"727b6485","removeFromSpenders(address)":"a9dcedb0","removeSpenders(address[])":"dae51848","renounceOwnership()":"715018a6","replaceApproveListManager(address)":"61ffab02","setAccount(address)":"29f6d57c","setApproveListManager(address)":"dae50685","setCaller(address)":"beb92f55","setPaused(bool)":"16c38b3c","setPendingOwner(address)":"c42069ec","setTag(bytes32)":"b695e2ef","tag()":"51f91066","transferOwnership(address)":"f2fde38b"},"id":60}